{
  "_format": "hh-sol-artifact-1",
  "contractName": "BatchCallAndSponsor",
  "sourceName": "contracts/src/BatchCallAndSponsor.sol",
  "abi": [
    {
      "anonymous": false,
      "inputs": [
        {
          "indexed": true,
          "internalType": "uint256",
          "name": "nonce",
          "type": "uint256"
        },
        {
          "components": [
            {
              "internalType": "address",
              "name": "to",
              "type": "address"
            },
            {
              "internalType": "uint256",
              "name": "value",
              "type": "uint256"
            },
            {
              "internalType": "bytes",
              "name": "data",
              "type": "bytes"
            }
          ],
          "indexed": false,
          "internalType": "struct BatchCallAndSponsor.Call[]",
          "name": "calls",
          "type": "tuple[]"
        }
      ],
      "name": "BatchExecuted",
      "type": "event"
    },
    {
      "anonymous": false,
      "inputs": [
        {
          "indexed": true,
          "internalType": "address",
          "name": "sender",
          "type": "address"
        },
        {
          "indexed": true,
          "internalType": "address",
          "name": "to",
          "type": "address"
        },
        {
          "indexed": false,
          "internalType": "uint256",
          "name": "value",
          "type": "uint256"
        },
        {
          "indexed": false,
          "internalType": "bytes",
          "name": "data",
          "type": "bytes"
        }
      ],
      "name": "CallExecuted",
      "type": "event"
    },
    {
      "stateMutability": "payable",
      "type": "fallback"
    },
    {
      "inputs": [
        {
          "components": [
            {
              "internalType": "address",
              "name": "to",
              "type": "address"
            },
            {
              "internalType": "uint256",
              "name": "value",
              "type": "uint256"
            },
            {
              "internalType": "bytes",
              "name": "data",
              "type": "bytes"
            }
          ],
          "internalType": "struct BatchCallAndSponsor.Call[]",
          "name": "calls",
          "type": "tuple[]"
        }
      ],
      "name": "execute",
      "outputs": [],
      "stateMutability": "payable",
      "type": "function"
    },
    {
      "inputs": [],
      "name": "nonce",
      "outputs": [
        {
          "internalType": "uint256",
          "name": "",
          "type": "uint256"
        }
      ],
      "stateMutability": "view",
      "type": "function"
    },
    {
      "stateMutability": "payable",
      "type": "receive"
    }
  ],
  "bytecode": "0x6080604052348015600e575f80fd5b506105218061001c5f395ff3fe608060405260043610610029575f3560e01c80633f707e6b14610032578063affed0e01461004557005b3661003057005b005b610030610040366004610270565b61006b565b348015610050575f80fd5b506100595f5481565b60405190815260200160405180910390f35b3330146100b35760405162461bcd60e51b8152602060048201526011602482015270496e76616c696420617574686f7269747960781b60448201526064015b60405180910390fd5b6100bd82826100c1565b5050565b5f8054908190806100d1836102df565b91905055505f5b828110156101145761010c8484838181106100f5576100f5610303565b90506020028101906101079190610317565b610154565b6001016100d8565b50807f280bb3599696acbf79fb8ffcde81a57337b52500f789600fbb1cff9b4cbaba398484604051610147929190610378565b60405180910390a2505050565b5f6101626020830183610450565b6001600160a01b0316602083013561017d6040850185610470565b60405161018b9291906104ba565b5f6040518083038185875af1925050503d805f81146101c5576040519150601f19603f3d011682016040523d82523d5f602084013e6101ca565b606091505b505090508061020b5760405162461bcd60e51b815260206004820152600d60248201526c10d85b1b081c995d995c9d1959609a1b60448201526064016100aa565b6102186020830183610450565b6001600160a01b0316337fed7e8f919df9cc0d0ad8b4057d084ebf319b630564d5da283e14751adc931f3a60208501356102556040870187610470565b604051610264939291906104c9565b60405180910390a35050565b5f8060208385031215610281575f80fd5b823567ffffffffffffffff80821115610298575f80fd5b818501915085601f8301126102ab575f80fd5b8135818111156102b9575f80fd5b8660208260051b85010111156102cd575f80fd5b60209290920196919550909350505050565b5f600182016102fc57634e487b7160e01b5f52601160045260245ffd5b5060010190565b634e487b7160e01b5f52603260045260245ffd5b5f8235605e1983360301811261032b575f80fd5b9190910192915050565b80356001600160a01b038116811461034b575f80fd5b919050565b81835281816020850137505f828201602090810191909152601f909101601f19169091010190565b60208082528181018390525f906040808401600586901b8501820187855b8881101561044257878303603f190184528135368b9003605e190181126103bb575f80fd5b8a0160606001600160a01b036103d083610335565b168552878201358886015286820135601e198336030181126103f0575f80fd5b90910187810191903567ffffffffffffffff81111561040d575f80fd5b80360383131561041b575f80fd5b818887015261042d8287018285610350565b96890196955050509186019150600101610396565b509098975050505050505050565b5f60208284031215610460575f80fd5b61046982610335565b9392505050565b5f808335601e19843603018112610485575f80fd5b83018035915067ffffffffffffffff82111561049f575f80fd5b6020019150368190038213156104b3575f80fd5b9250929050565b818382375f9101908152919050565b838152604060208201525f6104e2604083018486610350565b9594505050505056fea26469706673582212207d423b75e54166216e3c781fc0de813f2c5395db1fb2a134ba250fb6673cab6c64736f6c63430008190033",
  "linkReferences": {},
  "deployedLinkReferences": {}
}