{
  "abi": [
    {
      "inputs": [
        {
          "internalType": "string",
          "name": "Cw721Address_",
          "type": "string"
        },
        {
          "internalType": "string",
          "name": "name_",
          "type": "string"
        },
        {
          "internalType": "string",
          "name": "symbol_",
          "type": "string"
        }
      ],
      "stateMutability": "nonpayable",
      "type": "constructor"
    },
    {
      "inputs": [
        {
          "internalType": "address",
          "name": "sender",
          "type": "address"
        },
        {
          "internalType": "uint256",
          "name": "tokenId",
          "type": "uint256"
        },
        {
          "internalType": "address",
          "name": "owner",
          "type": "address"
        }
      ],
      "name": "ERC721IncorrectOwner",
      "type": "error"
    },
    {
      "inputs": [
        {
          "internalType": "address",
          "name": "operator",
          "type": "address"
        },
        {
          "internalType": "uint256",
          "name": "tokenId",
          "type": "uint256"
        }
      ],
      "name": "ERC721InsufficientApproval",
      "type": "error"
    },
    {
      "inputs": [
        {
          "internalType": "address",
          "name": "approver",
          "type": "address"
        }
      ],
      "name": "ERC721InvalidApprover",
      "type": "error"
    },
    {
      "inputs": [
        {
          "internalType": "address",
          "name": "operator",
          "type": "address"
        }
      ],
      "name": "ERC721InvalidOperator",
      "type": "error"
    },
    {
      "inputs": [
        {
          "internalType": "address",
          "name": "owner",
          "type": "address"
        }
      ],
      "name": "ERC721InvalidOwner",
      "type": "error"
    },
    {
      "inputs": [
        {
          "internalType": "address",
          "name": "receiver",
          "type": "address"
        }
      ],
      "name": "ERC721InvalidReceiver",
      "type": "error"
    },
    {
      "inputs": [
        {
          "internalType": "address",
          "name": "sender",
          "type": "address"
        }
      ],
      "name": "ERC721InvalidSender",
      "type": "error"
    },
    {
      "inputs": [
        {
          "internalType": "uint256",
          "name": "tokenId",
          "type": "uint256"
        }
      ],
      "name": "ERC721NonexistentToken",
      "type": "error"
    },
    {
      "anonymous": false,
      "inputs": [
        {
          "indexed": true,
          "internalType": "address",
          "name": "owner",
          "type": "address"
        },
        {
          "indexed": true,
          "internalType": "address",
          "name": "approved",
          "type": "address"
        },
        {
          "indexed": true,
          "internalType": "uint256",
          "name": "tokenId",
          "type": "uint256"
        }
      ],
      "name": "Approval",
      "type": "event"
    },
    {
      "anonymous": false,
      "inputs": [
        {
          "indexed": true,
          "internalType": "address",
          "name": "owner",
          "type": "address"
        },
        {
          "indexed": true,
          "internalType": "address",
          "name": "operator",
          "type": "address"
        },
        {
          "indexed": false,
          "internalType": "bool",
          "name": "approved",
          "type": "bool"
        }
      ],
      "name": "ApprovalForAll",
      "type": "event"
    },
    {
      "anonymous": false,
      "inputs": [
        {
          "indexed": true,
          "internalType": "address",
          "name": "from",
          "type": "address"
        },
        {
          "indexed": true,
          "internalType": "address",
          "name": "to",
          "type": "address"
        },
        {
          "indexed": true,
          "internalType": "uint256",
          "name": "tokenId",
          "type": "uint256"
        }
      ],
      "name": "Transfer",
      "type": "event"
    },
    {
      "inputs": [],
      "name": "AddrPrecompile",
      "outputs": [
        {
          "internalType": "contract IAddr",
          "name": "",
          "type": "address"
        }
      ],
      "stateMutability": "view",
      "type": "function"
    },
    {
      "inputs": [],
      "name": "Cw721Address",
      "outputs": [
        {
          "internalType": "string",
          "name": "",
          "type": "string"
        }
      ],
      "stateMutability": "view",
      "type": "function"
    },
    {
      "inputs": [],
      "name": "JsonPrecompile",
      "outputs": [
        {
          "internalType": "contract IJson",
          "name": "",
          "type": "address"
        }
      ],
      "stateMutability": "view",
      "type": "function"
    },
    {
      "inputs": [],
      "name": "WasmdPrecompile",
      "outputs": [
        {
          "internalType": "contract IWasmd",
          "name": "",
          "type": "address"
        }
      ],
      "stateMutability": "view",
      "type": "function"
    },
    {
      "inputs": [
        {
          "internalType": "address",
          "name": "approved",
          "type": "address"
        },
        {
          "internalType": "uint256",
          "name": "tokenId",
          "type": "uint256"
        }
      ],
      "name": "approve",
      "outputs": [],
      "stateMutability": "nonpayable",
      "type": "function"
    },
    {
      "inputs": [
        {
          "internalType": "address",
          "name": "owner",
          "type": "address"
        }
      ],
      "name": "balanceOf",
      "outputs": [
        {
          "internalType": "uint256",
          "name": "",
          "type": "uint256"
        }
      ],
      "stateMutability": "view",
      "type": "function"
    },
    {
      "inputs": [
        {
          "internalType": "uint256",
          "name": "tokenId",
          "type": "uint256"
        }
      ],
      "name": "getApproved",
      "outputs": [
        {
          "internalType": "address",
          "name": "",
          "type": "address"
        }
      ],
      "stateMutability": "view",
      "type": "function"
    },
    {
      "inputs": [
        {
          "internalType": "address",
          "name": "owner",
          "type": "address"
        },
        {
          "internalType": "address",
          "name": "operator",
          "type": "address"
        }
      ],
      "name": "isApprovedForAll",
      "outputs": [
        {
          "internalType": "bool",
          "name": "",
          "type": "bool"
        }
      ],
      "stateMutability": "view",
      "type": "function"
    },
    {
      "inputs": [],
      "name": "name",
      "outputs": [
        {
          "internalType": "string",
          "name": "",
          "type": "string"
        }
      ],
      "stateMutability": "view",
      "type": "function"
    },
    {
      "inputs": [
        {
          "internalType": "uint256",
          "name": "tokenId",
          "type": "uint256"
        }
      ],
      "name": "ownerOf",
      "outputs": [
        {
          "internalType": "address",
          "name": "",
          "type": "address"
        }
      ],
      "stateMutability": "view",
      "type": "function"
    },
    {
      "inputs": [
        {
          "internalType": "address",
          "name": "from",
          "type": "address"
        },
        {
          "internalType": "address",
          "name": "to",
          "type": "address"
        },
        {
          "internalType": "uint256",
          "name": "tokenId",
          "type": "uint256"
        }
      ],
      "name": "safeTransferFrom",
      "outputs": [],
      "stateMutability": "nonpayable",
      "type": "function"
    },
    {
      "inputs": [
        {
          "internalType": "address",
          "name": "from",
          "type": "address"
        },
        {
          "internalType": "address",
          "name": "to",
          "type": "address"
        },
        {
          "internalType": "uint256",
          "name": "tokenId",
          "type": "uint256"
        },
        {
          "internalType": "bytes",
          "name": "data",
          "type": "bytes"
        }
      ],
      "name": "safeTransferFrom",
      "outputs": [],
      "stateMutability": "nonpayable",
      "type": "function"
    },
    {
      "inputs": [
        {
          "internalType": "address",
          "name": "operator",
          "type": "address"
        },
        {
          "internalType": "bool",
          "name": "approved",
          "type": "bool"
        }
      ],
      "name": "setApprovalForAll",
      "outputs": [],
      "stateMutability": "nonpayable",
      "type": "function"
    },
    {
      "inputs": [
        {
          "internalType": "bytes4",
          "name": "interfaceId",
          "type": "bytes4"
        }
      ],
      "name": "supportsInterface",
      "outputs": [
        {
          "internalType": "bool",
          "name": "",
          "type": "bool"
        }
      ],
      "stateMutability": "view",
      "type": "function"
    },
    {
      "inputs": [],
      "name": "symbol",
      "outputs": [
        {
          "internalType": "string",
          "name": "",
          "type": "string"
        }
      ],
      "stateMutability": "view",
      "type": "function"
    },
    {
      "inputs": [
        {
          "internalType": "uint256",
          "name": "tokenId",
          "type": "uint256"
        }
      ],
      "name": "tokenURI",
      "outputs": [
        {
          "internalType": "string",
          "name": "",
          "type": "string"
        }
      ],
      "stateMutability": "view",
      "type": "function"
    },
    {
      "inputs": [
        {
          "internalType": "address",
          "name": "from",
          "type": "address"
        },
        {
          "internalType": "address",
          "name": "to",
          "type": "address"
        },
        {
          "internalType": "uint256",
          "name": "tokenId",
          "type": "uint256"
        }
      ],
      "name": "transferFrom",
      "outputs": [],
      "stateMutability": "nonpayable",
      "type": "function"
    }
  ],
  "bytecode": {
    "object": "0x60806040523480156200001157600080fd5b50604051620022a4380380620022a4833981016040819052620000349162000166565b8181600062000044838262000288565b50600162000053828262000288565b5050600780546001600160a01b0319908116611002179091556008805482166110031790556009805490911661100417905550600662000094848262000288565b5050505062000354565b634e487b7160e01b600052604160045260246000fd5b600082601f830112620000c657600080fd5b81516001600160401b0380821115620000e357620000e36200009e565b604051601f8301601f19908116603f011681019082821181831017156200010e576200010e6200009e565b81604052838152602092508660208588010111156200012c57600080fd5b600091505b8382101562000150578582018301518183018401529082019062000131565b6000602085830101528094505050505092915050565b6000806000606084860312156200017c57600080fd5b83516001600160401b03808211156200019457600080fd5b620001a287838801620000b4565b94506020860151915080821115620001b957600080fd5b620001c787838801620000b4565b93506040860151915080821115620001de57600080fd5b50620001ed86828701620000b4565b9150509250925092565b600181811c908216806200020c57607f821691505b6020821081036200022d57634e487b7160e01b600052602260045260246000fd5b50919050565b601f82111562000283576000816000526020600020601f850160051c810160208610156200025e5750805b601f850160051c820191505b818110156200027f578281556001016200026a565b5050505b505050565b81516001600160401b03811115620002a457620002a46200009e565b620002bc81620002b58454620001f7565b8462000233565b602080601f831160018114620002f45760008415620002db5750858301515b600019600386901b1c1916600185901b1785556200027f565b600085815260208120601f198616915b82811015620003255788860151825594840194600190910190840162000304565b5085821015620003445787850151600019600388901b60f8161c191681555b5050505050600190811b01905550565b611f4080620003646000396000f3fe608060405234801561001057600080fd5b506004361061010b5760003560e01c806370a08231116100a2578063c2aed30211610071578063c2aed3021461021d578063c87b56dd14610230578063de4725cc14610243578063e985e9c514610256578063f00b02551461026957600080fd5b806370a08231146101ce57806395d89b41146101ef578063a22cb465146101f7578063b88d4fde1461020a57600080fd5b806323b872dd116100de57806323b872dd1461018d57806342842e0e146101a05780635c4aead7146101b35780636352211e146101bb57600080fd5b806301ffc9a71461011057806306fdde0314610138578063081812fc1461014d578063095ea7b314610178575b600080fd5b61012361011e3660046116e0565b61027c565b60405190151581526020015b60405180910390f35b6101406102ce565b60405161012f919061174d565b61016061015b366004611760565b610360565b6040516001600160a01b03909116815260200161012f565b61018b61018636600461178e565b610683565b005b61018b61019b3660046117ba565b6107be565b61018b6101ae3660046117ba565b610927565b610140610947565b6101606101c9366004611760565b6109d5565b6101e16101dc3660046117fb565b610bb1565b60405190815260200161012f565b610140610d6b565b61018b610205366004611818565b610d7a565b61018b6102183660046118c5565b610e99565b600954610160906001600160a01b031681565b61014061023e366004611760565b610eb6565b600854610160906001600160a01b031681565b610123610264366004611974565b610f2b565b600754610160906001600160a01b031681565b60006001600160e01b031982166380ac58cd60e01b14806102ad57506001600160e01b03198216635b5e139f60e01b145b806102c857506301ffc9a760e01b6001600160e01b03198316145b92915050565b6060600080546102dd906119a2565b80601f0160208091040260200160405190810160405280929190818152602001828054610309906119a2565b80156103565780601f1061032b57610100808354040283529160200191610356565b820191906000526020600020905b81548152906001019060200180831161033957829003601f168201915b5050505050905090565b604080518082018252600781526639b832b73232b960c91b60208201526009549151630c3c20ed60e01b81523360048201526000928392610406929091610401916001600160a01b0390911690630c3c20ed906024015b600060405180830381865afa1580156103d4573d6000803e3d6000fd5b505050506040513d6000823e601f3d908101601f191682016040526103fc9190810190611a0c565b611202565b611248565b9050600061043a604051806040016040528060088152602001671d1bdad95b97da5960c21b8152506104016103fc87611276565b9050600061049161048c60405180604001604052806008815260200167185c1c1c9bdd985b60c21b81525061040161048c8787604051806040016040528060018152602001600b60fa1b815250611309565b611355565b6007546040516306d81d2960e01b81529192506000916001600160a01b03909116906306d81d29906104ca906006908690600401611b01565b600060405180830381865afa1580156104e7573d6000803e3d6000fd5b505050506040513d6000823e601f3d908101601f1916820160405261050f9190810190611b4f565b6008546040516308d858e560e01b81529192506000916001600160a01b03909116906308d858e590610545908590600401611b84565b600060405180830381865afa158015610562573d6000803e3d6000fd5b505050506040513d6000823e601f3d908101601f1916820160405261058a9190810190611b4f565b6008546040516308d858e560e01b81529192506000916001600160a01b03909116906308d858e5906105c0908590600401611bc1565b600060405180830381865afa1580156105dd573d6000803e3d6000fd5b505050506040513d6000823e601f3d908101601f191682016040526106059190810190611b4f565b600954604051631778e53960e01b81529192506001600160a01b031690631778e5399061063690849060040161174d565b602060405180830381865afa158015610653573d6000803e3d6000fd5b505050506040513d601f19601f820116820180604052508101906106779190611bfd565b98975050505050505050565b604080518082018252600781526639b832b73232b960c91b60208201526009549151630c3c20ed60e01b81526001600160a01b0385811660048301526000936106dd93926104019290911690630c3c20ed906024016103b7565b90506000610711604051806040016040528060088152602001671d1bdad95b97da5960c21b8152506104016103fc86611276565b9050600061076261048c60405180604001604052806007815260200166617070726f766560c81b81525061040161048c8787604051806040016040528060018152602001600b60fa1b815250611309565b905061076d81611385565b5083856001600160a01b0316610782866109d5565b6001600160a01b03167f8c5be1e5ebec7d5bd14f71427d1e84f3dd0314c0f7b2291e5b200ac8c7c3b92560405160405180910390a45050505050565b6001600160a01b0382166107ed57604051633250574960e11b8152600060048201526024015b60405180910390fd5b6040805180820182526009808252681c9958da5c1a595b9d60ba1b6020830152549151630c3c20ed60e01b81526001600160a01b03858116600483015260009361084893926104019290911690630c3c20ed906024016103b7565b9050600061087c604051806040016040528060088152602001671d1bdad95b97da5960c21b8152506104016103fc86611276565b905060006108d261048c6040518060400160405280600c81526020016b1d1c985b9cd9995c97db999d60a21b81525061040161048c8787604051806040016040528060018152602001600b60fa1b815250611309565b90506108dd81611385565b5083856001600160a01b0316876001600160a01b03167fddf252ad1be2c89b69c2b068fc378daa952ba7f163c4a11628f55a4df523b3ef60405160405180910390a4505050505050565b61094283838360405180602001604052806000815250610e99565b505050565b60068054610954906119a2565b80601f0160208091040260200160405190810160405280929190818152602001828054610980906119a2565b80156109cd5780601f106109a2576101008083540402835291602001916109cd565b820191906000526020600020905b8154815290600101906020018083116109b057829003601f168201915b505050505081565b600080610a08604051806040016040528060088152602001671d1bdad95b97da5960c21b8152506104016103fc86611276565b90506000610a3c61048c6040518060400160405280600881526020016737bbb732b92fb7b360c11b81525061040185611355565b6007546040516306d81d2960e01b81529192506000916001600160a01b03909116906306d81d2990610a75906006908690600401611b01565b600060405180830381865afa158015610a92573d6000803e3d6000fd5b505050506040513d6000823e601f3d908101601f19168201604052610aba9190810190611b4f565b6008546040516308d858e560e01b81529192506000916001600160a01b03909116906308d858e590610af0908590600401611c1a565b600060405180830381865afa158015610b0d573d6000803e3d6000fd5b505050506040513d6000823e601f3d908101601f19168201604052610b359190810190611b4f565b600954604051631778e53960e01b81529192506001600160a01b031690631778e53990610b6690849060040161174d565b602060405180830381865afa158015610b83573d6000803e3d6000fd5b505050506040513d601f19601f82011682018060405250810190610ba79190611bfd565b9695505050505050565b60006001600160a01b038216610bdd576040516322718ad960e21b8152600060048201526024016107e4565b604080518082018252600581526437bbb732b960d91b60208201526009549151630c3c20ed60e01b81526001600160a01b038581166004830152600093610c3593926104019290911690630c3c20ed906024016103b7565b90506000610c6761048c60405180604001604052806006815260200165746f6b656e7360d01b81525061040185611355565b6007546040516306d81d2960e01b81529192506000916001600160a01b03909116906306d81d2990610ca0906006908690600401611b01565b600060405180830381865afa158015610cbd573d6000803e3d6000fd5b505050506040513d6000823e601f3d908101601f19168201604052610ce59190810190611b4f565b6008546040516387cdf62160e01b81529192506000916001600160a01b03909116906387cdf62190610d1b908590600401611c54565b600060405180830381865afa158015610d38573d6000803e3d6000fd5b505050506040513d6000823e601f3d908101601f19168201604052610d609190810190611c8f565b519695505050505050565b6060600180546102dd906119a2565b604080518082018252600881526737b832b930ba37b960c11b60208201526009549151630c3c20ed60e01b81526001600160a01b038581166004830152600093610dd89361048c939092610401921690630c3c20ed906024016103b7565b90508115610e1e57610e18610e1361048c6040518060400160405280600b81526020016a185c1c1c9bdd9957d85b1b60aa1b81525084611248565b611385565b50610e52565b610e50610e1361048c6040518060400160405280600a8152602001691c995d9bdad957d85b1b60b21b81525084611248565b505b60405182151581526001600160a01b0384169033907f17307eab39ab6107e8899845ad3d59bd9653f200f220920489ca2b5937696c319060200160405180910390a3505050565b610ea48484846107be565b610eb08484848461148d565b50505050565b6060610ec1826115b6565b506000610ed960408051602081019091526000815290565b90506000815111610ef95760405180602001604052806000815250610f24565b80610f0384611276565b604051602001610f14929190611d52565b6040516020818303038152906040525b9392505050565b604080518082018252600581526437bbb732b960d91b60208201526009549151630c3c20ed60e01b81526001600160a01b0385811660048301526000938493610f84939092610401921690630c3c20ed906024016103b7565b90506000610fbd61048c6040518060400160405280600d81526020016c616c6c5f6f70657261746f727360981b81525061040185611355565b6007546040516306d81d2960e01b81529192506000916001600160a01b03909116906306d81d2990610ff6906006908690600401611b01565b600060405180830381865afa158015611013573d6000803e3d6000fd5b505050506040513d6000823e601f3d908101601f1916820160405261103b9190810190611b4f565b6008546040516387cdf62160e01b81529192506000916001600160a01b03909116906387cdf62190611071908590600401611d81565b600060405180830381865afa15801561108e573d6000803e3d6000fd5b505050506040513d6000823e601f3d908101601f191682016040526110b69190810190611c8f565b905060005b81518110156111f45760085482516000916001600160a01b0316906308d858e5908590859081106110ee576110ee611dbf565b60200260200101516040518263ffffffff1660e01b81526004016111129190611bc1565b600060405180830381865afa15801561112f573d6000803e3d6000fd5b505050506040513d6000823e601f3d908101601f191682016040526111579190810190611b4f565b600954604051631778e53960e01b81529192506001600160a01b03808b1692911690631778e5399061118d90859060040161174d565b602060405180830381865afa1580156111aa573d6000803e3d6000fd5b505050506040513d601f19601f820116820180604052508101906111ce9190611bfd565b6001600160a01b0316036111eb57600196505050505050506102c8565b506001016110bb565b506000979650505050505050565b6060816040516020016112159190611dd5565b60408051601f198184030181529082905261123291602001611dfa565b6040516020818303038152906040529050919050565b6060610f2461125684611202565b83604051806040016040528060018152602001601d60f91b815250611309565b60606000611283836115ef565b600101905060008167ffffffffffffffff8111156112a3576112a3611856565b6040519080825280601f01601f1916602001820160405280156112cd576020820181803683370190505b5090508181016020015b600019016f181899199a1a9b1b9c1cb0b131b232b360811b600a86061a8153600a85049450846112d757509392505050565b606083828460405160200161131f929190611d52565b60408051601f198184030181529082905261133d9291602001611d52565b60405160208183030381529060405290509392505050565b6060816040516020016113689190611e24565b60408051601f198184030181529082905261123291602001611e49565b60606000806110026001600160a01b0316600685604051806040016040528060028152602001615b5d60f01b8152506040516024016113c693929190611e65565b60408051601f198184030181529181526020820180516001600160e01b031663226913d760e11b179052516113fb9190611e9e565b600060405180830381855af49150503d8060008114611436576040519150601f19603f3d011682016040523d82523d6000602084013e61143b565b606091505b509150915081610f245760405162461bcd60e51b815260206004820152601760248201527f436f736d5761736d2065786563757465206661696c656400000000000000000060448201526064016107e4565b6001600160a01b0383163b15610eb057604051630a85bd0160e11b81526001600160a01b0384169063150b7a02906114cf903390889087908790600401611eba565b6020604051808303816000875af192505050801561150a575060408051601f3d908101601f1916820190925261150791810190611eed565b60015b611573573d808015611538576040519150601f19603f3d011682016040523d82523d6000602084013e61153d565b606091505b50805160000361156b57604051633250574960e11b81526001600160a01b03851660048201526024016107e4565b805181602001fd5b6001600160e01b03198116630a85bd0160e11b146115af57604051633250574960e11b81526001600160a01b03851660048201526024016107e4565b5050505050565b6000818152600260205260408120546001600160a01b0316806102c857604051637e27328960e01b8152600481018490526024016107e4565b60008072184f03e93ff9f4daa797ed6e38ed64bf6a1f0160401b831061162e5772184f03e93ff9f4daa797ed6e38ed64bf6a1f0160401b830492506040015b6d04ee2d6d415b85acef8100000000831061165a576d04ee2d6d415b85acef8100000000830492506020015b662386f26fc10000831061167857662386f26fc10000830492506010015b6305f5e1008310611690576305f5e100830492506008015b61271083106116a457612710830492506004015b606483106116b6576064830492506002015b600a83106102c85760010192915050565b6001600160e01b0319811681146116dd57600080fd5b50565b6000602082840312156116f257600080fd5b8135610f24816116c7565b60005b83811015611718578181015183820152602001611700565b50506000910152565b600081518084526117398160208601602086016116fd565b601f01601f19169290920160200192915050565b602081526000610f246020830184611721565b60006020828403121561177257600080fd5b5035919050565b6001600160a01b03811681146116dd57600080fd5b600080604083850312156117a157600080fd5b82356117ac81611779565b946020939093013593505050565b6000806000606084860312156117cf57600080fd5b83356117da81611779565b925060208401356117ea81611779565b929592945050506040919091013590565b60006020828403121561180d57600080fd5b8135610f2481611779565b6000806040838503121561182b57600080fd5b823561183681611779565b91506020830135801515811461184b57600080fd5b809150509250929050565b634e487b7160e01b600052604160045260246000fd5b604051601f8201601f1916810167ffffffffffffffff8111828210171561189557611895611856565b604052919050565b600067ffffffffffffffff8211156118b7576118b7611856565b50601f01601f191660200190565b600080600080608085870312156118db57600080fd5b84356118e681611779565b935060208501356118f681611779565b925060408501359150606085013567ffffffffffffffff81111561191957600080fd5b8501601f8101871361192a57600080fd5b803561193d6119388261189d565b61186c565b81815288602083850101111561195257600080fd5b8160208401602083013760006020838301015280935050505092959194509250565b6000806040838503121561198757600080fd5b823561199281611779565b9150602083013561184b81611779565b600181811c908216806119b657607f821691505b6020821081036119d657634e487b7160e01b600052602260045260246000fd5b50919050565b60006119ea6119388461189d565b90508281528383830111156119fe57600080fd5b610f248360208301846116fd565b600060208284031215611a1e57600080fd5b815167ffffffffffffffff811115611a3557600080fd5b8201601f81018413611a4657600080fd5b611a55848251602084016119dc565b949350505050565b8054600090600181811c9080831680611a7757607f831692505b60208084108203611a9857634e487b7160e01b600052602260045260246000fd5b83885260208801828015611ab35760018114611ac957611af4565b60ff198716825285151560051b82019750611af4565b60008981526020902060005b87811015611aee57815484820152908601908401611ad5565b83019850505b5050505050505092915050565b604081526000611b146040830185611a5d565b8281036020840152611b268185611721565b95945050505050565b600082601f830112611b4057600080fd5b610f24838351602085016119dc565b600060208284031215611b6157600080fd5b815167ffffffffffffffff811115611b7857600080fd5b611a5584828501611b2f565b604081526000611b976040830184611721565b82810360208401526008815267185c1c1c9bdd985b60c21b60208201526040810191505092915050565b604081526000611bd46040830184611721565b8281036020840152600781526639b832b73232b960c91b60208201526040810191505092915050565b600060208284031215611c0f57600080fd5b8151610f2481611779565b604081526000611c2d6040830184611721565b8281036020840152600581526437bbb732b960d91b60208201526040810191505092915050565b604081526000611c676040830184611721565b82810360208401526006815265746f6b656e7360d01b60208201526040810191505092915050565b60006020808385031215611ca257600080fd5b825167ffffffffffffffff80821115611cba57600080fd5b818501915085601f830112611cce57600080fd5b815181811115611ce057611ce0611856565b8060051b611cef85820161186c565b9182528381018501918581019089841115611d0957600080fd5b86860192505b83831015611d4557825185811115611d275760008081fd5b611d358b89838a0101611b2f565b8352509186019190860190611d0f565b9998505050505050505050565b60008351611d648184602088016116fd565b835190830190611d788183602088016116fd565b01949350505050565b604081526000611d946040830184611721565b828103602084015260098152686f70657261746f727360b81b60208201526040810191505092915050565b634e487b7160e01b600052603260045260246000fd5b60008251611de78184602087016116fd565b601160f91b920191825250600101919050565b601160f91b81528151600090611e178160018501602087016116fd565b9190910160010192915050565b60008251611e368184602087016116fd565b607d60f81b920191825250600101919050565b607b60f81b815260008251611e178160018501602087016116fd565b606081526000611e786060830186611a5d565b8281036020840152611e8a8186611721565b90508281036040840152610ba78185611721565b60008251611eb08184602087016116fd565b9190910192915050565b6001600160a01b0385811682528416602082015260408101839052608060608201819052600090610ba790830184611721565b600060208284031215611eff57600080fd5b8151610f24816116c756fea2646970667358221220ae5d6a50417f9752546ee8fa6b9c59d02d848d86de91ae6f45fc5610b9887ce564736f6c63430008160033",
    "linkReferences": {}
  },
  "methodIdentifiers": {
    "AddrPrecompile()": "c2aed302",
    "Cw721Address()": "5c4aead7",
    "JsonPrecompile()": "de4725cc",
    "WasmdPrecompile()": "f00b0255",
    "approve(address,uint256)": "095ea7b3",
    "balanceOf(address)": "70a08231",
    "getApproved(uint256)": "081812fc",
    "isApprovedForAll(address,address)": "e985e9c5",
    "name()": "06fdde03",
    "ownerOf(uint256)": "6352211e",
    "safeTransferFrom(address,address,uint256)": "42842e0e",
    "safeTransferFrom(address,address,uint256,bytes)": "b88d4fde",
    "setApprovalForAll(address,bool)": "a22cb465",
    "supportsInterface(bytes4)": "01ffc9a7",
    "symbol()": "95d89b41",
    "tokenURI(uint256)": "c87b56dd",
    "transferFrom(address,address,uint256)": "23b872dd"
  },
  "id": 32
}