{
  "abi": [
    {
      "inputs": [
        {
          "internalType": "string",
          "name": "denom_",
          "type": "string"
        }
      ],
      "stateMutability": "nonpayable",
      "type": "constructor"
    },
    {
      "inputs": [
        {
          "internalType": "address",
          "name": "spender",
          "type": "address"
        },
        {
          "internalType": "uint256",
          "name": "allowance",
          "type": "uint256"
        },
        {
          "internalType": "uint256",
          "name": "needed",
          "type": "uint256"
        }
      ],
      "name": "ERC20InsufficientAllowance",
      "type": "error"
    },
    {
      "inputs": [
        {
          "internalType": "address",
          "name": "sender",
          "type": "address"
        },
        {
          "internalType": "uint256",
          "name": "balance",
          "type": "uint256"
        },
        {
          "internalType": "uint256",
          "name": "needed",
          "type": "uint256"
        }
      ],
      "name": "ERC20InsufficientBalance",
      "type": "error"
    },
    {
      "inputs": [
        {
          "internalType": "address",
          "name": "approver",
          "type": "address"
        }
      ],
      "name": "ERC20InvalidApprover",
      "type": "error"
    },
    {
      "inputs": [
        {
          "internalType": "address",
          "name": "receiver",
          "type": "address"
        }
      ],
      "name": "ERC20InvalidReceiver",
      "type": "error"
    },
    {
      "inputs": [
        {
          "internalType": "address",
          "name": "sender",
          "type": "address"
        }
      ],
      "name": "ERC20InvalidSender",
      "type": "error"
    },
    {
      "inputs": [
        {
          "internalType": "address",
          "name": "spender",
          "type": "address"
        }
      ],
      "name": "ERC20InvalidSpender",
      "type": "error"
    },
    {
      "anonymous": false,
      "inputs": [
        {
          "indexed": true,
          "internalType": "address",
          "name": "owner",
          "type": "address"
        },
        {
          "indexed": true,
          "internalType": "address",
          "name": "spender",
          "type": "address"
        },
        {
          "indexed": false,
          "internalType": "uint256",
          "name": "value",
          "type": "uint256"
        }
      ],
      "name": "Approval",
      "type": "event"
    },
    {
      "anonymous": false,
      "inputs": [
        {
          "indexed": true,
          "internalType": "address",
          "name": "from",
          "type": "address"
        },
        {
          "indexed": true,
          "internalType": "address",
          "name": "to",
          "type": "address"
        },
        {
          "indexed": false,
          "internalType": "uint256",
          "name": "value",
          "type": "uint256"
        }
      ],
      "name": "Transfer",
      "type": "event"
    },
    {
      "inputs": [],
      "name": "BankPrecompile",
      "outputs": [
        {
          "internalType": "contract IBank",
          "name": "",
          "type": "address"
        }
      ],
      "stateMutability": "view",
      "type": "function"
    },
    {
      "inputs": [
        {
          "internalType": "address",
          "name": "owner",
          "type": "address"
        },
        {
          "internalType": "address",
          "name": "spender",
          "type": "address"
        }
      ],
      "name": "allowance",
      "outputs": [
        {
          "internalType": "uint256",
          "name": "",
          "type": "uint256"
        }
      ],
      "stateMutability": "view",
      "type": "function"
    },
    {
      "inputs": [
        {
          "internalType": "address",
          "name": "spender",
          "type": "address"
        },
        {
          "internalType": "uint256",
          "name": "value",
          "type": "uint256"
        }
      ],
      "name": "approve",
      "outputs": [
        {
          "internalType": "bool",
          "name": "",
          "type": "bool"
        }
      ],
      "stateMutability": "nonpayable",
      "type": "function"
    },
    {
      "inputs": [
        {
          "internalType": "address",
          "name": "account",
          "type": "address"
        }
      ],
      "name": "balanceOf",
      "outputs": [
        {
          "internalType": "uint256",
          "name": "",
          "type": "uint256"
        }
      ],
      "stateMutability": "view",
      "type": "function"
    },
    {
      "inputs": [],
      "name": "decimals",
      "outputs": [
        {
          "internalType": "uint8",
          "name": "",
          "type": "uint8"
        }
      ],
      "stateMutability": "view",
      "type": "function"
    },
    {
      "inputs": [],
      "name": "denom",
      "outputs": [
        {
          "internalType": "string",
          "name": "",
          "type": "string"
        }
      ],
      "stateMutability": "view",
      "type": "function"
    },
    {
      "inputs": [],
      "name": "name",
      "outputs": [
        {
          "internalType": "string",
          "name": "",
          "type": "string"
        }
      ],
      "stateMutability": "view",
      "type": "function"
    },
    {
      "inputs": [],
      "name": "symbol",
      "outputs": [
        {
          "internalType": "string",
          "name": "",
          "type": "string"
        }
      ],
      "stateMutability": "view",
      "type": "function"
    },
    {
      "inputs": [],
      "name": "totalSupply",
      "outputs": [
        {
          "internalType": "uint256",
          "name": "",
          "type": "uint256"
        }
      ],
      "stateMutability": "view",
      "type": "function"
    },
    {
      "inputs": [
        {
          "internalType": "address",
          "name": "to",
          "type": "address"
        },
        {
          "internalType": "uint256",
          "name": "value",
          "type": "uint256"
        }
      ],
      "name": "transfer",
      "outputs": [
        {
          "internalType": "bool",
          "name": "",
          "type": "bool"
        }
      ],
      "stateMutability": "nonpayable",
      "type": "function"
    },
    {
      "inputs": [
        {
          "internalType": "address",
          "name": "from",
          "type": "address"
        },
        {
          "internalType": "address",
          "name": "to",
          "type": "address"
        },
        {
          "internalType": "uint256",
          "name": "value",
          "type": "uint256"
        }
      ],
      "name": "transferFrom",
      "outputs": [
        {
          "internalType": "bool",
          "name": "",
          "type": "bool"
        }
      ],
      "stateMutability": "nonpayable",
      "type": "function"
    }
  ],
  "bytecode": {
    "object": "0x60806040523480156200001157600080fd5b5060405162000e6a38038062000e6a8339810160408190526200003491620000b0565b6040805160208082018352600080835283519182019093529182529060036200005e838262000216565b5060046200006d828262000216565b5050600680546001600160a01b03191661100117905550600562000092828262000216565b5050620002e2565b634e487b7160e01b600052604160045260246000fd5b60006020808385031215620000c457600080fd5b82516001600160401b0380821115620000dc57600080fd5b818501915085601f830112620000f157600080fd5b8151818111156200010657620001066200009a565b604051601f8201601f19908116603f011681019083821181831017156200013157620001316200009a565b8160405282815288868487010111156200014a57600080fd5b600093505b828410156200016e57848401860151818501870152928501926200014f565b600086848301015280965050505050505092915050565b600181811c908216806200019a57607f821691505b602082108103620001bb57634e487b7160e01b600052602260045260246000fd5b50919050565b601f82111562000211576000816000526020600020601f850160051c81016020861015620001ec5750805b601f850160051c820191505b818110156200020d57828155600101620001f8565b5050505b505050565b81516001600160401b038111156200023257620002326200009a565b6200024a8162000243845462000185565b84620001c1565b602080601f831160018114620002825760008415620002695750858301515b600019600386901b1c1916600185901b1785556200020d565b600085815260208120601f198616915b82811015620002b35788860151825594840194600190910190840162000292565b5085821015620002d25787850151600019600388901b60f8161c191681555b5050505050600190811b01905550565b610b7880620002f26000396000f3fe608060405234801561001057600080fd5b50600436106100a95760003560e01c8063566732c111610071578063566732c11461013257806370a082311461015d57806395d89b4114610170578063a9059cbb14610178578063c370b0421461018b578063dd62ed3e1461019357600080fd5b806306fdde03146100ae578063095ea7b3146100cc57806318160ddd146100ef57806323b872dd14610105578063313ce56714610118575b600080fd5b6100b66101cc565b6040516100c391906107bd565b60405180910390f35b6100df6100da36600461080c565b610248565b60405190151581526020016100c3565b6100f7610260565b6040519081526020016100c3565b6100df610113366004610836565b6102d3565b6101206102f7565b60405160ff90911681526020016100c3565b600654610145906001600160a01b031681565b6040516001600160a01b0390911681526020016100c3565b6100f761016b366004610872565b61036a565b6100b66103e5565b6100df61018636600461080c565b610417565b6100b6610425565b6100f76101a1366004610894565b6001600160a01b03918216600090815260016020908152604080832093909416825291909152205490565b600654604051635b43bc9960e01b81526060916001600160a01b031690635b43bc99906101fe906005906004016109a5565b600060405180830381865afa15801561021b573d6000803e3d6000fd5b505050506040513d6000823e601f3d908101601f1916820160405261024391908101906109ce565b905090565b6000336102568185856104b3565b5060019392505050565b600654604051636923a1fd60e01b81526000916001600160a01b031690636923a1fd90610292906005906004016109a5565b602060405180830381865afa1580156102af573d6000803e3d6000fd5b505050506040513d601f19601f820116820180604052508101906102439190610a7b565b6000336102e18582856104c5565b6102ec858585610548565b506001949350505050565b600654604051630ecacc8160e21b81526000916001600160a01b031690633b2b320490610329906005906004016109a5565b602060405180830381865afa158015610346573d6000803e3d6000fd5b505050506040513d601f19601f820116820180604052508101906102439190610a94565b6006546040516316cadeab60e01b81526000916001600160a01b0316906316cadeab9061039e908590600590600401610ab7565b602060405180830381865afa1580156103bb573d6000803e3d6000fd5b505050506040513d601f19601f820116820180604052508101906103df9190610a7b565b92915050565b6006546040516341bb055960e01b81526060916001600160a01b0316906341bb0559906101fe906005906004016109a5565b600033610256818585610548565b60058054610432906108c7565b80601f016020809104026020016040519081016040528092919081815260200182805461045e906108c7565b80156104ab5780601f10610480576101008083540402835291602001916104ab565b820191906000526020600020905b81548152906001019060200180831161048e57829003601f168201915b505050505081565b6104c083838360016105a7565b505050565b6001600160a01b038381166000908152600160209081526040808320938616835292905220546000198114610542578181101561053357604051637dc7a0d960e11b81526001600160a01b038416600482015260248101829052604481018390526064015b60405180910390fd5b610542848484840360006105a7565b50505050565b6001600160a01b03831661057257604051634b637e8f60e11b81526000600482015260240161052a565b6001600160a01b03821661059c5760405163ec442f0560e01b81526000600482015260240161052a565b6104c083838361067c565b6001600160a01b0384166105d15760405163e602df0560e01b81526000600482015260240161052a565b6001600160a01b0383166105fb57604051634a1406b160e11b81526000600482015260240161052a565b6001600160a01b038085166000908152600160209081526040808320938716835292905220829055801561054257826001600160a01b0316846001600160a01b03167f8c5be1e5ebec7d5bd14f71427d1e84f3dd0314c0f7b2291e5b200ac8c7c3b9258460405161066e91815260200190565b60405180910390a350505050565b600654604051635c05961b60e01b81526000916001600160a01b031690635c05961b906106b490879087906005908890600401610ae3565b6020604051808303816000875af11580156106d3573d6000803e3d6000fd5b505050506040513d601f19601f820116820180604052508101906106f79190610b20565b9050806107545760405162461bcd60e51b815260206004820152602560248201527f4e6174697665536569546f6b656e7345524332303a207472616e736665722066604482015264185a5b195960da1b606482015260840161052a565b826001600160a01b0316846001600160a01b03167fddf252ad1be2c89b69c2b068fc378daa952ba7f163c4a11628f55a4df523b3ef8460405161066e91815260200190565b60005b838110156107b457818101518382015260200161079c565b50506000910152565b60208152600082518060208401526107dc816040850160208701610799565b601f01601f19169190910160400192915050565b80356001600160a01b038116811461080757600080fd5b919050565b6000806040838503121561081f57600080fd5b610828836107f0565b946020939093013593505050565b60008060006060848603121561084b57600080fd5b610854846107f0565b9250610862602085016107f0565b9150604084013590509250925092565b60006020828403121561088457600080fd5b61088d826107f0565b9392505050565b600080604083850312156108a757600080fd5b6108b0836107f0565b91506108be602084016107f0565b90509250929050565b600181811c908216806108db57607f821691505b6020821081036108fb57634e487b7160e01b600052602260045260246000fd5b50919050565b8054600090600181811c908083168061091b57607f831692505b6020808410820361093c57634e487b7160e01b600052602260045260246000fd5b83885260208801828015610957576001811461096d57610998565b60ff198716825285151560051b82019750610998565b60008981526020902060005b8781101561099257815484820152908601908401610979565b83019850505b5050505050505092915050565b60208152600061088d6020830184610901565b634e487b7160e01b600052604160045260246000fd5b6000602082840312156109e057600080fd5b815167ffffffffffffffff808211156109f857600080fd5b818401915084601f830112610a0c57600080fd5b815181811115610a1e57610a1e6109b8565b604051601f8201601f19908116603f01168101908382118183101715610a4657610a466109b8565b81604052828152876020848701011115610a5f57600080fd5b610a70836020830160208801610799565b979650505050505050565b600060208284031215610a8d57600080fd5b5051919050565b600060208284031215610aa657600080fd5b815160ff8116811461088d57600080fd5b6001600160a01b0383168152604060208201819052600090610adb90830184610901565b949350505050565b6001600160a01b03858116825284166020820152608060408201819052600090610b0f90830185610901565b905082606083015295945050505050565b600060208284031215610b3257600080fd5b8151801515811461088d57600080fdfea2646970667358221220637863f582777a8d3335af79464d87c49144d81c1cb6b526d9db6940c277391064736f6c63430008160033",
    "linkReferences": {}
  },
  "methodIdentifiers": {
    "BankPrecompile()": "566732c1",
    "allowance(address,address)": "dd62ed3e",
    "approve(address,uint256)": "095ea7b3",
    "balanceOf(address)": "70a08231",
    "decimals()": "313ce567",
    "denom()": "c370b042",
    "name()": "06fdde03",
    "symbol()": "95d89b41",
    "totalSupply()": "18160ddd",
    "transfer(address,uint256)": "a9059cbb",
    "transferFrom(address,address,uint256)": "23b872dd"
  },
  "id": 33
}