{
  "_format": "hh-sol-artifact-1",
  "contractName": "NativeSeiTokensERC20",
  "sourceName": "contracts/src/NativeSeiTokensERC20.sol",
  "abi": [
    {
      "inputs": [
        {
          "internalType": "string",
          "name": "denom_",
          "type": "string"
        },
        {
          "internalType": "string",
          "name": "name_",
          "type": "string"
        },
        {
          "internalType": "string",
          "name": "symbol_",
          "type": "string"
        },
        {
          "internalType": "uint8",
          "name": "decimals_",
          "type": "uint8"
        }
      ],
      "stateMutability": "nonpayable",
      "type": "constructor"
    },
    {
      "inputs": [
        {
          "internalType": "address",
          "name": "spender",
          "type": "address"
        },
        {
          "internalType": "uint256",
          "name": "allowance",
          "type": "uint256"
        },
        {
          "internalType": "uint256",
          "name": "needed",
          "type": "uint256"
        }
      ],
      "name": "ERC20InsufficientAllowance",
      "type": "error"
    },
    {
      "inputs": [
        {
          "internalType": "address",
          "name": "sender",
          "type": "address"
        },
        {
          "internalType": "uint256",
          "name": "balance",
          "type": "uint256"
        },
        {
          "internalType": "uint256",
          "name": "needed",
          "type": "uint256"
        }
      ],
      "name": "ERC20InsufficientBalance",
      "type": "error"
    },
    {
      "inputs": [
        {
          "internalType": "address",
          "name": "approver",
          "type": "address"
        }
      ],
      "name": "ERC20InvalidApprover",
      "type": "error"
    },
    {
      "inputs": [
        {
          "internalType": "address",
          "name": "receiver",
          "type": "address"
        }
      ],
      "name": "ERC20InvalidReceiver",
      "type": "error"
    },
    {
      "inputs": [
        {
          "internalType": "address",
          "name": "sender",
          "type": "address"
        }
      ],
      "name": "ERC20InvalidSender",
      "type": "error"
    },
    {
      "inputs": [
        {
          "internalType": "address",
          "name": "spender",
          "type": "address"
        }
      ],
      "name": "ERC20InvalidSpender",
      "type": "error"
    },
    {
      "anonymous": false,
      "inputs": [
        {
          "indexed": true,
          "internalType": "address",
          "name": "owner",
          "type": "address"
        },
        {
          "indexed": true,
          "internalType": "address",
          "name": "spender",
          "type": "address"
        },
        {
          "indexed": false,
          "internalType": "uint256",
          "name": "value",
          "type": "uint256"
        }
      ],
      "name": "Approval",
      "type": "event"
    },
    {
      "anonymous": false,
      "inputs": [
        {
          "indexed": true,
          "internalType": "address",
          "name": "from",
          "type": "address"
        },
        {
          "indexed": true,
          "internalType": "address",
          "name": "to",
          "type": "address"
        },
        {
          "indexed": false,
          "internalType": "uint256",
          "name": "value",
          "type": "uint256"
        }
      ],
      "name": "Transfer",
      "type": "event"
    },
    {
      "inputs": [],
      "name": "BankPrecompile",
      "outputs": [
        {
          "internalType": "contract IBank",
          "name": "",
          "type": "address"
        }
      ],
      "stateMutability": "view",
      "type": "function"
    },
    {
      "inputs": [
        {
          "internalType": "address",
          "name": "owner",
          "type": "address"
        },
        {
          "internalType": "address",
          "name": "spender",
          "type": "address"
        }
      ],
      "name": "allowance",
      "outputs": [
        {
          "internalType": "uint256",
          "name": "",
          "type": "uint256"
        }
      ],
      "stateMutability": "view",
      "type": "function"
    },
    {
      "inputs": [
        {
          "internalType": "address",
          "name": "spender",
          "type": "address"
        },
        {
          "internalType": "uint256",
          "name": "value",
          "type": "uint256"
        }
      ],
      "name": "approve",
      "outputs": [
        {
          "internalType": "bool",
          "name": "",
          "type": "bool"
        }
      ],
      "stateMutability": "nonpayable",
      "type": "function"
    },
    {
      "inputs": [
        {
          "internalType": "address",
          "name": "account",
          "type": "address"
        }
      ],
      "name": "balanceOf",
      "outputs": [
        {
          "internalType": "uint256",
          "name": "",
          "type": "uint256"
        }
      ],
      "stateMutability": "view",
      "type": "function"
    },
    {
      "inputs": [],
      "name": "ddecimals",
      "outputs": [
        {
          "internalType": "uint8",
          "name": "",
          "type": "uint8"
        }
      ],
      "stateMutability": "view",
      "type": "function"
    },
    {
      "inputs": [],
      "name": "decimals",
      "outputs": [
        {
          "internalType": "uint8",
          "name": "",
          "type": "uint8"
        }
      ],
      "stateMutability": "view",
      "type": "function"
    },
    {
      "inputs": [],
      "name": "denom",
      "outputs": [
        {
          "internalType": "string",
          "name": "",
          "type": "string"
        }
      ],
      "stateMutability": "view",
      "type": "function"
    },
    {
      "inputs": [],
      "name": "name",
      "outputs": [
        {
          "internalType": "string",
          "name": "",
          "type": "string"
        }
      ],
      "stateMutability": "view",
      "type": "function"
    },
    {
      "inputs": [],
      "name": "nname",
      "outputs": [
        {
          "internalType": "string",
          "name": "",
          "type": "string"
        }
      ],
      "stateMutability": "view",
      "type": "function"
    },
    {
      "inputs": [],
      "name": "ssymbol",
      "outputs": [
        {
          "internalType": "string",
          "name": "",
          "type": "string"
        }
      ],
      "stateMutability": "view",
      "type": "function"
    },
    {
      "inputs": [],
      "name": "symbol",
      "outputs": [
        {
          "internalType": "string",
          "name": "",
          "type": "string"
        }
      ],
      "stateMutability": "view",
      "type": "function"
    },
    {
      "inputs": [],
      "name": "totalSupply",
      "outputs": [
        {
          "internalType": "uint256",
          "name": "",
          "type": "uint256"
        }
      ],
      "stateMutability": "view",
      "type": "function"
    },
    {
      "inputs": [
        {
          "internalType": "address",
          "name": "to",
          "type": "address"
        },
        {
          "internalType": "uint256",
          "name": "value",
          "type": "uint256"
        }
      ],
      "name": "transfer",
      "outputs": [
        {
          "internalType": "bool",
          "name": "",
          "type": "bool"
        }
      ],
      "stateMutability": "nonpayable",
      "type": "function"
    },
    {
      "inputs": [
        {
          "internalType": "address",
          "name": "from",
          "type": "address"
        },
        {
          "internalType": "address",
          "name": "to",
          "type": "address"
        },
        {
          "internalType": "uint256",
          "name": "value",
          "type": "uint256"
        }
      ],
      "name": "transferFrom",
      "outputs": [
        {
          "internalType": "bool",
          "name": "",
          "type": "bool"
        }
      ],
      "stateMutability": "nonpayable",
      "type": "function"
    }
  ],
  "bytecode": "0x608060405234801561000f575f80fd5b50604051610d8c380380610d8c83398101604081905261002e9161015b565b60408051602080820183525f80835283519182019093529182529060036100558382610278565b5060046100628282610278565b505060088054610100600160a81b031916621001001790555060056100878582610278565b5060066100948482610278565b5060076100a18382610278565b506008805460ff191660ff9290921691909117905550610337915050565b634e487b7160e01b5f52604160045260245ffd5b5f82601f8301126100e2575f80fd5b81516001600160401b03808211156100fc576100fc6100bf565b604051601f8301601f19908116603f01168101908282118183101715610124576101246100bf565b8160405283815286602085880101111561013c575f80fd5b8360208701602083015e5f602085830101528094505050505092915050565b5f805f806080858703121561016e575f80fd5b84516001600160401b0380821115610184575f80fd5b610190888389016100d3565b955060208701519150808211156101a5575f80fd5b6101b1888389016100d3565b945060408701519150808211156101c6575f80fd5b506101d3878288016100d3565b925050606085015160ff811681146101e9575f80fd5b939692955090935050565b600181811c9082168061020857607f821691505b60208210810361022657634e487b7160e01b5f52602260045260245ffd5b50919050565b601f82111561027357805f5260205f20601f840160051c810160208510156102515750805b601f840160051c820191505b81811015610270575f815560010161025d565b50505b505050565b81516001600160401b03811115610291576102916100bf565b6102a58161029f84546101f4565b8461022c565b602080601f8311600181146102d8575f84156102c15750858301515b5f19600386901b1c1916600185901b17855561032f565b5f85815260208120601f198616915b82811015610306578886015182559484019460019091019084016102e7565b508582101561032357878501515f19600388901b60f8161c191681555b505060018460011b0185555b505050505050565b610a48806103445f395ff3fe608060405234801561000f575f80fd5b50600436106100e5575f3560e01c80638a0989f511610088578063a8ad11e411610063578063a8ad11e4146101c7578063a9059cbb146101d4578063c370b042146101e7578063dd62ed3e146101ef575f80fd5b80638a0989f5146101af57806395d89b41146101b75780639e10aa24146101bf575f80fd5b806323b872dd116100c357806323b872dd14610140578063313ce56714610153578063566732c11461016c57806370a082311461019c575f80fd5b806306fdde03146100e9578063095ea7b31461010757806318160ddd1461012a575b5f80fd5b6100f1610227565b6040516100fe919061078a565b60405180910390f35b61011a6101153660046107da565b6102b7565b60405190151581526020016100fe565b6101326102ce565b6040519081526020016100fe565b61011a61014e366004610802565b610348565b60085460ff165b60405160ff90911681526020016100fe565b6008546101849061010090046001600160a01b031681565b6040516001600160a01b0390911681526020016100fe565b6101326101aa36600461083b565b61036b565b6100f16103e8565b6100f1610474565b6100f1610483565b60085461015a9060ff1681565b61011a6101e23660046107da565b610490565b6100f161049d565b6101326101fd36600461085b565b6001600160a01b039182165f90815260016020908152604080832093909416825291909152205490565b6060600680546102369061088c565b80601f01602080910402602001604051908101604052809291908181526020018280546102629061088c565b80156102ad5780601f10610284576101008083540402835291602001916102ad565b820191905f5260205f20905b81548152906001019060200180831161029057829003601f168201915b5050505050905090565b5f336102c48185856104aa565b5060019392505050565b600854604051636923a1fd60e01b81525f9161010090046001600160a01b031690636923a1fd9061030490600590600401610963565b602060405180830381865afa15801561031f573d5f803e3d5ffd5b505050506040513d601f19601f820116820180604052508101906103439190610975565b905090565b5f336103558582856104bc565b61036085858561053d565b506001949350505050565b6008546040516316cadeab60e01b81525f9161010090046001600160a01b0316906316cadeab906103a390859060059060040161098c565b602060405180830381865afa1580156103be573d5f803e3d5ffd5b505050506040513d601f19601f820116820180604052508101906103e29190610975565b92915050565b600680546103f59061088c565b80601f01602080910402602001604051908101604052809291908181526020018280546104219061088c565b801561046c5780601f106104435761010080835404028352916020019161046c565b820191905f5260205f20905b81548152906001019060200180831161044f57829003601f168201915b505050505081565b6060600780546102369061088c565b600780546103f59061088c565b5f336102c481858561053d565b600580546103f59061088c565b6104b7838383600161059a565b505050565b6001600160a01b038381165f908152600160209081526040808320938616835292905220545f19811015610537578181101561052957604051637dc7a0d960e11b81526001600160a01b038416600482015260248101829052604481018390526064015b60405180910390fd5b61053784848484035f61059a565b50505050565b6001600160a01b03831661056657604051634b637e8f60e11b81525f6004820152602401610520565b6001600160a01b03821661058f5760405163ec442f0560e01b81525f6004820152602401610520565b6104b783838361066c565b6001600160a01b0384166105c35760405163e602df0560e01b81525f6004820152602401610520565b6001600160a01b0383166105ec57604051634a1406b160e11b81525f6004820152602401610520565b6001600160a01b038085165f908152600160209081526040808320938716835292905220829055801561053757826001600160a01b0316846001600160a01b03167f8c5be1e5ebec7d5bd14f71427d1e84f3dd0314c0f7b2291e5b200ac8c7c3b9258460405161065e91815260200190565b60405180910390a350505050565b600854604051635c05961b60e01b81525f9161010090046001600160a01b031690635c05961b906106a8908790879060059088906004016109b7565b6020604051808303815f875af11580156106c4573d5f803e3d5ffd5b505050506040513d601f19601f820116820180604052508101906106e891906109f3565b9050806107455760405162461bcd60e51b815260206004820152602560248201527f4e6174697665536569546f6b656e7345524332303a207472616e736665722066604482015264185a5b195960da1b6064820152608401610520565b826001600160a01b0316846001600160a01b03167fddf252ad1be2c89b69c2b068fc378daa952ba7f163c4a11628f55a4df523b3ef8460405161065e91815260200190565b602081525f82518060208401528060208501604085015e5f604082850101526040601f19601f83011684010191505092915050565b80356001600160a01b03811681146107d5575f80fd5b919050565b5f80604083850312156107eb575f80fd5b6107f4836107bf565b946020939093013593505050565b5f805f60608486031215610814575f80fd5b61081d846107bf565b925061082b602085016107bf565b9150604084013590509250925092565b5f6020828403121561084b575f80fd5b610854826107bf565b9392505050565b5f806040838503121561086c575f80fd5b610875836107bf565b9150610883602084016107bf565b90509250929050565b600181811c908216806108a057607f821691505b6020821081036108be57634e487b7160e01b5f52602260045260245ffd5b50919050565b80545f90600181811c90808316806108dd57607f831692505b602080841082036108fc57634e487b7160e01b5f52602260045260245ffd5b83885260208801828015610917576001811461092d57610956565b60ff198716825285151560051b82019750610956565b5f898152602090205f5b8781101561095057815484820152908601908401610937565b83019850505b5050505050505092915050565b602081525f61085460208301846108c4565b5f60208284031215610985575f80fd5b5051919050565b6001600160a01b03831681526040602082018190525f906109af908301846108c4565b949350505050565b6001600160a01b038581168252841660208201526080604082018190525f906109e2908301856108c4565b905082606083015295945050505050565b5f60208284031215610a03575f80fd5b81518015158114610854575f80fdfea2646970667358221220dd49feb897b9bb1d8d0c2f05c653cc850eb5b7ef20ebf7b7bd4b132bb117852a64736f6c63430008190033",
  "linkReferences": {},
  "deployedLinkReferences": {}
}