{
  "_format": "hh-sol-artifact-1",
  "contractName": "TestToken",
  "sourceName": "contracts/src/TestToken.sol",
  "abi": [
    {
      "inputs": [
        {
          "internalType": "string",
          "name": "name",
          "type": "string"
        },
        {
          "internalType": "string",
          "name": "symbol",
          "type": "string"
        }
      ],
      "stateMutability": "nonpayable",
      "type": "constructor"
    },
    {
      "inputs": [
        {
          "internalType": "address",
          "name": "spender",
          "type": "address"
        },
        {
          "internalType": "uint256",
          "name": "allowance",
          "type": "uint256"
        },
        {
          "internalType": "uint256",
          "name": "needed",
          "type": "uint256"
        }
      ],
      "name": "ERC20InsufficientAllowance",
      "type": "error"
    },
    {
      "inputs": [
        {
          "internalType": "address",
          "name": "sender",
          "type": "address"
        },
        {
          "internalType": "uint256",
          "name": "balance",
          "type": "uint256"
        },
        {
          "internalType": "uint256",
          "name": "needed",
          "type": "uint256"
        }
      ],
      "name": "ERC20InsufficientBalance",
      "type": "error"
    },
    {
      "inputs": [
        {
          "internalType": "address",
          "name": "approver",
          "type": "address"
        }
      ],
      "name": "ERC20InvalidApprover",
      "type": "error"
    },
    {
      "inputs": [
        {
          "internalType": "address",
          "name": "receiver",
          "type": "address"
        }
      ],
      "name": "ERC20InvalidReceiver",
      "type": "error"
    },
    {
      "inputs": [
        {
          "internalType": "address",
          "name": "sender",
          "type": "address"
        }
      ],
      "name": "ERC20InvalidSender",
      "type": "error"
    },
    {
      "inputs": [
        {
          "internalType": "address",
          "name": "spender",
          "type": "address"
        }
      ],
      "name": "ERC20InvalidSpender",
      "type": "error"
    },
    {
      "inputs": [
        {
          "internalType": "address",
          "name": "owner",
          "type": "address"
        }
      ],
      "name": "OwnableInvalidOwner",
      "type": "error"
    },
    {
      "inputs": [
        {
          "internalType": "address",
          "name": "account",
          "type": "address"
        }
      ],
      "name": "OwnableUnauthorizedAccount",
      "type": "error"
    },
    {
      "anonymous": false,
      "inputs": [
        {
          "indexed": true,
          "internalType": "address",
          "name": "owner",
          "type": "address"
        },
        {
          "indexed": true,
          "internalType": "address",
          "name": "spender",
          "type": "address"
        },
        {
          "indexed": false,
          "internalType": "uint256",
          "name": "value",
          "type": "uint256"
        }
      ],
      "name": "Approval",
      "type": "event"
    },
    {
      "anonymous": false,
      "inputs": [
        {
          "indexed": true,
          "internalType": "address",
          "name": "previousOwner",
          "type": "address"
        },
        {
          "indexed": true,
          "internalType": "address",
          "name": "newOwner",
          "type": "address"
        }
      ],
      "name": "OwnershipTransferred",
      "type": "event"
    },
    {
      "anonymous": false,
      "inputs": [
        {
          "indexed": true,
          "internalType": "address",
          "name": "from",
          "type": "address"
        },
        {
          "indexed": true,
          "internalType": "address",
          "name": "to",
          "type": "address"
        },
        {
          "indexed": false,
          "internalType": "uint256",
          "name": "value",
          "type": "uint256"
        }
      ],
      "name": "Transfer",
      "type": "event"
    },
    {
      "inputs": [
        {
          "internalType": "address",
          "name": "owner",
          "type": "address"
        },
        {
          "internalType": "address",
          "name": "spender",
          "type": "address"
        }
      ],
      "name": "allowance",
      "outputs": [
        {
          "internalType": "uint256",
          "name": "",
          "type": "uint256"
        }
      ],
      "stateMutability": "view",
      "type": "function"
    },
    {
      "inputs": [
        {
          "internalType": "address",
          "name": "spender",
          "type": "address"
        },
        {
          "internalType": "uint256",
          "name": "value",
          "type": "uint256"
        }
      ],
      "name": "approve",
      "outputs": [
        {
          "internalType": "bool",
          "name": "",
          "type": "bool"
        }
      ],
      "stateMutability": "nonpayable",
      "type": "function"
    },
    {
      "inputs": [
        {
          "internalType": "address",
          "name": "account",
          "type": "address"
        }
      ],
      "name": "balanceOf",
      "outputs": [
        {
          "internalType": "uint256",
          "name": "",
          "type": "uint256"
        }
      ],
      "stateMutability": "view",
      "type": "function"
    },
    {
      "inputs": [],
      "name": "decimals",
      "outputs": [
        {
          "internalType": "uint8",
          "name": "",
          "type": "uint8"
        }
      ],
      "stateMutability": "view",
      "type": "function"
    },
    {
      "inputs": [],
      "name": "name",
      "outputs": [
        {
          "internalType": "string",
          "name": "",
          "type": "string"
        }
      ],
      "stateMutability": "view",
      "type": "function"
    },
    {
      "inputs": [],
      "name": "owner",
      "outputs": [
        {
          "internalType": "address",
          "name": "",
          "type": "address"
        }
      ],
      "stateMutability": "view",
      "type": "function"
    },
    {
      "inputs": [],
      "name": "renounceOwnership",
      "outputs": [],
      "stateMutability": "nonpayable",
      "type": "function"
    },
    {
      "inputs": [
        {
          "internalType": "address",
          "name": "account",
          "type": "address"
        },
        {
          "internalType": "uint256",
          "name": "amount",
          "type": "uint256"
        }
      ],
      "name": "setBalance",
      "outputs": [],
      "stateMutability": "nonpayable",
      "type": "function"
    },
    {
      "inputs": [],
      "name": "symbol",
      "outputs": [
        {
          "internalType": "string",
          "name": "",
          "type": "string"
        }
      ],
      "stateMutability": "view",
      "type": "function"
    },
    {
      "inputs": [],
      "name": "totalSupply",
      "outputs": [
        {
          "internalType": "uint256",
          "name": "",
          "type": "uint256"
        }
      ],
      "stateMutability": "view",
      "type": "function"
    },
    {
      "inputs": [
        {
          "internalType": "address",
          "name": "to",
          "type": "address"
        },
        {
          "internalType": "uint256",
          "name": "value",
          "type": "uint256"
        }
      ],
      "name": "transfer",
      "outputs": [
        {
          "internalType": "bool",
          "name": "",
          "type": "bool"
        }
      ],
      "stateMutability": "nonpayable",
      "type": "function"
    },
    {
      "inputs": [
        {
          "internalType": "address",
          "name": "from",
          "type": "address"
        },
        {
          "internalType": "address",
          "name": "to",
          "type": "address"
        },
        {
          "internalType": "uint256",
          "name": "value",
          "type": "uint256"
        }
      ],
      "name": "transferFrom",
      "outputs": [
        {
          "internalType": "bool",
          "name": "",
          "type": "bool"
        }
      ],
      "stateMutability": "nonpayable",
      "type": "function"
    },
    {
      "inputs": [
        {
          "internalType": "address",
          "name": "newOwner",
          "type": "address"
        }
      ],
      "name": "transferOwnership",
      "outputs": [],
      "stateMutability": "nonpayable",
      "type": "function"
    }
  ],
  "bytecode": "0x608060405234801561000f575f80fd5b50604051610eed380380610eed83398101604081905261002e916102f8565b338282600361003d83826103db565b50600461004a82826103db565b5050506001600160a01b03811661007b57604051631e4fbdf760e01b81525f60048201526024015b60405180910390fd5b610084816100ad565b506100a6336100956012600a610590565b6100a1906103e86105a2565b6100fe565b50506105cc565b600580546001600160a01b038381166001600160a01b0319831681179093556040519116919082907f8be0079c531659141344cd1fd0a4f28419497f9722a3daafe3b4186f6b6457e0905f90a35050565b6001600160a01b0382166101275760405163ec442f0560e01b81525f6004820152602401610072565b6101325f8383610136565b5050565b6001600160a01b038316610160578060025f82825461015591906105b9565b909155506101d09050565b6001600160a01b0383165f90815260208190526040902054818110156101b25760405163391434e360e21b81526001600160a01b03851660048201526024810182905260448101839052606401610072565b6001600160a01b0384165f9081526020819052604090209082900390555b6001600160a01b0382166101ec5760028054829003905561020a565b6001600160a01b0382165f9081526020819052604090208054820190555b816001600160a01b0316836001600160a01b03167fddf252ad1be2c89b69c2b068fc378daa952ba7f163c4a11628f55a4df523b3ef8360405161024f91815260200190565b60405180910390a3505050565b634e487b7160e01b5f52604160045260245ffd5b5f82601f83011261027f575f80fd5b81516001600160401b03808211156102995761029961025c565b604051601f8301601f19908116603f011681019082821181831017156102c1576102c161025c565b816040528381528660208588010111156102d9575f80fd5b8360208701602083015e5f602085830101528094505050505092915050565b5f8060408385031215610309575f80fd5b82516001600160401b038082111561031f575f80fd5b61032b86838701610270565b93506020850151915080821115610340575f80fd5b5061034d85828601610270565b9150509250929050565b600181811c9082168061036b57607f821691505b60208210810361038957634e487b7160e01b5f52602260045260245ffd5b50919050565b601f8211156103d657805f5260205f20601f840160051c810160208510156103b45750805b601f840160051c820191505b818110156103d3575f81556001016103c0565b50505b505050565b81516001600160401b038111156103f4576103f461025c565b610408816104028454610357565b8461038f565b602080601f83116001811461043b575f84156104245750858301515b5f19600386901b1c1916600185901b178555610492565b5f85815260208120601f198616915b828110156104695788860151825594840194600190910190840161044a565b508582101561048657878501515f19600388901b60f8161c191681555b505060018460011b0185555b505050505050565b634e487b7160e01b5f52601160045260245ffd5b600181815b808511156104e857815f19048211156104ce576104ce61049a565b808516156104db57918102915b93841c93908002906104b3565b509250929050565b5f826104fe5750600161058a565b8161050a57505f61058a565b8160018114610520576002811461052a57610546565b600191505061058a565b60ff84111561053b5761053b61049a565b50506001821b61058a565b5060208310610133831016604e8410600b8410161715610569575081810a61058a565b61057383836104ae565b805f19048211156105865761058661049a565b0290505b92915050565b5f61059b83836104f0565b9392505050565b808202811582820484141761058a5761058a61049a565b8082018082111561058a5761058a61049a565b610914806105d95f395ff3fe608060405234801561000f575f80fd5b50600436106100cb575f3560e01c8063715018a611610088578063a9059cbb11610063578063a9059cbb14610199578063dd62ed3e146101ac578063e30443bc146101e4578063f2fde38b146101f7575f80fd5b8063715018a61461016c5780638da5cb5b1461017657806395d89b4114610191575f80fd5b806306fdde03146100cf578063095ea7b3146100ed57806318160ddd1461011057806323b872dd14610122578063313ce5671461013557806370a0823114610144575b5f80fd5b6100d761020a565b6040516100e4919061076a565b60405180910390f35b6101006100fb3660046107ba565b61029a565b60405190151581526020016100e4565b6002545b6040519081526020016100e4565b6101006101303660046107e2565b6102b3565b604051601281526020016100e4565b61011461015236600461081b565b6001600160a01b03165f9081526020819052604090205490565b6101746102d6565b005b6005546040516001600160a01b0390911681526020016100e4565b6100d76102e9565b6101006101a73660046107ba565b6102f8565b6101146101ba36600461083b565b6001600160a01b039182165f90815260016020908152604080832093909416825291909152205490565b6101746101f23660046107ba565b610305565b61017461020536600461081b565b610360565b6060600380546102199061086c565b80601f01602080910402602001604051908101604052809291908181526020018280546102459061086c565b80156102905780601f1061026757610100808354040283529160200191610290565b820191905f5260205f20905b81548152906001019060200180831161027357829003601f168201915b5050505050905090565b5f336102a78185856103a2565b60019150505b92915050565b5f336102c08582856103af565b6102cb85858561042b565b506001949350505050565b6102de610488565b6102e75f6104b5565b565b6060600480546102199061086c565b5f336102a781858561042b565b61030d610488565b6001600160a01b0382165f9081526020819052604090205480821115610345576103408361033b83856108b8565b610506565b505050565b80821015610340576103408361035b84846108b8565b61053e565b610368610488565b6001600160a01b03811661039657604051631e4fbdf760e01b81525f60048201526024015b60405180910390fd5b61039f816104b5565b50565b6103408383836001610572565b6001600160a01b038381165f908152600160209081526040808320938616835292905220545f19811015610425578181101561041757604051637dc7a0d960e11b81526001600160a01b0384166004820152602481018290526044810183905260640161038d565b61042584848484035f610572565b50505050565b6001600160a01b03831661045457604051634b637e8f60e11b81525f600482015260240161038d565b6001600160a01b03821661047d5760405163ec442f0560e01b81525f600482015260240161038d565b610340838383610644565b6005546001600160a01b031633146102e75760405163118cdaa760e01b815233600482015260240161038d565b600580546001600160a01b038381166001600160a01b0319831681179093556040519116919082907f8be0079c531659141344cd1fd0a4f28419497f9722a3daafe3b4186f6b6457e0905f90a35050565b6001600160a01b03821661052f5760405163ec442f0560e01b81525f600482015260240161038d565b61053a5f8383610644565b5050565b6001600160a01b03821661056757604051634b637e8f60e11b81525f600482015260240161038d565b61053a825f83610644565b6001600160a01b03841661059b5760405163e602df0560e01b81525f600482015260240161038d565b6001600160a01b0383166105c457604051634a1406b160e11b81525f600482015260240161038d565b6001600160a01b038085165f908152600160209081526040808320938716835292905220829055801561042557826001600160a01b0316846001600160a01b03167f8c5be1e5ebec7d5bd14f71427d1e84f3dd0314c0f7b2291e5b200ac8c7c3b9258460405161063691815260200190565b60405180910390a350505050565b6001600160a01b03831661066e578060025f82825461066391906108cb565b909155506106de9050565b6001600160a01b0383165f90815260208190526040902054818110156106c05760405163391434e360e21b81526001600160a01b0385166004820152602481018290526044810183905260640161038d565b6001600160a01b0384165f9081526020819052604090209082900390555b6001600160a01b0382166106fa57600280548290039055610718565b6001600160a01b0382165f9081526020819052604090208054820190555b816001600160a01b0316836001600160a01b03167fddf252ad1be2c89b69c2b068fc378daa952ba7f163c4a11628f55a4df523b3ef8360405161075d91815260200190565b60405180910390a3505050565b602081525f82518060208401528060208501604085015e5f604082850101526040601f19601f83011684010191505092915050565b80356001600160a01b03811681146107b5575f80fd5b919050565b5f80604083850312156107cb575f80fd5b6107d48361079f565b946020939093013593505050565b5f805f606084860312156107f4575f80fd5b6107fd8461079f565b925061080b6020850161079f565b9150604084013590509250925092565b5f6020828403121561082b575f80fd5b6108348261079f565b9392505050565b5f806040838503121561084c575f80fd5b6108558361079f565b91506108636020840161079f565b90509250929050565b600181811c9082168061088057607f821691505b60208210810361089e57634e487b7160e01b5f52602260045260245ffd5b50919050565b634e487b7160e01b5f52601160045260245ffd5b818103818111156102ad576102ad6108a4565b808201808211156102ad576102ad6108a456fea26469706673582212200c2f6fe96328389da38b85686f53643029b9a79f70bc997498a75c0c6de26f4c64736f6c63430008190033",
  "linkReferences": {},
  "deployedLinkReferences": {}
}