{
  "_format": "hh-sol-artifact-1",
  "contractName": "TransientStorageTester",
  "sourceName": "contracts/src/TransientStorageTester.sol",
  "abi": [
    {
      "inputs": [],
      "stateMutability": "nonpayable",
      "type": "constructor"
    },
    {
      "anonymous": false,
      "inputs": [
        {
          "indexed": true,
          "internalType": "bytes32",
          "name": "key",
          "type": "bytes32"
        },
        {
          "indexed": false,
          "internalType": "uint256",
          "name": "value",
          "type": "uint256"
        }
      ],
      "name": "RegularStorageSet",
      "type": "event"
    },
    {
      "anonymous": false,
      "inputs": [
        {
          "indexed": false,
          "internalType": "uint256",
          "name": "snapshotId",
          "type": "uint256"
        }
      ],
      "name": "SnapshotCreated",
      "type": "event"
    },
    {
      "anonymous": false,
      "inputs": [
        {
          "indexed": false,
          "internalType": "uint256",
          "name": "snapshotId",
          "type": "uint256"
        }
      ],
      "name": "SnapshotReverted",
      "type": "event"
    },
    {
      "anonymous": false,
      "inputs": [
        {
          "indexed": false,
          "internalType": "string",
          "name": "testName",
          "type": "string"
        },
        {
          "indexed": false,
          "internalType": "bool",
          "name": "success",
          "type": "bool"
        }
      ],
      "name": "TestCompleted",
      "type": "event"
    },
    {
      "anonymous": false,
      "inputs": [
        {
          "indexed": true,
          "internalType": "bytes32",
          "name": "key",
          "type": "bytes32"
        },
        {
          "indexed": false,
          "internalType": "uint256",
          "name": "value",
          "type": "uint256"
        }
      ],
      "name": "TransientStorageGet",
      "type": "event"
    },
    {
      "anonymous": false,
      "inputs": [
        {
          "indexed": true,
          "internalType": "bytes32",
          "name": "key",
          "type": "bytes32"
        },
        {
          "indexed": false,
          "internalType": "uint256",
          "name": "value",
          "type": "uint256"
        }
      ],
      "name": "TransientStorageSet",
      "type": "event"
    },
    {
      "inputs": [],
      "name": "getTestResults",
      "outputs": [
        {
          "internalType": "bool",
          "name": "basic",
          "type": "bool"
        },
        {
          "internalType": "bool",
          "name": "snapshot",
          "type": "bool"
        },
        {
          "internalType": "bool",
          "name": "multiple",
          "type": "bool"
        },
        {
          "internalType": "bool",
          "name": "complex",
          "type": "bool"
        },
        {
          "internalType": "bool",
          "name": "zero",
          "type": "bool"
        },
        {
          "internalType": "bool",
          "name": "large",
          "type": "bool"
        },
        {
          "internalType": "bool",
          "name": "uninitialized",
          "type": "bool"
        },
        {
          "internalType": "bool",
          "name": "comparison",
          "type": "bool"
        }
      ],
      "stateMutability": "view",
      "type": "function"
    },
    {
      "inputs": [
        {
          "internalType": "bytes32",
          "name": "",
          "type": "bytes32"
        }
      ],
      "name": "regularStorage",
      "outputs": [
        {
          "internalType": "uint256",
          "name": "",
          "type": "uint256"
        }
      ],
      "stateMutability": "view",
      "type": "function"
    },
    {
      "inputs": [
        {
          "internalType": "bytes32",
          "name": "",
          "type": "bytes32"
        }
      ],
      "name": "regularStorage2",
      "outputs": [
        {
          "internalType": "uint256",
          "name": "",
          "type": "uint256"
        }
      ],
      "stateMutability": "view",
      "type": "function"
    },
    {
      "inputs": [],
      "name": "resetTestResults",
      "outputs": [],
      "stateMutability": "nonpayable",
      "type": "function"
    },
    {
      "inputs": [
        {
          "internalType": "bytes32",
          "name": "key",
          "type": "bytes32"
        },
        {
          "internalType": "uint256",
          "name": "value",
          "type": "uint256"
        }
      ],
      "name": "runBasicTransientStorage",
      "outputs": [],
      "stateMutability": "nonpayable",
      "type": "function"
    },
    {
      "inputs": [],
      "name": "runComplexSnapshotScenario",
      "outputs": [
        {
          "internalType": "bool",
          "name": "",
          "type": "bool"
        }
      ],
      "stateMutability": "nonpayable",
      "type": "function"
    },
    {
      "inputs": [],
      "name": "runComprehensiveTest",
      "outputs": [
        {
          "internalType": "bool",
          "name": "",
          "type": "bool"
        }
      ],
      "stateMutability": "nonpayable",
      "type": "function"
    },
    {
      "inputs": [],
      "name": "runLargeValues",
      "outputs": [],
      "stateMutability": "nonpayable",
      "type": "function"
    },
    {
      "inputs": [
        {
          "internalType": "bytes32[]",
          "name": "keys",
          "type": "bytes32[]"
        },
        {
          "internalType": "uint256[]",
          "name": "values",
          "type": "uint256[]"
        }
      ],
      "name": "runMultipleTransientKeys",
      "outputs": [],
      "stateMutability": "nonpayable",
      "type": "function"
    },
    {
      "inputs": [
        {
          "internalType": "bytes32",
          "name": "key",
          "type": "bytes32"
        },
        {
          "internalType": "uint256",
          "name": "value1",
          "type": "uint256"
        },
        {
          "internalType": "uint256",
          "name": "value2",
          "type": "uint256"
        }
      ],
      "name": "runTransientStorageWithSnapshot",
      "outputs": [
        {
          "internalType": "bool",
          "name": "",
          "type": "bool"
        }
      ],
      "stateMutability": "nonpayable",
      "type": "function"
    },
    {
      "inputs": [
        {
          "internalType": "bytes32",
          "name": "key",
          "type": "bytes32"
        },
        {
          "internalType": "uint256",
          "name": "value",
          "type": "uint256"
        }
      ],
      "name": "runTransientVsRegularStorage",
      "outputs": [],
      "stateMutability": "nonpayable",
      "type": "function"
    },
    {
      "inputs": [],
      "name": "runUninitializedKeys",
      "outputs": [],
      "stateMutability": "nonpayable",
      "type": "function"
    },
    {
      "inputs": [],
      "name": "runZeroValues",
      "outputs": [],
      "stateMutability": "nonpayable",
      "type": "function"
    },
    {
      "inputs": [],
      "name": "testCounter",
      "outputs": [
        {
          "internalType": "uint256",
          "name": "",
          "type": "uint256"
        }
      ],
      "stateMutability": "view",
      "type": "function"
    },
    {
      "inputs": [
        {
          "internalType": "string",
          "name": "",
          "type": "string"
        }
      ],
      "name": "testResults",
      "outputs": [
        {
          "internalType": "bool",
          "name": "",
          "type": "bool"
        }
      ],
      "stateMutability": "view",
      "type": "function"
    }
  ],
  "bytecode": "0x6080604052348015600e575f80fd5b505f600255611764806100205f395ff3fe608060405234801561000f575f80fd5b50600436106100f0575f3560e01c80638ab5763911610093578063b349b80b11610063578063b349b80b146101fd578063d356aeb81461021c578063dbd81bc714610225578063eaa172ac14610253575f80fd5b80638ab57639146101c7578063a3405614146101da578063a892618d146101ed578063a8c76d3e146101f5575f80fd5b8063488a8a46116100ce578063488a8a461461012e5780635c44eac6146101415780635caf7c8c14610192578063825f67f9146101bf575f80fd5b806313e25ec9146100f45780632c814866146101115780633bc684e914610119575b5f80fd5b6100fc61025b565b60405190151581526020015b60405180910390f35b6100fc610691565b61012c6101273660046113c3565b610908565b005b6100fc61013c3660046113e3565b610a39565b610149610bdb565b604080519815158952961515602089015294151595870195909552911515606086015215156080850152151560a084015290151560c0830152151560e082015261010001610108565b6101b16101a036600461140c565b60016020525f908152604090205481565b604051908152602001610108565b61012c610d71565b61012c6101d53660046113c3565b610e50565b61012c6101e83660046114f7565b610eed565b61012c611040565b61012c6111ca565b6101b161020b36600461140c565b5f6020819052908152604090205481565b6101b160025481565b6100fc6102333660046115aa565b805160208183018101805160038252928201919093012091525460ff1681565b61012c6112f5565b604080516003808252608082019092525f91829190602082016060803683375050604080516003808252608082019092529293505f92915060208201606080368337019050506040516c636f6d706c65785f6b65795f3160981b6020820152909150602d0160405160208183030381529060405280519060200120825f815181106102e8576102e8611639565b602002602001018181525050604051602001610317906c31b7b6b83632bc2fb5b2bcaf9960991b8152600d0190565b604051602081830303815290604052805190602001208260018151811061034057610340611639565b60200260200101818152505060405160200161036f906c636f6d706c65785f6b65795f3360981b8152600d0190565b604051602081830303815290604052805190602001208260028151811061039857610398611639565b6020026020010181815250506064815f815181106103b8576103b8611639565b60200260200101818152505060c8816001815181106103d9576103d9611639565b60200260200101818152505061012c816002815181106103fb576103fb611639565b6020026020010181815250505f5b8251811015610480575f83828151811061042557610425611639565b602002602001015190505f83838151811061044257610442611639565b6020026020010151905080825d815f8051602061170f8339815191528260405161046e91815260200190565b60405180910390a25050600101610409565b505f61048d600143611661565b604051904080825291507fb3f0c2b18fd39e8cee5f554c26a84565b651237746f9b33337e40d5abab734009060200160405180910390a15f5b8351811015610549575f8482815181106104e2576104e2611639565b602002602001015190505f8483815181106104ff576104ff611639565b60200260200101516002610513919061167a565b905080825d815f8051602061170f8339815191528260405161053791815260200190565b60405180910390a250506001016104c6565b505f5b835181101561059c575f84828151811061056857610568611639565b602002602001015190505f84838151811061058557610585611639565b6020026020010151905080825d505060010161054c565b506040518181527f570edc9b95445fe8786a9011909db13a7ec1a310b6f877b9239c7822da1f470a9060200160405180910390a15f5b8351811015610648575f8482815181106105ee576105ee611639565b602002602001015190505f815c905084838151811061060f5761060f611639565b6020026020010151811461063e5760405162461bcd60e51b815260040161063590611691565b60405180910390fd5b50506001016105d2565b506001600360405161066790660c6dedae0d8caf60cb1b815260070190565b908152604051908190036020019020805491151560ff199092169190911790555060019392505050565b5f6106bd7fa542bebe0be4ee37844e1023969dcdf99c908139f19a527065ff05d1a0ac2e34607b610e50565b6106ea7fde77e793564bc5ba0713b610c743ab0d819d9580fcae7c67b4c6f835fb9ee500606460c8610a39565b50604080516003808252608082019092525f91602082016060803683375050604080516003808252608082019092529293505f929150602082016060803683370190505090507f1c9aa11664746f8340dd76161fea2bae51e732b5e0ddaca33614caa43904681f825f8151811061076357610763611639565b6020026020010181815250507fa5013554266081ff6f37e5e9233f7e23657f4f98519f9272e0b73c1058251c84826001815181106107a3576107a3611639565b6020026020010181815250507fad741d521cbe8b647c5c5503f04c2753071c832071e778879ee2a2b50bdfa54a826002815181106107e3576107e3611639565b602002602001018181525050606f815f8151811061080357610803611639565b60200260200101818152505060de8160018151811061082457610824611639565b60200260200101818152505061014d8160028151811061084657610846611639565b60200260200101818152505061085c8282610eed565b61086461025b565b5061086d6111ca565b6108756112f5565b61087d610d71565b6108a97fe69ad813c55917f9571396894d197918b826b309d0fe2ed678654c385be584506103e7610908565b60408051818152600d818301526c636f6d70726568656e7369766560981b60608201526001602082015290517feb9020a64b27a64d36c46d5e4f002c6a445f35e34158fd0c5be583dd4e84debb9181900360800190a160019250505090565b80825d815f8051602061170f8339815191528260405161092a91815260200190565b60405180910390a25f8281526020818152604091829020839055905182815283917fd2eec1c567b995db8bf94f74748a6d5eb3021179ddcae2b1fb220767a0a21b27910160405180910390a2815c8181146109975760405162461bcd60e51b8152600401610635906116d9565b5f8381526020819052604090205482146109f35760405162461bcd60e51b815260206004820152601e60248201527f526567756c61722073746f726167652076616c7565206d69736d6174636800006044820152606401610635565b60016003604051610a14906931b7b6b830b934b9b7b760b11b8152600a0190565b908152604051908190036020019020805491151560ff19909216919091179055505050565b5f82845d835f8051602061170f83398151915284604051610a5c91815260200190565b60405180910390a25f610a70600143611661565b604051904080825291507fb3f0c2b18fd39e8cee5f554c26a84565b651237746f9b33337e40d5abab734009060200160405180910390a182855d845f8051602061170f83398151915284604051610ac991815260200190565b60405180910390a2845c838114610b375760405162461bcd60e51b815260206004820152602c60248201527f5472616e7369656e742073746f72616765206e6f74207570646174656420616660448201526b1d195c881cdb985c1cda1bdd60a21b6064820152608401610635565b84865d6040518281527f570edc9b95445fe8786a9011909db13a7ec1a310b6f877b9239c7822da1f470a9060200160405180910390a1855c858114610b8e5760405162461bcd60e51b815260040161063590611691565b60016003604051610bad90671cdb985c1cda1bdd60c21b815260080190565b908152604051908190036020019020805491151560ff19909216919091179055506001925050509392505050565b5f805f805f805f806003604051610bfd9064626173696360d81b815260050190565b9081526040519081900360200181205460ff1690600390610c2c90671cdb985c1cda1bdd60c21b815260080190565b9081526040519081900360200181205460ff1690600390610c5b90676d756c7469706c6560c01b815260080190565b9081526040519081900360200181205460ff1690600390610c8990660c6dedae0d8caf60cb1b815260070190565b9081526040519081900360200181205460ff1690600390610cb490637a65726f60e01b815260040190565b9081526040519081900360200181205460ff1690600390610ce090646c6172676560d81b815260050190565b9081526040519081900360200181205460ff1690600390610d14906c1d5b9a5b9a5d1a585b1a5e9959609a1b8152600d0190565b9081526040519081900360200181205460ff1690600390610d45906931b7b6b830b934b9b7b760b11b8152600a0190565b90815260405190819003602001902054969f959e50939c50919a5098509650945060ff90911692509050565b604051711d5b9a5b9a5d1a585b1a5e995917dd195cdd60721b60208201525f9060320160408051601f1981840301815291905280516020909101209050805c8015610e085760405162461bcd60e51b815260206004820152602160248201527f556e696e697469616c697a6564206b65792073686f756c642072657475726e206044820152600360fc1b6064820152608401610635565b60016003604051610e2c906c1d5b9a5b9a5d1a585b1a5e9959609a1b8152600d0190565b908152604051908190036020019020805491151560ff199092169190911790555050565b80825d815f8051602061170f83398151915282604051610e7291815260200190565b60405180910390a2604051825c8082529083907fb63b378491e7d10aa0b1c9f25dcf83f21bcb383fc26fe84bbdfdd11a5c8860099060200160405180910390a2818114610ed15760405162461bcd60e51b8152600401610635906116d9565b60016003604051610a149064626173696360d81b815260050190565b8051825114610f375760405162461bcd60e51b8152602060048201526016602482015275082e4e4c2f2e640d8cadccee8d040dad2e6dac2e8c6d60531b6044820152606401610635565b5f5b8251811015610fb0575f838281518110610f5557610f55611639565b602002602001015190505f838381518110610f7257610f72611639565b6020026020010151905080825d815f8051602061170f83398151915282604051610f9e91815260200190565b60405180910390a25050600101610f39565b505f5b8251811015611020575f838281518110610fcf57610fcf611639565b602002602001015190505f815c9050838381518110610ff057610ff0611639565b602002602001015181146110165760405162461bcd60e51b8152600401610635906116d9565b5050600101610fb3565b5060016003604051610e2c90676d756c7469706c6560c01b815260080190565b60405164626173696360d81b8152600390600501908152604051908190036020018120805460ff1916905560039061108690671cdb985c1cda1bdd60c21b815260080190565b908152604051908190036020018120805460ff191690556003906110b890676d756c7469706c6560c01b815260080190565b908152604051908190036020018120805460ff191690556003906110e990660c6dedae0d8caf60cb1b815260070190565b908152604051908190036020018120805460ff1916905560039061111790637a65726f60e01b815260040190565b908152604051908190036020018120805460ff1916905560039061114690646c6172676560d81b815260050190565b908152604051908190036020018120805460ff1916905560039061117d906c1d5b9a5b9a5d1a585b1a5e9959609a1b8152600d0190565b908152604051908190036020018120805460ff191690556003906111b1906931b7b6b830b934b9b7b760b11b8152600a0190565b908152604051908190036020019020805460ff19169055565b604051681e995c9bd7dd195cdd60ba1b60208201525f906029016040516020818303038152906040528051906020012090505f815d805f8051602061170f8339815191525f60405161121e91815260200190565b60405180910390a2805c80156112765760405162461bcd60e51b815260206004820152601f60248201527f5a65726f2076616c7565206e6f742073746f72656420636f72726563746c79006044820152606401610635565b607b825d5f825d50805c80156112da5760405162461bcd60e51b8152602060048201526024808201527f5a65726f2076616c7565206e6f74206f7665727772697474656e20636f72726560448201526363746c7960e01b6064820152608401610635565b60016003604051610e2c90637a65726f60e01b815260040190565b604051691b185c99d957dd195cdd60b21b60208201525f90602a0160408051601f19818403018152919052805160209091012090505f1980825d815f8051602061170f8339815191528260405161134e91815260200190565b60405180910390a2815c8181146113a75760405162461bcd60e51b815260206004820181905260248201527f4c617267652076616c7565206e6f742073746f72656420636f72726563746c796044820152606401610635565b60016003604051610a1490646c6172676560d81b815260050190565b5f80604083850312156113d4575f80fd5b50508035926020909101359150565b5f805f606084860312156113f5575f80fd5b505081359360208301359350604090920135919050565b5f6020828403121561141c575f80fd5b5035919050565b634e487b7160e01b5f52604160045260245ffd5b604051601f8201601f1916810167ffffffffffffffff8111828210171561146057611460611423565b604052919050565b5f67ffffffffffffffff82111561148157611481611423565b5060051b60200190565b5f82601f83011261149a575f80fd5b813560206114af6114aa83611468565b611437565b8083825260208201915060208460051b8701019350868411156114d0575f80fd5b602086015b848110156114ec57803583529183019183016114d5565b509695505050505050565b5f8060408385031215611508575f80fd5b823567ffffffffffffffff8082111561151f575f80fd5b818501915085601f830112611532575f80fd5b813560206115426114aa83611468565b82815260059290921b84018101918181019089841115611560575f80fd5b948201945b8386101561157e57853582529482019490820190611565565b96505086013592505080821115611593575f80fd5b506115a08582860161148b565b9150509250929050565b5f60208083850312156115bb575f80fd5b823567ffffffffffffffff808211156115d2575f80fd5b818501915085601f8301126115e5575f80fd5b8135818111156115f7576115f7611423565b611609601f8201601f19168501611437565b9150808252868482850101111561161e575f80fd5b80848401858401375f90820190930192909252509392505050565b634e487b7160e01b5f52603260045260245ffd5b634e487b7160e01b5f52601160045260245ffd5b818103818111156116745761167461164d565b92915050565b80820281158282048414176116745761167461164d565b60208082526028908201527f5472616e7369656e742073746f72616765206e6f7420726576657274656420636040820152676f72726563746c7960c01b606082015260800190565b6020808252818101527f5472616e7369656e742073746f726167652076616c7565206d69736d6174636860408201526060019056fecc30ce78428bf405eb8ee01c2155e4f495a3931cf674d5c638a43a80f905d918a264697066735822122049747b6cecb02c6d54924953d9fde6594ce3da5ee69fa025894a092f24c8ee2c64736f6c63430008190033",
  "linkReferences": {},
  "deployedLinkReferences": {}
}