{
  "_format": "hh-sol-artifact-1",
  "contractName": "SnapshotRevertTester",
  "sourceName": "contracts/src/SnapshotRevertTester.sol",
  "abi": [
    {
      "inputs": [],
      "stateMutability": "nonpayable",
      "type": "constructor"
    },
    {
      "anonymous": false,
      "inputs": [
        {
          "indexed": false,
          "internalType": "uint256",
          "name": "depth",
          "type": "uint256"
        },
        {
          "indexed": false,
          "internalType": "address",
          "name": "caller",
          "type": "address"
        }
      ],
      "name": "CallEnded",
      "type": "event"
    },
    {
      "anonymous": false,
      "inputs": [
        {
          "indexed": false,
          "internalType": "uint256",
          "name": "depth",
          "type": "uint256"
        },
        {
          "indexed": false,
          "internalType": "address",
          "name": "caller",
          "type": "address"
        }
      ],
      "name": "CallStarted",
      "type": "event"
    },
    {
      "anonymous": false,
      "inputs": [
        {
          "indexed": false,
          "internalType": "string",
          "name": "message",
          "type": "string"
        },
        {
          "indexed": false,
          "internalType": "uint256",
          "name": "depth",
          "type": "uint256"
        }
      ],
      "name": "ErrorOccurred",
      "type": "event"
    },
    {
      "anonymous": false,
      "inputs": [
        {
          "indexed": false,
          "internalType": "uint256",
          "name": "snapshotId",
          "type": "uint256"
        },
        {
          "indexed": false,
          "internalType": "uint256",
          "name": "depth",
          "type": "uint256"
        }
      ],
      "name": "SnapshotCreated",
      "type": "event"
    },
    {
      "anonymous": false,
      "inputs": [
        {
          "indexed": false,
          "internalType": "uint256",
          "name": "snapshotId",
          "type": "uint256"
        },
        {
          "indexed": false,
          "internalType": "uint256",
          "name": "depth",
          "type": "uint256"
        }
      ],
      "name": "SnapshotReverted",
      "type": "event"
    },
    {
      "anonymous": false,
      "inputs": [
        {
          "indexed": false,
          "internalType": "bytes32",
          "name": "key",
          "type": "bytes32"
        },
        {
          "indexed": false,
          "internalType": "uint256",
          "name": "value",
          "type": "uint256"
        },
        {
          "indexed": false,
          "internalType": "uint256",
          "name": "depth",
          "type": "uint256"
        }
      ],
      "name": "TransientStorageGet",
      "type": "event"
    },
    {
      "anonymous": false,
      "inputs": [
        {
          "indexed": false,
          "internalType": "bytes32",
          "name": "key",
          "type": "bytes32"
        },
        {
          "indexed": false,
          "internalType": "uint256",
          "name": "value",
          "type": "uint256"
        },
        {
          "indexed": false,
          "internalType": "uint256",
          "name": "depth",
          "type": "uint256"
        }
      ],
      "name": "TransientStorageSet",
      "type": "event"
    },
    {
      "inputs": [],
      "name": "callDepth",
      "outputs": [
        {
          "internalType": "uint256",
          "name": "",
          "type": "uint256"
        }
      ],
      "stateMutability": "view",
      "type": "function"
    },
    {
      "inputs": [
        {
          "internalType": "string",
          "name": "",
          "type": "string"
        }
      ],
      "name": "errorMessages",
      "outputs": [
        {
          "internalType": "string",
          "name": "",
          "type": "string"
        }
      ],
      "stateMutability": "view",
      "type": "function"
    },
    {
      "inputs": [],
      "name": "getAllTestResults",
      "outputs": [
        {
          "internalType": "bool",
          "name": "nested",
          "type": "bool"
        },
        {
          "internalType": "bool",
          "name": "snapshotRevert",
          "type": "bool"
        },
        {
          "internalType": "bool",
          "name": "complexSnapshot",
          "type": "bool"
        },
        {
          "internalType": "bool",
          "name": "errorHandling",
          "type": "bool"
        },
        {
          "internalType": "bool",
          "name": "gasOptimization",
          "type": "bool"
        },
        {
          "internalType": "bool",
          "name": "delegateCall",
          "type": "bool"
        },
        {
          "internalType": "bool",
          "name": "multipleSnapshots",
          "type": "bool"
        }
      ],
      "stateMutability": "view",
      "type": "function"
    },
    {
      "inputs": [],
      "name": "getErrorMessages",
      "outputs": [
        {
          "internalType": "string",
          "name": "",
          "type": "string"
        }
      ],
      "stateMutability": "view",
      "type": "function"
    },
    {
      "inputs": [],
      "name": "resetTestResults",
      "outputs": [],
      "stateMutability": "nonpayable",
      "type": "function"
    },
    {
      "inputs": [],
      "name": "runAllTests",
      "outputs": [
        {
          "internalType": "bool",
          "name": "",
          "type": "bool"
        }
      ],
      "stateMutability": "nonpayable",
      "type": "function"
    },
    {
      "inputs": [],
      "name": "runComplexSnapshotScenario",
      "outputs": [
        {
          "internalType": "bool",
          "name": "",
          "type": "bool"
        }
      ],
      "stateMutability": "nonpayable",
      "type": "function"
    },
    {
      "inputs": [],
      "name": "runDelegateCall",
      "outputs": [
        {
          "internalType": "bool",
          "name": "",
          "type": "bool"
        }
      ],
      "stateMutability": "nonpayable",
      "type": "function"
    },
    {
      "inputs": [],
      "name": "runErrorHandling",
      "outputs": [
        {
          "internalType": "bool",
          "name": "",
          "type": "bool"
        }
      ],
      "stateMutability": "nonpayable",
      "type": "function"
    },
    {
      "inputs": [],
      "name": "runGasOptimization",
      "outputs": [
        {
          "internalType": "bool",
          "name": "",
          "type": "bool"
        }
      ],
      "stateMutability": "nonpayable",
      "type": "function"
    },
    {
      "inputs": [],
      "name": "runMultipleSnapshots",
      "outputs": [
        {
          "internalType": "bool",
          "name": "",
          "type": "bool"
        }
      ],
      "stateMutability": "nonpayable",
      "type": "function"
    },
    {
      "inputs": [],
      "name": "runNestedCalls",
      "outputs": [
        {
          "internalType": "bool",
          "name": "",
          "type": "bool"
        }
      ],
      "stateMutability": "nonpayable",
      "type": "function"
    },
    {
      "inputs": [],
      "name": "runSnapshotRevert",
      "outputs": [
        {
          "internalType": "bool",
          "name": "",
          "type": "bool"
        }
      ],
      "stateMutability": "nonpayable",
      "type": "function"
    },
    {
      "inputs": [],
      "name": "snapshotCounter",
      "outputs": [
        {
          "internalType": "uint256",
          "name": "",
          "type": "uint256"
        }
      ],
      "stateMutability": "view",
      "type": "function"
    },
    {
      "inputs": [
        {
          "internalType": "uint256",
          "name": "",
          "type": "uint256"
        }
      ],
      "name": "snapshotStates",
      "outputs": [
        {
          "internalType": "bytes32",
          "name": "",
          "type": "bytes32"
        }
      ],
      "stateMutability": "view",
      "type": "function"
    },
    {
      "inputs": [
        {
          "internalType": "string",
          "name": "",
          "type": "string"
        }
      ],
      "name": "testResults",
      "outputs": [
        {
          "internalType": "bool",
          "name": "",
          "type": "bool"
        }
      ],
      "stateMutability": "view",
      "type": "function"
    }
  ],
  "bytecode": "0x6080604052348015600e575f80fd5b505f808055600155611747806100235f395ff3fe608060405234801561000f575f80fd5b50600436106100fb575f3560e01c80639d9d082711610093578063b676e2e411610063578063b676e2e4146101f5578063bc262b6c146101fd578063dbd81bc714610205578063e65e87fb14610233575f80fd5b80639d9d0827146101bc578063a892618d146101c4578063ab8ff3d3146101ce578063b158ea45146101ed575f80fd5b80635acd6aa3116100ce5780635acd6aa31461015b578063788a788f1461016357806385795244146101ac5780638b1def14146101b4575f80fd5b806313e25ec9146100ff5780631c48917d1461011c57806336f3a665146101315780633b2fe52114610148575b5f80fd5b61010761023b565b60405190151581526020015b60405180910390f35b61012461067e565b60405161011391906114ee565b61013a60015481565b604051908152602001610113565b610124610156366004611537565b610739565b6101076107dc565b61016b610a06565b60408051971515885295151560208801529315159486019490945290151560608501521515608084015290151560a0830152151560c082015260e001610113565b610107610b95565b610107610deb565b61013a5f5481565b6101cc610eea565b005b61013a6101dc3660046115e2565b60026020525f908152604090205481565b61010761106a565b610107611232565b610107611316565b610107610213366004611537565b805160208183018101805160038252928201919093012091525460ff1681565b61010761149f565b604080516003808252608082019092525f91829190602082016060803683375050604080516003808252608082019092529293505f92915060208201606080368337019050506040516c636f6d706c65785f6b65795f3160981b6020820152909150602d0160405160208183030381529060405280519060200120825f815181106102c8576102c86115f9565b6020026020010181815250506040516020016102f7906c31b7b6b83632bc2fb5b2bcaf9960991b8152600d0190565b6040516020818303038152906040528051906020012082600181518110610320576103206115f9565b60200260200101818152505060405160200161034f906c636f6d706c65785f6b65795f3360981b8152600d0190565b6040516020818303038152906040528051906020012082600281518110610378576103786115f9565b6020026020010181815250506064815f81518110610398576103986115f9565b60200260200101818152505060c8816001815181106103b9576103b96115f9565b60200260200101818152505061012c816002815181106103db576103db6115f9565b6020026020010181815250505f5b8251811015610466575f838281518110610405576104056115f9565b602002602001015190505f838381518110610422576104226115f9565b6020026020010151905080825d604080518381526020810183905260018183015290515f805160206116d28339815191529181900360600190a150506001016103e9565b505f610473600143611621565b6040805191408083526001602084015292505f805160206116f2833981519152910160405180910390a15f5b8351811015610528575f8482815181106104bb576104bb6115f9565b602002602001015190505f8483815181106104d8576104d86115f9565b602002602001015160026104ec919061163a565b905080825d604080518381526020810183905260028183015290515f805160206116d28339815191529181900360600190a1505060010161049f565b505f5b835181101561057b575f848281518110610547576105476115f9565b602002602001015190505f848381518110610564576105646115f9565b6020026020010151905080825d505060010161052b565b5060408051828152600160208201527fa238d8d0dae5c042076a9507898b5427aa70798ed9c34272ad10976113e0f828910160405180910390a15f5b835181101561062d575f8482815181106105d3576105d36115f9565b602002602001015190505f815c90508483815181106105f4576105f46115f9565b602002602001015181146106235760405162461bcd60e51b815260040161061a90611651565b60405180910390fd5b50506001016105b7565b5060016003604051610654906e18dbdb5c1b195e14db985c1cda1bdd608a1b8152600f0190565b908152604051908190036020019020805491151560ff199092169190911790555060019392505050565b6060600460405161069f90693630b9ba2fb2b93937b960b11b8152600a0190565b908152602001604051809103902080546106b890611699565b80601f01602080910402602001604051908101604052809291908181526020018280546106e490611699565b801561072f5780601f106107065761010080835404028352916020019161072f565b820191905f5260205f20905b81548152906001019060200180831161071257829003601f168201915b5050505050905090565b80516020818301810180516004825292820191909301209152805461075d90611699565b80601f016020809104026020016040519081016040528092919081815260200182805461078990611699565b80156107d45780601f106107ab576101008083540402835291602001916107d4565b820191905f5260205f20905b8154815290600101906020018083116107b757829003601f168201915b505050505081565b5f8060405160200161080690716d756c7469706c655f736e617073686f747360701b815260120190565b60408051601f1981840301815291905280516020909101209050606460c861012c82845d604080518581526020810185905260018183015290515f805160206116d28339815191529181900360600190a15f610863600143611621565b6040805191408083526001602084015292505f805160206116f2833981519152910160405180910390a182855d604080518681526020810185905260028183015290515f805160206116d28339815191529181900360600190a15f6108c9600143611621565b6040805191408083526001602084015292505f805160206116f2833981519152910160405180910390a182865d604080518781526020810185905260038183015290515f805160206116d28339815191529181900360600190a183865d60408051838152600160208201527fa238d8d0dae5c042076a9507898b5427aa70798ed9c34272ad10976113e0f828910160405180910390a1855c8481146109b05760405162461bcd60e51b815260206004820181905260248201527f4d756c7469706c6520736e617073686f747320726576657274206661696c6564604482015260640161061a565b600160036040516109d890706d756c7469706c65536e617073686f747360781b815260110190565b908152604051908190036020019020805491151560ff19909216919091179055506001979650505050505050565b5f805f805f805f6003604051610a2890651b995cdd195960d21b815260060190565b9081526040519081900360200181205460ff1690600390610a5d906d1cdb985c1cda1bdd14995d995c9d60921b8152600e0190565b9081526040519081900360200181205460ff1690600390610a93906e18dbdb5c1b195e14db985c1cda1bdd608a1b8152600f0190565b9081526040519081900360200181205460ff1690600390610ac7906c6572726f7248616e646c696e6760981b8152600d0190565b9081526040519081900360200181205460ff1690600390610afd906e33b0b9a7b83a34b6b4bd30ba34b7b760891b8152600f0190565b9081526040519081900360200181205460ff1690600390610b30906b19195b1959d85d1950d85b1b60a21b8152600c0190565b9081526040519081900360200181205460ff1690600390610b6890706d756c7469706c65536e617073686f747360781b815260110190565b90815260405190819003602001902054959c50939a5091985096509450925060ff16905090919293949596565b60408051600181523360208201525f917fa9955c82d88ee7b14b2cb28a5752926b922831ab92423671b4ff018846008982910160405180910390a1604051691bdd5d195c97d8d85b1b60b21b60208201525f90602a0160408051601f1981840301815291905280516020909101209050606480825d604080518381526020810183905260018183015290515f805160206116d28339815191529181900360600190a1604051691a5b9b995c97d8d85b1b60b21b60208201525f90602a0160408051601f198184030181529190528051602090910120905060c880825d604080518381526020810183905260028183015290515f805160206116d28339815191529181900360600190a1835c825c848214610d055760405162461bcd60e51b815260206004820152602b60248201527f4f757465722063616c6c207472616e7369656e742073746f72616765206e6f7460448201526a2061636365737369626c6560a81b606482015260840161061a565b828114610d685760405162461bcd60e51b815260206004820152602b60248201527f496e6e65722063616c6c207472616e7369656e742073746f72616765206e6f7460448201526a2061636365737369626c6560a81b606482015260840161061a565b60408051600181523360208201527ffd4d9e0ceb43ff4da9b7e96395f22c2a360826c837cd2b8b436bdf32d9bc2462910160405180910390a160016003604051610dbe90651b995cdd195960d21b815260060190565b908152604051908190036020019020805491151560ff199092169190911790555060019695505050505050565b5f80604051602001610e15907119195b1959d85d1957d8d85b1b17dd195cdd60721b815260120190565b60408051601f198184030181529190528051602090910120905061031580825d604080518381526020810183905260018183015290515f805160206116d28339815191529181900360600190a1815c818114610ec75760405162461bcd60e51b815260206004820152602b60248201527f44656c65676174652063616c6c207472616e7369656e742073746f726167652060448201526a1d195cdd0819985a5b195960aa1b606482015260840161061a565b60016003604051610654906b19195b1959d85d1950d85b1b60a21b8152600c0190565b604051651b995cdd195960d21b8152600390600601908152604051908190036020018120805460ff19169055600390610f37906d1cdb985c1cda1bdd14995d995c9d60921b8152600e0190565b908152604051908190036020018120805460ff19169055600390610f70906e18dbdb5c1b195e14db985c1cda1bdd608a1b8152600f0190565b908152604051908190036020018120805460ff19169055600390610fa7906c6572726f7248616e646c696e6760981b8152600d0190565b908152604051908190036020018120805460ff19169055600390610fe0906e33b0b9a7b83a34b6b4bd30ba34b7b760891b8152600f0190565b908152604051908190036020018120805460ff19169055600390611016906b19195b1959d85d1950d85b1b60a21b8152600c0190565b908152604051908190036020018120805460ff1916905560039061105190706d756c7469706c65536e617073686f747360781b815260110190565b908152604051908190036020019020805460ff19169055565b5f8060405160200161109690731cdb985c1cda1bdd17dc995d995c9d17dd195cdd60621b815260140190565b60408051601f1981840301815291905280516020909101209050606460c881835d604080518481526020810184905260018183015290515f805160206116d28339815191529181900360600190a15f6110f0600143611621565b6040805191408083526001602084015292505f805160206116f2833981519152910160405180910390a181845d604080518581526020810184905260028183015290515f805160206116d28339815191529181900360600190a1835c8281146111b05760405162461bcd60e51b815260206004820152602c60248201527f5472616e7369656e742073746f72616765206e6f74207570646174656420616660448201526b1d195c881cdb985c1cda1bdd60a21b606482015260840161061a565b83855d60408051838152600160208201527fa238d8d0dae5c042076a9507898b5427aa70798ed9c34272ad10976113e0f828910160405180910390a1845c84811461120d5760405162461bcd60e51b815260040161061a90611651565b60016003604051610dbe906d1cdb985c1cda1bdd14995d995c9d60921b8152600e0190565b5f80604051602001611252906719d85cd7dd195cdd60c21b815260080190565b60408051601f19818403018152919052805160209091012090506101c880825d604080518381526020810183905260018183015290515f805160206116d28339815191529181900360600190a1815c8181146112f05760405162461bcd60e51b815260206004820152601c60248201527f476173206f7074696d697a6174696f6e2074657374206661696c656400000000604482015260640161061a565b60016003604051610654906e33b0b9a7b83a34b6b4bd30ba34b7b760891b8152600f0190565b5f806040516020016113389069195c9c9bdc97dd195cdd60b21b8152600a0190565b60408051601f1981840301815291905280516020909101209050607b80825d604080518381526020810183905260018183015290515f805160206116d28339815191529181900360600190a160017ff1f8f31f9a907354073fb324534cb19dbfd6f47d4c4d39b7acb67324ac431d9160016040516113e291906040808252600f908201526e29b4b6bab630ba32b21032b93937b960891b6060820152602081019190915260800190565b60405180910390a1825c8281146114505760405162461bcd60e51b815260206004820152602c60248201527f5472616e7369656e742073746f72616765206e6f742061636365737369626c6560448201526b1030b33a32b91032b93937b960a11b606482015260840161061a565b60016003604051611474906c6572726f7248616e646c696e6760981b8152600d0190565b908152604051908190036020019020805491151560ff19909216919091179055506001949350505050565b5f6114a8610eea565b6114b0610b95565b506114b961106a565b506114c261023b565b506114cb611316565b506114d4611232565b506114dd610deb565b506114e66107dc565b506001905090565b602081525f82518060208401528060208501604085015e5f604082850101526040601f19601f83011684010191505092915050565b634e487b7160e01b5f52604160045260245ffd5b5f60208284031215611547575f80fd5b813567ffffffffffffffff8082111561155e575f80fd5b818401915084601f830112611571575f80fd5b81358181111561158357611583611523565b604051601f8201601f19908116603f011681019083821181831017156115ab576115ab611523565b816040528281528760208487010111156115c3575f80fd5b826020860160208301375f928101602001929092525095945050505050565b5f602082840312156115f2575f80fd5b5035919050565b634e487b7160e01b5f52603260045260245ffd5b634e487b7160e01b5f52601160045260245ffd5b818103818111156116345761163461160d565b92915050565b80820281158282048414176116345761163461160d565b60208082526028908201527f5472616e7369656e742073746f72616765206e6f7420726576657274656420636040820152676f72726563746c7960c01b606082015260800190565b600181811c908216806116ad57607f821691505b6020821081036116cb57634e487b7160e01b5f52602260045260245ffd5b5091905056fe983f3071498eb6f749fbec97876b7a96bce833f0fffba6526560bf62995c24f30a5b69dda4109f3b3c9a78321d06fd4c59f56d886e9c6c8abaddd33d3d16c103a2646970667358221220562c057ece2669a054e68462bdca449429291932140979714dfc55e37ec53d6864736f6c63430008190033",
  "linkReferences": {},
  "deployedLinkReferences": {}
}