{
  "_format": "hh-sol-artifact-1",
  "contractName": "CW20ERC20Wrapper",
  "sourceName": "src/CW20ERC20Wrapper.sol",
  "abi": [
    {
      "inputs": [
        {
          "internalType": "string",
          "name": "Cw20Address_",
          "type": "string"
        },
        {
          "internalType": "string",
          "name": "name_",
          "type": "string"
        },
        {
          "internalType": "string",
          "name": "symbol_",
          "type": "string"
        }
      ],
      "stateMutability": "nonpayable",
      "type": "constructor"
    },
    {
      "inputs": [
        {
          "internalType": "address",
          "name": "spender",
          "type": "address"
        },
        {
          "internalType": "uint256",
          "name": "allowance",
          "type": "uint256"
        },
        {
          "internalType": "uint256",
          "name": "needed",
          "type": "uint256"
        }
      ],
      "name": "ERC20InsufficientAllowance",
      "type": "error"
    },
    {
      "inputs": [
        {
          "internalType": "address",
          "name": "sender",
          "type": "address"
        },
        {
          "internalType": "uint256",
          "name": "balance",
          "type": "uint256"
        },
        {
          "internalType": "uint256",
          "name": "needed",
          "type": "uint256"
        }
      ],
      "name": "ERC20InsufficientBalance",
      "type": "error"
    },
    {
      "inputs": [
        {
          "internalType": "address",
          "name": "approver",
          "type": "address"
        }
      ],
      "name": "ERC20InvalidApprover",
      "type": "error"
    },
    {
      "inputs": [
        {
          "internalType": "address",
          "name": "receiver",
          "type": "address"
        }
      ],
      "name": "ERC20InvalidReceiver",
      "type": "error"
    },
    {
      "inputs": [
        {
          "internalType": "address",
          "name": "sender",
          "type": "address"
        }
      ],
      "name": "ERC20InvalidSender",
      "type": "error"
    },
    {
      "inputs": [
        {
          "internalType": "address",
          "name": "spender",
          "type": "address"
        }
      ],
      "name": "ERC20InvalidSpender",
      "type": "error"
    },
    {
      "anonymous": false,
      "inputs": [
        {
          "indexed": true,
          "internalType": "address",
          "name": "owner",
          "type": "address"
        },
        {
          "indexed": true,
          "internalType": "address",
          "name": "spender",
          "type": "address"
        },
        {
          "indexed": false,
          "internalType": "uint256",
          "name": "value",
          "type": "uint256"
        }
      ],
      "name": "Approval",
      "type": "event"
    },
    {
      "anonymous": false,
      "inputs": [
        {
          "indexed": true,
          "internalType": "address",
          "name": "from",
          "type": "address"
        },
        {
          "indexed": true,
          "internalType": "address",
          "name": "to",
          "type": "address"
        },
        {
          "indexed": false,
          "internalType": "uint256",
          "name": "value",
          "type": "uint256"
        }
      ],
      "name": "Transfer",
      "type": "event"
    },
    {
      "inputs": [],
      "name": "AddrPrecompile",
      "outputs": [
        {
          "internalType": "contract IAddr",
          "name": "",
          "type": "address"
        }
      ],
      "stateMutability": "view",
      "type": "function"
    },
    {
      "inputs": [],
      "name": "Cw20Address",
      "outputs": [
        {
          "internalType": "string",
          "name": "",
          "type": "string"
        }
      ],
      "stateMutability": "view",
      "type": "function"
    },
    {
      "inputs": [],
      "name": "JsonPrecompile",
      "outputs": [
        {
          "internalType": "contract IJson",
          "name": "",
          "type": "address"
        }
      ],
      "stateMutability": "view",
      "type": "function"
    },
    {
      "inputs": [],
      "name": "WasmdPrecompile",
      "outputs": [
        {
          "internalType": "contract IWasmd",
          "name": "",
          "type": "address"
        }
      ],
      "stateMutability": "view",
      "type": "function"
    },
    {
      "inputs": [
        {
          "internalType": "address",
          "name": "owner",
          "type": "address"
        },
        {
          "internalType": "address",
          "name": "spender",
          "type": "address"
        }
      ],
      "name": "allowance",
      "outputs": [
        {
          "internalType": "uint256",
          "name": "",
          "type": "uint256"
        }
      ],
      "stateMutability": "view",
      "type": "function"
    },
    {
      "inputs": [
        {
          "internalType": "address",
          "name": "spender",
          "type": "address"
        },
        {
          "internalType": "uint256",
          "name": "amount",
          "type": "uint256"
        }
      ],
      "name": "approve",
      "outputs": [
        {
          "internalType": "bool",
          "name": "",
          "type": "bool"
        }
      ],
      "stateMutability": "nonpayable",
      "type": "function"
    },
    {
      "inputs": [
        {
          "internalType": "address",
          "name": "owner",
          "type": "address"
        }
      ],
      "name": "balanceOf",
      "outputs": [
        {
          "internalType": "uint256",
          "name": "",
          "type": "uint256"
        }
      ],
      "stateMutability": "view",
      "type": "function"
    },
    {
      "inputs": [],
      "name": "decimals",
      "outputs": [
        {
          "internalType": "uint8",
          "name": "",
          "type": "uint8"
        }
      ],
      "stateMutability": "view",
      "type": "function"
    },
    {
      "inputs": [],
      "name": "name",
      "outputs": [
        {
          "internalType": "string",
          "name": "",
          "type": "string"
        }
      ],
      "stateMutability": "view",
      "type": "function"
    },
    {
      "inputs": [],
      "name": "symbol",
      "outputs": [
        {
          "internalType": "string",
          "name": "",
          "type": "string"
        }
      ],
      "stateMutability": "view",
      "type": "function"
    },
    {
      "inputs": [],
      "name": "totalSupply",
      "outputs": [
        {
          "internalType": "uint256",
          "name": "",
          "type": "uint256"
        }
      ],
      "stateMutability": "view",
      "type": "function"
    },
    {
      "inputs": [
        {
          "internalType": "address",
          "name": "to",
          "type": "address"
        },
        {
          "internalType": "uint256",
          "name": "amount",
          "type": "uint256"
        }
      ],
      "name": "transfer",
      "outputs": [
        {
          "internalType": "bool",
          "name": "",
          "type": "bool"
        }
      ],
      "stateMutability": "nonpayable",
      "type": "function"
    },
    {
      "inputs": [
        {
          "internalType": "address",
          "name": "from",
          "type": "address"
        },
        {
          "internalType": "address",
          "name": "to",
          "type": "address"
        },
        {
          "internalType": "uint256",
          "name": "amount",
          "type": "uint256"
        }
      ],
      "name": "transferFrom",
      "outputs": [
        {
          "internalType": "bool",
          "name": "",
          "type": "bool"
        }
      ],
      "stateMutability": "nonpayable",
      "type": "function"
    }
  ],
  "bytecode": "0x60806040523480156200001157600080fd5b5060405162001d8c38038062001d8c833981016040819052620000349162000163565b8181600362000044838262000283565b50600462000053828262000283565b5050600680546001600160a01b0319908116611002179091556007805482166110031790556008805490911661100417905550600562000094848262000283565b505050506200034f565b634e487b7160e01b600052604160045260246000fd5b600082601f830112620000c657600080fd5b81516001600160401b0380821115620000e357620000e36200009e565b604051601f8301601f19908116603f011681019082821181831017156200010e576200010e6200009e565b816040528381526020925086838588010111156200012b57600080fd5b600091505b838210156200014f578582018301518183018401529082019062000130565b600093810190920192909252949350505050565b6000806000606084860312156200017957600080fd5b83516001600160401b03808211156200019157600080fd5b6200019f87838801620000b4565b94506020860151915080821115620001b657600080fd5b620001c487838801620000b4565b93506040860151915080821115620001db57600080fd5b50620001ea86828701620000b4565b9150509250925092565b600181811c908216806200020957607f821691505b6020821081036200022a57634e487b7160e01b600052602260045260246000fd5b50919050565b601f8211156200027e57600081815260208120601f850160051c81016020861015620002595750805b601f850160051c820191505b818110156200027a5782815560010162000265565b5050505b505050565b81516001600160401b038111156200029f576200029f6200009e565b620002b781620002b08454620001f4565b8462000230565b602080601f831160018114620002ef5760008415620002d65750858301515b600019600386901b1c1916600185901b1785556200027a565b600085815260208120601f198616915b828110156200032057888601518255948401946001909101908401620002ff565b50858210156200033f5787850151600019600388901b60f8161c191681555b5050505050600190811b01905550565b611a2d806200035f6000396000f3fe608060405234801561001057600080fd5b50600436106100df5760003560e01c806395d89b411161008c578063da73d16b11610066578063da73d16b146101c1578063dd62ed3e146101c9578063de4725cc146101dc578063f00b0255146101ef57600080fd5b806395d89b411461017b578063a9059cbb14610183578063c2aed3021461019657600080fd5b806323b872dd116100bd57806323b872dd1461013b578063313ce5671461014e57806370a082311461016857600080fd5b806306fdde03146100e4578063095ea7b31461010257806318160ddd14610125575b600080fd5b6100ec610202565b6040516100f99190611489565b60405180910390f35b6101156101103660046114b8565b610294565b60405190151581526020016100f9565b61012d61056a565b6040519081526020016100f9565b6101156101493660046114e2565b6106ad565b6101566108ee565b60405160ff90911681526020016100f9565b61012d61017636600461151e565b6109e9565b6100ec610c03565b6101156101913660046114b8565b610c12565b6008546101a9906001600160a01b031681565b6040516001600160a01b0390911681526020016100f9565b6100ec610dc3565b61012d6101d7366004611539565b610e51565b6007546101a9906001600160a01b031681565b6006546101a9906001600160a01b031681565b6060600380546102119061156c565b80601f016020809104026020016040519081016040528092919081815260200182805461023d9061156c565b801561028a5780601f1061025f5761010080835404028352916020019161028a565b820191906000526020600020905b81548152906001019060200180831161026d57829003601f168201915b5050505050905090565b6000806102a13385610e51565b90508281111561040d57604080518082018252600781526639b832b73232b960c91b60208201526008549151630c3c20ed60e01b81526001600160a01b038781166004830152600093610350939261034b9290911690630c3c20ed906024015b600060405180830381865afa15801561031e573d6000803e3d6000fd5b505050506040513d6000823e601f3d908101601f191682016040526103469190810190611630565b611053565b611099565b9050600061038d60405180604001604052806006815260200165185b5bdd5b9d60d21b81525061034b61034688876103889190611681565b6110ea565b905060006103f96103f46040518060400160405280601281526020017f64656372656173655f616c6c6f77616e6365000000000000000000000000000081525061034b6103f48787604051806040016040528060018152602001600b60fa1b81525061118a565b6111d6565b905061040481611206565b5050505061051e565b8281101561051e57604080518082018252600781526639b832b73232b960c91b60208201526008549151630c3c20ed60e01b81526001600160a01b03878116600483015260009361046f939261034b9290911690630c3c20ed90602401610301565b905060006104a760405180604001604052806006815260200165185b5bdd5b9d60d21b81525061034b61034686896103889190611681565b9050600061050e6103f46040518060400160405280601281526020017f696e6372656173655f616c6c6f77616e6365000000000000000000000000000081525061034b6103f48787604051806040016040528060018152602001600b60fa1b81525061118a565b905061051981611206565b505050505b6040518381526001600160a01b0385169033907f8c5be1e5ebec7d5bd14f71427d1e84f3dd0314c0f7b2291e5b200ac8c7c3b9259060200160405180910390a360019150505b92915050565b6000806105b66103f46040518060400160405280600a815260200169746f6b656e5f696e666f60b01b815250604051806040016040528060028152602001617b7d60f01b815250611099565b6006546040516306d81d2960e01b81529192506000916001600160a01b03909116906306d81d29906105ef906005908690600401611746565b600060405180830381865afa15801561060c573d6000803e3d6000fd5b505050506040513d6000823e601f3d908101601f191682016040526106349190810190611630565b600754604051632d2ac4c160e11b81529192506001600160a01b031690635a5589829061066590849060040161176b565b602060405180830381865afa158015610682573d6000803e3d6000fd5b505050506040513d601f19601f820116820180604052508101906106a691906117bd565b9250505090565b60006001600160a01b0383166107165760405162461bcd60e51b815260206004820152602360248201527f45524332303a207472616e7366657220746f20746865207a65726f206164647260448201526265737360e81b60648201526084015b60405180910390fd5b604080518082018252600581526437bbb732b960d91b60208201526008549151630c3c20ed60e01b81526001600160a01b03878116600483015260009361076e939261034b9290911690630c3c20ed90602401610301565b60408051808201825260098152681c9958da5c1a595b9d60ba1b60208201526008549151630c3c20ed60e01b81526001600160a01b0388811660048301529394506000936107cb9361034b92911690630c3c20ed90602401610301565b905060006107fd60405180604001604052806006815260200165185b5bdd5b9d60d21b81525061034b610346886110ea565b905060006108876103f46040518060400160405280600d81526020017f7472616e736665725f66726f6d0000000000000000000000000000000000000081525061034b6103f46108678989604051806040016040528060018152602001600b60fa1b81525061118a565b87604051806040016040528060018152602001600b60fa1b81525061118a565b905061089281611206565b50866001600160a01b0316886001600160a01b03167fddf252ad1be2c89b69c2b068fc378daa952ba7f163c4a11628f55a4df523b3ef886040516108d891815260200190565b60405180910390a3506001979650505050505050565b60008061093a6103f46040518060400160405280600a815260200169746f6b656e5f696e666f60b01b815250604051806040016040528060028152602001617b7d60f01b815250611099565b6006546040516306d81d2960e01b81529192506000916001600160a01b03909116906306d81d2990610973906005908690600401611746565b600060405180830381865afa158015610990573d6000803e3d6000fd5b505050506040513d6000823e601f3d908101601f191682016040526109b89190810190611630565b600754604051632d2ac4c160e11b81529192506001600160a01b031690635a558982906106659084906004016117d6565b60006001600160a01b038216610a675760405162461bcd60e51b815260206004820152602960248201527f45524332303a2062616c616e636520717565727920666f7220746865207a657260448201527f6f20616464726573730000000000000000000000000000000000000000000000606482015260840161070d565b604080518082018252600781527f616464726573730000000000000000000000000000000000000000000000000060208201526008549151630c3c20ed60e01b81526001600160a01b038581166004830152600093610ad7939261034b9290911690630c3c20ed90602401610301565b90506000610b0a6103f46040518060400160405280600781526020016662616c616e636560c81b81525061034b856111d6565b6006546040516306d81d2960e01b81529192506000916001600160a01b03909116906306d81d2990610b43906005908690600401611746565b600060405180830381865afa158015610b60573d6000803e3d6000fd5b505050506040513d6000823e601f3d908101601f19168201604052610b889190810190611630565b600754604051632d2ac4c160e11b81529192506001600160a01b031690635a55898290610bb9908490600401611828565b602060405180830381865afa158015610bd6573d6000803e3d6000fd5b505050506040513d601f19601f82011682018060405250810190610bfa91906117bd565b95945050505050565b6060600480546102119061156c565b60006001600160a01b038316610c765760405162461bcd60e51b815260206004820152602360248201527f45524332303a207472616e7366657220746f20746865207a65726f206164647260448201526265737360e81b606482015260840161070d565b60408051808201825260098152681c9958da5c1a595b9d60ba1b60208201526008549151630c3c20ed60e01b81526001600160a01b038681166004830152600093610cd2939261034b9290911690630c3c20ed90602401610301565b90506000610d0460405180604001604052806006815260200165185b5bdd5b9d60d21b81525061034b610346876110ea565b90506000610d6b6103f46040518060400160405280600881526020017f7472616e7366657200000000000000000000000000000000000000000000000081525061034b6103f48787604051806040016040528060018152602001600b60fa1b81525061118a565b9050610d7681611206565b506040518581526001600160a01b0387169033907fddf252ad1be2c89b69c2b068fc378daa952ba7f163c4a11628f55a4df523b3ef9060200160405180910390a350600195945050505050565b60058054610dd09061156c565b80601f0160208091040260200160405190810160405280929190818152602001828054610dfc9061156c565b8015610e495780601f10610e1e57610100808354040283529160200191610e49565b820191906000526020600020905b815481529060010190602001808311610e2c57829003601f168201915b505050505081565b604080518082018252600581526437bbb732b960d91b60208201526008549151630c3c20ed60e01b81526001600160a01b0385811660048301526000938493610eaa93909261034b921690630c3c20ed90602401610301565b604080518082018252600781526639b832b73232b960c91b60208201526008549151630c3c20ed60e01b81526001600160a01b038781166004830152939450600093610f059361034b92911690630c3c20ed90602401610301565b90506000610f586103f460405180604001604052806009815260200168616c6c6f77616e636560b81b81525061034b6103f48787604051806040016040528060018152602001600b60fa1b81525061118a565b6006546040516306d81d2960e01b81529192506000916001600160a01b03909116906306d81d2990610f91906005908690600401611746565b600060405180830381865afa158015610fae573d6000803e3d6000fd5b505050506040513d6000823e601f3d908101601f19168201604052610fd69190810190611630565b600754604051632d2ac4c160e11b81529192506001600160a01b031690635a55898290611007908490600401611864565b602060405180830381865afa158015611024573d6000803e3d6000fd5b505050506040513d601f19601f8201168201806040525081019061104891906117bd565b979650505050505050565b60608160405160200161106691906118a2565b60408051601f1981840301815290829052611083916020016118c7565b6040516020818303038152906040529050919050565b60606110e36110a784611053565b836040518060400160405280600181526020017f3a0000000000000000000000000000000000000000000000000000000000000081525061118a565b9392505050565b606060006110f783611357565b600101905060008167ffffffffffffffff811115611117576111176115a6565b6040519080825280601f01601f191660200182016040528015611141576020820181803683370190505b5090508181016020015b600019017f3031323334353637383961626364656600000000000000000000000000000000600a86061a8153600a850494508461114b57509392505050565b60608382846040516020016111a09291906118f0565b60408051601f19818403018152908290526111be92916020016118f0565b60405160208183030381529060405290509392505050565b6060816040516020016111e9919061191f565b60408051601f198184030181529082905261108391602001611960565b60606000806110026001600160a01b03166005856040518060400160405280600281526020017f5b5d00000000000000000000000000000000000000000000000000000000000081525060405160240161126293929190611998565b60408051601f198184030181529181526020820180517bffffffffffffffffffffffffffffffffffffffffffffffffffffffff167f44d227ae00000000000000000000000000000000000000000000000000000000179052516112c591906119db565b600060405180830381855af49150503d8060008114611300576040519150601f19603f3d011682016040523d82523d6000602084013e611305565b606091505b5091509150816110e35760405162461bcd60e51b815260206004820152601760248201527f436f736d5761736d2065786563757465206661696c6564000000000000000000604482015260640161070d565b6000807a184f03e93ff9f4daa797ed6e38ed64bf6a1f01000000000000000083106113a0577a184f03e93ff9f4daa797ed6e38ed64bf6a1f010000000000000000830492506040015b6d04ee2d6d415b85acef810000000083106113cc576d04ee2d6d415b85acef8100000000830492506020015b662386f26fc1000083106113ea57662386f26fc10000830492506010015b6305f5e1008310611402576305f5e100830492506008015b612710831061141657612710830492506004015b60648310611428576064830492506002015b600a83106105645760010192915050565b60005b8381101561145457818101518382015260200161143c565b50506000910152565b60008151808452611475816020860160208601611439565b601f01601f19169290920160200192915050565b6020815260006110e3602083018461145d565b80356001600160a01b03811681146114b357600080fd5b919050565b600080604083850312156114cb57600080fd5b6114d48361149c565b946020939093013593505050565b6000806000606084860312156114f757600080fd5b6115008461149c565b925061150e6020850161149c565b9150604084013590509250925092565b60006020828403121561153057600080fd5b6110e38261149c565b6000806040838503121561154c57600080fd5b6115558361149c565b91506115636020840161149c565b90509250929050565b600181811c9082168061158057607f821691505b6020821081036115a057634e487b7160e01b600052602260045260246000fd5b50919050565b634e487b7160e01b600052604160045260246000fd5b600067ffffffffffffffff808411156115d7576115d76115a6565b604051601f8501601f19908116603f011681019082821181831017156115ff576115ff6115a6565b8160405280935085815286868601111561161857600080fd5b611626866020830187611439565b5050509392505050565b60006020828403121561164257600080fd5b815167ffffffffffffffff81111561165957600080fd5b8201601f8101841361166a57600080fd5b611679848251602084016115bc565b949350505050565b8181038181111561056457634e487b7160e01b600052601160045260246000fd5b8054600090600181811c90808316806116bc57607f831692505b602080841082036116dd57634e487b7160e01b600052602260045260246000fd5b838852602088018280156116f8576001811461170e57611739565b60ff198716825285151560051b82019750611739565b60008981526020902060005b878110156117335781548482015290860190840161171a565b83019850505b5050505050505092915050565b60408152600061175960408301856116a2565b8281036020840152610bfa818561145d565b60408152600061177e604083018461145d565b8281036020840152600c81527f746f74616c5f737570706c79000000000000000000000000000000000000000060208201526040810191505092915050565b6000602082840312156117cf57600080fd5b5051919050565b6040815260006117e9604083018461145d565b8281036020840152600881527f646563696d616c7300000000000000000000000000000000000000000000000060208201526040810191505092915050565b60408152600061183b604083018461145d565b8281036020840152600781526662616c616e636560c81b60208201526040810191505092915050565b604081526000611877604083018461145d565b82810360208401526009815268616c6c6f77616e636560b81b60208201526040810191505092915050565b600082516118b4818460208701611439565b601160f91b920191825250600101919050565b601160f91b8152600082516118e3816001850160208701611439565b9190910160010192915050565b60008351611902818460208801611439565b835190830190611916818360208801611439565b01949350505050565b60008251611931818460208701611439565b7f7d00000000000000000000000000000000000000000000000000000000000000920191825250600101919050565b7f7b000000000000000000000000000000000000000000000000000000000000008152600082516118e3816001850160208701611439565b6060815260006119ab60608301866116a2565b82810360208401526119bd818661145d565b905082810360408401526119d1818561145d565b9695505050505050565b600082516119ed818460208701611439565b919091019291505056fea264697066735822122028577484573bf14cd4537537e6edfa322678e14a3860b876cd44cc6f83a2093964736f6c63430008140033",
  "linkReferences": {},
  "deployedLinkReferences": {}
}