{
  "_format": "hh-sol-artifact-1",
  "contractName": "CW721ERC721Pointer",
  "sourceName": "contracts/src/CW721ERC721Pointer.sol",
  "abi": [
    {
      "inputs": [
        {
          "internalType": "string",
          "name": "Cw721Address_",
          "type": "string"
        },
        {
          "internalType": "string",
          "name": "name_",
          "type": "string"
        },
        {
          "internalType": "string",
          "name": "symbol_",
          "type": "string"
        }
      ],
      "stateMutability": "nonpayable",
      "type": "constructor"
    },
    {
      "inputs": [
        {
          "internalType": "uint256",
          "name": "numerator",
          "type": "uint256"
        },
        {
          "internalType": "uint256",
          "name": "denominator",
          "type": "uint256"
        }
      ],
      "name": "ERC2981InvalidDefaultRoyalty",
      "type": "error"
    },
    {
      "inputs": [
        {
          "internalType": "address",
          "name": "receiver",
          "type": "address"
        }
      ],
      "name": "ERC2981InvalidDefaultRoyaltyReceiver",
      "type": "error"
    },
    {
      "inputs": [
        {
          "internalType": "uint256",
          "name": "tokenId",
          "type": "uint256"
        },
        {
          "internalType": "uint256",
          "name": "numerator",
          "type": "uint256"
        },
        {
          "internalType": "uint256",
          "name": "denominator",
          "type": "uint256"
        }
      ],
      "name": "ERC2981InvalidTokenRoyalty",
      "type": "error"
    },
    {
      "inputs": [
        {
          "internalType": "uint256",
          "name": "tokenId",
          "type": "uint256"
        },
        {
          "internalType": "address",
          "name": "receiver",
          "type": "address"
        }
      ],
      "name": "ERC2981InvalidTokenRoyaltyReceiver",
      "type": "error"
    },
    {
      "inputs": [
        {
          "internalType": "address",
          "name": "sender",
          "type": "address"
        },
        {
          "internalType": "uint256",
          "name": "tokenId",
          "type": "uint256"
        },
        {
          "internalType": "address",
          "name": "owner",
          "type": "address"
        }
      ],
      "name": "ERC721IncorrectOwner",
      "type": "error"
    },
    {
      "inputs": [
        {
          "internalType": "address",
          "name": "operator",
          "type": "address"
        },
        {
          "internalType": "uint256",
          "name": "tokenId",
          "type": "uint256"
        }
      ],
      "name": "ERC721InsufficientApproval",
      "type": "error"
    },
    {
      "inputs": [
        {
          "internalType": "address",
          "name": "approver",
          "type": "address"
        }
      ],
      "name": "ERC721InvalidApprover",
      "type": "error"
    },
    {
      "inputs": [
        {
          "internalType": "address",
          "name": "operator",
          "type": "address"
        }
      ],
      "name": "ERC721InvalidOperator",
      "type": "error"
    },
    {
      "inputs": [
        {
          "internalType": "address",
          "name": "owner",
          "type": "address"
        }
      ],
      "name": "ERC721InvalidOwner",
      "type": "error"
    },
    {
      "inputs": [
        {
          "internalType": "address",
          "name": "receiver",
          "type": "address"
        }
      ],
      "name": "ERC721InvalidReceiver",
      "type": "error"
    },
    {
      "inputs": [
        {
          "internalType": "address",
          "name": "sender",
          "type": "address"
        }
      ],
      "name": "ERC721InvalidSender",
      "type": "error"
    },
    {
      "inputs": [
        {
          "internalType": "uint256",
          "name": "tokenId",
          "type": "uint256"
        }
      ],
      "name": "ERC721NonexistentToken",
      "type": "error"
    },
    {
      "inputs": [
        {
          "internalType": "string",
          "name": "method",
          "type": "string"
        }
      ],
      "name": "NotImplemented",
      "type": "error"
    },
    {
      "inputs": [
        {
          "internalType": "string",
          "name": "method",
          "type": "string"
        }
      ],
      "name": "NotImplementedOnCosmwasmContract",
      "type": "error"
    },
    {
      "anonymous": false,
      "inputs": [
        {
          "indexed": true,
          "internalType": "address",
          "name": "owner",
          "type": "address"
        },
        {
          "indexed": true,
          "internalType": "address",
          "name": "approved",
          "type": "address"
        },
        {
          "indexed": true,
          "internalType": "uint256",
          "name": "tokenId",
          "type": "uint256"
        }
      ],
      "name": "Approval",
      "type": "event"
    },
    {
      "anonymous": false,
      "inputs": [
        {
          "indexed": true,
          "internalType": "address",
          "name": "owner",
          "type": "address"
        },
        {
          "indexed": true,
          "internalType": "address",
          "name": "operator",
          "type": "address"
        },
        {
          "indexed": false,
          "internalType": "bool",
          "name": "approved",
          "type": "bool"
        }
      ],
      "name": "ApprovalForAll",
      "type": "event"
    },
    {
      "anonymous": false,
      "inputs": [
        {
          "indexed": true,
          "internalType": "address",
          "name": "from",
          "type": "address"
        },
        {
          "indexed": true,
          "internalType": "address",
          "name": "to",
          "type": "address"
        },
        {
          "indexed": true,
          "internalType": "uint256",
          "name": "tokenId",
          "type": "uint256"
        }
      ],
      "name": "Transfer",
      "type": "event"
    },
    {
      "inputs": [],
      "name": "AddrPrecompile",
      "outputs": [
        {
          "internalType": "contract IAddr",
          "name": "",
          "type": "address"
        }
      ],
      "stateMutability": "view",
      "type": "function"
    },
    {
      "inputs": [],
      "name": "Cw721Address",
      "outputs": [
        {
          "internalType": "string",
          "name": "",
          "type": "string"
        }
      ],
      "stateMutability": "view",
      "type": "function"
    },
    {
      "inputs": [],
      "name": "JsonPrecompile",
      "outputs": [
        {
          "internalType": "contract IJson",
          "name": "",
          "type": "address"
        }
      ],
      "stateMutability": "view",
      "type": "function"
    },
    {
      "inputs": [],
      "name": "WasmdPrecompile",
      "outputs": [
        {
          "internalType": "contract IWasmd",
          "name": "",
          "type": "address"
        }
      ],
      "stateMutability": "view",
      "type": "function"
    },
    {
      "inputs": [
        {
          "internalType": "address",
          "name": "approved",
          "type": "address"
        },
        {
          "internalType": "uint256",
          "name": "tokenId",
          "type": "uint256"
        }
      ],
      "name": "approve",
      "outputs": [],
      "stateMutability": "nonpayable",
      "type": "function"
    },
    {
      "inputs": [
        {
          "internalType": "address",
          "name": "owner_",
          "type": "address"
        }
      ],
      "name": "balanceOf",
      "outputs": [
        {
          "internalType": "uint256",
          "name": "",
          "type": "uint256"
        }
      ],
      "stateMutability": "view",
      "type": "function"
    },
    {
      "inputs": [
        {
          "internalType": "uint256",
          "name": "tokenId",
          "type": "uint256"
        }
      ],
      "name": "getApproved",
      "outputs": [
        {
          "internalType": "address",
          "name": "",
          "type": "address"
        }
      ],
      "stateMutability": "view",
      "type": "function"
    },
    {
      "inputs": [
        {
          "internalType": "address",
          "name": "owner_",
          "type": "address"
        },
        {
          "internalType": "address",
          "name": "operator",
          "type": "address"
        }
      ],
      "name": "isApprovedForAll",
      "outputs": [
        {
          "internalType": "bool",
          "name": "",
          "type": "bool"
        }
      ],
      "stateMutability": "view",
      "type": "function"
    },
    {
      "inputs": [],
      "name": "name",
      "outputs": [
        {
          "internalType": "string",
          "name": "",
          "type": "string"
        }
      ],
      "stateMutability": "view",
      "type": "function"
    },
    {
      "inputs": [],
      "name": "owner",
      "outputs": [
        {
          "internalType": "address",
          "name": "",
          "type": "address"
        }
      ],
      "stateMutability": "view",
      "type": "function"
    },
    {
      "inputs": [
        {
          "internalType": "uint256",
          "name": "tokenId",
          "type": "uint256"
        }
      ],
      "name": "ownerOf",
      "outputs": [
        {
          "internalType": "address",
          "name": "",
          "type": "address"
        }
      ],
      "stateMutability": "view",
      "type": "function"
    },
    {
      "inputs": [
        {
          "internalType": "uint256",
          "name": "tokenId",
          "type": "uint256"
        },
        {
          "internalType": "uint256",
          "name": "salePrice",
          "type": "uint256"
        }
      ],
      "name": "royaltyInfo",
      "outputs": [
        {
          "internalType": "address",
          "name": "",
          "type": "address"
        },
        {
          "internalType": "uint256",
          "name": "",
          "type": "uint256"
        }
      ],
      "stateMutability": "view",
      "type": "function"
    },
    {
      "inputs": [
        {
          "internalType": "address",
          "name": "from",
          "type": "address"
        },
        {
          "internalType": "address",
          "name": "to",
          "type": "address"
        },
        {
          "internalType": "uint256",
          "name": "tokenId",
          "type": "uint256"
        }
      ],
      "name": "safeTransferFrom",
      "outputs": [],
      "stateMutability": "nonpayable",
      "type": "function"
    },
    {
      "inputs": [
        {
          "internalType": "address",
          "name": "from",
          "type": "address"
        },
        {
          "internalType": "address",
          "name": "to",
          "type": "address"
        },
        {
          "internalType": "uint256",
          "name": "tokenId",
          "type": "uint256"
        },
        {
          "internalType": "bytes",
          "name": "data",
          "type": "bytes"
        }
      ],
      "name": "safeTransferFrom",
      "outputs": [],
      "stateMutability": "nonpayable",
      "type": "function"
    },
    {
      "inputs": [
        {
          "internalType": "address",
          "name": "operator",
          "type": "address"
        },
        {
          "internalType": "bool",
          "name": "approved",
          "type": "bool"
        }
      ],
      "name": "setApprovalForAll",
      "outputs": [],
      "stateMutability": "nonpayable",
      "type": "function"
    },
    {
      "inputs": [
        {
          "internalType": "bytes4",
          "name": "interfaceId",
          "type": "bytes4"
        }
      ],
      "name": "supportsInterface",
      "outputs": [
        {
          "internalType": "bool",
          "name": "",
          "type": "bool"
        }
      ],
      "stateMutability": "pure",
      "type": "function"
    },
    {
      "inputs": [],
      "name": "symbol",
      "outputs": [
        {
          "internalType": "string",
          "name": "",
          "type": "string"
        }
      ],
      "stateMutability": "view",
      "type": "function"
    },
    {
      "inputs": [
        {
          "internalType": "uint256",
          "name": "",
          "type": "uint256"
        }
      ],
      "name": "tokenByIndex",
      "outputs": [
        {
          "internalType": "uint256",
          "name": "",
          "type": "uint256"
        }
      ],
      "stateMutability": "view",
      "type": "function"
    },
    {
      "inputs": [
        {
          "internalType": "address",
          "name": "",
          "type": "address"
        },
        {
          "internalType": "uint256",
          "name": "",
          "type": "uint256"
        }
      ],
      "name": "tokenOfOwnerByIndex",
      "outputs": [
        {
          "internalType": "uint256",
          "name": "",
          "type": "uint256"
        }
      ],
      "stateMutability": "view",
      "type": "function"
    },
    {
      "inputs": [
        {
          "internalType": "uint256",
          "name": "tokenId",
          "type": "uint256"
        }
      ],
      "name": "tokenURI",
      "outputs": [
        {
          "internalType": "string",
          "name": "",
          "type": "string"
        }
      ],
      "stateMutability": "view",
      "type": "function"
    },
    {
      "inputs": [],
      "name": "totalSupply",
      "outputs": [
        {
          "internalType": "uint256",
          "name": "",
          "type": "uint256"
        }
      ],
      "stateMutability": "view",
      "type": "function"
    },
    {
      "inputs": [
        {
          "internalType": "address",
          "name": "from",
          "type": "address"
        },
        {
          "internalType": "address",
          "name": "to",
          "type": "address"
        },
        {
          "internalType": "uint256",
          "name": "tokenId",
          "type": "uint256"
        }
      ],
      "name": "transferFrom",
      "outputs": [],
      "stateMutability": "nonpayable",
      "type": "function"
    }
  ],
  "bytecode": "0x608060405234801561000f575f80fd5b50604051612de0380380612de083398101604081905261002e9161012c565b81815f61003b8382610231565b5060016100488282610231565b5050600980546001600160a01b031990811661100217909155600a80548216611003179055600b80549091166110041790555060086100878482610231565b505050506102f0565b634e487b7160e01b5f52604160045260245ffd5b5f82601f8301126100b3575f80fd5b81516001600160401b03808211156100cd576100cd610090565b604051601f8301601f19908116603f011681019082821181831017156100f5576100f5610090565b8160405283815286602085880101111561010d575f80fd5b8360208701602083015e5f602085830101528094505050505092915050565b5f805f6060848603121561013e575f80fd5b83516001600160401b0380821115610154575f80fd5b610160878388016100a4565b94506020860151915080821115610175575f80fd5b610181878388016100a4565b93506040860151915080821115610196575f80fd5b506101a3868287016100a4565b9150509250925092565b600181811c908216806101c157607f821691505b6020821081036101df57634e487b7160e01b5f52602260045260245ffd5b50919050565b601f82111561022c57805f5260205f20601f840160051c8101602085101561020a5750805b601f840160051c820191505b81811015610229575f8155600101610216565b50505b505050565b81516001600160401b0381111561024a5761024a610090565b61025e8161025884546101ad565b846101e5565b602080601f831160018114610291575f841561027a5750858301515b5f19600386901b1c1916600185901b1785556102e8565b5f85815260208120601f198616915b828110156102bf578886015182559484019460019091019084016102a0565b50858210156102dc57878501515f19600388901b60f8161c191681555b505060018460011b0185555b505050505050565b612ae3806102fd5f395ff3fe608060405234801561000f575f80fd5b506004361061013d575f3560e01c80636352211e116100b4578063b88d4fde11610079578063b88d4fde146102a3578063c2aed302146102b6578063c87b56dd146102c9578063de4725cc146102dc578063e985e9c5146102ef578063f00b025514610302575f80fd5b80636352211e1461025a57806370a082311461026d5780638da5cb5b1461028057806395d89b4114610288578063a22cb46514610290575f80fd5b806323b872dd1161010557806323b872dd146101d45780632a55205a146101e75780632f745c591461021957806342842e0e1461022c5780634f6ccce71461023f5780635c4aead714610252575f80fd5b806301ffc9a71461014157806306fdde0314610169578063081812fc1461017e578063095ea7b3146101a957806318160ddd146101be575b5f80fd5b61015461014f3660046120c5565b610315565b60405190151581526020015b60405180910390f35b610171610381565b604051610160919061210e565b61019161018c366004612120565b610410565b6040516001600160a01b039091168152602001610160565b6101bc6101b736600461214b565b610690565b005b6101c66107bc565b604051908152602001610160565b6101bc6101e2366004612175565b6108cf565b6101fa6101f53660046121b3565b610a5d565b604080516001600160a01b039093168352602083019190915201610160565b6101c661022736600461214b565b610eeb565b6101bc61023a366004612175565b610f2c565b6101c661024d366004612120565b610f4b565b610171610f85565b610191610268366004612120565b611011565b6101c661027b3660046121d3565b6111df565b610191611557565b610171611708565b6101bc61029e3660046121ee565b611717565b6101bc6102b1366004612295565b6117ec565b600b54610191906001600160a01b031681565b6101716102d7366004612120565b611804565b600a54610191906001600160a01b031681565b6101546102fd36600461233d565b611963565b600954610191906001600160a01b031681565b5f6001600160e01b0319821663152a902d60e11b148061034557506001600160e01b031982166301ffc9a760e01b145b8061036057506001600160e01b031982166380ac58cd60e01b145b8061037b57506001600160e01b03198216635b5e139f60e01b145b92915050565b60605f805461038f90612369565b80601f01602080910402602001604051908101604052809291908181526020018280546103bb90612369565b80156104065780601f106103dd57610100808354040283529160200191610406565b820191905f5260205f20905b8154815290600101906020018083116103e957829003601f168201915b5050505050905090565b5f8061044c604051806040016040528060088152602001671d1bdad95b97da5960c21b81525061044761044286611c25565b611cb5565b611cfb565b90505f61048561048060405180604001604052806009815260200168617070726f76616c7360b81b81525061044785611d30565b611d30565b6009546040516306d81d2960e01b81529192505f916001600160a01b03909116906306d81d29906104bd906008908690600401612440565b5f60405180830381865afa1580156104d7573d5f803e3d5ffd5b505050506040513d5f823e601f3d908101601f191682016040526104fe91908101906124c1565b600a546040516387cdf62160e01b81529192505f916001600160a01b03909116906387cdf621906105339085906004016124fb565b5f60405180830381865afa15801561054d573d5f803e3d5ffd5b505050506040513d5f823e601f3d908101601f191682016040526105749190810190612538565b80519091501561068557600a5481515f916001600160a01b0316906308d858e590849084906105a5576105a56125f4565b60200260200101516040518263ffffffff1660e01b81526004016105c99190612608565b5f60405180830381865afa1580156105e3573d5f803e3d5ffd5b505050506040513d5f823e601f3d908101601f1916820160405261060a91908101906124c1565b600b54604051631778e53960e01b81529192506001600160a01b031690631778e5399061063b90849060040161210e565b602060405180830381865afa158015610656573d5f803e3d5ffd5b505050506040513d601f19601f8201168201806040525081019061067a9190612643565b979650505050505050565b505f95945050505050565b604080518082018252600781526639b832b73232b960c91b6020820152600b549151630c3c20ed60e01b81526001600160a01b0385811660048301525f9361072693926104479290911690630c3c20ed906024015b5f60405180830381865afa1580156106ff573d5f803e3d5ffd5b505050506040513d5f823e601f3d908101601f19168201604052610442919081019061265e565b90505f610759604051806040016040528060088152602001671d1bdad95b97da5960c21b81525061044761044286611c25565b90505f6107a961048060405180604001604052806007815260200166617070726f766560c81b8152506104476104808787604051806040016040528060018152602001600b60fa1b815250611d60565b90506107b481611dac565b505050505050565b60095460408051808201825260118152707b226e756d5f746f6b656e73223a7b7d7d60781b602082015290516306d81d2960e01b81525f9283926001600160a01b03909116916306d81d29916108189160089190600401612440565b5f60405180830381865afa158015610832573d5f803e3d5ffd5b505050506040513d5f823e601f3d908101601f1916820160405261085991908101906124c1565b600a54604051632d2ac4c160e11b81529192506001600160a01b031690635a5589829061088a9084906004016126a3565b602060405180830381865afa1580156108a5573d5f803e3d5ffd5b505050506040513d601f19601f820116820180604052508101906108c991906126dc565b91505090565b6001600160a01b0382166108fd57604051633250574960e11b81525f60048201526024015b60405180910390fd5b61090681611011565b6001600160a01b0316836001600160a01b0316146109665760405162461bcd60e51b815260206004820152601860248201527f6066726f6d60206d75737420626520746865206f776e6572000000000000000060448201526064016108f4565b60408051808201825260098152681c9958da5c1a595b9d60ba1b6020820152600b549151630c3c20ed60e01b81526001600160a01b0385811660048301525f936109c193926104479290911690630c3c20ed906024016106e5565b90505f6109f4604051806040016040528060088152602001671d1bdad95b97da5960c21b81525061044761044286611c25565b90505f610a496104806040518060400160405280600c81526020016b1d1c985b9cd9995c97db999d60a21b8152506104476104808787604051806040016040528060018152602001600b60fa1b815250611d60565b9050610a5481611dac565b50505050505050565b5f805f60095f9054906101000a90046001600160a01b03166001600160a01b03166306d81d2960086040518060600160405280602c8152602001612a82602c91396040518363ffffffff1660e01b8152600401610abb929190612440565b5f60405180830381865afa158015610ad5573d5f803e3d5ffd5b505050506040513d5f823e601f3d908101601f19168201604052610afc91908101906124c1565b600a546040516308d858e560e01b81529192505f916001600160a01b03909116906308d858e590610b319085906004016126f3565b5f60405180830381865afa158015610b4b573d5f803e3d5ffd5b505050506040513d5f823e601f3d908101601f19168201604052610b7291908101906124c1565b90507f6273151f959616268004b58dbb21e5c851b7b8d04498b4aabee12291d22fc034818051906020012014610bda5760405163438c4bcb60e01b815260206004820152600c60248201526b726f79616c74795f696e666f60a01b60448201526064016108f4565b5f610c0b604051806040016040528060088152602001671d1bdad95b97da5960c21b8152506104476104428a611c25565b90505f610c406040518060400160405280600a81526020016973616c655f707269636560b01b8152506104476104428a611c25565b90505f610c956104806040518060400160405280600c81526020016b726f79616c74795f696e666f60a01b8152506104476104808787604051806040016040528060018152602001600b60fa1b815250611d60565b90505f610ce86104806040518060400160405280600981526020016832bc3a32b739b4b7b760b91b815250610447610480604051806040016040528060038152602001626d736760e81b81525087611cfb565b6009546040516306d81d2960e01b81529192505f916001600160a01b03909116906306d81d2990610d20906008908690600401612440565b5f60405180830381865afa158015610d3a573d5f803e3d5ffd5b505050506040513d5f823e601f3d908101601f19168201604052610d6191908101906124c1565b600a546040516308d858e560e01b81529192505f916001600160a01b03909116906308d858e590610d96908590600401612737565b5f60405180830381865afa158015610db0573d5f803e3d5ffd5b505050506040513d5f823e601f3d908101601f19168201604052610dd791908101906124c1565b600a54604051632d2ac4c160e11b81529192505f916001600160a01b0390911690635a55898290610e0c908690600401612772565b602060405180830381865afa158015610e27573d5f803e3d5ffd5b505050506040513d601f19601f82011682018060405250810190610e4b91906126dc565b905081515f03610e68575f9a509850610ee4975050505050505050565b600b54604051631778e53960e01b81526001600160a01b0390911690631778e53990610e9890859060040161210e565b602060405180830381865afa158015610eb3573d5f803e3d5ffd5b505050506040513d601f19601f82011682018060405250810190610ed79190612643565b9a50985050505050505050505b9250929050565b604051631d04569d60e21b81526020600482015260136024820152720e8ded6cadc9ecc9eeedccae484f292dcc8caf606b1b60448201525f906064016108f4565b610f4683838360405180602001604052805f8152506117ec565b505050565b604051631d04569d60e21b815260206004820152600c60248201526b0e8ded6cadc84f292dcc8caf60a31b60448201525f906064016108f4565b60088054610f9290612369565b80601f0160208091040260200160405190810160405280929190818152602001828054610fbe90612369565b80156110095780601f10610fe057610100808354040283529160200191611009565b820191905f5260205f20905b815481529060010190602001808311610fec57829003601f168201915b505050505081565b5f80611043604051806040016040528060088152602001671d1bdad95b97da5960c21b81525061044761044286611c25565b90505f6110766104806040518060400160405280600881526020016737bbb732b92fb7b360c11b81525061044785611d30565b6009546040516306d81d2960e01b81529192505f916001600160a01b03909116906306d81d29906110ae906008908690600401612440565b5f60405180830381865afa1580156110c8573d5f803e3d5ffd5b505050506040513d5f823e601f3d908101601f191682016040526110ef91908101906124c1565b600a546040516308d858e560e01b81529192505f916001600160a01b03909116906308d858e5906111249085906004016127b4565b5f60405180830381865afa15801561113e573d5f803e3d5ffd5b505050506040513d5f823e601f3d908101601f1916820160405261116591908101906124c1565b600b54604051631778e53960e01b81529192506001600160a01b031690631778e5399061119690849060040161210e565b602060405180830381865afa1580156111b1573d5f803e3d5ffd5b505050506040513d601f19601f820116820180604052508101906111d59190612643565b9695505050505050565b5f6001600160a01b038216611209576040516322718ad960e21b81525f60048201526024016108f4565b600b54604051630c3c20ed60e01b81526001600160a01b0384811660048301525f92606092849290911690630c3c20ed906024015f60405180830381865afa158015611257573d5f803e3d5ffd5b505050506040513d5f823e601f3d908101601f1916820160405261127e919081019061265e565b60405160200161128e9190612804565b60408051601f19818403018152908290526112ab9160200161282e565b60405160208183030381529060405290505f7fcc1a5a473fb6da314e591eaff47c9e633c2fdb385df3a7900f90f8a3ce756bdd905060605f80846040516020016112f5919061284a565b60408051601f198184030181529082905261131291602001612869565b60408051601f19818403018152908290526009546306d81d2960e01b83529092505f916001600160a01b03909116906306d81d2990611358906008908690600401612440565b5f60405180830381865afa158015611372573d5f803e3d5ffd5b505050506040513d5f823e601f3d908101601f1916820160405261139991908101906124c1565b90505b80516020820120851461154957600a546040516387cdf62160e01b81526001600160a01b03909116906387cdf621906113d9908490600401612886565b5f60405180830381865afa1580156113f3573d5f803e3d5ffd5b505050506040513d5f823e601f3d908101601f1916820160405261141a9190810190612538565b8051909450925061142b83896128d4565b9750836114396001856128e7565b81518110611449576114496125f4565b602002602001015160405160200161146191906128fa565b6040516020818303038152906040529650858760405160200161148592919061291d565b60408051601f19818403018152908290526114a29160200161284a565b60408051601f19818403018152908290526114bf91602001612869565b60408051601f19818403018152908290526009546306d81d2960e01b83529093506001600160a01b0316906306d81d2990611501906008908690600401612440565b5f60405180830381865afa15801561151b573d5f803e3d5ffd5b505050506040513d5f823e601f3d908101601f1916820160405261154291908101906124c1565b905061139c565b509598975050505050505050565b5f806115a16104806040518060400160405280600981526020016806f776e6572736869760bc1b815250604051806040016040528060028152602001617b7d60f01b815250611cfb565b6009546040516306d81d2960e01b81529192505f916001600160a01b03909116906306d81d29906115d9906008908690600401612440565b5f60405180830381865afa1580156115f3573d5f803e3d5ffd5b505050506040513d5f823e601f3d908101601f1916820160405261161a91908101906124c1565b600a546040516308d858e560e01b81529192505f916001600160a01b03909116906308d858e59061164f9085906004016127b4565b5f60405180830381865afa158015611669573d5f803e3d5ffd5b505050506040513d5f823e601f3d908101601f1916820160405261169091908101906124c1565b600b54604051631778e53960e01b81529192506001600160a01b031690631778e539906116c190849060040161210e565b602060405180830381865afa1580156116dc573d5f803e3d5ffd5b505050506040513d601f19601f820116820180604052508101906117009190612643565b935050505090565b60606001805461038f90612369565b604080518082018252600881526737b832b930ba37b960c11b6020820152600b549151630c3c20ed60e01b81526001600160a01b0385811660048301525f9361177493610480939092610447921690630c3c20ed906024016106e5565b905081156117ba576117b46117af6104806040518060400160405280600b81526020016a185c1c1c9bdd9957d85b1b60aa1b81525084611cfb565b611dac565b50505050565b6117b46117af6104806040518060400160405280600a8152602001691c995d9bdad957d85b1b60b21b81525084611cfb565b6117f78484846108cf565b6117b43385858585611eb0565b606061180f82611011565b505f611841604051806040016040528060088152602001671d1bdad95b97da5960c21b81525061044761044286611c25565b90505f611874610480604051806040016040528060088152602001676e66745f696e666f60c01b81525061044785611d30565b6009546040516306d81d2960e01b81529192505f916001600160a01b03909116906306d81d29906118ac906008908690600401612440565b5f60405180830381865afa1580156118c6573d5f803e3d5ffd5b505050506040513d5f823e601f3d908101601f191682016040526118ed91908101906124c1565b600a546040516308d858e560e01b81529192505f916001600160a01b03909116906308d858e590611922908590600401612931565b5f60405180830381865afa15801561193c573d5f803e3d5ffd5b505050506040513d5f823e601f3d908101601f191682016040526111d591908101906124c1565b604080518082018252600581526437bbb732b960d91b6020820152600b549151630c3c20ed60e01b81526001600160a01b0385811660048301525f9384936119bb939092610447921690630c3c20ed906024016106e5565b90505f6119f36104806040518060400160405280600d81526020016c616c6c5f6f70657261746f727360981b81525061044785611d30565b6009546040516306d81d2960e01b81529192505f916001600160a01b03909116906306d81d2990611a2b906008908690600401612440565b5f60405180830381865afa158015611a45573d5f803e3d5ffd5b505050506040513d5f823e601f3d908101601f19168201604052611a6c91908101906124c1565b600a546040516387cdf62160e01b81529192505f916001600160a01b03909116906387cdf62190611aa190859060040161296e565b5f60405180830381865afa158015611abb573d5f803e3d5ffd5b505050506040513d5f823e601f3d908101601f19168201604052611ae29190810190612538565b90505f5b8151811015611c1857600a5482515f916001600160a01b0316906308d858e590859085908110611b1857611b186125f4565b60200260200101516040518263ffffffff1660e01b8152600401611b3c9190612608565b5f60405180830381865afa158015611b56573d5f803e3d5ffd5b505050506040513d5f823e601f3d908101601f19168201604052611b7d91908101906124c1565b600b54604051631778e53960e01b81529192506001600160a01b03808b1692911690631778e53990611bb390859060040161210e565b602060405180830381865afa158015611bce573d5f803e3d5ffd5b505050506040513d601f19601f82011682018060405250810190611bf29190612643565b6001600160a01b031603611c0f576001965050505050505061037b565b50600101611ae6565b505f979650505050505050565b60605f611c3183611fd6565b60010190505f8167ffffffffffffffff811115611c5057611c50612229565b6040519080825280601f01601f191660200182016040528015611c7a576020820181803683370190505b5090508181016020015b5f19016f181899199a1a9b1b9c1cb0b131b232b360811b600a86061a8153600a8504945084611c8457509392505050565b606081604051602001611cc8919061282e565b60408051601f1981840301815290829052611ce5916020016129ab565b6040516020818303038152906040529050919050565b6060611d29611d0984611cb5565b83604051806040016040528060018152602001601d60f91b815250611d60565b9392505050565b606081604051602001611d4391906129c0565b60408051601f1981840301815290829052611ce5916020016129dc565b6060838284604051602001611d7692919061291d565b60408051601f1981840301815290829052611d94929160200161291d565b60405160208183030381529060405290509392505050565b60605f806110026001600160a01b0316600885604051806040016040528060028152602001615b5d60f01b815250604051602401611dec939291906129f1565b60408051601f198184030181529181526020820180516001600160e01b031663226913d760e11b17905251611e219190612a29565b5f60405180830381855af49150503d805f8114611e59576040519150601f19603f3d011682016040523d82523d5f602084013e611e5e565b606091505b509150915081611d295760405162461bcd60e51b815260206004820152601760248201527f436f736d5761736d2065786563757465206661696c656400000000000000000060448201526064016108f4565b6001600160a01b0383163b15611fcf57604051630a85bd0160e11b81526001600160a01b0384169063150b7a0290611ef2908890889087908790600401612a34565b6020604051808303815f875af1925050508015611f2c575060408051601f3d908101601f19168201909252611f2991810190612a66565b60015b611f93573d808015611f59576040519150601f19603f3d011682016040523d82523d5f602084013e611f5e565b606091505b5080515f03611f8b57604051633250574960e11b81526001600160a01b03851660048201526024016108f4565b805160208201fd5b6001600160e01b03198116630a85bd0160e11b146107b457604051633250574960e11b81526001600160a01b03851660048201526024016108f4565b5050505050565b5f8072184f03e93ff9f4daa797ed6e38ed64bf6a1f0160401b83106120145772184f03e93ff9f4daa797ed6e38ed64bf6a1f0160401b830492506040015b6d04ee2d6d415b85acef81000000008310612040576d04ee2d6d415b85acef8100000000830492506020015b662386f26fc10000831061205e57662386f26fc10000830492506010015b6305f5e1008310612076576305f5e100830492506008015b612710831061208a57612710830492506004015b6064831061209c576064830492506002015b600a831061037b5760010192915050565b6001600160e01b0319811681146120c2575f80fd5b50565b5f602082840312156120d5575f80fd5b8135611d29816120ad565b5f81518084528060208401602086015e5f602082860101526020601f19601f83011685010191505092915050565b602081525f611d2960208301846120e0565b5f60208284031215612130575f80fd5b5035919050565b6001600160a01b03811681146120c2575f80fd5b5f806040838503121561215c575f80fd5b823561216781612137565b946020939093013593505050565b5f805f60608486031215612187575f80fd5b833561219281612137565b925060208401356121a281612137565b929592945050506040919091013590565b5f80604083850312156121c4575f80fd5b50508035926020909101359150565b5f602082840312156121e3575f80fd5b8135611d2981612137565b5f80604083850312156121ff575f80fd5b823561220a81612137565b91506020830135801515811461221e575f80fd5b809150509250929050565b634e487b7160e01b5f52604160045260245ffd5b604051601f8201601f1916810167ffffffffffffffff8111828210171561226657612266612229565b604052919050565b5f67ffffffffffffffff82111561228757612287612229565b50601f01601f191660200190565b5f805f80608085870312156122a8575f80fd5b84356122b381612137565b935060208501356122c381612137565b925060408501359150606085013567ffffffffffffffff8111156122e5575f80fd5b8501601f810187136122f5575f80fd5b80356123086123038261226e565b61223d565b81815288602083850101111561231c575f80fd5b816020840160208301375f6020838301015280935050505092959194509250565b5f806040838503121561234e575f80fd5b823561235981612137565b9150602083013561221e81612137565b600181811c9082168061237d57607f821691505b60208210810361239b57634e487b7160e01b5f52602260045260245ffd5b50919050565b80545f90600181811c90808316806123ba57607f831692505b602080841082036123d957634e487b7160e01b5f52602260045260245ffd5b838852602088018280156123f4576001811461240a57612433565b60ff198716825285151560051b82019750612433565b5f898152602090205f5b8781101561242d57815484820152908601908401612414565b83019850505b5050505050505092915050565b604081525f61245260408301856123a1565b828103602084015261246481856120e0565b95945050505050565b5f61247a6123038461226e565b905082815283838301111561248d575f80fd5b8282602083015e5f602084830101529392505050565b5f82601f8301126124b2575f80fd5b611d298383516020850161246d565b5f602082840312156124d1575f80fd5b815167ffffffffffffffff8111156124e7575f80fd5b6124f3848285016124a3565b949350505050565b604081525f61250d60408301846120e0565b82810360208401526009815268617070726f76616c7360b81b60208201526040810191505092915050565b5f6020808385031215612549575f80fd5b825167ffffffffffffffff80821115612560575f80fd5b818501915085601f830112612573575f80fd5b81518181111561258557612585612229565b8060051b61259485820161223d565b91825283810185019185810190898411156125ad575f80fd5b86860192505b838310156125e7578251858111156125c9575f80fd5b6125d78b89838a01016124a3565b83525091860191908601906125b3565b9998505050505050505050565b634e487b7160e01b5f52603260045260245ffd5b604081525f61261a60408301846120e0565b8281036020840152600781526639b832b73232b960c91b60208201526040810191505092915050565b5f60208284031215612653575f80fd5b8151611d2981612137565b5f6020828403121561266e575f80fd5b815167ffffffffffffffff811115612684575f80fd5b8201601f81018413612694575f80fd5b6124f38482516020840161246d565b604081525f6126b560408301846120e0565b8281036020840152600581526418dbdd5b9d60da1b60208201526040810191505092915050565b5f602082840312156126ec575f80fd5b5051919050565b604081525f61270560408301846120e0565b8281036020840152601081526f726f79616c74795f7061796d656e747360801b60208201526040810191505092915050565b604081525f61274960408301846120e0565b828103602084015260078152666164647265737360c81b60208201526040810191505092915050565b604081525f61278460408301846120e0565b8281036020840152600e81526d1c9bde585b1d1e57d85b5bdd5b9d60921b60208201526040810191505092915050565b604081525f6127c660408301846120e0565b8281036020840152600581526437bbb732b960d91b60208201526040810191505092915050565b5f81518060208401855e5f93019283525090919050565b75113634b6b4ba111d18981818161137bbb732b9111d1160511b81525f611d2960168301846127ed565b5f61283982846127ed565b601160f91b81526001019392505050565b6a7b22746f6b656e73223a7b60a81b81525f611d29600b8301846127ed565b5f61287482846127ed565b617d7d60f01b81526002019392505050565b604081525f61289860408301846120e0565b82810360208401526006815265746f6b656e7360d01b60208201526040810191505092915050565b634e487b7160e01b5f52601160045260245ffd5b8082018082111561037b5761037b6128c0565b8181038181111561037b5761037b6128c0565b6e161139ba30b93a2fb0b33a32b9111d60891b81525f611d29600f8301846127ed565b5f6124f361292b83866127ed565b846127ed565b604081525f61294360408301846120e0565b82810360208401526009815268746f6b656e5f75726960b81b60208201526040810191505092915050565b604081525f61298060408301846120e0565b828103602084015260098152686f70657261746f727360b81b60208201526040810191505092915050565b601160f91b81525f611d2960018301846127ed565b5f6129cb82846127ed565b607d60f81b81526001019392505050565b607b60f81b81525f611d2960018301846127ed565b606081525f612a0360608301866123a1565b8281036020840152612a1581866120e0565b905082810360408401526111d581856120e0565b5f611d2982846127ed565b6001600160a01b03858116825284166020820152604081018390526080606082018190525f906111d5908301846120e0565b5f60208284031215612a76575f80fd5b8151611d29816120ad56fe7b22657874656e73696f6e223a7b226d7367223a7b22636865636b5f726f79616c74696573223a7b7d7d7d7da26469706673582212208da865e428556622af0b70377c100cc7ba9c1e3a24b674d17bb12873a6c53f3364736f6c63430008190033",
  "linkReferences": {},
  "deployedLinkReferences": {}
}