{
  "_format": "hh-sol-artifact-1",
  "contractName": "CW20ERC20Pointer",
  "sourceName": "contracts/src/CW20ERC20Pointer.sol",
  "abi": [
    {
      "inputs": [
        {
          "internalType": "string",
          "name": "Cw20Address_",
          "type": "string"
        },
        {
          "internalType": "string",
          "name": "name_",
          "type": "string"
        },
        {
          "internalType": "string",
          "name": "symbol_",
          "type": "string"
        }
      ],
      "stateMutability": "nonpayable",
      "type": "constructor"
    },
    {
      "inputs": [
        {
          "internalType": "address",
          "name": "spender",
          "type": "address"
        },
        {
          "internalType": "uint256",
          "name": "allowance",
          "type": "uint256"
        },
        {
          "internalType": "uint256",
          "name": "needed",
          "type": "uint256"
        }
      ],
      "name": "ERC20InsufficientAllowance",
      "type": "error"
    },
    {
      "inputs": [
        {
          "internalType": "address",
          "name": "sender",
          "type": "address"
        },
        {
          "internalType": "uint256",
          "name": "balance",
          "type": "uint256"
        },
        {
          "internalType": "uint256",
          "name": "needed",
          "type": "uint256"
        }
      ],
      "name": "ERC20InsufficientBalance",
      "type": "error"
    },
    {
      "inputs": [
        {
          "internalType": "address",
          "name": "approver",
          "type": "address"
        }
      ],
      "name": "ERC20InvalidApprover",
      "type": "error"
    },
    {
      "inputs": [
        {
          "internalType": "address",
          "name": "receiver",
          "type": "address"
        }
      ],
      "name": "ERC20InvalidReceiver",
      "type": "error"
    },
    {
      "inputs": [
        {
          "internalType": "address",
          "name": "sender",
          "type": "address"
        }
      ],
      "name": "ERC20InvalidSender",
      "type": "error"
    },
    {
      "inputs": [
        {
          "internalType": "address",
          "name": "spender",
          "type": "address"
        }
      ],
      "name": "ERC20InvalidSpender",
      "type": "error"
    },
    {
      "anonymous": false,
      "inputs": [
        {
          "indexed": true,
          "internalType": "address",
          "name": "owner",
          "type": "address"
        },
        {
          "indexed": true,
          "internalType": "address",
          "name": "spender",
          "type": "address"
        },
        {
          "indexed": false,
          "internalType": "uint256",
          "name": "value",
          "type": "uint256"
        }
      ],
      "name": "Approval",
      "type": "event"
    },
    {
      "anonymous": false,
      "inputs": [
        {
          "indexed": true,
          "internalType": "address",
          "name": "from",
          "type": "address"
        },
        {
          "indexed": true,
          "internalType": "address",
          "name": "to",
          "type": "address"
        },
        {
          "indexed": false,
          "internalType": "uint256",
          "name": "value",
          "type": "uint256"
        }
      ],
      "name": "Transfer",
      "type": "event"
    },
    {
      "inputs": [],
      "name": "AddrPrecompile",
      "outputs": [
        {
          "internalType": "contract IAddr",
          "name": "",
          "type": "address"
        }
      ],
      "stateMutability": "view",
      "type": "function"
    },
    {
      "inputs": [],
      "name": "Cw20Address",
      "outputs": [
        {
          "internalType": "string",
          "name": "",
          "type": "string"
        }
      ],
      "stateMutability": "view",
      "type": "function"
    },
    {
      "inputs": [],
      "name": "JsonPrecompile",
      "outputs": [
        {
          "internalType": "contract IJson",
          "name": "",
          "type": "address"
        }
      ],
      "stateMutability": "view",
      "type": "function"
    },
    {
      "inputs": [],
      "name": "WasmdPrecompile",
      "outputs": [
        {
          "internalType": "contract IWasmd",
          "name": "",
          "type": "address"
        }
      ],
      "stateMutability": "view",
      "type": "function"
    },
    {
      "inputs": [
        {
          "internalType": "address",
          "name": "owner",
          "type": "address"
        },
        {
          "internalType": "address",
          "name": "spender",
          "type": "address"
        }
      ],
      "name": "allowance",
      "outputs": [
        {
          "internalType": "uint256",
          "name": "",
          "type": "uint256"
        }
      ],
      "stateMutability": "view",
      "type": "function"
    },
    {
      "inputs": [
        {
          "internalType": "address",
          "name": "spender",
          "type": "address"
        },
        {
          "internalType": "uint256",
          "name": "amount",
          "type": "uint256"
        }
      ],
      "name": "approve",
      "outputs": [
        {
          "internalType": "bool",
          "name": "",
          "type": "bool"
        }
      ],
      "stateMutability": "nonpayable",
      "type": "function"
    },
    {
      "inputs": [
        {
          "internalType": "address",
          "name": "owner",
          "type": "address"
        }
      ],
      "name": "balanceOf",
      "outputs": [
        {
          "internalType": "uint256",
          "name": "",
          "type": "uint256"
        }
      ],
      "stateMutability": "view",
      "type": "function"
    },
    {
      "inputs": [],
      "name": "decimals",
      "outputs": [
        {
          "internalType": "uint8",
          "name": "",
          "type": "uint8"
        }
      ],
      "stateMutability": "view",
      "type": "function"
    },
    {
      "inputs": [],
      "name": "name",
      "outputs": [
        {
          "internalType": "string",
          "name": "",
          "type": "string"
        }
      ],
      "stateMutability": "view",
      "type": "function"
    },
    {
      "inputs": [],
      "name": "symbol",
      "outputs": [
        {
          "internalType": "string",
          "name": "",
          "type": "string"
        }
      ],
      "stateMutability": "view",
      "type": "function"
    },
    {
      "inputs": [],
      "name": "totalSupply",
      "outputs": [
        {
          "internalType": "uint256",
          "name": "",
          "type": "uint256"
        }
      ],
      "stateMutability": "view",
      "type": "function"
    },
    {
      "inputs": [
        {
          "internalType": "address",
          "name": "to",
          "type": "address"
        },
        {
          "internalType": "uint256",
          "name": "amount",
          "type": "uint256"
        }
      ],
      "name": "transfer",
      "outputs": [
        {
          "internalType": "bool",
          "name": "",
          "type": "bool"
        }
      ],
      "stateMutability": "nonpayable",
      "type": "function"
    },
    {
      "inputs": [
        {
          "internalType": "address",
          "name": "from",
          "type": "address"
        },
        {
          "internalType": "address",
          "name": "to",
          "type": "address"
        },
        {
          "internalType": "uint256",
          "name": "amount",
          "type": "uint256"
        }
      ],
      "name": "transferFrom",
      "outputs": [
        {
          "internalType": "bool",
          "name": "",
          "type": "bool"
        }
      ],
      "stateMutability": "nonpayable",
      "type": "function"
    }
  ],
  "bytecode": "0x608060405234801561000f575f80fd5b50604051611a2a380380611a2a83398101604081905261002e9161012d565b8181600361003c8382610232565b5060046100498282610232565b5050600680546001600160a01b031990811661100217909155600780548216611003179055600880549091166110041790555060056100888482610232565b505050506102f1565b634e487b7160e01b5f52604160045260245ffd5b5f82601f8301126100b4575f80fd5b81516001600160401b03808211156100ce576100ce610091565b604051601f8301601f19908116603f011681019082821181831017156100f6576100f6610091565b8160405283815286602085880101111561010e575f80fd5b8360208701602083015e5f602085830101528094505050505092915050565b5f805f6060848603121561013f575f80fd5b83516001600160401b0380821115610155575f80fd5b610161878388016100a5565b94506020860151915080821115610176575f80fd5b610182878388016100a5565b93506040860151915080821115610197575f80fd5b506101a4868287016100a5565b9150509250925092565b600181811c908216806101c257607f821691505b6020821081036101e057634e487b7160e01b5f52602260045260245ffd5b50919050565b601f82111561022d57805f5260205f20601f840160051c8101602085101561020b5750805b601f840160051c820191505b8181101561022a575f8155600101610217565b50505b505050565b81516001600160401b0381111561024b5761024b610091565b61025f8161025984546101ae565b846101e6565b602080601f831160018114610292575f841561027b5750858301515b5f19600386901b1c1916600185901b1785556102e9565b5f85815260208120601f198616915b828110156102c0578886015182559484019460019091019084016102a1565b50858210156102dd57878501515f19600388901b60f8161c191681555b505060018460011b0185555b505050505050565b61172c806102fe5f395ff3fe608060405234801561000f575f80fd5b50600436106100cb575f3560e01c806395d89b4111610088578063da73d16b11610063578063da73d16b146101ac578063dd62ed3e146101b4578063de4725cc146101c7578063f00b0255146101da575f80fd5b806395d89b4114610166578063a9059cbb1461016e578063c2aed30214610181575f80fd5b806306fdde03146100cf578063095ea7b3146100ed57806318160ddd1461011057806323b872dd14610126578063313ce5671461013957806370a0823114610153575b5f80fd5b6100d76101ed565b6040516100e49190611208565b60405180910390f35b6101006100fb366004611235565b61027d565b60405190151581526020016100e4565b61011861050c565b6040519081526020016100e4565b61010061013436600461125d565b610647565b6101416107ee565b60405160ff90911681526020016100e4565b610118610161366004611296565b6108e3565b6100d7610ac9565b61010061017c366004611235565b610ad8565b600854610194906001600160a01b031681565b6040516001600160a01b0390911681526020016100e4565b6100d7610bf4565b6101186101c23660046112af565b610c80565b600754610194906001600160a01b031681565b600654610194906001600160a01b031681565b6060600380546101fc906112e0565b80601f0160208091040260200160405190810160405280929190818152602001828054610228906112e0565b80156102735780601f1061024a57610100808354040283529160200191610273565b820191905f5260205f20905b81548152906001019060200180831161025657829003601f168201915b5050505050905090565b5f6001600160801b03821115610298576001600160801b0391505b5f6102a33385610c80565b9050828111156103fd57604080518082018252600781526639b832b73232b960c91b60208201526008549151630c3c20ed60e01b81526001600160a01b0387811660048301525f9361034d93926103489290911690630c3c20ed906024015b5f60405180830381865afa15801561031c573d5f803e3d5ffd5b505050506040513d5f823e601f3d908101601f19168201604052610343919081019061139f565b610e78565b610ebe565b90505f61038960405180604001604052806006815260200165185b5bdd5b9d60d21b815250610348610343888761038491906113ec565b610ef3565b90505f6103e96103e46040518060400160405280601281526020017164656372656173655f616c6c6f77616e636560701b8152506103486103e48787604051806040016040528060018152602001600b60fa1b815250610f83565b610fcf565b90506103f481610fff565b50505050610500565b8281101561050057604080518082018252600781526639b832b73232b960c91b60208201526008549151630c3c20ed60e01b81526001600160a01b0387811660048301525f9361045e93926103489290911690630c3c20ed90602401610302565b90505f61049560405180604001604052806006815260200165185b5bdd5b9d60d21b815250610348610343868961038491906113ec565b90505f6104f06103e460405180604001604052806012815260200171696e6372656173655f616c6c6f77616e636560701b8152506103486103e48787604051806040016040528060018152602001600b60fa1b815250610f83565b90506104fb81610fff565b505050505b60019150505b92915050565b5f806105576103e46040518060400160405280600a815260200169746f6b656e5f696e666f60b01b815250604051806040016040528060028152602001617b7d60f01b815250610ebe565b6006546040516306d81d2960e01b81529192505f916001600160a01b03909116906306d81d299061058f9060059086906004016114aa565b5f60405180830381865afa1580156105a9573d5f803e3d5ffd5b505050506040513d5f823e601f3d908101601f191682016040526105d0919081019061139f565b600754604051632d2ac4c160e11b81529192506001600160a01b031690635a558982906106019084906004016114ce565b602060405180830381865afa15801561061c573d5f803e3d5ffd5b505050506040513d601f19601f82011682018060405250810190610640919061150e565b9250505090565b5f6001600160a01b0383166106775760405162461bcd60e51b815260040161066e90611525565b60405180910390fd5b604080518082018252600581526437bbb732b960d91b60208201526008549151630c3c20ed60e01b81526001600160a01b0387811660048301525f936106ce93926103489290911690630c3c20ed90602401610302565b60408051808201825260098152681c9958da5c1a595b9d60ba1b60208201526008549151630c3c20ed60e01b81526001600160a01b0388811660048301529394505f9361072a9361034892911690630c3c20ed90602401610302565b90505f61075b60405180604001604052806006815260200165185b5bdd5b9d60d21b81525061034861034388610ef3565b90505f6107d46103e46040518060400160405280600d81526020016c7472616e736665725f66726f6d60981b8152506103486103e46107b48989604051806040016040528060018152602001600b60fa1b815250610f83565b87604051806040016040528060018152602001600b60fa1b815250610f83565b90506107df81610fff565b50600198975050505050505050565b5f806108396103e46040518060400160405280600a815260200169746f6b656e5f696e666f60b01b815250604051806040016040528060028152602001617b7d60f01b815250610ebe565b6006546040516306d81d2960e01b81529192505f916001600160a01b03909116906306d81d29906108719060059086906004016114aa565b5f60405180830381865afa15801561088b573d5f803e3d5ffd5b505050506040513d5f823e601f3d908101601f191682016040526108b2919081019061139f565b600754604051632d2ac4c160e11b81529192506001600160a01b031690635a55898290610601908490600401611568565b5f6001600160a01b03821661094c5760405162461bcd60e51b815260206004820152602960248201527f45524332303a2062616c616e636520717565727920666f7220746865207a65726044820152686f206164647265737360b81b606482015260840161066e565b60408051808201825260078152666164647265737360c81b60208201526008549151630c3c20ed60e01b81526001600160a01b0385811660048301525f936109a593926103489290911690630c3c20ed90602401610302565b90505f6109d76103e46040518060400160405280600781526020016662616c616e636560c81b81525061034885610fcf565b6006546040516306d81d2960e01b81529192505f916001600160a01b03909116906306d81d2990610a0f9060059086906004016114aa565b5f60405180830381865afa158015610a29573d5f803e3d5ffd5b505050506040513d5f823e601f3d908101601f19168201604052610a50919081019061139f565b600754604051632d2ac4c160e11b81529192506001600160a01b031690635a55898290610a819084906004016115a4565b602060405180830381865afa158015610a9c573d5f803e3d5ffd5b505050506040513d601f19601f82011682018060405250810190610ac0919061150e565b95945050505050565b6060600480546101fc906112e0565b5f6001600160a01b038316610aff5760405162461bcd60e51b815260040161066e90611525565b60408051808201825260098152681c9958da5c1a595b9d60ba1b60208201526008549151630c3c20ed60e01b81526001600160a01b0386811660048301525f93610b5a93926103489290911690630c3c20ed90602401610302565b90505f610b8b60405180604001604052806006815260200165185b5bdd5b9d60d21b81525061034861034387610ef3565b90505f610bdc6103e4604051806040016040528060088152602001673a3930b739b332b960c11b8152506103486103e48787604051806040016040528060018152602001600b60fa1b815250610f83565b9050610be781610fff565b5060019695505050505050565b60058054610c01906112e0565b80601f0160208091040260200160405190810160405280929190818152602001828054610c2d906112e0565b8015610c785780601f10610c4f57610100808354040283529160200191610c78565b820191905f5260205f20905b815481529060010190602001808311610c5b57829003601f168201915b505050505081565b604080518082018252600581526437bbb732b960d91b60208201526008549151630c3c20ed60e01b81526001600160a01b0385811660048301525f938493610cd8939092610348921690630c3c20ed90602401610302565b604080518082018252600781526639b832b73232b960c91b60208201526008549151630c3c20ed60e01b81526001600160a01b0387811660048301529394505f93610d329361034892911690630c3c20ed90602401610302565b90505f610d846103e460405180604001604052806009815260200168616c6c6f77616e636560b81b8152506103486103e48787604051806040016040528060018152602001600b60fa1b815250610f83565b6006546040516306d81d2960e01b81529192505f916001600160a01b03909116906306d81d2990610dbc9060059086906004016114aa565b5f60405180830381865afa158015610dd6573d5f803e3d5ffd5b505050506040513d5f823e601f3d908101601f19168201604052610dfd919081019061139f565b600754604051632d2ac4c160e11b81529192506001600160a01b031690635a55898290610e2e9084906004016115df565b602060405180830381865afa158015610e49573d5f803e3d5ffd5b505050506040513d601f19601f82011682018060405250810190610e6d919061150e565b979650505050505050565b606081604051602001610e8b9190611633565b60408051601f1981840301815290829052610ea89160200161164f565b6040516020818303038152906040529050919050565b6060610eec610ecc84610e78565b83604051806040016040528060018152602001601d60f91b815250610f83565b9392505050565b60605f610eff83611103565b60010190505f8167ffffffffffffffff811115610f1e57610f1e611318565b6040519080825280601f01601f191660200182016040528015610f48576020820181803683370190505b5090508181016020015b5f19016f181899199a1a9b1b9c1cb0b131b232b360811b600a86061a8153600a8504945084610f5257509392505050565b6060838284604051602001610f99929190611664565b60408051601f1981840301815290829052610fb79291602001611664565b60405160208183030381529060405290509392505050565b606081604051602001610fe29190611678565b60408051601f1981840301815290829052610ea891602001611694565b60605f806110026001600160a01b0316600585604051806040016040528060028152602001615b5d60f01b81525060405160240161103f939291906116a9565b60408051601f198184030181529181526020820180516001600160e01b031663226913d760e11b1790525161107491906116eb565b5f60405180830381855af49150503d805f81146110ac576040519150601f19603f3d011682016040523d82523d5f602084013e6110b1565b606091505b509150915081610eec5760405162461bcd60e51b815260206004820152601760248201527f436f736d5761736d2065786563757465206661696c6564000000000000000000604482015260640161066e565b5f8072184f03e93ff9f4daa797ed6e38ed64bf6a1f0160401b83106111415772184f03e93ff9f4daa797ed6e38ed64bf6a1f0160401b830492506040015b6d04ee2d6d415b85acef8100000000831061116d576d04ee2d6d415b85acef8100000000830492506020015b662386f26fc10000831061118b57662386f26fc10000830492506010015b6305f5e10083106111a3576305f5e100830492506008015b61271083106111b757612710830492506004015b606483106111c9576064830492506002015b600a83106105065760010192915050565b5f81518084528060208401602086015e5f602082860101526020601f19601f83011685010191505092915050565b602081525f610eec60208301846111da565b80356001600160a01b0381168114611230575f80fd5b919050565b5f8060408385031215611246575f80fd5b61124f8361121a565b946020939093013593505050565b5f805f6060848603121561126f575f80fd5b6112788461121a565b92506112866020850161121a565b9150604084013590509250925092565b5f602082840312156112a6575f80fd5b610eec8261121a565b5f80604083850312156112c0575f80fd5b6112c98361121a565b91506112d76020840161121a565b90509250929050565b600181811c908216806112f457607f821691505b60208210810361131257634e487b7160e01b5f52602260045260245ffd5b50919050565b634e487b7160e01b5f52604160045260245ffd5b5f67ffffffffffffffff8084111561134657611346611318565b604051601f8501601f19908116603f0116810190828211818310171561136e5761136e611318565b81604052809350858152868686011115611386575f80fd5b8585602083015e5f602087830101525050509392505050565b5f602082840312156113af575f80fd5b815167ffffffffffffffff8111156113c5575f80fd5b8201601f810184136113d5575f80fd5b6113e48482516020840161132c565b949350505050565b8181038181111561050657634e487b7160e01b5f52601160045260245ffd5b80545f90600181811c908083168061142457607f831692505b6020808410820361144357634e487b7160e01b5f52602260045260245ffd5b8388526020880182801561145e57600181146114745761149d565b60ff198716825285151560051b8201975061149d565b5f898152602090205f5b878110156114975781548482015290860190840161147e565b83019850505b5050505050505092915050565b604081525f6114bc604083018561140b565b8281036020840152610ac081856111da565b604081525f6114e060408301846111da565b8281036020840152600c81526b746f74616c5f737570706c7960a01b60208201526040810191505092915050565b5f6020828403121561151e575f80fd5b5051919050565b60208082526023908201527f45524332303a207472616e7366657220746f20746865207a65726f206164647260408201526265737360e81b606082015260800190565b604081525f61157a60408301846111da565b82810360208401526008815267646563696d616c7360c01b60208201526040810191505092915050565b604081525f6115b660408301846111da565b8281036020840152600781526662616c616e636560c81b60208201526040810191505092915050565b604081525f6115f160408301846111da565b82810360208401526009815268616c6c6f77616e636560b81b60208201526040810191505092915050565b5f81518060208401855e5f93019283525090919050565b5f61163e828461161c565b601160f91b81526001019392505050565b601160f91b81525f610eec600183018461161c565b5f6113e4611672838661161c565b8461161c565b5f611683828461161c565b607d60f81b81526001019392505050565b607b60f81b81525f610eec600183018461161c565b606081525f6116bb606083018661140b565b82810360208401526116cd81866111da565b905082810360408401526116e181856111da565b9695505050505050565b5f610eec828461161c56fea26469706673582212209f173b6d47e0076529e5f13daad619f921ba9f87fa202245681f6a1254b8c60064736f6c63430008190033",
  "linkReferences": {},
  "deployedLinkReferences": {}
}