{"src/EVMCompatibilityTester.sol":{"EVMCompatibilityTester":{"abi":[{"inputs":[],"stateMutability":"nonpayable","type":"constructor"},{"anonymous":false,"inputs":[{"indexed":false,"internalType":"string","name":"action","type":"string"},{"indexed":true,"internalType":"address","name":"performer","type":"address"}],"name":"ActionPerformed","type":"event"},{"anonymous":false,"inputs":[{"indexed":true,"internalType":"address","name":"performer","type":"address"}],"name":"AddressSet","type":"event"},{"anonymous":false,"inputs":[{"indexed":false,"internalType":"address","name":"performer","type":"address"},{"indexed":false,"internalType":"bool","name":"value","type":"bool"}],"name":"BoolSet","type":"event"},{"anonymous":false,"inputs":[{"indexed":true,"internalType":"address","name":"performer","type":"address"},{"indexed":false,"internalType":"uint256","name":"value","type":"uint256"}],"name":"LogIndexEvent","type":"event"},{"anonymous":false,"inputs":[{"indexed":true,"internalType":"address","name":"performer","type":"address"},{"indexed":false,"internalType":"string","name":"value","type":"string"}],"name":"StringSet","type":"event"},{"anonymous":false,"inputs":[{"indexed":true,"internalType":"address","name":"performer","type":"address"},{"indexed":false,"internalType":"uint256","name":"value","type":"uint256"}],"name":"Uint256Set","type":"event"},{"inputs":[{"internalType":"uint256","name":"a","type":"uint256"},{"internalType":"uint256","name":"b","type":"uint256"}],"name":"addNumbers","outputs":[{"internalType":"uint256","name":"sum","type":"uint256"}],"stateMutability":"pure","type":"function"},{"inputs":[],"name":"addressVar","outputs":[{"internalType":"address","name":"","type":"address"}],"stateMutability":"view","type":"function"},{"inputs":[{"internalType":"address","name":"","type":"address"}],"name":"balances","outputs":[{"internalType":"uint256","name":"","type":"uint256"}],"stateMutability":"view","type":"function"},{"inputs":[],"name":"boolVar","outputs":[{"internalType":"bool","name":"","type":"bool"}],"stateMutability":"view","type":"function"},{"inputs":[{"internalType":"address","name":"contractAddress","type":"address"},{"internalType":"bytes","name":"data","type":"bytes"}],"name":"callAnotherContract","outputs":[],"stateMutability":"nonpayable","type":"function"},{"inputs":[{"internalType":"string","name":"name","type":"string"},{"internalType":"string","name":"symbol","type":"string"}],"name":"createToken","outputs":[],"stateMutability":"nonpayable","type":"function"},{"inputs":[],"name":"depositEther","outputs":[],"stateMutability":"payable","type":"function"},{"inputs":[{"internalType":"uint256","name":"count","type":"uint256"}],"name":"emitMultipleLogs","outputs":[],"stateMutability":"nonpayable","type":"function"},{"inputs":[],"name":"getBlockProperties","outputs":[{"internalType":"bytes32","name":"blockHash","type":"bytes32"},{"internalType":"address payable","name":"coinbase","type":"address"},{"internalType":"uint256","name":"prevrandao","type":"uint256"},{"internalType":"uint256","name":"gaslimit","type":"uint256"},{"internalType":"uint256","name":"number","type":"uint256"},{"internalType":"uint256","name":"timestamp","type":"uint256"}],"stateMutability":"view","type":"function"},{"inputs":[],"name":"getContractBalance","outputs":[{"internalType":"uint256","name":"contractBalance","type":"uint256"}],"stateMutability":"view","type":"function"},{"inputs":[],"name":"lastMsgDetails","outputs":[{"internalType":"address","name":"sender","type":"address"},{"internalType":"uint256","name":"value","type":"uint256"},{"internalType":"bytes","name":"data","type":"bytes"},{"internalType":"uint256","name":"gas","type":"uint256"}],"stateMutability":"view","type":"function"},{"inputs":[],"name":"owner","outputs":[{"internalType":"address","name":"","type":"address"}],"stateMutability":"view","type":"function"},{"inputs":[{"internalType":"uint256","name":"storageIndex","type":"uint256"}],"name":"readFromStorage","outputs":[{"internalType":"uint256","name":"data","type":"uint256"}],"stateMutability":"view","type":"function"},{"inputs":[],"name":"retrieveData","outputs":[{"internalType":"uint256","name":"","type":"uint256"}],"stateMutability":"view","type":"function"},{"inputs":[{"internalType":"bool","name":"value","type":"bool"}],"name":"revertIfFalse","outputs":[],"stateMutability":"nonpayable","type":"function"},{"inputs":[{"internalType":"address payable","name":"recipient","type":"address"},{"internalType":"uint256","name":"amount","type":"uint256"}],"name":"sendEther","outputs":[],"stateMutability":"payable","type":"function"},{"inputs":[],"name":"setAddressVar","outputs":[],"stateMutability":"nonpayable","type":"function"},{"inputs":[{"internalType":"address","name":"user","type":"address"},{"internalType":"uint256","name":"amount","type":"uint256"}],"name":"setBalance","outputs":[],"stateMutability":"nonpayable","type":"function"},{"inputs":[{"internalType":"bool","name":"value","type":"bool"}],"name":"setBoolVar","outputs":[],"stateMutability":"nonpayable","type":"function"},{"inputs":[{"internalType":"string","name":"value","type":"string"}],"name":"setStringVar","outputs":[],"stateMutability":"nonpayable","type":"function"},{"inputs":[{"internalType":"uint256","name":"value","type":"uint256"}],"name":"setUint256Var","outputs":[],"stateMutability":"nonpayable","type":"function"},{"inputs":[{"internalType":"uint256","name":"data","type":"uint256"}],"name":"storeData","outputs":[],"stateMutability":"nonpayable","type":"function"},{"inputs":[],"name":"storeMsgProperties","outputs":[],"stateMutability":"payable","type":"function"},{"inputs":[],"name":"stringVar","outputs":[{"internalType":"string","name":"","type":"string"}],"stateMutability":"view","type":"function"},{"inputs":[],"name":"uint256Var","outputs":[{"internalType":"uint256","name":"","type":"uint256"}],"stateMutability":"view","type":"function"}],"evm":{"bytecode":{"linkReferences":{},"object":"608060405234801561001057600080fd5b50600180546001600160a01b031916331790556123d5806100326000396000f3fe608060405260043610620001b75760003560e01c80638eb43aa111620000f3578063c4c891371162000095578063e30443bc116200006c578063e30443bc14620004c5578063e9074ca314620004ea578063ef9fc50b1462000511578063f614eb31146200053457600080fd5b8063c4c891371462000465578063cfbd56b8146200048a578063d40e607a14620004a257600080fd5b8063999c697b11620000ca578063999c697b14620003f6578063af22db871462000444578063c1756a2c146200044e57600080fd5b80638eb43aa1146200039d578063906d7a3314620003c757806398ea5fca14620003ec57600080fd5b806349cad0fa116200015d5780636f9fb98a11620001345780636f9fb98a1462000341578063711ecf5914620003565780638da5cb5b146200037b57600080fd5b806349cad0fa14620002ca57806351e0556d146200030557806363d95843146200031c57600080fd5b8063359c71c71162000192578063359c71c7146200024c57806335f7fb2b1462000271578063361725c914620002a557600080fd5b806316b9517614620001bc57806327e235e314620001e35780632f2f2d561462000227575b600080fd5b348015620001c957600080fd5b50620001e1620001db36600462000db6565b6200054c565b005b348015620001f057600080fd5b50620002146200020236600462000de6565b60096020526000908152604090205481565b6040519081526020015b60405180910390f35b3480156200023457600080fd5b50620001e16200024636600462000ec3565b620005bf565b3480156200025957600080fd5b50620001e16200026b36600462000db6565b62000692565b3480156200027e57600080fd5b506002546200029490600160a01b900460ff1681565b60405190151581526020016200021e565b348015620002b257600080fd5b50620001e1620002c436600462000f2e565b620006ec565b348015620002d757600080fd5b50600254620002ec906001600160a01b031681565b6040516001600160a01b0390911681526020016200021e565b3480156200031257600080fd5b5060005462000214565b3480156200032957600080fd5b50620001e16200033b36600462000f8f565b6200081a565b3480156200034e57600080fd5b504762000214565b3480156200036357600080fd5b50620001e16200037536600462000fdf565b62000864565b3480156200038857600080fd5b50600154620002ec906001600160a01b031681565b348015620003aa57600080fd5b50620003b5620008d5565b6040516200021e949392919062001053565b348015620003d457600080fd5b50620001e1620003e636600462000fdf565b62000988565b620001e1620009e2565b3480156200040357600080fd5b506200040e62000a36565b604080519687526001600160a01b039095166020870152938501929092526060840152608083015260a082015260c0016200021e565b620001e162000a5f565b620001e16200045f3660046200108e565b62000b19565b3480156200047257600080fd5b50620001e16200048436600462000db6565b62000c03565b3480156200049757600080fd5b50620001e162000c3b565b348015620004af57600080fd5b5062000214620004c136600462000db6565b5490565b348015620004d257600080fd5b50620001e1620004e43660046200108e565b62000c88565b348015620004f757600080fd5b506200050262000d12565b6040516200021e9190620010bd565b3480156200051e57600080fd5b506200021462000530366004620010d2565b0190565b3480156200054157600080fd5b506200021460035481565b600081905560405133907fdeff57a6906278d2af998b73b3debf5ca6d109b7d958d00944210de6bcb0be4190620005b4906020808252600b908201527f446174612053746f726564000000000000000000000000000000000000000000604082015260600190565b60405180910390a250565b60008282604051620005d19062000da8565b620005de929190620010f5565b604051809103906000f080158015620005fb573d6000803e3d6000fd5b506040517fa9059cbb000000000000000000000000000000000000000000000000000000008152336004820152606460248201529091506001600160a01b0382169063a9059cbb906044016020604051808303816000875af115801562000666573d6000803e3d6000fd5b505050506040513d601f19601f820116820180604052508101906200068c919062001127565b50505050565b60005b81811015620006e85760405181815233907f1d56bb73275c853de44e9df37f18d598fb03f68762368689dbc37018e108f3209060200160405180910390a280620006df816200115d565b91505062000695565b5050565b6000826001600160a01b03168260405162000708919062001179565b6000604051808303816000865af19150503d806000811462000747576040519150601f19603f3d011682016040523d82523d6000602084013e6200074c565b606091505b5050905080620007a35760405162461bcd60e51b815260206004820152600b60248201527f43616c6c206661696c656400000000000000000000000000000000000000000060448201526064015b60405180910390fd5b336001600160a01b03167fdeff57a6906278d2af998b73b3debf5ca6d109b7d958d00944210de6bcb0be416040516200080d9060208082526013908201527f496e7465722d436f6e74726163742043616c6c00000000000000000000000000604082015260600190565b60405180910390a2505050565b600462000828828262001225565b50336001600160a01b03167f0eb73cec9d23675a546442d52054f0a7c29e9b7dc418be5fe6a9d27bc32653da82604051620005b49190620010bd565b6002805460ff60a01b1916600160a01b83151590810291909117909155600114620008d25760405162461bcd60e51b815260206004820152601260248201527f76616c7565206d7573742062652074727565000000000000000000000000000060448201526064016200079a565b50565b60058054600654600780546001600160a01b03909316939192620008f99062001197565b80601f0160208091040260200160405190810160405280929190818152602001828054620009279062001197565b8015620009785780601f106200094c5761010080835404028352916020019162000978565b820191906000526020600020905b8154815290600101906020018083116200095a57829003601f168201915b5050505050908060030154905084565b6002805460ff60a01b1916600160a01b831515908102919091179091556040805133815260208101929092527f036285defb58e7bdfda894dd4f86e1c7c826522ae0755f0017a2155b4c58022e910160405180910390a150565b6000341162000a345760405162461bcd60e51b815260206004820152600d60248201527f4e6f2045746865722073656e740000000000000000000000000000000000000060448201526064016200079a565b565b6000808080808062000a4a600143620012f2565b40964196504495504594504393504292509050565b6040518060800160405280336001600160a01b031681526020013481526020016000368080601f0160208091040260200160405190810160405280939291908181526020018383808284376000920191909152505050908252506020015a905280516005805473ffffffffffffffffffffffffffffffffffffffff19166001600160a01b039092169190911781556020820151600655604082015160079062000b09908262001225565b5060608201518160030155905050565b6001546001600160a01b0316331462000b755760405162461bcd60e51b815260206004820152601960248201527f4f6e6c79206f776e65722063616e2073656e642045746865720000000000000060448201526064016200079a565b8047101562000bc75760405162461bcd60e51b815260206004820152601460248201527f496e73756666696369656e742062616c616e636500000000000000000000000060448201526064016200079a565b6040516001600160a01b0383169082156108fc029083906000818181858888f1935050505015801562000bfe573d6000803e3d6000fd5b505050565b600381905560405181815233907f72949b2b6e0735d04837f50b4944f1e7d232157e1ba3881f7d9b1c4bdaf819e590602001620005b4565b6002805473ffffffffffffffffffffffffffffffffffffffff1916339081179091556040517f88749aed52403b3a8ec7763273d5665190617f46de93b08aab1cc6ec80dc2fb490600090a2565b6001600160a01b038216600090815260096020526040908190208290555133907fdeff57a6906278d2af998b73b3debf5ca6d109b7d958d00944210de6bcb0be419062000d06906020808252600b908201527f42616c616e636520536574000000000000000000000000000000000000000000604082015260600190565b60405180910390a25050565b6004805462000d219062001197565b80601f016020809104026020016040519081016040528092919081815260200182805462000d4f9062001197565b801562000da05780601f1062000d745761010080835404028352916020019162000da0565b820191906000526020600020905b81548152906001019060200180831162000d8257829003601f168201915b505050505081565b611091806200130f83390190565b60006020828403121562000dc957600080fd5b5035919050565b6001600160a01b0381168114620008d257600080fd5b60006020828403121562000df957600080fd5b813562000e068162000dd0565b9392505050565b634e487b7160e01b600052604160045260246000fd5b600067ffffffffffffffff8084111562000e415762000e4162000e0d565b604051601f8501601f19908116603f0116810190828211818310171562000e6c5762000e6c62000e0d565b8160405280935085815286868601111562000e8657600080fd5b858560208301376000602087830101525050509392505050565b600082601f83011262000eb257600080fd5b62000e068383356020850162000e23565b6000806040838503121562000ed757600080fd5b823567ffffffffffffffff8082111562000ef057600080fd5b62000efe8683870162000ea0565b9350602085013591508082111562000f1557600080fd5b5062000f248582860162000ea0565b9150509250929050565b6000806040838503121562000f4257600080fd5b823562000f4f8162000dd0565b9150602083013567ffffffffffffffff81111562000f6c57600080fd5b8301601f8101851362000f7e57600080fd5b62000f248582356020840162000e23565b60006020828403121562000fa257600080fd5b813567ffffffffffffffff81111562000fba57600080fd5b62000fc88482850162000ea0565b949350505050565b8015158114620008d257600080fd5b60006020828403121562000ff257600080fd5b813562000e068162000fd0565b60005b838110156200101c57818101518382015260200162001002565b50506000910152565b600081518084526200103f81602086016020860162000fff565b601f01601f19169290920160200192915050565b6001600160a01b03851681528360208201526080604082015260006200107d608083018562001025565b905082606083015295945050505050565b60008060408385031215620010a257600080fd5b8235620010af8162000dd0565b946020939093013593505050565b60208152600062000e06602083018462001025565b60008060408385031215620010e657600080fd5b50508035926020909101359150565b6040815260006200110a604083018562001025565b82810360208401526200111e818562001025565b95945050505050565b6000602082840312156200113a57600080fd5b815162000e068162000fd0565b634e487b7160e01b600052601160045260246000fd5b60006001820162001172576200117262001147565b5060010190565b600082516200118d81846020870162000fff565b9190910192915050565b600181811c90821680620011ac57607f821691505b602082108103620011cd57634e487b7160e01b600052602260045260246000fd5b50919050565b601f82111562000bfe57600081815260208120601f850160051c81016020861015620011fc5750805b601f850160051c820191505b818110156200121d5782815560010162001208565b505050505050565b815167ffffffffffffffff81111562001242576200124262000e0d565b6200125a8162001253845462001197565b84620011d3565b602080601f831160018114620012925760008415620012795750858301515b600019600386901b1c1916600185901b1785556200121d565b600085815260208120601f198616915b82811015620012c357888601518255948401946001909101908401620012a2565b5085821015620012e25787850151600019600388901b60f8161c191681555b5050505050600190811b01905550565b8181038181111562001308576200130862001147565b9291505056fe60806040523480156200001157600080fd5b50604051620010913803806200109183398101604081905262000034916200034a565b338282600362000045838262000443565b50600462000054828262000443565b5050506001600160a01b0381166200008757604051631e4fbdf760e01b8152600060048201526024015b60405180910390fd5b6200009281620000c2565b50620000ba33620000a66012600a62000624565b620000b4906103e862000639565b62000114565b505062000669565b600580546001600160a01b038381166001600160a01b0319831681179093556040519116919082907f8be0079c531659141344cd1fd0a4f28419497f9722a3daafe3b4186f6b6457e090600090a35050565b6001600160a01b038216620001405760405163ec442f0560e01b8152600060048201526024016200007e565b6200014e6000838362000152565b5050565b6001600160a01b0383166200018157806002600082825462000175919062000653565b90915550620001f59050565b6001600160a01b03831660009081526020819052604090205481811015620001d65760405163391434e360e21b81526001600160a01b038516600482015260248101829052604481018390526064016200007e565b6001600160a01b03841660009081526020819052604090209082900390555b6001600160a01b038216620002135760028054829003905562000232565b6001600160a01b03821660009081526020819052604090208054820190555b816001600160a01b0316836001600160a01b03167fddf252ad1be2c89b69c2b068fc378daa952ba7f163c4a11628f55a4df523b3ef836040516200027891815260200190565b60405180910390a3505050565b634e487b7160e01b600052604160045260246000fd5b600082601f830112620002ad57600080fd5b81516001600160401b0380821115620002ca57620002ca62000285565b604051601f8301601f19908116603f01168101908282118183101715620002f557620002f562000285565b816040528381526020925086838588010111156200031257600080fd5b600091505b8382101562000336578582018301518183018401529082019062000317565b600093810190920192909252949350505050565b600080604083850312156200035e57600080fd5b82516001600160401b03808211156200037657600080fd5b62000384868387016200029b565b935060208501519150808211156200039b57600080fd5b50620003aa858286016200029b565b9150509250929050565b600181811c90821680620003c957607f821691505b602082108103620003ea57634e487b7160e01b600052602260045260246000fd5b50919050565b601f8211156200043e57600081815260208120601f850160051c81016020861015620004195750805b601f850160051c820191505b818110156200043a5782815560010162000425565b5050505b505050565b81516001600160401b038111156200045f576200045f62000285565b6200047781620004708454620003b4565b84620003f0565b602080601f831160018114620004af5760008415620004965750858301515b600019600386901b1c1916600185901b1785556200043a565b600085815260208120601f198616915b82811015620004e057888601518255948401946001909101908401620004bf565b5085821015620004ff5787850151600019600388901b60f8161c191681555b5050505050600190811b01905550565b634e487b7160e01b600052601160045260246000fd5b600181815b80851115620005665781600019048211156200054a576200054a6200050f565b808516156200055857918102915b93841c93908002906200052a565b509250929050565b6000826200057f575060016200061e565b816200058e575060006200061e565b8160018114620005a75760028114620005b257620005d2565b60019150506200061e565b60ff841115620005c657620005c66200050f565b50506001821b6200061e565b5060208310610133831016604e8410600b8410161715620005f7575081810a6200061e565b62000603838362000525565b80600019048211156200061a576200061a6200050f565b0290505b92915050565b60006200063283836200056e565b9392505050565b80820281158282048414176200061e576200061e6200050f565b808201808211156200061e576200061e6200050f565b610a1880620006796000396000f3fe608060405234801561001057600080fd5b50600436106100df5760003560e01c8063715018a61161008c578063a9059cbb11610066578063a9059cbb146101af578063dd62ed3e146101c2578063e30443bc146101fb578063f2fde38b1461020e57600080fd5b8063715018a6146101825780638da5cb5b1461018c57806395d89b41146101a757600080fd5b806323b872dd116100bd57806323b872dd14610137578063313ce5671461014a57806370a082311461015957600080fd5b806306fdde03146100e4578063095ea7b31461010257806318160ddd14610125575b600080fd5b6100ec610221565b6040516100f99190610847565b60405180910390f35b6101156101103660046108b1565b6102b3565b60405190151581526020016100f9565b6002545b6040519081526020016100f9565b6101156101453660046108db565b6102cd565b604051601281526020016100f9565b610129610167366004610917565b6001600160a01b031660009081526020819052604090205490565b61018a6102f1565b005b6005546040516001600160a01b0390911681526020016100f9565b6100ec610305565b6101156101bd3660046108b1565b610314565b6101296101d0366004610939565b6001600160a01b03918216600090815260016020908152604080832093909416825291909152205490565b61018a6102093660046108b1565b610322565b61018a61021c366004610917565b61037e565b6060600380546102309061096c565b80601f016020809104026020016040519081016040528092919081815260200182805461025c9061096c565b80156102a95780601f1061027e576101008083540402835291602001916102a9565b820191906000526020600020905b81548152906001019060200180831161028c57829003601f168201915b5050505050905090565b6000336102c18185856103da565b60019150505b92915050565b6000336102db8582856103e7565b6102e685858561047e565b506001949350505050565b6102f96104dd565b6103036000610523565b565b6060600480546102309061096c565b6000336102c181858561047e565b61032a6104dd565b6001600160a01b038216600090815260208190526040902054808211156103635761035e8361035983856109bc565b61058d565b505050565b8082101561035e5761035e8361037984846109bc565b6105c7565b6103866104dd565b6001600160a01b0381166103ce576040517f1e4fbdf7000000000000000000000000000000000000000000000000000000008152600060048201526024015b60405180910390fd5b6103d781610523565b50565b61035e83838360016105fd565b6001600160a01b0383811660009081526001602090815260408083209386168352929052205460001981146104785781811015610469576040517ffb8f41b20000000000000000000000000000000000000000000000000000000081526001600160a01b038416600482015260248101829052604481018390526064016103c5565b610478848484840360006105fd565b50505050565b6001600160a01b0383166104a857604051634b637e8f60e11b8152600060048201526024016103c5565b6001600160a01b0382166104d25760405163ec442f0560e01b8152600060048201526024016103c5565b61035e838383610704565b6005546001600160a01b03163314610303576040517f118cdaa70000000000000000000000000000000000000000000000000000000081523360048201526024016103c5565b600580546001600160a01b038381167fffffffffffffffffffffffff0000000000000000000000000000000000000000831681179093556040519116919082907f8be0079c531659141344cd1fd0a4f28419497f9722a3daafe3b4186f6b6457e090600090a35050565b6001600160a01b0382166105b75760405163ec442f0560e01b8152600060048201526024016103c5565b6105c360008383610704565b5050565b6001600160a01b0382166105f157604051634b637e8f60e11b8152600060048201526024016103c5565b6105c382600083610704565b6001600160a01b038416610640576040517fe602df05000000000000000000000000000000000000000000000000000000008152600060048201526024016103c5565b6001600160a01b038316610683576040517f94280d62000000000000000000000000000000000000000000000000000000008152600060048201526024016103c5565b6001600160a01b038085166000908152600160209081526040808320938716835292905220829055801561047857826001600160a01b0316846001600160a01b03167f8c5be1e5ebec7d5bd14f71427d1e84f3dd0314c0f7b2291e5b200ac8c7c3b925846040516106f691815260200190565b60405180910390a350505050565b6001600160a01b03831661072f57806002600082825461072491906109cf565b909155506107ba9050565b6001600160a01b0383166000908152602081905260409020548181101561079b576040517fe450d38c0000000000000000000000000000000000000000000000000000000081526001600160a01b038516600482015260248101829052604481018390526064016103c5565b6001600160a01b03841660009081526020819052604090209082900390555b6001600160a01b0382166107d6576002805482900390556107f5565b6001600160a01b03821660009081526020819052604090208054820190555b816001600160a01b0316836001600160a01b03167fddf252ad1be2c89b69c2b068fc378daa952ba7f163c4a11628f55a4df523b3ef8360405161083a91815260200190565b60405180910390a3505050565b600060208083528351808285015260005b8181101561087457858101830151858201604001528201610858565b506000604082860101526040601f19601f8301168501019250505092915050565b80356001600160a01b03811681146108ac57600080fd5b919050565b600080604083850312156108c457600080fd5b6108cd83610895565b946020939093013593505050565b6000806000606084860312156108f057600080fd5b6108f984610895565b925061090760208501610895565b9150604084013590509250925092565b60006020828403121561092957600080fd5b61093282610895565b9392505050565b6000806040838503121561094c57600080fd5b61095583610895565b915061096360208401610895565b90509250929050565b600181811c9082168061098057607f821691505b6020821081036109a057634e487b7160e01b600052602260045260246000fd5b50919050565b634e487b7160e01b600052601160045260246000fd5b818103818111156102c7576102c76109a6565b808201808211156102c7576102c76109a656fea264697066735822122017004889e7084e84e36ac588e9b3c06c6ac66f8fc591cb25713d89c2df00610464736f6c63430008140033a264697066735822122016399c38e5329c3ccc8201fcc4f2f657f1c3d7694d5edd172d9f3574b417354e64736f6c63430008140033","opcodes":"PUSH1 0x80 PUSH1 0x40 MSTORE CALLVALUE DUP1 ISZERO PUSH2 0x10 JUMPI PUSH1 0x0 DUP1 REVERT JUMPDEST POP PUSH1 0x1 DUP1 SLOAD PUSH1 0x1 PUSH1 0x1 PUSH1 0xA0 SHL SUB NOT AND CALLER OR SWAP1 SSTORE PUSH2 0x23D5 DUP1 PUSH2 0x32 PUSH1 0x0 CODECOPY PUSH1 0x0 RETURN INVALID PUSH1 0x80 PUSH1 0x40 MSTORE PUSH1 0x4 CALLDATASIZE LT PUSH3 0x1B7 JUMPI PUSH1 0x0 CALLDATALOAD PUSH1 0xE0 SHR DUP1 PUSH4 0x8EB43AA1 GT PUSH3 0xF3 JUMPI DUP1 PUSH4 0xC4C89137 GT PUSH3 0x95 JUMPI DUP1 PUSH4 0xE30443BC GT PUSH3 0x6C JUMPI DUP1 PUSH4 0xE30443BC EQ PUSH3 0x4C5 JUMPI DUP1 PUSH4 0xE9074CA3 EQ PUSH3 0x4EA JUMPI DUP1 PUSH4 0xEF9FC50B EQ PUSH3 0x511 JUMPI DUP1 PUSH4 0xF614EB31 EQ PUSH3 0x534 JUMPI PUSH1 0x0 DUP1 REVERT JUMPDEST DUP1 PUSH4 0xC4C89137 EQ PUSH3 0x465 JUMPI DUP1 PUSH4 0xCFBD56B8 EQ PUSH3 0x48A JUMPI DUP1 PUSH4 0xD40E607A EQ PUSH3 0x4A2 JUMPI PUSH1 0x0 DUP1 REVERT JUMPDEST DUP1 PUSH4 0x999C697B GT PUSH3 0xCA JUMPI DUP1 PUSH4 0x999C697B EQ PUSH3 0x3F6 JUMPI DUP1 PUSH4 0xAF22DB87 EQ PUSH3 0x444 JUMPI DUP1 PUSH4 0xC1756A2C EQ PUSH3 0x44E JUMPI PUSH1 0x0 DUP1 REVERT JUMPDEST DUP1 PUSH4 0x8EB43AA1 EQ PUSH3 0x39D JUMPI DUP1 PUSH4 0x906D7A33 EQ PUSH3 0x3C7 JUMPI DUP1 PUSH4 0x98EA5FCA EQ PUSH3 0x3EC JUMPI PUSH1 0x0 DUP1 REVERT JUMPDEST DUP1 PUSH4 0x49CAD0FA GT PUSH3 0x15D JUMPI DUP1 PUSH4 0x6F9FB98A GT PUSH3 0x134 JUMPI DUP1 PUSH4 0x6F9FB98A EQ PUSH3 0x341 JUMPI DUP1 PUSH4 0x711ECF59 EQ PUSH3 0x356 JUMPI DUP1 PUSH4 0x8DA5CB5B EQ PUSH3 0x37B JUMPI PUSH1 0x0 DUP1 REVERT JUMPDEST DUP1 PUSH4 0x49CAD0FA EQ PUSH3 0x2CA JUMPI DUP1 PUSH4 0x51E0556D EQ PUSH3 0x305 JUMPI DUP1 PUSH4 0x63D95843 EQ PUSH3 0x31C JUMPI PUSH1 0x0 DUP1 REVERT JUMPDEST DUP1 PUSH4 0x359C71C7 GT PUSH3 0x192 JUMPI DUP1 PUSH4 0x359C71C7 EQ PUSH3 0x24C JUMPI DUP1 PUSH4 0x35F7FB2B EQ PUSH3 0x271 JUMPI DUP1 PUSH4 0x361725C9 EQ PUSH3 0x2A5 JUMPI PUSH1 0x0 DUP1 REVERT JUMPDEST DUP1 PUSH4 0x16B95176 EQ PUSH3 0x1BC JUMPI DUP1 PUSH4 0x27E235E3 EQ PUSH3 0x1E3 JUMPI DUP1 PUSH4 0x2F2F2D56 EQ PUSH3 0x227 JUMPI JUMPDEST PUSH1 0x0 DUP1 REVERT JUMPDEST CALLVALUE DUP1 ISZERO PUSH3 0x1C9 JUMPI PUSH1 0x0 DUP1 REVERT JUMPDEST POP PUSH3 0x1E1 PUSH3 0x1DB CALLDATASIZE PUSH1 0x4 PUSH3 0xDB6 JUMP JUMPDEST PUSH3 0x54C JUMP JUMPDEST STOP JUMPDEST CALLVALUE DUP1 ISZERO PUSH3 0x1F0 JUMPI PUSH1 0x0 DUP1 REVERT JUMPDEST POP PUSH3 0x214 PUSH3 0x202 CALLDATASIZE PUSH1 0x4 PUSH3 0xDE6 JUMP JUMPDEST PUSH1 0x9 PUSH1 0x20 MSTORE PUSH1 0x0 SWAP1 DUP2 MSTORE PUSH1 0x40 SWAP1 KECCAK256 SLOAD DUP2 JUMP JUMPDEST PUSH1 0x40 MLOAD SWAP1 DUP2 MSTORE PUSH1 0x20 ADD JUMPDEST PUSH1 0x40 MLOAD DUP1 SWAP2 SUB SWAP1 RETURN JUMPDEST CALLVALUE DUP1 ISZERO PUSH3 0x234 JUMPI PUSH1 0x0 DUP1 REVERT JUMPDEST POP PUSH3 0x1E1 PUSH3 0x246 CALLDATASIZE PUSH1 0x4 PUSH3 0xEC3 JUMP JUMPDEST PUSH3 0x5BF JUMP JUMPDEST CALLVALUE DUP1 ISZERO PUSH3 0x259 JUMPI PUSH1 0x0 DUP1 REVERT JUMPDEST POP PUSH3 0x1E1 PUSH3 0x26B CALLDATASIZE PUSH1 0x4 PUSH3 0xDB6 JUMP JUMPDEST PUSH3 0x692 JUMP JUMPDEST CALLVALUE DUP1 ISZERO PUSH3 0x27E JUMPI PUSH1 0x0 DUP1 REVERT JUMPDEST POP PUSH1 0x2 SLOAD PUSH3 0x294 SWAP1 PUSH1 0x1 PUSH1 0xA0 SHL SWAP1 DIV PUSH1 0xFF AND DUP2 JUMP JUMPDEST PUSH1 0x40 MLOAD SWAP1 ISZERO ISZERO DUP2 MSTORE PUSH1 0x20 ADD PUSH3 0x21E JUMP JUMPDEST CALLVALUE DUP1 ISZERO PUSH3 0x2B2 JUMPI PUSH1 0x0 DUP1 REVERT JUMPDEST POP PUSH3 0x1E1 PUSH3 0x2C4 CALLDATASIZE PUSH1 0x4 PUSH3 0xF2E JUMP JUMPDEST PUSH3 0x6EC JUMP JUMPDEST CALLVALUE DUP1 ISZERO PUSH3 0x2D7 JUMPI PUSH1 0x0 DUP1 REVERT JUMPDEST POP PUSH1 0x2 SLOAD PUSH3 0x2EC SWAP1 PUSH1 0x1 PUSH1 0x1 PUSH1 0xA0 SHL SUB AND DUP2 JUMP JUMPDEST PUSH1 0x40 MLOAD PUSH1 0x1 PUSH1 0x1 PUSH1 0xA0 SHL SUB SWAP1 SWAP2 AND DUP2 MSTORE PUSH1 0x20 ADD PUSH3 0x21E JUMP JUMPDEST CALLVALUE DUP1 ISZERO PUSH3 0x312 JUMPI PUSH1 0x0 DUP1 REVERT JUMPDEST POP PUSH1 0x0 SLOAD PUSH3 0x214 JUMP JUMPDEST CALLVALUE DUP1 ISZERO PUSH3 0x329 JUMPI PUSH1 0x0 DUP1 REVERT JUMPDEST POP PUSH3 0x1E1 PUSH3 0x33B CALLDATASIZE PUSH1 0x4 PUSH3 0xF8F JUMP JUMPDEST PUSH3 0x81A JUMP JUMPDEST CALLVALUE DUP1 ISZERO PUSH3 0x34E JUMPI PUSH1 0x0 DUP1 REVERT JUMPDEST POP SELFBALANCE PUSH3 0x214 JUMP JUMPDEST CALLVALUE DUP1 ISZERO PUSH3 0x363 JUMPI PUSH1 0x0 DUP1 REVERT JUMPDEST POP PUSH3 0x1E1 PUSH3 0x375 CALLDATASIZE PUSH1 0x4 PUSH3 0xFDF JUMP JUMPDEST PUSH3 0x864 JUMP JUMPDEST CALLVALUE DUP1 ISZERO PUSH3 0x388 JUMPI PUSH1 0x0 DUP1 REVERT JUMPDEST POP PUSH1 0x1 SLOAD PUSH3 0x2EC SWAP1 PUSH1 0x1 PUSH1 0x1 PUSH1 0xA0 SHL SUB AND DUP2 JUMP JUMPDEST CALLVALUE DUP1 ISZERO PUSH3 0x3AA JUMPI PUSH1 0x0 DUP1 REVERT JUMPDEST POP PUSH3 0x3B5 PUSH3 0x8D5 JUMP JUMPDEST PUSH1 0x40 MLOAD PUSH3 0x21E SWAP5 SWAP4 SWAP3 SWAP2 SWAP1 PUSH3 0x1053 JUMP JUMPDEST CALLVALUE DUP1 ISZERO PUSH3 0x3D4 JUMPI PUSH1 0x0 DUP1 REVERT JUMPDEST POP PUSH3 0x1E1 PUSH3 0x3E6 CALLDATASIZE PUSH1 0x4 PUSH3 0xFDF JUMP JUMPDEST PUSH3 0x988 JUMP JUMPDEST PUSH3 0x1E1 PUSH3 0x9E2 JUMP JUMPDEST CALLVALUE DUP1 ISZERO PUSH3 0x403 JUMPI PUSH1 0x0 DUP1 REVERT JUMPDEST POP PUSH3 0x40E PUSH3 0xA36 JUMP JUMPDEST PUSH1 0x40 DUP1 MLOAD SWAP7 DUP8 MSTORE PUSH1 0x1 PUSH1 0x1 PUSH1 0xA0 SHL SUB SWAP1 SWAP6 AND PUSH1 0x20 DUP8 ADD MSTORE SWAP4 DUP6 ADD SWAP3 SWAP1 SWAP3 MSTORE PUSH1 0x60 DUP5 ADD MSTORE PUSH1 0x80 DUP4 ADD MSTORE PUSH1 0xA0 DUP3 ADD MSTORE PUSH1 0xC0 ADD PUSH3 0x21E JUMP JUMPDEST PUSH3 0x1E1 PUSH3 0xA5F JUMP JUMPDEST PUSH3 0x1E1 PUSH3 0x45F CALLDATASIZE PUSH1 0x4 PUSH3 0x108E JUMP JUMPDEST PUSH3 0xB19 JUMP JUMPDEST CALLVALUE DUP1 ISZERO PUSH3 0x472 JUMPI PUSH1 0x0 DUP1 REVERT JUMPDEST POP PUSH3 0x1E1 PUSH3 0x484 CALLDATASIZE PUSH1 0x4 PUSH3 0xDB6 JUMP JUMPDEST PUSH3 0xC03 JUMP JUMPDEST CALLVALUE DUP1 ISZERO PUSH3 0x497 JUMPI PUSH1 0x0 DUP1 REVERT JUMPDEST POP PUSH3 0x1E1 PUSH3 0xC3B JUMP JUMPDEST CALLVALUE DUP1 ISZERO PUSH3 0x4AF JUMPI PUSH1 0x0 DUP1 REVERT JUMPDEST POP PUSH3 0x214 PUSH3 0x4C1 CALLDATASIZE PUSH1 0x4 PUSH3 0xDB6 JUMP JUMPDEST SLOAD SWAP1 JUMP JUMPDEST CALLVALUE DUP1 ISZERO PUSH3 0x4D2 JUMPI PUSH1 0x0 DUP1 REVERT JUMPDEST POP PUSH3 0x1E1 PUSH3 0x4E4 CALLDATASIZE PUSH1 0x4 PUSH3 0x108E JUMP JUMPDEST PUSH3 0xC88 JUMP JUMPDEST CALLVALUE DUP1 ISZERO PUSH3 0x4F7 JUMPI PUSH1 0x0 DUP1 REVERT JUMPDEST POP PUSH3 0x502 PUSH3 0xD12 JUMP JUMPDEST PUSH1 0x40 MLOAD PUSH3 0x21E SWAP2 SWAP1 PUSH3 0x10BD JUMP JUMPDEST CALLVALUE DUP1 ISZERO PUSH3 0x51E JUMPI PUSH1 0x0 DUP1 REVERT JUMPDEST POP PUSH3 0x214 PUSH3 0x530 CALLDATASIZE PUSH1 0x4 PUSH3 0x10D2 JUMP JUMPDEST ADD SWAP1 JUMP JUMPDEST CALLVALUE DUP1 ISZERO PUSH3 0x541 JUMPI PUSH1 0x0 DUP1 REVERT JUMPDEST POP PUSH3 0x214 PUSH1 0x3 SLOAD DUP2 JUMP JUMPDEST PUSH1 0x0 DUP2 SWAP1 SSTORE PUSH1 0x40 MLOAD CALLER SWAP1 PUSH32 0xDEFF57A6906278D2AF998B73B3DEBF5CA6D109B7D958D00944210DE6BCB0BE41 SWAP1 PUSH3 0x5B4 SWAP1 PUSH1 0x20 DUP1 DUP3 MSTORE PUSH1 0xB SWAP1 DUP3 ADD MSTORE PUSH32 0x446174612053746F726564000000000000000000000000000000000000000000 PUSH1 0x40 DUP3 ADD MSTORE PUSH1 0x60 ADD SWAP1 JUMP JUMPDEST PUSH1 0x40 MLOAD DUP1 SWAP2 SUB SWAP1 LOG2 POP JUMP JUMPDEST PUSH1 0x0 DUP3 DUP3 PUSH1 0x40 MLOAD PUSH3 0x5D1 SWAP1 PUSH3 0xDA8 JUMP JUMPDEST PUSH3 0x5DE SWAP3 SWAP2 SWAP1 PUSH3 0x10F5 JUMP JUMPDEST PUSH1 0x40 MLOAD DUP1 SWAP2 SUB SWAP1 PUSH1 0x0 CREATE DUP1 ISZERO DUP1 ISZERO PUSH3 0x5FB JUMPI RETURNDATASIZE PUSH1 0x0 DUP1 RETURNDATACOPY RETURNDATASIZE PUSH1 0x0 REVERT JUMPDEST POP PUSH1 0x40 MLOAD PUSH32 0xA9059CBB00000000000000000000000000000000000000000000000000000000 DUP2 MSTORE CALLER PUSH1 0x4 DUP3 ADD MSTORE PUSH1 0x64 PUSH1 0x24 DUP3 ADD MSTORE SWAP1 SWAP2 POP PUSH1 0x1 PUSH1 0x1 PUSH1 0xA0 SHL SUB DUP3 AND SWAP1 PUSH4 0xA9059CBB SWAP1 PUSH1 0x44 ADD PUSH1 0x20 PUSH1 0x40 MLOAD DUP1 DUP4 SUB DUP2 PUSH1 0x0 DUP8 GAS CALL ISZERO DUP1 ISZERO PUSH3 0x666 JUMPI RETURNDATASIZE PUSH1 0x0 DUP1 RETURNDATACOPY RETURNDATASIZE PUSH1 0x0 REVERT JUMPDEST POP POP POP POP PUSH1 0x40 MLOAD RETURNDATASIZE PUSH1 0x1F NOT PUSH1 0x1F DUP3 ADD AND DUP3 ADD DUP1 PUSH1 0x40 MSTORE POP DUP2 ADD SWAP1 PUSH3 0x68C SWAP2 SWAP1 PUSH3 0x1127 JUMP JUMPDEST POP POP POP POP JUMP JUMPDEST PUSH1 0x0 JUMPDEST DUP2 DUP2 LT ISZERO PUSH3 0x6E8 JUMPI PUSH1 0x40 MLOAD DUP2 DUP2 MSTORE CALLER SWAP1 PUSH32 0x1D56BB73275C853DE44E9DF37F18D598FB03F68762368689DBC37018E108F320 SWAP1 PUSH1 0x20 ADD PUSH1 0x40 MLOAD DUP1 SWAP2 SUB SWAP1 LOG2 DUP1 PUSH3 0x6DF DUP2 PUSH3 0x115D JUMP JUMPDEST SWAP2 POP POP PUSH3 0x695 JUMP JUMPDEST POP POP JUMP JUMPDEST PUSH1 0x0 DUP3 PUSH1 0x1 PUSH1 0x1 PUSH1 0xA0 SHL SUB AND DUP3 PUSH1 0x40 MLOAD PUSH3 0x708 SWAP2 SWAP1 PUSH3 0x1179 JUMP JUMPDEST PUSH1 0x0 PUSH1 0x40 MLOAD DUP1 DUP4 SUB DUP2 PUSH1 0x0 DUP7 GAS CALL SWAP2 POP POP RETURNDATASIZE DUP1 PUSH1 0x0 DUP2 EQ PUSH3 0x747 JUMPI PUSH1 0x40 MLOAD SWAP2 POP PUSH1 0x1F NOT PUSH1 0x3F RETURNDATASIZE ADD AND DUP3 ADD PUSH1 0x40 MSTORE RETURNDATASIZE DUP3 MSTORE RETURNDATASIZE PUSH1 0x0 PUSH1 0x20 DUP5 ADD RETURNDATACOPY PUSH3 0x74C JUMP JUMPDEST PUSH1 0x60 SWAP2 POP JUMPDEST POP POP SWAP1 POP DUP1 PUSH3 0x7A3 JUMPI PUSH1 0x40 MLOAD PUSH3 0x461BCD PUSH1 0xE5 SHL DUP2 MSTORE PUSH1 0x20 PUSH1 0x4 DUP3 ADD MSTORE PUSH1 0xB PUSH1 0x24 DUP3 ADD MSTORE PUSH32 0x43616C6C206661696C6564000000000000000000000000000000000000000000 PUSH1 0x44 DUP3 ADD MSTORE PUSH1 0x64 ADD JUMPDEST PUSH1 0x40 MLOAD DUP1 SWAP2 SUB SWAP1 REVERT JUMPDEST CALLER PUSH1 0x1 PUSH1 0x1 PUSH1 0xA0 SHL SUB AND PUSH32 0xDEFF57A6906278D2AF998B73B3DEBF5CA6D109B7D958D00944210DE6BCB0BE41 PUSH1 0x40 MLOAD PUSH3 0x80D SWAP1 PUSH1 0x20 DUP1 DUP3 MSTORE PUSH1 0x13 SWAP1 DUP3 ADD MSTORE PUSH32 0x496E7465722D436F6E74726163742043616C6C00000000000000000000000000 PUSH1 0x40 DUP3 ADD MSTORE PUSH1 0x60 ADD SWAP1 JUMP JUMPDEST PUSH1 0x40 MLOAD DUP1 SWAP2 SUB SWAP1 LOG2 POP POP POP JUMP JUMPDEST PUSH1 0x4 PUSH3 0x828 DUP3 DUP3 PUSH3 0x1225 JUMP JUMPDEST POP CALLER PUSH1 0x1 PUSH1 0x1 PUSH1 0xA0 SHL SUB AND PUSH32 0xEB73CEC9D23675A546442D52054F0A7C29E9B7DC418BE5FE6A9D27BC32653DA DUP3 PUSH1 0x40 MLOAD PUSH3 0x5B4 SWAP2 SWAP1 PUSH3 0x10BD JUMP JUMPDEST PUSH1 0x2 DUP1 SLOAD PUSH1 0xFF PUSH1 0xA0 SHL NOT AND PUSH1 0x1 PUSH1 0xA0 SHL DUP4 ISZERO ISZERO SWAP1 DUP2 MUL SWAP2 SWAP1 SWAP2 OR SWAP1 SWAP2 SSTORE PUSH1 0x1 EQ PUSH3 0x8D2 JUMPI PUSH1 0x40 MLOAD PUSH3 0x461BCD PUSH1 0xE5 SHL DUP2 MSTORE PUSH1 0x20 PUSH1 0x4 DUP3 ADD MSTORE PUSH1 0x12 PUSH1 0x24 DUP3 ADD MSTORE PUSH32 0x76616C7565206D75737420626520747275650000000000000000000000000000 PUSH1 0x44 DUP3 ADD MSTORE PUSH1 0x64 ADD PUSH3 0x79A JUMP JUMPDEST POP JUMP JUMPDEST PUSH1 0x5 DUP1 SLOAD PUSH1 0x6 SLOAD PUSH1 0x7 DUP1 SLOAD PUSH1 0x1 PUSH1 0x1 PUSH1 0xA0 SHL SUB SWAP1 SWAP4 AND SWAP4 SWAP2 SWAP3 PUSH3 0x8F9 SWAP1 PUSH3 0x1197 JUMP JUMPDEST DUP1 PUSH1 0x1F ADD PUSH1 0x20 DUP1 SWAP2 DIV MUL PUSH1 0x20 ADD PUSH1 0x40 MLOAD SWAP1 DUP2 ADD PUSH1 0x40 MSTORE DUP1 SWAP3 SWAP2 SWAP1 DUP2 DUP2 MSTORE PUSH1 0x20 ADD DUP3 DUP1 SLOAD PUSH3 0x927 SWAP1 PUSH3 0x1197 JUMP JUMPDEST DUP1 ISZERO PUSH3 0x978 JUMPI DUP1 PUSH1 0x1F LT PUSH3 0x94C JUMPI PUSH2 0x100 DUP1 DUP4 SLOAD DIV MUL DUP4 MSTORE SWAP2 PUSH1 0x20 ADD SWAP2 PUSH3 0x978 JUMP JUMPDEST DUP3 ADD SWAP2 SWAP1 PUSH1 0x0 MSTORE PUSH1 0x20 PUSH1 0x0 KECCAK256 SWAP1 JUMPDEST DUP2 SLOAD DUP2 MSTORE SWAP1 PUSH1 0x1 ADD SWAP1 PUSH1 0x20 ADD DUP1 DUP4 GT PUSH3 0x95A JUMPI DUP3 SWAP1 SUB PUSH1 0x1F AND DUP3 ADD SWAP2 JUMPDEST POP POP POP POP POP SWAP1 DUP1 PUSH1 0x3 ADD SLOAD SWAP1 POP DUP5 JUMP JUMPDEST PUSH1 0x2 DUP1 SLOAD PUSH1 0xFF PUSH1 0xA0 SHL NOT AND PUSH1 0x1 PUSH1 0xA0 SHL DUP4 ISZERO ISZERO SWAP1 DUP2 MUL SWAP2 SWAP1 SWAP2 OR SWAP1 SWAP2 SSTORE PUSH1 0x40 DUP1 MLOAD CALLER DUP2 MSTORE PUSH1 0x20 DUP2 ADD SWAP3 SWAP1 SWAP3 MSTORE PUSH32 0x36285DEFB58E7BDFDA894DD4F86E1C7C826522AE0755F0017A2155B4C58022E SWAP2 ADD PUSH1 0x40 MLOAD DUP1 SWAP2 SUB SWAP1 LOG1 POP JUMP JUMPDEST PUSH1 0x0 CALLVALUE GT PUSH3 0xA34 JUMPI PUSH1 0x40 MLOAD PUSH3 0x461BCD PUSH1 0xE5 SHL DUP2 MSTORE PUSH1 0x20 PUSH1 0x4 DUP3 ADD MSTORE PUSH1 0xD PUSH1 0x24 DUP3 ADD MSTORE PUSH32 0x4E6F2045746865722073656E7400000000000000000000000000000000000000 PUSH1 0x44 DUP3 ADD MSTORE PUSH1 0x64 ADD PUSH3 0x79A JUMP JUMPDEST JUMP JUMPDEST PUSH1 0x0 DUP1 DUP1 DUP1 DUP1 DUP1 PUSH3 0xA4A PUSH1 0x1 NUMBER PUSH3 0x12F2 JUMP JUMPDEST BLOCKHASH SWAP7 COINBASE SWAP7 POP PREVRANDAO SWAP6 POP GASLIMIT SWAP5 POP NUMBER SWAP4 POP TIMESTAMP SWAP3 POP SWAP1 POP JUMP JUMPDEST PUSH1 0x40 MLOAD DUP1 PUSH1 0x80 ADD PUSH1 0x40 MSTORE DUP1 CALLER PUSH1 0x1 PUSH1 0x1 PUSH1 0xA0 SHL SUB AND DUP2 MSTORE PUSH1 0x20 ADD CALLVALUE DUP2 MSTORE PUSH1 0x20 ADD PUSH1 0x0 CALLDATASIZE DUP1 DUP1 PUSH1 0x1F ADD PUSH1 0x20 DUP1 SWAP2 DIV MUL PUSH1 0x20 ADD PUSH1 0x40 MLOAD SWAP1 DUP2 ADD PUSH1 0x40 MSTORE DUP1 SWAP4 SWAP3 SWAP2 SWAP1 DUP2 DUP2 MSTORE PUSH1 0x20 ADD DUP4 DUP4 DUP1 DUP3 DUP5 CALLDATACOPY PUSH1 0x0 SWAP3 ADD SWAP2 SWAP1 SWAP2 MSTORE POP POP POP SWAP1 DUP3 MSTORE POP PUSH1 0x20 ADD GAS SWAP1 MSTORE DUP1 MLOAD PUSH1 0x5 DUP1 SLOAD PUSH20 0xFFFFFFFFFFFFFFFFFFFFFFFFFFFFFFFFFFFFFFFF NOT AND PUSH1 0x1 PUSH1 0x1 PUSH1 0xA0 SHL SUB SWAP1 SWAP3 AND SWAP2 SWAP1 SWAP2 OR DUP2 SSTORE PUSH1 0x20 DUP3 ADD MLOAD PUSH1 0x6 SSTORE PUSH1 0x40 DUP3 ADD MLOAD PUSH1 0x7 SWAP1 PUSH3 0xB09 SWAP1 DUP3 PUSH3 0x1225 JUMP JUMPDEST POP PUSH1 0x60 DUP3 ADD MLOAD DUP2 PUSH1 0x3 ADD SSTORE SWAP1 POP POP JUMP JUMPDEST PUSH1 0x1 SLOAD PUSH1 0x1 PUSH1 0x1 PUSH1 0xA0 SHL SUB AND CALLER EQ PUSH3 0xB75 JUMPI PUSH1 0x40 MLOAD PUSH3 0x461BCD PUSH1 0xE5 SHL DUP2 MSTORE PUSH1 0x20 PUSH1 0x4 DUP3 ADD MSTORE PUSH1 0x19 PUSH1 0x24 DUP3 ADD MSTORE PUSH32 0x4F6E6C79206F776E65722063616E2073656E6420457468657200000000000000 PUSH1 0x44 DUP3 ADD MSTORE PUSH1 0x64 ADD PUSH3 0x79A JUMP JUMPDEST DUP1 SELFBALANCE LT ISZERO PUSH3 0xBC7 JUMPI PUSH1 0x40 MLOAD PUSH3 0x461BCD PUSH1 0xE5 SHL DUP2 MSTORE PUSH1 0x20 PUSH1 0x4 DUP3 ADD MSTORE PUSH1 0x14 PUSH1 0x24 DUP3 ADD MSTORE PUSH32 0x496E73756666696369656E742062616C616E6365000000000000000000000000 PUSH1 0x44 DUP3 ADD MSTORE PUSH1 0x64 ADD PUSH3 0x79A JUMP JUMPDEST PUSH1 0x40 MLOAD PUSH1 0x1 PUSH1 0x1 PUSH1 0xA0 SHL SUB DUP4 AND SWAP1 DUP3 ISZERO PUSH2 0x8FC MUL SWAP1 DUP4 SWAP1 PUSH1 0x0 DUP2 DUP2 DUP2 DUP6 DUP9 DUP9 CALL SWAP4 POP POP POP POP ISZERO DUP1 ISZERO PUSH3 0xBFE JUMPI RETURNDATASIZE PUSH1 0x0 DUP1 RETURNDATACOPY RETURNDATASIZE PUSH1 0x0 REVERT JUMPDEST POP POP POP JUMP JUMPDEST PUSH1 0x3 DUP2 SWAP1 SSTORE PUSH1 0x40 MLOAD DUP2 DUP2 MSTORE CALLER SWAP1 PUSH32 0x72949B2B6E0735D04837F50B4944F1E7D232157E1BA3881F7D9B1C4BDAF819E5 SWAP1 PUSH1 0x20 ADD PUSH3 0x5B4 JUMP JUMPDEST PUSH1 0x2 DUP1 SLOAD PUSH20 0xFFFFFFFFFFFFFFFFFFFFFFFFFFFFFFFFFFFFFFFF NOT AND CALLER SWAP1 DUP2 OR SWAP1 SWAP2 SSTORE PUSH1 0x40 MLOAD PUSH32 0x88749AED52403B3A8EC7763273D5665190617F46DE93B08AAB1CC6EC80DC2FB4 SWAP1 PUSH1 0x0 SWAP1 LOG2 JUMP JUMPDEST PUSH1 0x1 PUSH1 0x1 PUSH1 0xA0 SHL SUB DUP3 AND PUSH1 0x0 SWAP1 DUP2 MSTORE PUSH1 0x9 PUSH1 0x20 MSTORE PUSH1 0x40 SWAP1 DUP2 SWAP1 KECCAK256 DUP3 SWAP1 SSTORE MLOAD CALLER SWAP1 PUSH32 0xDEFF57A6906278D2AF998B73B3DEBF5CA6D109B7D958D00944210DE6BCB0BE41 SWAP1 PUSH3 0xD06 SWAP1 PUSH1 0x20 DUP1 DUP3 MSTORE PUSH1 0xB SWAP1 DUP3 ADD MSTORE PUSH32 0x42616C616E636520536574000000000000000000000000000000000000000000 PUSH1 0x40 DUP3 ADD MSTORE PUSH1 0x60 ADD SWAP1 JUMP JUMPDEST PUSH1 0x40 MLOAD DUP1 SWAP2 SUB SWAP1 LOG2 POP POP JUMP JUMPDEST PUSH1 0x4 DUP1 SLOAD PUSH3 0xD21 SWAP1 PUSH3 0x1197 JUMP JUMPDEST DUP1 PUSH1 0x1F ADD PUSH1 0x20 DUP1 SWAP2 DIV MUL PUSH1 0x20 ADD PUSH1 0x40 MLOAD SWAP1 DUP2 ADD PUSH1 0x40 MSTORE DUP1 SWAP3 SWAP2 SWAP1 DUP2 DUP2 MSTORE PUSH1 0x20 ADD DUP3 DUP1 SLOAD PUSH3 0xD4F SWAP1 PUSH3 0x1197 JUMP JUMPDEST DUP1 ISZERO PUSH3 0xDA0 JUMPI DUP1 PUSH1 0x1F LT PUSH3 0xD74 JUMPI PUSH2 0x100 DUP1 DUP4 SLOAD DIV MUL DUP4 MSTORE SWAP2 PUSH1 0x20 ADD SWAP2 PUSH3 0xDA0 JUMP JUMPDEST DUP3 ADD SWAP2 SWAP1 PUSH1 0x0 MSTORE PUSH1 0x20 PUSH1 0x0 KECCAK256 SWAP1 JUMPDEST DUP2 SLOAD DUP2 MSTORE SWAP1 PUSH1 0x1 ADD SWAP1 PUSH1 0x20 ADD DUP1 DUP4 GT PUSH3 0xD82 JUMPI DUP3 SWAP1 SUB PUSH1 0x1F AND DUP3 ADD SWAP2 JUMPDEST POP POP POP POP POP DUP2 JUMP JUMPDEST PUSH2 0x1091 DUP1 PUSH3 0x130F DUP4 CODECOPY ADD SWAP1 JUMP JUMPDEST PUSH1 0x0 PUSH1 0x20 DUP3 DUP5 SUB SLT ISZERO PUSH3 0xDC9 JUMPI PUSH1 0x0 DUP1 REVERT JUMPDEST POP CALLDATALOAD SWAP2 SWAP1 POP JUMP JUMPDEST PUSH1 0x1 PUSH1 0x1 PUSH1 0xA0 SHL SUB DUP2 AND DUP2 EQ PUSH3 0x8D2 JUMPI PUSH1 0x0 DUP1 REVERT JUMPDEST PUSH1 0x0 PUSH1 0x20 DUP3 DUP5 SUB SLT ISZERO PUSH3 0xDF9 JUMPI PUSH1 0x0 DUP1 REVERT JUMPDEST DUP2 CALLDATALOAD PUSH3 0xE06 DUP2 PUSH3 0xDD0 JUMP JUMPDEST SWAP4 SWAP3 POP POP POP JUMP JUMPDEST PUSH4 0x4E487B71 PUSH1 0xE0 SHL PUSH1 0x0 MSTORE PUSH1 0x41 PUSH1 0x4 MSTORE PUSH1 0x24 PUSH1 0x0 REVERT JUMPDEST PUSH1 0x0 PUSH8 0xFFFFFFFFFFFFFFFF DUP1 DUP5 GT ISZERO PUSH3 0xE41 JUMPI PUSH3 0xE41 PUSH3 0xE0D JUMP JUMPDEST PUSH1 0x40 MLOAD PUSH1 0x1F DUP6 ADD PUSH1 0x1F NOT SWAP1 DUP2 AND PUSH1 0x3F ADD AND DUP2 ADD SWAP1 DUP3 DUP3 GT DUP2 DUP4 LT OR ISZERO PUSH3 0xE6C JUMPI PUSH3 0xE6C PUSH3 0xE0D JUMP JUMPDEST DUP2 PUSH1 0x40 MSTORE DUP1 SWAP4 POP DUP6 DUP2 MSTORE DUP7 DUP7 DUP7 ADD GT ISZERO PUSH3 0xE86 JUMPI PUSH1 0x0 DUP1 REVERT JUMPDEST DUP6 DUP6 PUSH1 0x20 DUP4 ADD CALLDATACOPY PUSH1 0x0 PUSH1 0x20 DUP8 DUP4 ADD ADD MSTORE POP POP POP SWAP4 SWAP3 POP POP POP JUMP JUMPDEST PUSH1 0x0 DUP3 PUSH1 0x1F DUP4 ADD SLT PUSH3 0xEB2 JUMPI PUSH1 0x0 DUP1 REVERT JUMPDEST PUSH3 0xE06 DUP4 DUP4 CALLDATALOAD PUSH1 0x20 DUP6 ADD PUSH3 0xE23 JUMP JUMPDEST PUSH1 0x0 DUP1 PUSH1 0x40 DUP4 DUP6 SUB SLT ISZERO PUSH3 0xED7 JUMPI PUSH1 0x0 DUP1 REVERT JUMPDEST DUP3 CALLDATALOAD PUSH8 0xFFFFFFFFFFFFFFFF DUP1 DUP3 GT ISZERO PUSH3 0xEF0 JUMPI PUSH1 0x0 DUP1 REVERT JUMPDEST PUSH3 0xEFE DUP7 DUP4 DUP8 ADD PUSH3 0xEA0 JUMP JUMPDEST SWAP4 POP PUSH1 0x20 DUP6 ADD CALLDATALOAD SWAP2 POP DUP1 DUP3 GT ISZERO PUSH3 0xF15 JUMPI PUSH1 0x0 DUP1 REVERT JUMPDEST POP PUSH3 0xF24 DUP6 DUP3 DUP7 ADD PUSH3 0xEA0 JUMP JUMPDEST SWAP2 POP POP SWAP3 POP SWAP3 SWAP1 POP JUMP JUMPDEST PUSH1 0x0 DUP1 PUSH1 0x40 DUP4 DUP6 SUB SLT ISZERO PUSH3 0xF42 JUMPI PUSH1 0x0 DUP1 REVERT JUMPDEST DUP3 CALLDATALOAD PUSH3 0xF4F DUP2 PUSH3 0xDD0 JUMP JUMPDEST SWAP2 POP PUSH1 0x20 DUP4 ADD CALLDATALOAD PUSH8 0xFFFFFFFFFFFFFFFF DUP2 GT ISZERO PUSH3 0xF6C JUMPI PUSH1 0x0 DUP1 REVERT JUMPDEST DUP4 ADD PUSH1 0x1F DUP2 ADD DUP6 SGT PUSH3 0xF7E JUMPI PUSH1 0x0 DUP1 REVERT JUMPDEST PUSH3 0xF24 DUP6 DUP3 CALLDATALOAD PUSH1 0x20 DUP5 ADD PUSH3 0xE23 JUMP JUMPDEST PUSH1 0x0 PUSH1 0x20 DUP3 DUP5 SUB SLT ISZERO PUSH3 0xFA2 JUMPI PUSH1 0x0 DUP1 REVERT JUMPDEST DUP2 CALLDATALOAD PUSH8 0xFFFFFFFFFFFFFFFF DUP2 GT ISZERO PUSH3 0xFBA JUMPI PUSH1 0x0 DUP1 REVERT JUMPDEST PUSH3 0xFC8 DUP5 DUP3 DUP6 ADD PUSH3 0xEA0 JUMP JUMPDEST SWAP5 SWAP4 POP POP POP POP JUMP JUMPDEST DUP1 ISZERO ISZERO DUP2 EQ PUSH3 0x8D2 JUMPI PUSH1 0x0 DUP1 REVERT JUMPDEST PUSH1 0x0 PUSH1 0x20 DUP3 DUP5 SUB SLT ISZERO PUSH3 0xFF2 JUMPI PUSH1 0x0 DUP1 REVERT JUMPDEST DUP2 CALLDATALOAD PUSH3 0xE06 DUP2 PUSH3 0xFD0 JUMP JUMPDEST PUSH1 0x0 JUMPDEST DUP4 DUP2 LT ISZERO PUSH3 0x101C JUMPI DUP2 DUP2 ADD MLOAD DUP4 DUP3 ADD MSTORE PUSH1 0x20 ADD PUSH3 0x1002 JUMP JUMPDEST POP POP PUSH1 0x0 SWAP2 ADD MSTORE JUMP JUMPDEST PUSH1 0x0 DUP2 MLOAD DUP1 DUP5 MSTORE PUSH3 0x103F DUP2 PUSH1 0x20 DUP7 ADD PUSH1 0x20 DUP7 ADD PUSH3 0xFFF JUMP JUMPDEST PUSH1 0x1F ADD PUSH1 0x1F NOT AND SWAP3 SWAP1 SWAP3 ADD PUSH1 0x20 ADD SWAP3 SWAP2 POP POP JUMP JUMPDEST PUSH1 0x1 PUSH1 0x1 PUSH1 0xA0 SHL SUB DUP6 AND DUP2 MSTORE DUP4 PUSH1 0x20 DUP3 ADD MSTORE PUSH1 0x80 PUSH1 0x40 DUP3 ADD MSTORE PUSH1 0x0 PUSH3 0x107D PUSH1 0x80 DUP4 ADD DUP6 PUSH3 0x1025 JUMP JUMPDEST SWAP1 POP DUP3 PUSH1 0x60 DUP4 ADD MSTORE SWAP6 SWAP5 POP POP POP POP POP JUMP JUMPDEST PUSH1 0x0 DUP1 PUSH1 0x40 DUP4 DUP6 SUB SLT ISZERO PUSH3 0x10A2 JUMPI PUSH1 0x0 DUP1 REVERT JUMPDEST DUP3 CALLDATALOAD PUSH3 0x10AF DUP2 PUSH3 0xDD0 JUMP JUMPDEST SWAP5 PUSH1 0x20 SWAP4 SWAP1 SWAP4 ADD CALLDATALOAD SWAP4 POP POP POP JUMP JUMPDEST PUSH1 0x20 DUP2 MSTORE PUSH1 0x0 PUSH3 0xE06 PUSH1 0x20 DUP4 ADD DUP5 PUSH3 0x1025 JUMP JUMPDEST PUSH1 0x0 DUP1 PUSH1 0x40 DUP4 DUP6 SUB SLT ISZERO PUSH3 0x10E6 JUMPI PUSH1 0x0 DUP1 REVERT JUMPDEST POP POP DUP1 CALLDATALOAD SWAP3 PUSH1 0x20 SWAP1 SWAP2 ADD CALLDATALOAD SWAP2 POP JUMP JUMPDEST PUSH1 0x40 DUP2 MSTORE PUSH1 0x0 PUSH3 0x110A PUSH1 0x40 DUP4 ADD DUP6 PUSH3 0x1025 JUMP JUMPDEST DUP3 DUP2 SUB PUSH1 0x20 DUP5 ADD MSTORE PUSH3 0x111E DUP2 DUP6 PUSH3 0x1025 JUMP JUMPDEST SWAP6 SWAP5 POP POP POP POP POP JUMP JUMPDEST PUSH1 0x0 PUSH1 0x20 DUP3 DUP5 SUB SLT ISZERO PUSH3 0x113A JUMPI PUSH1 0x0 DUP1 REVERT JUMPDEST DUP2 MLOAD PUSH3 0xE06 DUP2 PUSH3 0xFD0 JUMP JUMPDEST PUSH4 0x4E487B71 PUSH1 0xE0 SHL PUSH1 0x0 MSTORE PUSH1 0x11 PUSH1 0x4 MSTORE PUSH1 0x24 PUSH1 0x0 REVERT JUMPDEST PUSH1 0x0 PUSH1 0x1 DUP3 ADD PUSH3 0x1172 JUMPI PUSH3 0x1172 PUSH3 0x1147 JUMP JUMPDEST POP PUSH1 0x1 ADD SWAP1 JUMP JUMPDEST PUSH1 0x0 DUP3 MLOAD PUSH3 0x118D DUP2 DUP5 PUSH1 0x20 DUP8 ADD PUSH3 0xFFF JUMP JUMPDEST SWAP2 SWAP1 SWAP2 ADD SWAP3 SWAP2 POP POP JUMP JUMPDEST PUSH1 0x1 DUP2 DUP2 SHR SWAP1 DUP3 AND DUP1 PUSH3 0x11AC JUMPI PUSH1 0x7F DUP3 AND SWAP2 POP JUMPDEST PUSH1 0x20 DUP3 LT DUP2 SUB PUSH3 0x11CD JUMPI PUSH4 0x4E487B71 PUSH1 0xE0 SHL PUSH1 0x0 MSTORE PUSH1 0x22 PUSH1 0x4 MSTORE PUSH1 0x24 PUSH1 0x0 REVERT JUMPDEST POP SWAP2 SWAP1 POP JUMP JUMPDEST PUSH1 0x1F DUP3 GT ISZERO PUSH3 0xBFE JUMPI PUSH1 0x0 DUP2 DUP2 MSTORE PUSH1 0x20 DUP2 KECCAK256 PUSH1 0x1F DUP6 ADD PUSH1 0x5 SHR DUP2 ADD PUSH1 0x20 DUP7 LT ISZERO PUSH3 0x11FC JUMPI POP DUP1 JUMPDEST PUSH1 0x1F DUP6 ADD PUSH1 0x5 SHR DUP3 ADD SWAP2 POP JUMPDEST DUP2 DUP2 LT ISZERO PUSH3 0x121D JUMPI DUP3 DUP2 SSTORE PUSH1 0x1 ADD PUSH3 0x1208 JUMP JUMPDEST POP POP POP POP POP POP JUMP JUMPDEST DUP2 MLOAD PUSH8 0xFFFFFFFFFFFFFFFF DUP2 GT ISZERO PUSH3 0x1242 JUMPI PUSH3 0x1242 PUSH3 0xE0D JUMP JUMPDEST PUSH3 0x125A DUP2 PUSH3 0x1253 DUP5 SLOAD PUSH3 0x1197 JUMP JUMPDEST DUP5 PUSH3 0x11D3 JUMP JUMPDEST PUSH1 0x20 DUP1 PUSH1 0x1F DUP4 GT PUSH1 0x1 DUP2 EQ PUSH3 0x1292 JUMPI PUSH1 0x0 DUP5 ISZERO PUSH3 0x1279 JUMPI POP DUP6 DUP4 ADD MLOAD JUMPDEST PUSH1 0x0 NOT PUSH1 0x3 DUP7 SWAP1 SHL SHR NOT AND PUSH1 0x1 DUP6 SWAP1 SHL OR DUP6 SSTORE PUSH3 0x121D JUMP JUMPDEST PUSH1 0x0 DUP6 DUP2 MSTORE PUSH1 0x20 DUP2 KECCAK256 PUSH1 0x1F NOT DUP7 AND SWAP2 JUMPDEST DUP3 DUP2 LT ISZERO PUSH3 0x12C3 JUMPI DUP9 DUP7 ADD MLOAD DUP3 SSTORE SWAP5 DUP5 ADD SWAP5 PUSH1 0x1 SWAP1 SWAP2 ADD SWAP1 DUP5 ADD PUSH3 0x12A2 JUMP JUMPDEST POP DUP6 DUP3 LT ISZERO PUSH3 0x12E2 JUMPI DUP8 DUP6 ADD MLOAD PUSH1 0x0 NOT PUSH1 0x3 DUP9 SWAP1 SHL PUSH1 0xF8 AND SHR NOT AND DUP2 SSTORE JUMPDEST POP POP POP POP POP PUSH1 0x1 SWAP1 DUP2 SHL ADD SWAP1 SSTORE POP JUMP JUMPDEST DUP2 DUP2 SUB DUP2 DUP2 GT ISZERO PUSH3 0x1308 JUMPI PUSH3 0x1308 PUSH3 0x1147 JUMP JUMPDEST SWAP3 SWAP2 POP POP JUMP INVALID PUSH1 0x80 PUSH1 0x40 MSTORE CALLVALUE DUP1 ISZERO PUSH3 0x11 JUMPI PUSH1 0x0 DUP1 REVERT JUMPDEST POP PUSH1 0x40 MLOAD PUSH3 0x1091 CODESIZE SUB DUP1 PUSH3 0x1091 DUP4 CODECOPY DUP2 ADD PUSH1 0x40 DUP2 SWAP1 MSTORE PUSH3 0x34 SWAP2 PUSH3 0x34A JUMP JUMPDEST CALLER DUP3 DUP3 PUSH1 0x3 PUSH3 0x45 DUP4 DUP3 PUSH3 0x443 JUMP JUMPDEST POP PUSH1 0x4 PUSH3 0x54 DUP3 DUP3 PUSH3 0x443 JUMP JUMPDEST POP POP POP PUSH1 0x1 PUSH1 0x1 PUSH1 0xA0 SHL SUB DUP2 AND PUSH3 0x87 JUMPI PUSH1 0x40 MLOAD PUSH4 0x1E4FBDF7 PUSH1 0xE0 SHL DUP2 MSTORE PUSH1 0x0 PUSH1 0x4 DUP3 ADD MSTORE PUSH1 0x24 ADD JUMPDEST PUSH1 0x40 MLOAD DUP1 SWAP2 SUB SWAP1 REVERT JUMPDEST PUSH3 0x92 DUP2 PUSH3 0xC2 JUMP JUMPDEST POP PUSH3 0xBA CALLER PUSH3 0xA6 PUSH1 0x12 PUSH1 0xA PUSH3 0x624 JUMP JUMPDEST PUSH3 0xB4 SWAP1 PUSH2 0x3E8 PUSH3 0x639 JUMP JUMPDEST PUSH3 0x114 JUMP JUMPDEST POP POP PUSH3 0x669 JUMP JUMPDEST PUSH1 0x5 DUP1 SLOAD PUSH1 0x1 PUSH1 0x1 PUSH1 0xA0 SHL SUB DUP4 DUP2 AND PUSH1 0x1 PUSH1 0x1 PUSH1 0xA0 SHL SUB NOT DUP4 AND DUP2 OR SWAP1 SWAP4 SSTORE PUSH1 0x40 MLOAD SWAP2 AND SWAP2 SWAP1 DUP3 SWAP1 PUSH32 0x8BE0079C531659141344CD1FD0A4F28419497F9722A3DAAFE3B4186F6B6457E0 SWAP1 PUSH1 0x0 SWAP1 LOG3 POP POP JUMP JUMPDEST PUSH1 0x1 PUSH1 0x1 PUSH1 0xA0 SHL SUB DUP3 AND PUSH3 0x140 JUMPI PUSH1 0x40 MLOAD PUSH4 0xEC442F05 PUSH1 0xE0 SHL DUP2 MSTORE PUSH1 0x0 PUSH1 0x4 DUP3 ADD MSTORE PUSH1 0x24 ADD PUSH3 0x7E JUMP JUMPDEST PUSH3 0x14E PUSH1 0x0 DUP4 DUP4 PUSH3 0x152 JUMP JUMPDEST POP POP JUMP JUMPDEST PUSH1 0x1 PUSH1 0x1 PUSH1 0xA0 SHL SUB DUP4 AND PUSH3 0x181 JUMPI DUP1 PUSH1 0x2 PUSH1 0x0 DUP3 DUP3 SLOAD PUSH3 0x175 SWAP2 SWAP1 PUSH3 0x653 JUMP JUMPDEST SWAP1 SWAP2 SSTORE POP PUSH3 0x1F5 SWAP1 POP JUMP JUMPDEST PUSH1 0x1 PUSH1 0x1 PUSH1 0xA0 SHL SUB DUP4 AND PUSH1 0x0 SWAP1 DUP2 MSTORE PUSH1 0x20 DUP2 SWAP1 MSTORE PUSH1 0x40 SWAP1 KECCAK256 SLOAD DUP2 DUP2 LT ISZERO PUSH3 0x1D6 JUMPI PUSH1 0x40 MLOAD PUSH4 0x391434E3 PUSH1 0xE2 SHL DUP2 MSTORE PUSH1 0x1 PUSH1 0x1 PUSH1 0xA0 SHL SUB DUP6 AND PUSH1 0x4 DUP3 ADD MSTORE PUSH1 0x24 DUP2 ADD DUP3 SWAP1 MSTORE PUSH1 0x44 DUP2 ADD DUP4 SWAP1 MSTORE PUSH1 0x64 ADD PUSH3 0x7E JUMP JUMPDEST PUSH1 0x1 PUSH1 0x1 PUSH1 0xA0 SHL SUB DUP5 AND PUSH1 0x0 SWAP1 DUP2 MSTORE PUSH1 0x20 DUP2 SWAP1 MSTORE PUSH1 0x40 SWAP1 KECCAK256 SWAP1 DUP3 SWAP1 SUB SWAP1 SSTORE JUMPDEST PUSH1 0x1 PUSH1 0x1 PUSH1 0xA0 SHL SUB DUP3 AND PUSH3 0x213 JUMPI PUSH1 0x2 DUP1 SLOAD DUP3 SWAP1 SUB SWAP1 SSTORE PUSH3 0x232 JUMP JUMPDEST PUSH1 0x1 PUSH1 0x1 PUSH1 0xA0 SHL SUB DUP3 AND PUSH1 0x0 SWAP1 DUP2 MSTORE PUSH1 0x20 DUP2 SWAP1 MSTORE PUSH1 0x40 SWAP1 KECCAK256 DUP1 SLOAD DUP3 ADD SWAP1 SSTORE JUMPDEST DUP2 PUSH1 0x1 PUSH1 0x1 PUSH1 0xA0 SHL SUB AND DUP4 PUSH1 0x1 PUSH1 0x1 PUSH1 0xA0 SHL SUB AND PUSH32 0xDDF252AD1BE2C89B69C2B068FC378DAA952BA7F163C4A11628F55A4DF523B3EF DUP4 PUSH1 0x40 MLOAD PUSH3 0x278 SWAP2 DUP2 MSTORE PUSH1 0x20 ADD SWAP1 JUMP JUMPDEST PUSH1 0x40 MLOAD DUP1 SWAP2 SUB SWAP1 LOG3 POP POP POP JUMP JUMPDEST PUSH4 0x4E487B71 PUSH1 0xE0 SHL PUSH1 0x0 MSTORE PUSH1 0x41 PUSH1 0x4 MSTORE PUSH1 0x24 PUSH1 0x0 REVERT JUMPDEST PUSH1 0x0 DUP3 PUSH1 0x1F DUP4 ADD SLT PUSH3 0x2AD JUMPI PUSH1 0x0 DUP1 REVERT JUMPDEST DUP2 MLOAD PUSH1 0x1 PUSH1 0x1 PUSH1 0x40 SHL SUB DUP1 DUP3 GT ISZERO PUSH3 0x2CA JUMPI PUSH3 0x2CA PUSH3 0x285 JUMP JUMPDEST PUSH1 0x40 MLOAD PUSH1 0x1F DUP4 ADD PUSH1 0x1F NOT SWAP1 DUP2 AND PUSH1 0x3F ADD AND DUP2 ADD SWAP1 DUP3 DUP3 GT DUP2 DUP4 LT OR ISZERO PUSH3 0x2F5 JUMPI PUSH3 0x2F5 PUSH3 0x285 JUMP JUMPDEST DUP2 PUSH1 0x40 MSTORE DUP4 DUP2 MSTORE PUSH1 0x20 SWAP3 POP DUP7 DUP4 DUP6 DUP9 ADD ADD GT ISZERO PUSH3 0x312 JUMPI PUSH1 0x0 DUP1 REVERT JUMPDEST PUSH1 0x0 SWAP2 POP JUMPDEST DUP4 DUP3 LT ISZERO PUSH3 0x336 JUMPI DUP6 DUP3 ADD DUP4 ADD MLOAD DUP2 DUP4 ADD DUP5 ADD MSTORE SWAP1 DUP3 ADD SWAP1 PUSH3 0x317 JUMP JUMPDEST PUSH1 0x0 SWAP4 DUP2 ADD SWAP1 SWAP3 ADD SWAP3 SWAP1 SWAP3 MSTORE SWAP5 SWAP4 POP POP POP POP JUMP JUMPDEST PUSH1 0x0 DUP1 PUSH1 0x40 DUP4 DUP6 SUB SLT ISZERO PUSH3 0x35E JUMPI PUSH1 0x0 DUP1 REVERT JUMPDEST DUP3 MLOAD PUSH1 0x1 PUSH1 0x1 PUSH1 0x40 SHL SUB DUP1 DUP3 GT ISZERO PUSH3 0x376 JUMPI PUSH1 0x0 DUP1 REVERT JUMPDEST PUSH3 0x384 DUP7 DUP4 DUP8 ADD PUSH3 0x29B JUMP JUMPDEST SWAP4 POP PUSH1 0x20 DUP6 ADD MLOAD SWAP2 POP DUP1 DUP3 GT ISZERO PUSH3 0x39B JUMPI PUSH1 0x0 DUP1 REVERT JUMPDEST POP PUSH3 0x3AA DUP6 DUP3 DUP7 ADD PUSH3 0x29B JUMP JUMPDEST SWAP2 POP POP SWAP3 POP SWAP3 SWAP1 POP JUMP JUMPDEST PUSH1 0x1 DUP2 DUP2 SHR SWAP1 DUP3 AND DUP1 PUSH3 0x3C9 JUMPI PUSH1 0x7F DUP3 AND SWAP2 POP JUMPDEST PUSH1 0x20 DUP3 LT DUP2 SUB PUSH3 0x3EA JUMPI PUSH4 0x4E487B71 PUSH1 0xE0 SHL PUSH1 0x0 MSTORE PUSH1 0x22 PUSH1 0x4 MSTORE PUSH1 0x24 PUSH1 0x0 REVERT JUMPDEST POP SWAP2 SWAP1 POP JUMP JUMPDEST PUSH1 0x1F DUP3 GT ISZERO PUSH3 0x43E JUMPI PUSH1 0x0 DUP2 DUP2 MSTORE PUSH1 0x20 DUP2 KECCAK256 PUSH1 0x1F DUP6 ADD PUSH1 0x5 SHR DUP2 ADD PUSH1 0x20 DUP7 LT ISZERO PUSH3 0x419 JUMPI POP DUP1 JUMPDEST PUSH1 0x1F DUP6 ADD PUSH1 0x5 SHR DUP3 ADD SWAP2 POP JUMPDEST DUP2 DUP2 LT ISZERO PUSH3 0x43A JUMPI DUP3 DUP2 SSTORE PUSH1 0x1 ADD PUSH3 0x425 JUMP JUMPDEST POP POP POP JUMPDEST POP POP POP JUMP JUMPDEST DUP2 MLOAD PUSH1 0x1 PUSH1 0x1 PUSH1 0x40 SHL SUB DUP2 GT ISZERO PUSH3 0x45F JUMPI PUSH3 0x45F PUSH3 0x285 JUMP JUMPDEST PUSH3 0x477 DUP2 PUSH3 0x470 DUP5 SLOAD PUSH3 0x3B4 JUMP JUMPDEST DUP5 PUSH3 0x3F0 JUMP JUMPDEST PUSH1 0x20 DUP1 PUSH1 0x1F DUP4 GT PUSH1 0x1 DUP2 EQ PUSH3 0x4AF JUMPI PUSH1 0x0 DUP5 ISZERO PUSH3 0x496 JUMPI POP DUP6 DUP4 ADD MLOAD JUMPDEST PUSH1 0x0 NOT PUSH1 0x3 DUP7 SWAP1 SHL SHR NOT AND PUSH1 0x1 DUP6 SWAP1 SHL OR DUP6 SSTORE PUSH3 0x43A JUMP JUMPDEST PUSH1 0x0 DUP6 DUP2 MSTORE PUSH1 0x20 DUP2 KECCAK256 PUSH1 0x1F NOT DUP7 AND SWAP2 JUMPDEST DUP3 DUP2 LT ISZERO PUSH3 0x4E0 JUMPI DUP9 DUP7 ADD MLOAD DUP3 SSTORE SWAP5 DUP5 ADD SWAP5 PUSH1 0x1 SWAP1 SWAP2 ADD SWAP1 DUP5 ADD PUSH3 0x4BF JUMP JUMPDEST POP DUP6 DUP3 LT ISZERO PUSH3 0x4FF JUMPI DUP8 DUP6 ADD MLOAD PUSH1 0x0 NOT PUSH1 0x3 DUP9 SWAP1 SHL PUSH1 0xF8 AND SHR NOT AND DUP2 SSTORE JUMPDEST POP POP POP POP POP PUSH1 0x1 SWAP1 DUP2 SHL ADD SWAP1 SSTORE POP JUMP JUMPDEST PUSH4 0x4E487B71 PUSH1 0xE0 SHL PUSH1 0x0 MSTORE PUSH1 0x11 PUSH1 0x4 MSTORE PUSH1 0x24 PUSH1 0x0 REVERT JUMPDEST PUSH1 0x1 DUP2 DUP2 JUMPDEST DUP1 DUP6 GT ISZERO PUSH3 0x566 JUMPI DUP2 PUSH1 0x0 NOT DIV DUP3 GT ISZERO PUSH3 0x54A JUMPI PUSH3 0x54A PUSH3 0x50F JUMP JUMPDEST DUP1 DUP6 AND ISZERO PUSH3 0x558 JUMPI SWAP2 DUP2 MUL SWAP2 JUMPDEST SWAP4 DUP5 SHR SWAP4 SWAP1 DUP1 MUL SWAP1 PUSH3 0x52A JUMP JUMPDEST POP SWAP3 POP SWAP3 SWAP1 POP JUMP JUMPDEST PUSH1 0x0 DUP3 PUSH3 0x57F JUMPI POP PUSH1 0x1 PUSH3 0x61E JUMP JUMPDEST DUP2 PUSH3 0x58E JUMPI POP PUSH1 0x0 PUSH3 0x61E JUMP JUMPDEST DUP2 PUSH1 0x1 DUP2 EQ PUSH3 0x5A7 JUMPI PUSH1 0x2 DUP2 EQ PUSH3 0x5B2 JUMPI PUSH3 0x5D2 JUMP JUMPDEST PUSH1 0x1 SWAP2 POP POP PUSH3 0x61E JUMP JUMPDEST PUSH1 0xFF DUP5 GT ISZERO PUSH3 0x5C6 JUMPI PUSH3 0x5C6 PUSH3 0x50F JUMP JUMPDEST POP POP PUSH1 0x1 DUP3 SHL PUSH3 0x61E JUMP JUMPDEST POP PUSH1 0x20 DUP4 LT PUSH2 0x133 DUP4 LT AND PUSH1 0x4E DUP5 LT PUSH1 0xB DUP5 LT AND OR ISZERO PUSH3 0x5F7 JUMPI POP DUP2 DUP2 EXP PUSH3 0x61E JUMP JUMPDEST PUSH3 0x603 DUP4 DUP4 PUSH3 0x525 JUMP JUMPDEST DUP1 PUSH1 0x0 NOT DIV DUP3 GT ISZERO PUSH3 0x61A JUMPI PUSH3 0x61A PUSH3 0x50F JUMP JUMPDEST MUL SWAP1 POP JUMPDEST SWAP3 SWAP2 POP POP JUMP JUMPDEST PUSH1 0x0 PUSH3 0x632 DUP4 DUP4 PUSH3 0x56E JUMP JUMPDEST SWAP4 SWAP3 POP POP POP JUMP JUMPDEST DUP1 DUP3 MUL DUP2 ISZERO DUP3 DUP3 DIV DUP5 EQ OR PUSH3 0x61E JUMPI PUSH3 0x61E PUSH3 0x50F JUMP JUMPDEST DUP1 DUP3 ADD DUP1 DUP3 GT ISZERO PUSH3 0x61E JUMPI PUSH3 0x61E PUSH3 0x50F JUMP JUMPDEST PUSH2 0xA18 DUP1 PUSH3 0x679 PUSH1 0x0 CODECOPY PUSH1 0x0 RETURN INVALID PUSH1 0x80 PUSH1 0x40 MSTORE CALLVALUE DUP1 ISZERO PUSH2 0x10 JUMPI PUSH1 0x0 DUP1 REVERT JUMPDEST POP PUSH1 0x4 CALLDATASIZE LT PUSH2 0xDF JUMPI PUSH1 0x0 CALLDATALOAD PUSH1 0xE0 SHR DUP1 PUSH4 0x715018A6 GT PUSH2 0x8C JUMPI DUP1 PUSH4 0xA9059CBB GT PUSH2 0x66 JUMPI DUP1 PUSH4 0xA9059CBB EQ PUSH2 0x1AF JUMPI DUP1 PUSH4 0xDD62ED3E EQ PUSH2 0x1C2 JUMPI DUP1 PUSH4 0xE30443BC EQ PUSH2 0x1FB JUMPI DUP1 PUSH4 0xF2FDE38B EQ PUSH2 0x20E JUMPI PUSH1 0x0 DUP1 REVERT JUMPDEST DUP1 PUSH4 0x715018A6 EQ PUSH2 0x182 JUMPI DUP1 PUSH4 0x8DA5CB5B EQ PUSH2 0x18C JUMPI DUP1 PUSH4 0x95D89B41 EQ PUSH2 0x1A7 JUMPI PUSH1 0x0 DUP1 REVERT JUMPDEST DUP1 PUSH4 0x23B872DD GT PUSH2 0xBD JUMPI DUP1 PUSH4 0x23B872DD EQ PUSH2 0x137 JUMPI DUP1 PUSH4 0x313CE567 EQ PUSH2 0x14A JUMPI DUP1 PUSH4 0x70A08231 EQ PUSH2 0x159 JUMPI PUSH1 0x0 DUP1 REVERT JUMPDEST DUP1 PUSH4 0x6FDDE03 EQ PUSH2 0xE4 JUMPI DUP1 PUSH4 0x95EA7B3 EQ PUSH2 0x102 JUMPI DUP1 PUSH4 0x18160DDD EQ PUSH2 0x125 JUMPI JUMPDEST PUSH1 0x0 DUP1 REVERT JUMPDEST PUSH2 0xEC PUSH2 0x221 JUMP JUMPDEST PUSH1 0x40 MLOAD PUSH2 0xF9 SWAP2 SWAP1 PUSH2 0x847 JUMP JUMPDEST PUSH1 0x40 MLOAD DUP1 SWAP2 SUB SWAP1 RETURN JUMPDEST PUSH2 0x115 PUSH2 0x110 CALLDATASIZE PUSH1 0x4 PUSH2 0x8B1 JUMP JUMPDEST PUSH2 0x2B3 JUMP JUMPDEST PUSH1 0x40 MLOAD SWAP1 ISZERO ISZERO DUP2 MSTORE PUSH1 0x20 ADD PUSH2 0xF9 JUMP JUMPDEST PUSH1 0x2 SLOAD JUMPDEST PUSH1 0x40 MLOAD SWAP1 DUP2 MSTORE PUSH1 0x20 ADD PUSH2 0xF9 JUMP JUMPDEST PUSH2 0x115 PUSH2 0x145 CALLDATASIZE PUSH1 0x4 PUSH2 0x8DB JUMP JUMPDEST PUSH2 0x2CD JUMP JUMPDEST PUSH1 0x40 MLOAD PUSH1 0x12 DUP2 MSTORE PUSH1 0x20 ADD PUSH2 0xF9 JUMP JUMPDEST PUSH2 0x129 PUSH2 0x167 CALLDATASIZE PUSH1 0x4 PUSH2 0x917 JUMP JUMPDEST PUSH1 0x1 PUSH1 0x1 PUSH1 0xA0 SHL SUB AND PUSH1 0x0 SWAP1 DUP2 MSTORE PUSH1 0x20 DUP2 SWAP1 MSTORE PUSH1 0x40 SWAP1 KECCAK256 SLOAD SWAP1 JUMP JUMPDEST PUSH2 0x18A PUSH2 0x2F1 JUMP JUMPDEST STOP JUMPDEST PUSH1 0x5 SLOAD PUSH1 0x40 MLOAD PUSH1 0x1 PUSH1 0x1 PUSH1 0xA0 SHL SUB SWAP1 SWAP2 AND DUP2 MSTORE PUSH1 0x20 ADD PUSH2 0xF9 JUMP JUMPDEST PUSH2 0xEC PUSH2 0x305 JUMP JUMPDEST PUSH2 0x115 PUSH2 0x1BD CALLDATASIZE PUSH1 0x4 PUSH2 0x8B1 JUMP JUMPDEST PUSH2 0x314 JUMP JUMPDEST PUSH2 0x129 PUSH2 0x1D0 CALLDATASIZE PUSH1 0x4 PUSH2 0x939 JUMP JUMPDEST PUSH1 0x1 PUSH1 0x1 PUSH1 0xA0 SHL SUB SWAP2 DUP3 AND PUSH1 0x0 SWAP1 DUP2 MSTORE PUSH1 0x1 PUSH1 0x20 SWAP1 DUP2 MSTORE PUSH1 0x40 DUP1 DUP4 KECCAK256 SWAP4 SWAP1 SWAP5 AND DUP3 MSTORE SWAP2 SWAP1 SWAP2 MSTORE KECCAK256 SLOAD SWAP1 JUMP JUMPDEST PUSH2 0x18A PUSH2 0x209 CALLDATASIZE PUSH1 0x4 PUSH2 0x8B1 JUMP JUMPDEST PUSH2 0x322 JUMP JUMPDEST PUSH2 0x18A PUSH2 0x21C CALLDATASIZE PUSH1 0x4 PUSH2 0x917 JUMP JUMPDEST PUSH2 0x37E JUMP JUMPDEST PUSH1 0x60 PUSH1 0x3 DUP1 SLOAD PUSH2 0x230 SWAP1 PUSH2 0x96C JUMP JUMPDEST DUP1 PUSH1 0x1F ADD PUSH1 0x20 DUP1 SWAP2 DIV MUL PUSH1 0x20 ADD PUSH1 0x40 MLOAD SWAP1 DUP2 ADD PUSH1 0x40 MSTORE DUP1 SWAP3 SWAP2 SWAP1 DUP2 DUP2 MSTORE PUSH1 0x20 ADD DUP3 DUP1 SLOAD PUSH2 0x25C SWAP1 PUSH2 0x96C JUMP JUMPDEST DUP1 ISZERO PUSH2 0x2A9 JUMPI DUP1 PUSH1 0x1F LT PUSH2 0x27E JUMPI PUSH2 0x100 DUP1 DUP4 SLOAD DIV MUL DUP4 MSTORE SWAP2 PUSH1 0x20 ADD SWAP2 PUSH2 0x2A9 JUMP JUMPDEST DUP3 ADD SWAP2 SWAP1 PUSH1 0x0 MSTORE PUSH1 0x20 PUSH1 0x0 KECCAK256 SWAP1 JUMPDEST DUP2 SLOAD DUP2 MSTORE SWAP1 PUSH1 0x1 ADD SWAP1 PUSH1 0x20 ADD DUP1 DUP4 GT PUSH2 0x28C JUMPI DUP3 SWAP1 SUB PUSH1 0x1F AND DUP3 ADD SWAP2 JUMPDEST POP POP POP POP POP SWAP1 POP SWAP1 JUMP JUMPDEST PUSH1 0x0 CALLER PUSH2 0x2C1 DUP2 DUP6 DUP6 PUSH2 0x3DA JUMP JUMPDEST PUSH1 0x1 SWAP2 POP POP JUMPDEST SWAP3 SWAP2 POP POP JUMP JUMPDEST PUSH1 0x0 CALLER PUSH2 0x2DB DUP6 DUP3 DUP6 PUSH2 0x3E7 JUMP JUMPDEST PUSH2 0x2E6 DUP6 DUP6 DUP6 PUSH2 0x47E JUMP JUMPDEST POP PUSH1 0x1 SWAP5 SWAP4 POP POP POP POP JUMP JUMPDEST PUSH2 0x2F9 PUSH2 0x4DD JUMP JUMPDEST PUSH2 0x303 PUSH1 0x0 PUSH2 0x523 JUMP JUMPDEST JUMP JUMPDEST PUSH1 0x60 PUSH1 0x4 DUP1 SLOAD PUSH2 0x230 SWAP1 PUSH2 0x96C JUMP JUMPDEST PUSH1 0x0 CALLER PUSH2 0x2C1 DUP2 DUP6 DUP6 PUSH2 0x47E JUMP JUMPDEST PUSH2 0x32A PUSH2 0x4DD JUMP JUMPDEST PUSH1 0x1 PUSH1 0x1 PUSH1 0xA0 SHL SUB DUP3 AND PUSH1 0x0 SWAP1 DUP2 MSTORE PUSH1 0x20 DUP2 SWAP1 MSTORE PUSH1 0x40 SWAP1 KECCAK256 SLOAD DUP1 DUP3 GT ISZERO PUSH2 0x363 JUMPI PUSH2 0x35E DUP4 PUSH2 0x359 DUP4 DUP6 PUSH2 0x9BC JUMP JUMPDEST PUSH2 0x58D JUMP JUMPDEST POP POP POP JUMP JUMPDEST DUP1 DUP3 LT ISZERO PUSH2 0x35E JUMPI PUSH2 0x35E DUP4 PUSH2 0x379 DUP5 DUP5 PUSH2 0x9BC JUMP JUMPDEST PUSH2 0x5C7 JUMP JUMPDEST PUSH2 0x386 PUSH2 0x4DD JUMP JUMPDEST PUSH1 0x1 PUSH1 0x1 PUSH1 0xA0 SHL SUB DUP2 AND PUSH2 0x3CE JUMPI PUSH1 0x40 MLOAD PUSH32 0x1E4FBDF700000000000000000000000000000000000000000000000000000000 DUP2 MSTORE PUSH1 0x0 PUSH1 0x4 DUP3 ADD MSTORE PUSH1 0x24 ADD JUMPDEST PUSH1 0x40 MLOAD DUP1 SWAP2 SUB SWAP1 REVERT JUMPDEST PUSH2 0x3D7 DUP2 PUSH2 0x523 JUMP JUMPDEST POP JUMP JUMPDEST PUSH2 0x35E DUP4 DUP4 DUP4 PUSH1 0x1 PUSH2 0x5FD JUMP JUMPDEST PUSH1 0x1 PUSH1 0x1 PUSH1 0xA0 SHL SUB DUP4 DUP2 AND PUSH1 0x0 SWAP1 DUP2 MSTORE PUSH1 0x1 PUSH1 0x20 SWAP1 DUP2 MSTORE PUSH1 0x40 DUP1 DUP4 KECCAK256 SWAP4 DUP7 AND DUP4 MSTORE SWAP3 SWAP1 MSTORE KECCAK256 SLOAD PUSH1 0x0 NOT DUP2 EQ PUSH2 0x478 JUMPI DUP2 DUP2 LT ISZERO PUSH2 0x469 JUMPI PUSH1 0x40 MLOAD PUSH32 0xFB8F41B200000000000000000000000000000000000000000000000000000000 DUP2 MSTORE PUSH1 0x1 PUSH1 0x1 PUSH1 0xA0 SHL SUB DUP5 AND PUSH1 0x4 DUP3 ADD MSTORE PUSH1 0x24 DUP2 ADD DUP3 SWAP1 MSTORE PUSH1 0x44 DUP2 ADD DUP4 SWAP1 MSTORE PUSH1 0x64 ADD PUSH2 0x3C5 JUMP JUMPDEST PUSH2 0x478 DUP5 DUP5 DUP5 DUP5 SUB PUSH1 0x0 PUSH2 0x5FD JUMP JUMPDEST POP POP POP POP JUMP JUMPDEST PUSH1 0x1 PUSH1 0x1 PUSH1 0xA0 SHL SUB DUP4 AND PUSH2 0x4A8 JUMPI PUSH1 0x40 MLOAD PUSH4 0x4B637E8F PUSH1 0xE1 SHL DUP2 MSTORE PUSH1 0x0 PUSH1 0x4 DUP3 ADD MSTORE PUSH1 0x24 ADD PUSH2 0x3C5 JUMP JUMPDEST PUSH1 0x1 PUSH1 0x1 PUSH1 0xA0 SHL SUB DUP3 AND PUSH2 0x4D2 JUMPI PUSH1 0x40 MLOAD PUSH4 0xEC442F05 PUSH1 0xE0 SHL DUP2 MSTORE PUSH1 0x0 PUSH1 0x4 DUP3 ADD MSTORE PUSH1 0x24 ADD PUSH2 0x3C5 JUMP JUMPDEST PUSH2 0x35E DUP4 DUP4 DUP4 PUSH2 0x704 JUMP JUMPDEST PUSH1 0x5 SLOAD PUSH1 0x1 PUSH1 0x1 PUSH1 0xA0 SHL SUB AND CALLER EQ PUSH2 0x303 JUMPI PUSH1 0x40 MLOAD PUSH32 0x118CDAA700000000000000000000000000000000000000000000000000000000 DUP2 MSTORE CALLER PUSH1 0x4 DUP3 ADD MSTORE PUSH1 0x24 ADD PUSH2 0x3C5 JUMP JUMPDEST PUSH1 0x5 DUP1 SLOAD PUSH1 0x1 PUSH1 0x1 PUSH1 0xA0 SHL SUB DUP4 DUP2 AND PUSH32 0xFFFFFFFFFFFFFFFFFFFFFFFF0000000000000000000000000000000000000000 DUP4 AND DUP2 OR SWAP1 SWAP4 SSTORE PUSH1 0x40 MLOAD SWAP2 AND SWAP2 SWAP1 DUP3 SWAP1 PUSH32 0x8BE0079C531659141344CD1FD0A4F28419497F9722A3DAAFE3B4186F6B6457E0 SWAP1 PUSH1 0x0 SWAP1 LOG3 POP POP JUMP JUMPDEST PUSH1 0x1 PUSH1 0x1 PUSH1 0xA0 SHL SUB DUP3 AND PUSH2 0x5B7 JUMPI PUSH1 0x40 MLOAD PUSH4 0xEC442F05 PUSH1 0xE0 SHL DUP2 MSTORE PUSH1 0x0 PUSH1 0x4 DUP3 ADD MSTORE PUSH1 0x24 ADD PUSH2 0x3C5 JUMP JUMPDEST PUSH2 0x5C3 PUSH1 0x0 DUP4 DUP4 PUSH2 0x704 JUMP JUMPDEST POP POP JUMP JUMPDEST PUSH1 0x1 PUSH1 0x1 PUSH1 0xA0 SHL SUB DUP3 AND PUSH2 0x5F1 JUMPI PUSH1 0x40 MLOAD PUSH4 0x4B637E8F PUSH1 0xE1 SHL DUP2 MSTORE PUSH1 0x0 PUSH1 0x4 DUP3 ADD MSTORE PUSH1 0x24 ADD PUSH2 0x3C5 JUMP JUMPDEST PUSH2 0x5C3 DUP3 PUSH1 0x0 DUP4 PUSH2 0x704 JUMP JUMPDEST PUSH1 0x1 PUSH1 0x1 PUSH1 0xA0 SHL SUB DUP5 AND PUSH2 0x640 JUMPI PUSH1 0x40 MLOAD PUSH32 0xE602DF0500000000000000000000000000000000000000000000000000000000 DUP2 MSTORE PUSH1 0x0 PUSH1 0x4 DUP3 ADD MSTORE PUSH1 0x24 ADD PUSH2 0x3C5 JUMP JUMPDEST PUSH1 0x1 PUSH1 0x1 PUSH1 0xA0 SHL SUB DUP4 AND PUSH2 0x683 JUMPI PUSH1 0x40 MLOAD PUSH32 0x94280D6200000000000000000000000000000000000000000000000000000000 DUP2 MSTORE PUSH1 0x0 PUSH1 0x4 DUP3 ADD MSTORE PUSH1 0x24 ADD PUSH2 0x3C5 JUMP JUMPDEST PUSH1 0x1 PUSH1 0x1 PUSH1 0xA0 SHL SUB DUP1 DUP6 AND PUSH1 0x0 SWAP1 DUP2 MSTORE PUSH1 0x1 PUSH1 0x20 SWAP1 DUP2 MSTORE PUSH1 0x40 DUP1 DUP4 KECCAK256 SWAP4 DUP8 AND DUP4 MSTORE SWAP3 SWAP1 MSTORE KECCAK256 DUP3 SWAP1 SSTORE DUP1 ISZERO PUSH2 0x478 JUMPI DUP3 PUSH1 0x1 PUSH1 0x1 PUSH1 0xA0 SHL SUB AND DUP5 PUSH1 0x1 PUSH1 0x1 PUSH1 0xA0 SHL SUB AND PUSH32 0x8C5BE1E5EBEC7D5BD14F71427D1E84F3DD0314C0F7B2291E5B200AC8C7C3B925 DUP5 PUSH1 0x40 MLOAD PUSH2 0x6F6 SWAP2 DUP2 MSTORE PUSH1 0x20 ADD SWAP1 JUMP JUMPDEST PUSH1 0x40 MLOAD DUP1 SWAP2 SUB SWAP1 LOG3 POP POP POP POP JUMP JUMPDEST PUSH1 0x1 PUSH1 0x1 PUSH1 0xA0 SHL SUB DUP4 AND PUSH2 0x72F JUMPI DUP1 PUSH1 0x2 PUSH1 0x0 DUP3 DUP3 SLOAD PUSH2 0x724 SWAP2 SWAP1 PUSH2 0x9CF JUMP JUMPDEST SWAP1 SWAP2 SSTORE POP PUSH2 0x7BA SWAP1 POP JUMP JUMPDEST PUSH1 0x1 PUSH1 0x1 PUSH1 0xA0 SHL SUB DUP4 AND PUSH1 0x0 SWAP1 DUP2 MSTORE PUSH1 0x20 DUP2 SWAP1 MSTORE PUSH1 0x40 SWAP1 KECCAK256 SLOAD DUP2 DUP2 LT ISZERO PUSH2 0x79B JUMPI PUSH1 0x40 MLOAD PUSH32 0xE450D38C00000000000000000000000000000000000000000000000000000000 DUP2 MSTORE PUSH1 0x1 PUSH1 0x1 PUSH1 0xA0 SHL SUB DUP6 AND PUSH1 0x4 DUP3 ADD MSTORE PUSH1 0x24 DUP2 ADD DUP3 SWAP1 MSTORE PUSH1 0x44 DUP2 ADD DUP4 SWAP1 MSTORE PUSH1 0x64 ADD PUSH2 0x3C5 JUMP JUMPDEST PUSH1 0x1 PUSH1 0x1 PUSH1 0xA0 SHL SUB DUP5 AND PUSH1 0x0 SWAP1 DUP2 MSTORE PUSH1 0x20 DUP2 SWAP1 MSTORE PUSH1 0x40 SWAP1 KECCAK256 SWAP1 DUP3 SWAP1 SUB SWAP1 SSTORE JUMPDEST PUSH1 0x1 PUSH1 0x1 PUSH1 0xA0 SHL SUB DUP3 AND PUSH2 0x7D6 JUMPI PUSH1 0x2 DUP1 SLOAD DUP3 SWAP1 SUB SWAP1 SSTORE PUSH2 0x7F5 JUMP JUMPDEST PUSH1 0x1 PUSH1 0x1 PUSH1 0xA0 SHL SUB DUP3 AND PUSH1 0x0 SWAP1 DUP2 MSTORE PUSH1 0x20 DUP2 SWAP1 MSTORE PUSH1 0x40 SWAP1 KECCAK256 DUP1 SLOAD DUP3 ADD SWAP1 SSTORE JUMPDEST DUP2 PUSH1 0x1 PUSH1 0x1 PUSH1 0xA0 SHL SUB AND DUP4 PUSH1 0x1 PUSH1 0x1 PUSH1 0xA0 SHL SUB AND PUSH32 0xDDF252AD1BE2C89B69C2B068FC378DAA952BA7F163C4A11628F55A4DF523B3EF DUP4 PUSH1 0x40 MLOAD PUSH2 0x83A SWAP2 DUP2 MSTORE PUSH1 0x20 ADD SWAP1 JUMP JUMPDEST PUSH1 0x40 MLOAD DUP1 SWAP2 SUB SWAP1 LOG3 POP POP POP JUMP JUMPDEST PUSH1 0x0 PUSH1 0x20 DUP1 DUP4 MSTORE DUP4 MLOAD DUP1 DUP3 DUP6 ADD MSTORE PUSH1 0x0 JUMPDEST DUP2 DUP2 LT ISZERO PUSH2 0x874 JUMPI DUP6 DUP2 ADD DUP4 ADD MLOAD DUP6 DUP3 ADD PUSH1 0x40 ADD MSTORE DUP3 ADD PUSH2 0x858 JUMP JUMPDEST POP PUSH1 0x0 PUSH1 0x40 DUP3 DUP7 ADD ADD MSTORE PUSH1 0x40 PUSH1 0x1F NOT PUSH1 0x1F DUP4 ADD AND DUP6 ADD ADD SWAP3 POP POP POP SWAP3 SWAP2 POP POP JUMP JUMPDEST DUP1 CALLDATALOAD PUSH1 0x1 PUSH1 0x1 PUSH1 0xA0 SHL SUB DUP2 AND DUP2 EQ PUSH2 0x8AC JUMPI PUSH1 0x0 DUP1 REVERT JUMPDEST SWAP2 SWAP1 POP JUMP JUMPDEST PUSH1 0x0 DUP1 PUSH1 0x40 DUP4 DUP6 SUB SLT ISZERO PUSH2 0x8C4 JUMPI PUSH1 0x0 DUP1 REVERT JUMPDEST PUSH2 0x8CD DUP4 PUSH2 0x895 JUMP JUMPDEST SWAP5 PUSH1 0x20 SWAP4 SWAP1 SWAP4 ADD CALLDATALOAD SWAP4 POP POP POP JUMP JUMPDEST PUSH1 0x0 DUP1 PUSH1 0x0 PUSH1 0x60 DUP5 DUP7 SUB SLT ISZERO PUSH2 0x8F0 JUMPI PUSH1 0x0 DUP1 REVERT JUMPDEST PUSH2 0x8F9 DUP5 PUSH2 0x895 JUMP JUMPDEST SWAP3 POP PUSH2 0x907 PUSH1 0x20 DUP6 ADD PUSH2 0x895 JUMP JUMPDEST SWAP2 POP PUSH1 0x40 DUP5 ADD CALLDATALOAD SWAP1 POP SWAP3 POP SWAP3 POP SWAP3 JUMP JUMPDEST PUSH1 0x0 PUSH1 0x20 DUP3 DUP5 SUB SLT ISZERO PUSH2 0x929 JUMPI PUSH1 0x0 DUP1 REVERT JUMPDEST PUSH2 0x932 DUP3 PUSH2 0x895 JUMP JUMPDEST SWAP4 SWAP3 POP POP POP JUMP JUMPDEST PUSH1 0x0 DUP1 PUSH1 0x40 DUP4 DUP6 SUB SLT ISZERO PUSH2 0x94C JUMPI PUSH1 0x0 DUP1 REVERT JUMPDEST PUSH2 0x955 DUP4 PUSH2 0x895 JUMP JUMPDEST SWAP2 POP PUSH2 0x963 PUSH1 0x20 DUP5 ADD PUSH2 0x895 JUMP JUMPDEST SWAP1 POP SWAP3 POP SWAP3 SWAP1 POP JUMP JUMPDEST PUSH1 0x1 DUP2 DUP2 SHR SWAP1 DUP3 AND DUP1 PUSH2 0x980 JUMPI PUSH1 0x7F DUP3 AND SWAP2 POP JUMPDEST PUSH1 0x20 DUP3 LT DUP2 SUB PUSH2 0x9A0 JUMPI PUSH4 0x4E487B71 PUSH1 0xE0 SHL PUSH1 0x0 MSTORE PUSH1 0x22 PUSH1 0x4 MSTORE PUSH1 0x24 PUSH1 0x0 REVERT JUMPDEST POP SWAP2 SWAP1 POP JUMP JUMPDEST PUSH4 0x4E487B71 PUSH1 0xE0 SHL PUSH1 0x0 MSTORE PUSH1 0x11 PUSH1 0x4 MSTORE PUSH1 0x24 PUSH1 0x0 REVERT JUMPDEST DUP2 DUP2 SUB DUP2 DUP2 GT ISZERO PUSH2 0x2C7 JUMPI PUSH2 0x2C7 PUSH2 0x9A6 JUMP JUMPDEST DUP1 DUP3 ADD DUP1 DUP3 GT ISZERO PUSH2 0x2C7 JUMPI PUSH2 0x2C7 PUSH2 0x9A6 JUMP INVALID LOG2 PUSH5 0x6970667358 0x22 SLT KECCAK256 OR STOP BASEFEE DUP10 0xE7 ADDMOD 0x4E DUP5 0xE3 PUSH11 0xC588E9B3C06C6AC66F8FC5 SWAP2 0xCB 0x25 PUSH18 0x3D89C2DF00610464736F6C63430008140033 LOG2 PUSH5 0x6970667358 0x22 SLT KECCAK256 AND CODECOPY SWAP13 CODESIZE 0xE5 ORIGIN SWAP13 EXTCODECOPY 0xCC DUP3 ADD 0xFC 0xC4 CALLCODE 0xF6 JUMPI CALL 0xC3 0xD7 PUSH10 0x4D5EDD172D9F3574B417 CALLDATALOAD 0x4E PUSH5 0x736F6C6343 STOP ADDMOD EQ STOP CALLER "},"methodIdentifiers":{"addNumbers(uint256,uint256)":"ef9fc50b","addressVar()":"49cad0fa","balances(address)":"27e235e3","boolVar()":"35f7fb2b","callAnotherContract(address,bytes)":"361725c9","createToken(string,string)":"2f2f2d56","depositEther()":"98ea5fca","emitMultipleLogs(uint256)":"359c71c7","getBlockProperties()":"999c697b","getContractBalance()":"6f9fb98a","lastMsgDetails()":"8eb43aa1","owner()":"8da5cb5b","readFromStorage(uint256)":"d40e607a","retrieveData()":"51e0556d","revertIfFalse(bool)":"711ecf59","sendEther(address,uint256)":"c1756a2c","setAddressVar()":"cfbd56b8","setBalance(address,uint256)":"e30443bc","setBoolVar(bool)":"906d7a33","setStringVar(string)":"63d95843","setUint256Var(uint256)":"c4c89137","storeData(uint256)":"16b95176","storeMsgProperties()":"af22db87","stringVar()":"e9074ca3","uint256Var()":"f614eb31"}}}}}