{"src/CW20ERC20Wrapper.sol":{"CW20ERC20Wrapper":{"abi":[{"inputs":[{"internalType":"string","name":"Cw20Address_","type":"string"},{"internalType":"string","name":"name_","type":"string"},{"internalType":"string","name":"symbol_","type":"string"}],"stateMutability":"nonpayable","type":"constructor"},{"inputs":[{"internalType":"address","name":"spender","type":"address"},{"internalType":"uint256","name":"allowance","type":"uint256"},{"internalType":"uint256","name":"needed","type":"uint256"}],"name":"ERC20InsufficientAllowance","type":"error"},{"inputs":[{"internalType":"address","name":"sender","type":"address"},{"internalType":"uint256","name":"balance","type":"uint256"},{"internalType":"uint256","name":"needed","type":"uint256"}],"name":"ERC20InsufficientBalance","type":"error"},{"inputs":[{"internalType":"address","name":"approver","type":"address"}],"name":"ERC20InvalidApprover","type":"error"},{"inputs":[{"internalType":"address","name":"receiver","type":"address"}],"name":"ERC20InvalidReceiver","type":"error"},{"inputs":[{"internalType":"address","name":"sender","type":"address"}],"name":"ERC20InvalidSender","type":"error"},{"inputs":[{"internalType":"address","name":"spender","type":"address"}],"name":"ERC20InvalidSpender","type":"error"},{"anonymous":false,"inputs":[{"indexed":true,"internalType":"address","name":"owner","type":"address"},{"indexed":true,"internalType":"address","name":"spender","type":"address"},{"indexed":false,"internalType":"uint256","name":"value","type":"uint256"}],"name":"Approval","type":"event"},{"anonymous":false,"inputs":[{"indexed":true,"internalType":"address","name":"from","type":"address"},{"indexed":true,"internalType":"address","name":"to","type":"address"},{"indexed":false,"internalType":"uint256","name":"value","type":"uint256"}],"name":"Transfer","type":"event"},{"inputs":[],"name":"AddrPrecompile","outputs":[{"internalType":"contract IAddr","name":"","type":"address"}],"stateMutability":"view","type":"function"},{"inputs":[],"name":"Cw20Address","outputs":[{"internalType":"string","name":"","type":"string"}],"stateMutability":"view","type":"function"},{"inputs":[],"name":"JsonPrecompile","outputs":[{"internalType":"contract IJson","name":"","type":"address"}],"stateMutability":"view","type":"function"},{"inputs":[],"name":"WasmdPrecompile","outputs":[{"internalType":"contract IWasmd","name":"","type":"address"}],"stateMutability":"view","type":"function"},{"inputs":[{"internalType":"address","name":"owner","type":"address"},{"internalType":"address","name":"spender","type":"address"}],"name":"allowance","outputs":[{"internalType":"uint256","name":"","type":"uint256"}],"stateMutability":"view","type":"function"},{"inputs":[{"internalType":"address","name":"spender","type":"address"},{"internalType":"uint256","name":"amount","type":"uint256"}],"name":"approve","outputs":[{"internalType":"bool","name":"","type":"bool"}],"stateMutability":"nonpayable","type":"function"},{"inputs":[{"internalType":"address","name":"owner","type":"address"}],"name":"balanceOf","outputs":[{"internalType":"uint256","name":"","type":"uint256"}],"stateMutability":"view","type":"function"},{"inputs":[],"name":"decimals","outputs":[{"internalType":"uint8","name":"","type":"uint8"}],"stateMutability":"view","type":"function"},{"inputs":[],"name":"name","outputs":[{"internalType":"string","name":"","type":"string"}],"stateMutability":"view","type":"function"},{"inputs":[],"name":"symbol","outputs":[{"internalType":"string","name":"","type":"string"}],"stateMutability":"view","type":"function"},{"inputs":[],"name":"totalSupply","outputs":[{"internalType":"uint256","name":"","type":"uint256"}],"stateMutability":"view","type":"function"},{"inputs":[{"internalType":"address","name":"to","type":"address"},{"internalType":"uint256","name":"amount","type":"uint256"}],"name":"transfer","outputs":[{"internalType":"bool","name":"","type":"bool"}],"stateMutability":"nonpayable","type":"function"},{"inputs":[{"internalType":"address","name":"from","type":"address"},{"internalType":"address","name":"to","type":"address"},{"internalType":"uint256","name":"amount","type":"uint256"}],"name":"transferFrom","outputs":[{"internalType":"bool","name":"","type":"bool"}],"stateMutability":"nonpayable","type":"function"}],"evm":{"bytecode":{"linkReferences":{},"object":"60806040523480156200001157600080fd5b5060405162001d8c38038062001d8c833981016040819052620000349162000163565b8181600362000044838262000283565b50600462000053828262000283565b5050600680546001600160a01b0319908116611002179091556007805482166110031790556008805490911661100417905550600562000094848262000283565b505050506200034f565b634e487b7160e01b600052604160045260246000fd5b600082601f830112620000c657600080fd5b81516001600160401b0380821115620000e357620000e36200009e565b604051601f8301601f19908116603f011681019082821181831017156200010e576200010e6200009e565b816040528381526020925086838588010111156200012b57600080fd5b600091505b838210156200014f578582018301518183018401529082019062000130565b600093810190920192909252949350505050565b6000806000606084860312156200017957600080fd5b83516001600160401b03808211156200019157600080fd5b6200019f87838801620000b4565b94506020860151915080821115620001b657600080fd5b620001c487838801620000b4565b93506040860151915080821115620001db57600080fd5b50620001ea86828701620000b4565b9150509250925092565b600181811c908216806200020957607f821691505b6020821081036200022a57634e487b7160e01b600052602260045260246000fd5b50919050565b601f8211156200027e57600081815260208120601f850160051c81016020861015620002595750805b601f850160051c820191505b818110156200027a5782815560010162000265565b5050505b505050565b81516001600160401b038111156200029f576200029f6200009e565b620002b781620002b08454620001f4565b8462000230565b602080601f831160018114620002ef5760008415620002d65750858301515b600019600386901b1c1916600185901b1785556200027a565b600085815260208120601f198616915b828110156200032057888601518255948401946001909101908401620002ff565b50858210156200033f5787850151600019600388901b60f8161c191681555b5050505050600190811b01905550565b611a2d806200035f6000396000f3fe608060405234801561001057600080fd5b50600436106100df5760003560e01c806395d89b411161008c578063da73d16b11610066578063da73d16b146101c1578063dd62ed3e146101c9578063de4725cc146101dc578063f00b0255146101ef57600080fd5b806395d89b411461017b578063a9059cbb14610183578063c2aed3021461019657600080fd5b806323b872dd116100bd57806323b872dd1461013b578063313ce5671461014e57806370a082311461016857600080fd5b806306fdde03146100e4578063095ea7b31461010257806318160ddd14610125575b600080fd5b6100ec610202565b6040516100f99190611489565b60405180910390f35b6101156101103660046114b8565b610294565b60405190151581526020016100f9565b61012d61056a565b6040519081526020016100f9565b6101156101493660046114e2565b6106ad565b6101566108ee565b60405160ff90911681526020016100f9565b61012d61017636600461151e565b6109e9565b6100ec610c03565b6101156101913660046114b8565b610c12565b6008546101a9906001600160a01b031681565b6040516001600160a01b0390911681526020016100f9565b6100ec610dc3565b61012d6101d7366004611539565b610e51565b6007546101a9906001600160a01b031681565b6006546101a9906001600160a01b031681565b6060600380546102119061156c565b80601f016020809104026020016040519081016040528092919081815260200182805461023d9061156c565b801561028a5780601f1061025f5761010080835404028352916020019161028a565b820191906000526020600020905b81548152906001019060200180831161026d57829003601f168201915b5050505050905090565b6000806102a13385610e51565b90508281111561040d57604080518082018252600781526639b832b73232b960c91b60208201526008549151630c3c20ed60e01b81526001600160a01b038781166004830152600093610350939261034b9290911690630c3c20ed906024015b600060405180830381865afa15801561031e573d6000803e3d6000fd5b505050506040513d6000823e601f3d908101601f191682016040526103469190810190611630565b611053565b611099565b9050600061038d60405180604001604052806006815260200165185b5bdd5b9d60d21b81525061034b61034688876103889190611681565b6110ea565b905060006103f96103f46040518060400160405280601281526020017f64656372656173655f616c6c6f77616e6365000000000000000000000000000081525061034b6103f48787604051806040016040528060018152602001600b60fa1b81525061118a565b6111d6565b905061040481611206565b5050505061051e565b8281101561051e57604080518082018252600781526639b832b73232b960c91b60208201526008549151630c3c20ed60e01b81526001600160a01b03878116600483015260009361046f939261034b9290911690630c3c20ed90602401610301565b905060006104a760405180604001604052806006815260200165185b5bdd5b9d60d21b81525061034b61034686896103889190611681565b9050600061050e6103f46040518060400160405280601281526020017f696e6372656173655f616c6c6f77616e6365000000000000000000000000000081525061034b6103f48787604051806040016040528060018152602001600b60fa1b81525061118a565b905061051981611206565b505050505b6040518381526001600160a01b0385169033907f8c5be1e5ebec7d5bd14f71427d1e84f3dd0314c0f7b2291e5b200ac8c7c3b9259060200160405180910390a360019150505b92915050565b6000806105b66103f46040518060400160405280600a815260200169746f6b656e5f696e666f60b01b815250604051806040016040528060028152602001617b7d60f01b815250611099565b6006546040516306d81d2960e01b81529192506000916001600160a01b03909116906306d81d29906105ef906005908690600401611746565b600060405180830381865afa15801561060c573d6000803e3d6000fd5b505050506040513d6000823e601f3d908101601f191682016040526106349190810190611630565b600754604051632d2ac4c160e11b81529192506001600160a01b031690635a5589829061066590849060040161176b565b602060405180830381865afa158015610682573d6000803e3d6000fd5b505050506040513d601f19601f820116820180604052508101906106a691906117bd565b9250505090565b60006001600160a01b0383166107165760405162461bcd60e51b815260206004820152602360248201527f45524332303a207472616e7366657220746f20746865207a65726f206164647260448201526265737360e81b60648201526084015b60405180910390fd5b604080518082018252600581526437bbb732b960d91b60208201526008549151630c3c20ed60e01b81526001600160a01b03878116600483015260009361076e939261034b9290911690630c3c20ed90602401610301565b60408051808201825260098152681c9958da5c1a595b9d60ba1b60208201526008549151630c3c20ed60e01b81526001600160a01b0388811660048301529394506000936107cb9361034b92911690630c3c20ed90602401610301565b905060006107fd60405180604001604052806006815260200165185b5bdd5b9d60d21b81525061034b610346886110ea565b905060006108876103f46040518060400160405280600d81526020017f7472616e736665725f66726f6d0000000000000000000000000000000000000081525061034b6103f46108678989604051806040016040528060018152602001600b60fa1b81525061118a565b87604051806040016040528060018152602001600b60fa1b81525061118a565b905061089281611206565b50866001600160a01b0316886001600160a01b03167fddf252ad1be2c89b69c2b068fc378daa952ba7f163c4a11628f55a4df523b3ef886040516108d891815260200190565b60405180910390a3506001979650505050505050565b60008061093a6103f46040518060400160405280600a815260200169746f6b656e5f696e666f60b01b815250604051806040016040528060028152602001617b7d60f01b815250611099565b6006546040516306d81d2960e01b81529192506000916001600160a01b03909116906306d81d2990610973906005908690600401611746565b600060405180830381865afa158015610990573d6000803e3d6000fd5b505050506040513d6000823e601f3d908101601f191682016040526109b89190810190611630565b600754604051632d2ac4c160e11b81529192506001600160a01b031690635a558982906106659084906004016117d6565b60006001600160a01b038216610a675760405162461bcd60e51b815260206004820152602960248201527f45524332303a2062616c616e636520717565727920666f7220746865207a657260448201527f6f20616464726573730000000000000000000000000000000000000000000000606482015260840161070d565b604080518082018252600781527f616464726573730000000000000000000000000000000000000000000000000060208201526008549151630c3c20ed60e01b81526001600160a01b038581166004830152600093610ad7939261034b9290911690630c3c20ed90602401610301565b90506000610b0a6103f46040518060400160405280600781526020016662616c616e636560c81b81525061034b856111d6565b6006546040516306d81d2960e01b81529192506000916001600160a01b03909116906306d81d2990610b43906005908690600401611746565b600060405180830381865afa158015610b60573d6000803e3d6000fd5b505050506040513d6000823e601f3d908101601f19168201604052610b889190810190611630565b600754604051632d2ac4c160e11b81529192506001600160a01b031690635a55898290610bb9908490600401611828565b602060405180830381865afa158015610bd6573d6000803e3d6000fd5b505050506040513d601f19601f82011682018060405250810190610bfa91906117bd565b95945050505050565b6060600480546102119061156c565b60006001600160a01b038316610c765760405162461bcd60e51b815260206004820152602360248201527f45524332303a207472616e7366657220746f20746865207a65726f206164647260448201526265737360e81b606482015260840161070d565b60408051808201825260098152681c9958da5c1a595b9d60ba1b60208201526008549151630c3c20ed60e01b81526001600160a01b038681166004830152600093610cd2939261034b9290911690630c3c20ed90602401610301565b90506000610d0460405180604001604052806006815260200165185b5bdd5b9d60d21b81525061034b610346876110ea565b90506000610d6b6103f46040518060400160405280600881526020017f7472616e7366657200000000000000000000000000000000000000000000000081525061034b6103f48787604051806040016040528060018152602001600b60fa1b81525061118a565b9050610d7681611206565b506040518581526001600160a01b0387169033907fddf252ad1be2c89b69c2b068fc378daa952ba7f163c4a11628f55a4df523b3ef9060200160405180910390a350600195945050505050565b60058054610dd09061156c565b80601f0160208091040260200160405190810160405280929190818152602001828054610dfc9061156c565b8015610e495780601f10610e1e57610100808354040283529160200191610e49565b820191906000526020600020905b815481529060010190602001808311610e2c57829003601f168201915b505050505081565b604080518082018252600581526437bbb732b960d91b60208201526008549151630c3c20ed60e01b81526001600160a01b0385811660048301526000938493610eaa93909261034b921690630c3c20ed90602401610301565b604080518082018252600781526639b832b73232b960c91b60208201526008549151630c3c20ed60e01b81526001600160a01b038781166004830152939450600093610f059361034b92911690630c3c20ed90602401610301565b90506000610f586103f460405180604001604052806009815260200168616c6c6f77616e636560b81b81525061034b6103f48787604051806040016040528060018152602001600b60fa1b81525061118a565b6006546040516306d81d2960e01b81529192506000916001600160a01b03909116906306d81d2990610f91906005908690600401611746565b600060405180830381865afa158015610fae573d6000803e3d6000fd5b505050506040513d6000823e601f3d908101601f19168201604052610fd69190810190611630565b600754604051632d2ac4c160e11b81529192506001600160a01b031690635a55898290611007908490600401611864565b602060405180830381865afa158015611024573d6000803e3d6000fd5b505050506040513d601f19601f8201168201806040525081019061104891906117bd565b979650505050505050565b60608160405160200161106691906118a2565b60408051601f1981840301815290829052611083916020016118c7565b6040516020818303038152906040529050919050565b60606110e36110a784611053565b836040518060400160405280600181526020017f3a0000000000000000000000000000000000000000000000000000000000000081525061118a565b9392505050565b606060006110f783611357565b600101905060008167ffffffffffffffff811115611117576111176115a6565b6040519080825280601f01601f191660200182016040528015611141576020820181803683370190505b5090508181016020015b600019017f3031323334353637383961626364656600000000000000000000000000000000600a86061a8153600a850494508461114b57509392505050565b60608382846040516020016111a09291906118f0565b60408051601f19818403018152908290526111be92916020016118f0565b60405160208183030381529060405290509392505050565b6060816040516020016111e9919061191f565b60408051601f198184030181529082905261108391602001611960565b60606000806110026001600160a01b03166005856040518060400160405280600281526020017f5b5d00000000000000000000000000000000000000000000000000000000000081525060405160240161126293929190611998565b60408051601f198184030181529181526020820180517bffffffffffffffffffffffffffffffffffffffffffffffffffffffff167f44d227ae00000000000000000000000000000000000000000000000000000000179052516112c591906119db565b600060405180830381855af49150503d8060008114611300576040519150601f19603f3d011682016040523d82523d6000602084013e611305565b606091505b5091509150816110e35760405162461bcd60e51b815260206004820152601760248201527f436f736d5761736d2065786563757465206661696c6564000000000000000000604482015260640161070d565b6000807a184f03e93ff9f4daa797ed6e38ed64bf6a1f01000000000000000083106113a0577a184f03e93ff9f4daa797ed6e38ed64bf6a1f010000000000000000830492506040015b6d04ee2d6d415b85acef810000000083106113cc576d04ee2d6d415b85acef8100000000830492506020015b662386f26fc1000083106113ea57662386f26fc10000830492506010015b6305f5e1008310611402576305f5e100830492506008015b612710831061141657612710830492506004015b60648310611428576064830492506002015b600a83106105645760010192915050565b60005b8381101561145457818101518382015260200161143c565b50506000910152565b60008151808452611475816020860160208601611439565b601f01601f19169290920160200192915050565b6020815260006110e3602083018461145d565b80356001600160a01b03811681146114b357600080fd5b919050565b600080604083850312156114cb57600080fd5b6114d48361149c565b946020939093013593505050565b6000806000606084860312156114f757600080fd5b6115008461149c565b925061150e6020850161149c565b9150604084013590509250925092565b60006020828403121561153057600080fd5b6110e38261149c565b6000806040838503121561154c57600080fd5b6115558361149c565b91506115636020840161149c565b90509250929050565b600181811c9082168061158057607f821691505b6020821081036115a057634e487b7160e01b600052602260045260246000fd5b50919050565b634e487b7160e01b600052604160045260246000fd5b600067ffffffffffffffff808411156115d7576115d76115a6565b604051601f8501601f19908116603f011681019082821181831017156115ff576115ff6115a6565b8160405280935085815286868601111561161857600080fd5b611626866020830187611439565b5050509392505050565b60006020828403121561164257600080fd5b815167ffffffffffffffff81111561165957600080fd5b8201601f8101841361166a57600080fd5b611679848251602084016115bc565b949350505050565b8181038181111561056457634e487b7160e01b600052601160045260246000fd5b8054600090600181811c90808316806116bc57607f831692505b602080841082036116dd57634e487b7160e01b600052602260045260246000fd5b838852602088018280156116f8576001811461170e57611739565b60ff198716825285151560051b82019750611739565b60008981526020902060005b878110156117335781548482015290860190840161171a565b83019850505b5050505050505092915050565b60408152600061175960408301856116a2565b8281036020840152610bfa818561145d565b60408152600061177e604083018461145d565b8281036020840152600c81527f746f74616c5f737570706c79000000000000000000000000000000000000000060208201526040810191505092915050565b6000602082840312156117cf57600080fd5b5051919050565b6040815260006117e9604083018461145d565b8281036020840152600881527f646563696d616c7300000000000000000000000000000000000000000000000060208201526040810191505092915050565b60408152600061183b604083018461145d565b8281036020840152600781526662616c616e636560c81b60208201526040810191505092915050565b604081526000611877604083018461145d565b82810360208401526009815268616c6c6f77616e636560b81b60208201526040810191505092915050565b600082516118b4818460208701611439565b601160f91b920191825250600101919050565b601160f91b8152600082516118e3816001850160208701611439565b9190910160010192915050565b60008351611902818460208801611439565b835190830190611916818360208801611439565b01949350505050565b60008251611931818460208701611439565b7f7d00000000000000000000000000000000000000000000000000000000000000920191825250600101919050565b7f7b000000000000000000000000000000000000000000000000000000000000008152600082516118e3816001850160208701611439565b6060815260006119ab60608301866116a2565b82810360208401526119bd818661145d565b905082810360408401526119d1818561145d565b9695505050505050565b600082516119ed818460208701611439565b919091019291505056fea264697066735822122028577484573bf14cd4537537e6edfa322678e14a3860b876cd44cc6f83a2093964736f6c63430008140033","opcodes":"PUSH1 0x80 PUSH1 0x40 MSTORE CALLVALUE DUP1 ISZERO PUSH3 0x11 JUMPI PUSH1 0x0 DUP1 REVERT JUMPDEST POP PUSH1 0x40 MLOAD PUSH3 0x1D8C CODESIZE SUB DUP1 PUSH3 0x1D8C DUP4 CODECOPY DUP2 ADD PUSH1 0x40 DUP2 SWAP1 MSTORE PUSH3 0x34 SWAP2 PUSH3 0x163 JUMP JUMPDEST DUP2 DUP2 PUSH1 0x3 PUSH3 0x44 DUP4 DUP3 PUSH3 0x283 JUMP JUMPDEST POP PUSH1 0x4 PUSH3 0x53 DUP3 DUP3 PUSH3 0x283 JUMP JUMPDEST POP POP PUSH1 0x6 DUP1 SLOAD PUSH1 0x1 PUSH1 0x1 PUSH1 0xA0 SHL SUB NOT SWAP1 DUP2 AND PUSH2 0x1002 OR SWAP1 SWAP2 SSTORE PUSH1 0x7 DUP1 SLOAD DUP3 AND PUSH2 0x1003 OR SWAP1 SSTORE PUSH1 0x8 DUP1 SLOAD SWAP1 SWAP2 AND PUSH2 0x1004 OR SWAP1 SSTORE POP PUSH1 0x5 PUSH3 0x94 DUP5 DUP3 PUSH3 0x283 JUMP JUMPDEST POP POP POP POP PUSH3 0x34F JUMP JUMPDEST PUSH4 0x4E487B71 PUSH1 0xE0 SHL PUSH1 0x0 MSTORE PUSH1 0x41 PUSH1 0x4 MSTORE PUSH1 0x24 PUSH1 0x0 REVERT JUMPDEST PUSH1 0x0 DUP3 PUSH1 0x1F DUP4 ADD SLT PUSH3 0xC6 JUMPI PUSH1 0x0 DUP1 REVERT JUMPDEST DUP2 MLOAD PUSH1 0x1 PUSH1 0x1 PUSH1 0x40 SHL SUB DUP1 DUP3 GT ISZERO PUSH3 0xE3 JUMPI PUSH3 0xE3 PUSH3 0x9E JUMP JUMPDEST PUSH1 0x40 MLOAD PUSH1 0x1F DUP4 ADD PUSH1 0x1F NOT SWAP1 DUP2 AND PUSH1 0x3F ADD AND DUP2 ADD SWAP1 DUP3 DUP3 GT DUP2 DUP4 LT OR ISZERO PUSH3 0x10E JUMPI PUSH3 0x10E PUSH3 0x9E JUMP JUMPDEST DUP2 PUSH1 0x40 MSTORE DUP4 DUP2 MSTORE PUSH1 0x20 SWAP3 POP DUP7 DUP4 DUP6 DUP9 ADD ADD GT ISZERO PUSH3 0x12B JUMPI PUSH1 0x0 DUP1 REVERT JUMPDEST PUSH1 0x0 SWAP2 POP JUMPDEST DUP4 DUP3 LT ISZERO PUSH3 0x14F JUMPI DUP6 DUP3 ADD DUP4 ADD MLOAD DUP2 DUP4 ADD DUP5 ADD MSTORE SWAP1 DUP3 ADD SWAP1 PUSH3 0x130 JUMP JUMPDEST PUSH1 0x0 SWAP4 DUP2 ADD SWAP1 SWAP3 ADD SWAP3 SWAP1 SWAP3 MSTORE SWAP5 SWAP4 POP POP POP POP JUMP JUMPDEST PUSH1 0x0 DUP1 PUSH1 0x0 PUSH1 0x60 DUP5 DUP7 SUB SLT ISZERO PUSH3 0x179 JUMPI PUSH1 0x0 DUP1 REVERT JUMPDEST DUP4 MLOAD PUSH1 0x1 PUSH1 0x1 PUSH1 0x40 SHL SUB DUP1 DUP3 GT ISZERO PUSH3 0x191 JUMPI PUSH1 0x0 DUP1 REVERT JUMPDEST PUSH3 0x19F DUP8 DUP4 DUP9 ADD PUSH3 0xB4 JUMP JUMPDEST SWAP5 POP PUSH1 0x20 DUP7 ADD MLOAD SWAP2 POP DUP1 DUP3 GT ISZERO PUSH3 0x1B6 JUMPI PUSH1 0x0 DUP1 REVERT JUMPDEST PUSH3 0x1C4 DUP8 DUP4 DUP9 ADD PUSH3 0xB4 JUMP JUMPDEST SWAP4 POP PUSH1 0x40 DUP7 ADD MLOAD SWAP2 POP DUP1 DUP3 GT ISZERO PUSH3 0x1DB JUMPI PUSH1 0x0 DUP1 REVERT JUMPDEST POP PUSH3 0x1EA DUP7 DUP3 DUP8 ADD PUSH3 0xB4 JUMP JUMPDEST SWAP2 POP POP SWAP3 POP SWAP3 POP SWAP3 JUMP JUMPDEST PUSH1 0x1 DUP2 DUP2 SHR SWAP1 DUP3 AND DUP1 PUSH3 0x209 JUMPI PUSH1 0x7F DUP3 AND SWAP2 POP JUMPDEST PUSH1 0x20 DUP3 LT DUP2 SUB PUSH3 0x22A JUMPI PUSH4 0x4E487B71 PUSH1 0xE0 SHL PUSH1 0x0 MSTORE PUSH1 0x22 PUSH1 0x4 MSTORE PUSH1 0x24 PUSH1 0x0 REVERT JUMPDEST POP SWAP2 SWAP1 POP JUMP JUMPDEST PUSH1 0x1F DUP3 GT ISZERO PUSH3 0x27E JUMPI PUSH1 0x0 DUP2 DUP2 MSTORE PUSH1 0x20 DUP2 KECCAK256 PUSH1 0x1F DUP6 ADD PUSH1 0x5 SHR DUP2 ADD PUSH1 0x20 DUP7 LT ISZERO PUSH3 0x259 JUMPI POP DUP1 JUMPDEST PUSH1 0x1F DUP6 ADD PUSH1 0x5 SHR DUP3 ADD SWAP2 POP JUMPDEST DUP2 DUP2 LT ISZERO PUSH3 0x27A JUMPI DUP3 DUP2 SSTORE PUSH1 0x1 ADD PUSH3 0x265 JUMP JUMPDEST POP POP POP JUMPDEST POP POP POP JUMP JUMPDEST DUP2 MLOAD PUSH1 0x1 PUSH1 0x1 PUSH1 0x40 SHL SUB DUP2 GT ISZERO PUSH3 0x29F JUMPI PUSH3 0x29F PUSH3 0x9E JUMP JUMPDEST PUSH3 0x2B7 DUP2 PUSH3 0x2B0 DUP5 SLOAD PUSH3 0x1F4 JUMP JUMPDEST DUP5 PUSH3 0x230 JUMP JUMPDEST PUSH1 0x20 DUP1 PUSH1 0x1F DUP4 GT PUSH1 0x1 DUP2 EQ PUSH3 0x2EF JUMPI PUSH1 0x0 DUP5 ISZERO PUSH3 0x2D6 JUMPI POP DUP6 DUP4 ADD MLOAD JUMPDEST PUSH1 0x0 NOT PUSH1 0x3 DUP7 SWAP1 SHL SHR NOT AND PUSH1 0x1 DUP6 SWAP1 SHL OR DUP6 SSTORE PUSH3 0x27A JUMP JUMPDEST PUSH1 0x0 DUP6 DUP2 MSTORE PUSH1 0x20 DUP2 KECCAK256 PUSH1 0x1F NOT DUP7 AND SWAP2 JUMPDEST DUP3 DUP2 LT ISZERO PUSH3 0x320 JUMPI DUP9 DUP7 ADD MLOAD DUP3 SSTORE SWAP5 DUP5 ADD SWAP5 PUSH1 0x1 SWAP1 SWAP2 ADD SWAP1 DUP5 ADD PUSH3 0x2FF JUMP JUMPDEST POP DUP6 DUP3 LT ISZERO PUSH3 0x33F JUMPI DUP8 DUP6 ADD MLOAD PUSH1 0x0 NOT PUSH1 0x3 DUP9 SWAP1 SHL PUSH1 0xF8 AND SHR NOT AND DUP2 SSTORE JUMPDEST POP POP POP POP POP PUSH1 0x1 SWAP1 DUP2 SHL ADD SWAP1 SSTORE POP JUMP JUMPDEST PUSH2 0x1A2D DUP1 PUSH3 0x35F PUSH1 0x0 CODECOPY PUSH1 0x0 RETURN INVALID PUSH1 0x80 PUSH1 0x40 MSTORE CALLVALUE DUP1 ISZERO PUSH2 0x10 JUMPI PUSH1 0x0 DUP1 REVERT JUMPDEST POP PUSH1 0x4 CALLDATASIZE LT PUSH2 0xDF JUMPI PUSH1 0x0 CALLDATALOAD PUSH1 0xE0 SHR DUP1 PUSH4 0x95D89B41 GT PUSH2 0x8C JUMPI DUP1 PUSH4 0xDA73D16B GT PUSH2 0x66 JUMPI DUP1 PUSH4 0xDA73D16B EQ PUSH2 0x1C1 JUMPI DUP1 PUSH4 0xDD62ED3E EQ PUSH2 0x1C9 JUMPI DUP1 PUSH4 0xDE4725CC EQ PUSH2 0x1DC JUMPI DUP1 PUSH4 0xF00B0255 EQ PUSH2 0x1EF JUMPI PUSH1 0x0 DUP1 REVERT JUMPDEST DUP1 PUSH4 0x95D89B41 EQ PUSH2 0x17B JUMPI DUP1 PUSH4 0xA9059CBB EQ PUSH2 0x183 JUMPI DUP1 PUSH4 0xC2AED302 EQ PUSH2 0x196 JUMPI PUSH1 0x0 DUP1 REVERT JUMPDEST DUP1 PUSH4 0x23B872DD GT PUSH2 0xBD JUMPI DUP1 PUSH4 0x23B872DD EQ PUSH2 0x13B JUMPI DUP1 PUSH4 0x313CE567 EQ PUSH2 0x14E JUMPI DUP1 PUSH4 0x70A08231 EQ PUSH2 0x168 JUMPI PUSH1 0x0 DUP1 REVERT JUMPDEST DUP1 PUSH4 0x6FDDE03 EQ PUSH2 0xE4 JUMPI DUP1 PUSH4 0x95EA7B3 EQ PUSH2 0x102 JUMPI DUP1 PUSH4 0x18160DDD EQ PUSH2 0x125 JUMPI JUMPDEST PUSH1 0x0 DUP1 REVERT JUMPDEST PUSH2 0xEC PUSH2 0x202 JUMP JUMPDEST PUSH1 0x40 MLOAD PUSH2 0xF9 SWAP2 SWAP1 PUSH2 0x1489 JUMP JUMPDEST PUSH1 0x40 MLOAD DUP1 SWAP2 SUB SWAP1 RETURN JUMPDEST PUSH2 0x115 PUSH2 0x110 CALLDATASIZE PUSH1 0x4 PUSH2 0x14B8 JUMP JUMPDEST PUSH2 0x294 JUMP JUMPDEST PUSH1 0x40 MLOAD SWAP1 ISZERO ISZERO DUP2 MSTORE PUSH1 0x20 ADD PUSH2 0xF9 JUMP JUMPDEST PUSH2 0x12D PUSH2 0x56A JUMP JUMPDEST PUSH1 0x40 MLOAD SWAP1 DUP2 MSTORE PUSH1 0x20 ADD PUSH2 0xF9 JUMP JUMPDEST PUSH2 0x115 PUSH2 0x149 CALLDATASIZE PUSH1 0x4 PUSH2 0x14E2 JUMP JUMPDEST PUSH2 0x6AD JUMP JUMPDEST PUSH2 0x156 PUSH2 0x8EE JUMP JUMPDEST PUSH1 0x40 MLOAD PUSH1 0xFF SWAP1 SWAP2 AND DUP2 MSTORE PUSH1 0x20 ADD PUSH2 0xF9 JUMP JUMPDEST PUSH2 0x12D PUSH2 0x176 CALLDATASIZE PUSH1 0x4 PUSH2 0x151E JUMP JUMPDEST PUSH2 0x9E9 JUMP JUMPDEST PUSH2 0xEC PUSH2 0xC03 JUMP JUMPDEST PUSH2 0x115 PUSH2 0x191 CALLDATASIZE PUSH1 0x4 PUSH2 0x14B8 JUMP JUMPDEST PUSH2 0xC12 JUMP JUMPDEST PUSH1 0x8 SLOAD PUSH2 0x1A9 SWAP1 PUSH1 0x1 PUSH1 0x1 PUSH1 0xA0 SHL SUB AND DUP2 JUMP JUMPDEST PUSH1 0x40 MLOAD PUSH1 0x1 PUSH1 0x1 PUSH1 0xA0 SHL SUB SWAP1 SWAP2 AND DUP2 MSTORE PUSH1 0x20 ADD PUSH2 0xF9 JUMP JUMPDEST PUSH2 0xEC PUSH2 0xDC3 JUMP JUMPDEST PUSH2 0x12D PUSH2 0x1D7 CALLDATASIZE PUSH1 0x4 PUSH2 0x1539 JUMP JUMPDEST PUSH2 0xE51 JUMP JUMPDEST PUSH1 0x7 SLOAD PUSH2 0x1A9 SWAP1 PUSH1 0x1 PUSH1 0x1 PUSH1 0xA0 SHL SUB AND DUP2 JUMP JUMPDEST PUSH1 0x6 SLOAD PUSH2 0x1A9 SWAP1 PUSH1 0x1 PUSH1 0x1 PUSH1 0xA0 SHL SUB AND DUP2 JUMP JUMPDEST PUSH1 0x60 PUSH1 0x3 DUP1 SLOAD PUSH2 0x211 SWAP1 PUSH2 0x156C JUMP JUMPDEST DUP1 PUSH1 0x1F ADD PUSH1 0x20 DUP1 SWAP2 DIV MUL PUSH1 0x20 ADD PUSH1 0x40 MLOAD SWAP1 DUP2 ADD PUSH1 0x40 MSTORE DUP1 SWAP3 SWAP2 SWAP1 DUP2 DUP2 MSTORE PUSH1 0x20 ADD DUP3 DUP1 SLOAD PUSH2 0x23D SWAP1 PUSH2 0x156C JUMP JUMPDEST DUP1 ISZERO PUSH2 0x28A JUMPI DUP1 PUSH1 0x1F LT PUSH2 0x25F JUMPI PUSH2 0x100 DUP1 DUP4 SLOAD DIV MUL DUP4 MSTORE SWAP2 PUSH1 0x20 ADD SWAP2 PUSH2 0x28A JUMP JUMPDEST DUP3 ADD SWAP2 SWAP1 PUSH1 0x0 MSTORE PUSH1 0x20 PUSH1 0x0 KECCAK256 SWAP1 JUMPDEST DUP2 SLOAD DUP2 MSTORE SWAP1 PUSH1 0x1 ADD SWAP1 PUSH1 0x20 ADD DUP1 DUP4 GT PUSH2 0x26D JUMPI DUP3 SWAP1 SUB PUSH1 0x1F AND DUP3 ADD SWAP2 JUMPDEST POP POP POP POP POP SWAP1 POP SWAP1 JUMP JUMPDEST PUSH1 0x0 DUP1 PUSH2 0x2A1 CALLER DUP6 PUSH2 0xE51 JUMP JUMPDEST SWAP1 POP DUP3 DUP2 GT ISZERO PUSH2 0x40D JUMPI PUSH1 0x40 DUP1 MLOAD DUP1 DUP3 ADD DUP3 MSTORE PUSH1 0x7 DUP2 MSTORE PUSH7 0x39B832B73232B9 PUSH1 0xC9 SHL PUSH1 0x20 DUP3 ADD MSTORE PUSH1 0x8 SLOAD SWAP2 MLOAD PUSH4 0xC3C20ED PUSH1 0xE0 SHL DUP2 MSTORE PUSH1 0x1 PUSH1 0x1 PUSH1 0xA0 SHL SUB DUP8 DUP2 AND PUSH1 0x4 DUP4 ADD MSTORE PUSH1 0x0 SWAP4 PUSH2 0x350 SWAP4 SWAP3 PUSH2 0x34B SWAP3 SWAP1 SWAP2 AND SWAP1 PUSH4 0xC3C20ED SWAP1 PUSH1 0x24 ADD JUMPDEST PUSH1 0x0 PUSH1 0x40 MLOAD DUP1 DUP4 SUB DUP2 DUP7 GAS STATICCALL ISZERO DUP1 ISZERO PUSH2 0x31E JUMPI RETURNDATASIZE PUSH1 0x0 DUP1 RETURNDATACOPY RETURNDATASIZE PUSH1 0x0 REVERT JUMPDEST POP POP POP POP PUSH1 0x40 MLOAD RETURNDATASIZE PUSH1 0x0 DUP3 RETURNDATACOPY PUSH1 0x1F RETURNDATASIZE SWAP1 DUP2 ADD PUSH1 0x1F NOT AND DUP3 ADD PUSH1 0x40 MSTORE PUSH2 0x346 SWAP2 SWAP1 DUP2 ADD SWAP1 PUSH2 0x1630 JUMP JUMPDEST PUSH2 0x1053 JUMP JUMPDEST PUSH2 0x1099 JUMP JUMPDEST SWAP1 POP PUSH1 0x0 PUSH2 0x38D PUSH1 0x40 MLOAD DUP1 PUSH1 0x40 ADD PUSH1 0x40 MSTORE DUP1 PUSH1 0x6 DUP2 MSTORE PUSH1 0x20 ADD PUSH6 0x185B5BDD5B9D PUSH1 0xD2 SHL DUP2 MSTORE POP PUSH2 0x34B PUSH2 0x346 DUP9 DUP8 PUSH2 0x388 SWAP2 SWAP1 PUSH2 0x1681 JUMP JUMPDEST PUSH2 0x10EA JUMP JUMPDEST SWAP1 POP PUSH1 0x0 PUSH2 0x3F9 PUSH2 0x3F4 PUSH1 0x40 MLOAD DUP1 PUSH1 0x40 ADD PUSH1 0x40 MSTORE DUP1 PUSH1 0x12 DUP2 MSTORE PUSH1 0x20 ADD PUSH32 0x64656372656173655F616C6C6F77616E63650000000000000000000000000000 DUP2 MSTORE POP PUSH2 0x34B PUSH2 0x3F4 DUP8 DUP8 PUSH1 0x40 MLOAD DUP1 PUSH1 0x40 ADD PUSH1 0x40 MSTORE DUP1 PUSH1 0x1 DUP2 MSTORE PUSH1 0x20 ADD PUSH1 0xB PUSH1 0xFA SHL DUP2 MSTORE POP PUSH2 0x118A JUMP JUMPDEST PUSH2 0x11D6 JUMP JUMPDEST SWAP1 POP PUSH2 0x404 DUP2 PUSH2 0x1206 JUMP JUMPDEST POP POP POP POP PUSH2 0x51E JUMP JUMPDEST DUP3 DUP2 LT ISZERO PUSH2 0x51E JUMPI PUSH1 0x40 DUP1 MLOAD DUP1 DUP3 ADD DUP3 MSTORE PUSH1 0x7 DUP2 MSTORE PUSH7 0x39B832B73232B9 PUSH1 0xC9 SHL PUSH1 0x20 DUP3 ADD MSTORE PUSH1 0x8 SLOAD SWAP2 MLOAD PUSH4 0xC3C20ED PUSH1 0xE0 SHL DUP2 MSTORE PUSH1 0x1 PUSH1 0x1 PUSH1 0xA0 SHL SUB DUP8 DUP2 AND PUSH1 0x4 DUP4 ADD MSTORE PUSH1 0x0 SWAP4 PUSH2 0x46F SWAP4 SWAP3 PUSH2 0x34B SWAP3 SWAP1 SWAP2 AND SWAP1 PUSH4 0xC3C20ED SWAP1 PUSH1 0x24 ADD PUSH2 0x301 JUMP JUMPDEST SWAP1 POP PUSH1 0x0 PUSH2 0x4A7 PUSH1 0x40 MLOAD DUP1 PUSH1 0x40 ADD PUSH1 0x40 MSTORE DUP1 PUSH1 0x6 DUP2 MSTORE PUSH1 0x20 ADD PUSH6 0x185B5BDD5B9D PUSH1 0xD2 SHL DUP2 MSTORE POP PUSH2 0x34B PUSH2 0x346 DUP7 DUP10 PUSH2 0x388 SWAP2 SWAP1 PUSH2 0x1681 JUMP JUMPDEST SWAP1 POP PUSH1 0x0 PUSH2 0x50E PUSH2 0x3F4 PUSH1 0x40 MLOAD DUP1 PUSH1 0x40 ADD PUSH1 0x40 MSTORE DUP1 PUSH1 0x12 DUP2 MSTORE PUSH1 0x20 ADD PUSH32 0x696E6372656173655F616C6C6F77616E63650000000000000000000000000000 DUP2 MSTORE POP PUSH2 0x34B PUSH2 0x3F4 DUP8 DUP8 PUSH1 0x40 MLOAD DUP1 PUSH1 0x40 ADD PUSH1 0x40 MSTORE DUP1 PUSH1 0x1 DUP2 MSTORE PUSH1 0x20 ADD PUSH1 0xB PUSH1 0xFA SHL DUP2 MSTORE POP PUSH2 0x118A JUMP JUMPDEST SWAP1 POP PUSH2 0x519 DUP2 PUSH2 0x1206 JUMP JUMPDEST POP POP POP POP JUMPDEST PUSH1 0x40 MLOAD DUP4 DUP2 MSTORE PUSH1 0x1 PUSH1 0x1 PUSH1 0xA0 SHL SUB DUP6 AND SWAP1 CALLER SWAP1 PUSH32 0x8C5BE1E5EBEC7D5BD14F71427D1E84F3DD0314C0F7B2291E5B200AC8C7C3B925 SWAP1 PUSH1 0x20 ADD PUSH1 0x40 MLOAD DUP1 SWAP2 SUB SWAP1 LOG3 PUSH1 0x1 SWAP2 POP POP JUMPDEST SWAP3 SWAP2 POP POP JUMP JUMPDEST PUSH1 0x0 DUP1 PUSH2 0x5B6 PUSH2 0x3F4 PUSH1 0x40 MLOAD DUP1 PUSH1 0x40 ADD PUSH1 0x40 MSTORE DUP1 PUSH1 0xA DUP2 MSTORE PUSH1 0x20 ADD PUSH10 0x746F6B656E5F696E666F PUSH1 0xB0 SHL DUP2 MSTORE POP PUSH1 0x40 MLOAD DUP1 PUSH1 0x40 ADD PUSH1 0x40 MSTORE DUP1 PUSH1 0x2 DUP2 MSTORE PUSH1 0x20 ADD PUSH2 0x7B7D PUSH1 0xF0 SHL DUP2 MSTORE POP PUSH2 0x1099 JUMP JUMPDEST PUSH1 0x6 SLOAD PUSH1 0x40 MLOAD PUSH4 0x6D81D29 PUSH1 0xE0 SHL DUP2 MSTORE SWAP2 SWAP3 POP PUSH1 0x0 SWAP2 PUSH1 0x1 PUSH1 0x1 PUSH1 0xA0 SHL SUB SWAP1 SWAP2 AND SWAP1 PUSH4 0x6D81D29 SWAP1 PUSH2 0x5EF SWAP1 PUSH1 0x5 SWAP1 DUP7 SWAP1 PUSH1 0x4 ADD PUSH2 0x1746 JUMP JUMPDEST PUSH1 0x0 PUSH1 0x40 MLOAD DUP1 DUP4 SUB DUP2 DUP7 GAS STATICCALL ISZERO DUP1 ISZERO PUSH2 0x60C JUMPI RETURNDATASIZE PUSH1 0x0 DUP1 RETURNDATACOPY RETURNDATASIZE PUSH1 0x0 REVERT JUMPDEST POP POP POP POP PUSH1 0x40 MLOAD RETURNDATASIZE PUSH1 0x0 DUP3 RETURNDATACOPY PUSH1 0x1F RETURNDATASIZE SWAP1 DUP2 ADD PUSH1 0x1F NOT AND DUP3 ADD PUSH1 0x40 MSTORE PUSH2 0x634 SWAP2 SWAP1 DUP2 ADD SWAP1 PUSH2 0x1630 JUMP JUMPDEST PUSH1 0x7 SLOAD PUSH1 0x40 MLOAD PUSH4 0x2D2AC4C1 PUSH1 0xE1 SHL DUP2 MSTORE SWAP2 SWAP3 POP PUSH1 0x1 PUSH1 0x1 PUSH1 0xA0 SHL SUB AND SWAP1 PUSH4 0x5A558982 SWAP1 PUSH2 0x665 SWAP1 DUP5 SWAP1 PUSH1 0x4 ADD PUSH2 0x176B JUMP JUMPDEST PUSH1 0x20 PUSH1 0x40 MLOAD DUP1 DUP4 SUB DUP2 DUP7 GAS STATICCALL ISZERO DUP1 ISZERO PUSH2 0x682 JUMPI RETURNDATASIZE PUSH1 0x0 DUP1 RETURNDATACOPY RETURNDATASIZE PUSH1 0x0 REVERT JUMPDEST POP POP POP POP PUSH1 0x40 MLOAD RETURNDATASIZE PUSH1 0x1F NOT PUSH1 0x1F DUP3 ADD AND DUP3 ADD DUP1 PUSH1 0x40 MSTORE POP DUP2 ADD SWAP1 PUSH2 0x6A6 SWAP2 SWAP1 PUSH2 0x17BD JUMP JUMPDEST SWAP3 POP POP POP SWAP1 JUMP JUMPDEST PUSH1 0x0 PUSH1 0x1 PUSH1 0x1 PUSH1 0xA0 SHL SUB DUP4 AND PUSH2 0x716 JUMPI PUSH1 0x40 MLOAD PUSH3 0x461BCD PUSH1 0xE5 SHL DUP2 MSTORE PUSH1 0x20 PUSH1 0x4 DUP3 ADD MSTORE PUSH1 0x23 PUSH1 0x24 DUP3 ADD MSTORE PUSH32 0x45524332303A207472616E7366657220746F20746865207A65726F2061646472 PUSH1 0x44 DUP3 ADD MSTORE PUSH3 0x657373 PUSH1 0xE8 SHL PUSH1 0x64 DUP3 ADD MSTORE PUSH1 0x84 ADD JUMPDEST PUSH1 0x40 MLOAD DUP1 SWAP2 SUB SWAP1 REVERT JUMPDEST PUSH1 0x40 DUP1 MLOAD DUP1 DUP3 ADD DUP3 MSTORE PUSH1 0x5 DUP2 MSTORE PUSH5 0x37BBB732B9 PUSH1 0xD9 SHL PUSH1 0x20 DUP3 ADD MSTORE PUSH1 0x8 SLOAD SWAP2 MLOAD PUSH4 0xC3C20ED PUSH1 0xE0 SHL DUP2 MSTORE PUSH1 0x1 PUSH1 0x1 PUSH1 0xA0 SHL SUB DUP8 DUP2 AND PUSH1 0x4 DUP4 ADD MSTORE PUSH1 0x0 SWAP4 PUSH2 0x76E SWAP4 SWAP3 PUSH2 0x34B SWAP3 SWAP1 SWAP2 AND SWAP1 PUSH4 0xC3C20ED SWAP1 PUSH1 0x24 ADD PUSH2 0x301 JUMP JUMPDEST PUSH1 0x40 DUP1 MLOAD DUP1 DUP3 ADD DUP3 MSTORE PUSH1 0x9 DUP2 MSTORE PUSH9 0x1C9958DA5C1A595B9D PUSH1 0xBA SHL PUSH1 0x20 DUP3 ADD MSTORE PUSH1 0x8 SLOAD SWAP2 MLOAD PUSH4 0xC3C20ED PUSH1 0xE0 SHL DUP2 MSTORE PUSH1 0x1 PUSH1 0x1 PUSH1 0xA0 SHL SUB DUP9 DUP2 AND PUSH1 0x4 DUP4 ADD MSTORE SWAP4 SWAP5 POP PUSH1 0x0 SWAP4 PUSH2 0x7CB SWAP4 PUSH2 0x34B SWAP3 SWAP2 AND SWAP1 PUSH4 0xC3C20ED SWAP1 PUSH1 0x24 ADD PUSH2 0x301 JUMP JUMPDEST SWAP1 POP PUSH1 0x0 PUSH2 0x7FD PUSH1 0x40 MLOAD DUP1 PUSH1 0x40 ADD PUSH1 0x40 MSTORE DUP1 PUSH1 0x6 DUP2 MSTORE PUSH1 0x20 ADD PUSH6 0x185B5BDD5B9D PUSH1 0xD2 SHL DUP2 MSTORE POP PUSH2 0x34B PUSH2 0x346 DUP9 PUSH2 0x10EA JUMP JUMPDEST SWAP1 POP PUSH1 0x0 PUSH2 0x887 PUSH2 0x3F4 PUSH1 0x40 MLOAD DUP1 PUSH1 0x40 ADD PUSH1 0x40 MSTORE DUP1 PUSH1 0xD DUP2 MSTORE PUSH1 0x20 ADD PUSH32 0x7472616E736665725F66726F6D00000000000000000000000000000000000000 DUP2 MSTORE POP PUSH2 0x34B PUSH2 0x3F4 PUSH2 0x867 DUP10 DUP10 PUSH1 0x40 MLOAD DUP1 PUSH1 0x40 ADD PUSH1 0x40 MSTORE DUP1 PUSH1 0x1 DUP2 MSTORE PUSH1 0x20 ADD PUSH1 0xB PUSH1 0xFA SHL DUP2 MSTORE POP PUSH2 0x118A JUMP JUMPDEST DUP8 PUSH1 0x40 MLOAD DUP1 PUSH1 0x40 ADD PUSH1 0x40 MSTORE DUP1 PUSH1 0x1 DUP2 MSTORE PUSH1 0x20 ADD PUSH1 0xB PUSH1 0xFA SHL DUP2 MSTORE POP PUSH2 0x118A JUMP JUMPDEST SWAP1 POP PUSH2 0x892 DUP2 PUSH2 0x1206 JUMP JUMPDEST POP DUP7 PUSH1 0x1 PUSH1 0x1 PUSH1 0xA0 SHL SUB AND DUP9 PUSH1 0x1 PUSH1 0x1 PUSH1 0xA0 SHL SUB AND PUSH32 0xDDF252AD1BE2C89B69C2B068FC378DAA952BA7F163C4A11628F55A4DF523B3EF DUP9 PUSH1 0x40 MLOAD PUSH2 0x8D8 SWAP2 DUP2 MSTORE PUSH1 0x20 ADD SWAP1 JUMP JUMPDEST PUSH1 0x40 MLOAD DUP1 SWAP2 SUB SWAP1 LOG3 POP PUSH1 0x1 SWAP8 SWAP7 POP POP POP POP POP POP POP JUMP JUMPDEST PUSH1 0x0 DUP1 PUSH2 0x93A PUSH2 0x3F4 PUSH1 0x40 MLOAD DUP1 PUSH1 0x40 ADD PUSH1 0x40 MSTORE DUP1 PUSH1 0xA DUP2 MSTORE PUSH1 0x20 ADD PUSH10 0x746F6B656E5F696E666F PUSH1 0xB0 SHL DUP2 MSTORE POP PUSH1 0x40 MLOAD DUP1 PUSH1 0x40 ADD PUSH1 0x40 MSTORE DUP1 PUSH1 0x2 DUP2 MSTORE PUSH1 0x20 ADD PUSH2 0x7B7D PUSH1 0xF0 SHL DUP2 MSTORE POP PUSH2 0x1099 JUMP JUMPDEST PUSH1 0x6 SLOAD PUSH1 0x40 MLOAD PUSH4 0x6D81D29 PUSH1 0xE0 SHL DUP2 MSTORE SWAP2 SWAP3 POP PUSH1 0x0 SWAP2 PUSH1 0x1 PUSH1 0x1 PUSH1 0xA0 SHL SUB SWAP1 SWAP2 AND SWAP1 PUSH4 0x6D81D29 SWAP1 PUSH2 0x973 SWAP1 PUSH1 0x5 SWAP1 DUP7 SWAP1 PUSH1 0x4 ADD PUSH2 0x1746 JUMP JUMPDEST PUSH1 0x0 PUSH1 0x40 MLOAD DUP1 DUP4 SUB DUP2 DUP7 GAS STATICCALL ISZERO DUP1 ISZERO PUSH2 0x990 JUMPI RETURNDATASIZE PUSH1 0x0 DUP1 RETURNDATACOPY RETURNDATASIZE PUSH1 0x0 REVERT JUMPDEST POP POP POP POP PUSH1 0x40 MLOAD RETURNDATASIZE PUSH1 0x0 DUP3 RETURNDATACOPY PUSH1 0x1F RETURNDATASIZE SWAP1 DUP2 ADD PUSH1 0x1F NOT AND DUP3 ADD PUSH1 0x40 MSTORE PUSH2 0x9B8 SWAP2 SWAP1 DUP2 ADD SWAP1 PUSH2 0x1630 JUMP JUMPDEST PUSH1 0x7 SLOAD PUSH1 0x40 MLOAD PUSH4 0x2D2AC4C1 PUSH1 0xE1 SHL DUP2 MSTORE SWAP2 SWAP3 POP PUSH1 0x1 PUSH1 0x1 PUSH1 0xA0 SHL SUB AND SWAP1 PUSH4 0x5A558982 SWAP1 PUSH2 0x665 SWAP1 DUP5 SWAP1 PUSH1 0x4 ADD PUSH2 0x17D6 JUMP JUMPDEST PUSH1 0x0 PUSH1 0x1 PUSH1 0x1 PUSH1 0xA0 SHL SUB DUP3 AND PUSH2 0xA67 JUMPI PUSH1 0x40 MLOAD PUSH3 0x461BCD PUSH1 0xE5 SHL DUP2 MSTORE PUSH1 0x20 PUSH1 0x4 DUP3 ADD MSTORE PUSH1 0x29 PUSH1 0x24 DUP3 ADD MSTORE PUSH32 0x45524332303A2062616C616E636520717565727920666F7220746865207A6572 PUSH1 0x44 DUP3 ADD MSTORE PUSH32 0x6F20616464726573730000000000000000000000000000000000000000000000 PUSH1 0x64 DUP3 ADD MSTORE PUSH1 0x84 ADD PUSH2 0x70D JUMP JUMPDEST PUSH1 0x40 DUP1 MLOAD DUP1 DUP3 ADD DUP3 MSTORE PUSH1 0x7 DUP2 MSTORE PUSH32 0x6164647265737300000000000000000000000000000000000000000000000000 PUSH1 0x20 DUP3 ADD MSTORE PUSH1 0x8 SLOAD SWAP2 MLOAD PUSH4 0xC3C20ED PUSH1 0xE0 SHL DUP2 MSTORE PUSH1 0x1 PUSH1 0x1 PUSH1 0xA0 SHL SUB DUP6 DUP2 AND PUSH1 0x4 DUP4 ADD MSTORE PUSH1 0x0 SWAP4 PUSH2 0xAD7 SWAP4 SWAP3 PUSH2 0x34B SWAP3 SWAP1 SWAP2 AND SWAP1 PUSH4 0xC3C20ED SWAP1 PUSH1 0x24 ADD PUSH2 0x301 JUMP JUMPDEST SWAP1 POP PUSH1 0x0 PUSH2 0xB0A PUSH2 0x3F4 PUSH1 0x40 MLOAD DUP1 PUSH1 0x40 ADD PUSH1 0x40 MSTORE DUP1 PUSH1 0x7 DUP2 MSTORE PUSH1 0x20 ADD PUSH7 0x62616C616E6365 PUSH1 0xC8 SHL DUP2 MSTORE POP PUSH2 0x34B DUP6 PUSH2 0x11D6 JUMP JUMPDEST PUSH1 0x6 SLOAD PUSH1 0x40 MLOAD PUSH4 0x6D81D29 PUSH1 0xE0 SHL DUP2 MSTORE SWAP2 SWAP3 POP PUSH1 0x0 SWAP2 PUSH1 0x1 PUSH1 0x1 PUSH1 0xA0 SHL SUB SWAP1 SWAP2 AND SWAP1 PUSH4 0x6D81D29 SWAP1 PUSH2 0xB43 SWAP1 PUSH1 0x5 SWAP1 DUP7 SWAP1 PUSH1 0x4 ADD PUSH2 0x1746 JUMP JUMPDEST PUSH1 0x0 PUSH1 0x40 MLOAD DUP1 DUP4 SUB DUP2 DUP7 GAS STATICCALL ISZERO DUP1 ISZERO PUSH2 0xB60 JUMPI RETURNDATASIZE PUSH1 0x0 DUP1 RETURNDATACOPY RETURNDATASIZE PUSH1 0x0 REVERT JUMPDEST POP POP POP POP PUSH1 0x40 MLOAD RETURNDATASIZE PUSH1 0x0 DUP3 RETURNDATACOPY PUSH1 0x1F RETURNDATASIZE SWAP1 DUP2 ADD PUSH1 0x1F NOT AND DUP3 ADD PUSH1 0x40 MSTORE PUSH2 0xB88 SWAP2 SWAP1 DUP2 ADD SWAP1 PUSH2 0x1630 JUMP JUMPDEST PUSH1 0x7 SLOAD PUSH1 0x40 MLOAD PUSH4 0x2D2AC4C1 PUSH1 0xE1 SHL DUP2 MSTORE SWAP2 SWAP3 POP PUSH1 0x1 PUSH1 0x1 PUSH1 0xA0 SHL SUB AND SWAP1 PUSH4 0x5A558982 SWAP1 PUSH2 0xBB9 SWAP1 DUP5 SWAP1 PUSH1 0x4 ADD PUSH2 0x1828 JUMP JUMPDEST PUSH1 0x20 PUSH1 0x40 MLOAD DUP1 DUP4 SUB DUP2 DUP7 GAS STATICCALL ISZERO DUP1 ISZERO PUSH2 0xBD6 JUMPI RETURNDATASIZE PUSH1 0x0 DUP1 RETURNDATACOPY RETURNDATASIZE PUSH1 0x0 REVERT JUMPDEST POP POP POP POP PUSH1 0x40 MLOAD RETURNDATASIZE PUSH1 0x1F NOT PUSH1 0x1F DUP3 ADD AND DUP3 ADD DUP1 PUSH1 0x40 MSTORE POP DUP2 ADD SWAP1 PUSH2 0xBFA SWAP2 SWAP1 PUSH2 0x17BD JUMP JUMPDEST SWAP6 SWAP5 POP POP POP POP POP JUMP JUMPDEST PUSH1 0x60 PUSH1 0x4 DUP1 SLOAD PUSH2 0x211 SWAP1 PUSH2 0x156C JUMP JUMPDEST PUSH1 0x0 PUSH1 0x1 PUSH1 0x1 PUSH1 0xA0 SHL SUB DUP4 AND PUSH2 0xC76 JUMPI PUSH1 0x40 MLOAD PUSH3 0x461BCD PUSH1 0xE5 SHL DUP2 MSTORE PUSH1 0x20 PUSH1 0x4 DUP3 ADD MSTORE PUSH1 0x23 PUSH1 0x24 DUP3 ADD MSTORE PUSH32 0x45524332303A207472616E7366657220746F20746865207A65726F2061646472 PUSH1 0x44 DUP3 ADD MSTORE PUSH3 0x657373 PUSH1 0xE8 SHL PUSH1 0x64 DUP3 ADD MSTORE PUSH1 0x84 ADD PUSH2 0x70D JUMP JUMPDEST PUSH1 0x40 DUP1 MLOAD DUP1 DUP3 ADD DUP3 MSTORE PUSH1 0x9 DUP2 MSTORE PUSH9 0x1C9958DA5C1A595B9D PUSH1 0xBA SHL PUSH1 0x20 DUP3 ADD MSTORE PUSH1 0x8 SLOAD SWAP2 MLOAD PUSH4 0xC3C20ED PUSH1 0xE0 SHL DUP2 MSTORE PUSH1 0x1 PUSH1 0x1 PUSH1 0xA0 SHL SUB DUP7 DUP2 AND PUSH1 0x4 DUP4 ADD MSTORE PUSH1 0x0 SWAP4 PUSH2 0xCD2 SWAP4 SWAP3 PUSH2 0x34B SWAP3 SWAP1 SWAP2 AND SWAP1 PUSH4 0xC3C20ED SWAP1 PUSH1 0x24 ADD PUSH2 0x301 JUMP JUMPDEST SWAP1 POP PUSH1 0x0 PUSH2 0xD04 PUSH1 0x40 MLOAD DUP1 PUSH1 0x40 ADD PUSH1 0x40 MSTORE DUP1 PUSH1 0x6 DUP2 MSTORE PUSH1 0x20 ADD PUSH6 0x185B5BDD5B9D PUSH1 0xD2 SHL DUP2 MSTORE POP PUSH2 0x34B PUSH2 0x346 DUP8 PUSH2 0x10EA JUMP JUMPDEST SWAP1 POP PUSH1 0x0 PUSH2 0xD6B PUSH2 0x3F4 PUSH1 0x40 MLOAD DUP1 PUSH1 0x40 ADD PUSH1 0x40 MSTORE DUP1 PUSH1 0x8 DUP2 MSTORE PUSH1 0x20 ADD PUSH32 0x7472616E73666572000000000000000000000000000000000000000000000000 DUP2 MSTORE POP PUSH2 0x34B PUSH2 0x3F4 DUP8 DUP8 PUSH1 0x40 MLOAD DUP1 PUSH1 0x40 ADD PUSH1 0x40 MSTORE DUP1 PUSH1 0x1 DUP2 MSTORE PUSH1 0x20 ADD PUSH1 0xB PUSH1 0xFA SHL DUP2 MSTORE POP PUSH2 0x118A JUMP JUMPDEST SWAP1 POP PUSH2 0xD76 DUP2 PUSH2 0x1206 JUMP JUMPDEST POP PUSH1 0x40 MLOAD DUP6 DUP2 MSTORE PUSH1 0x1 PUSH1 0x1 PUSH1 0xA0 SHL SUB DUP8 AND SWAP1 CALLER SWAP1 PUSH32 0xDDF252AD1BE2C89B69C2B068FC378DAA952BA7F163C4A11628F55A4DF523B3EF SWAP1 PUSH1 0x20 ADD PUSH1 0x40 MLOAD DUP1 SWAP2 SUB SWAP1 LOG3 POP PUSH1 0x1 SWAP6 SWAP5 POP POP POP POP POP JUMP JUMPDEST PUSH1 0x5 DUP1 SLOAD PUSH2 0xDD0 SWAP1 PUSH2 0x156C JUMP JUMPDEST DUP1 PUSH1 0x1F ADD PUSH1 0x20 DUP1 SWAP2 DIV MUL PUSH1 0x20 ADD PUSH1 0x40 MLOAD SWAP1 DUP2 ADD PUSH1 0x40 MSTORE DUP1 SWAP3 SWAP2 SWAP1 DUP2 DUP2 MSTORE PUSH1 0x20 ADD DUP3 DUP1 SLOAD PUSH2 0xDFC SWAP1 PUSH2 0x156C JUMP JUMPDEST DUP1 ISZERO PUSH2 0xE49 JUMPI DUP1 PUSH1 0x1F LT PUSH2 0xE1E JUMPI PUSH2 0x100 DUP1 DUP4 SLOAD DIV MUL DUP4 MSTORE SWAP2 PUSH1 0x20 ADD SWAP2 PUSH2 0xE49 JUMP JUMPDEST DUP3 ADD SWAP2 SWAP1 PUSH1 0x0 MSTORE PUSH1 0x20 PUSH1 0x0 KECCAK256 SWAP1 JUMPDEST DUP2 SLOAD DUP2 MSTORE SWAP1 PUSH1 0x1 ADD SWAP1 PUSH1 0x20 ADD DUP1 DUP4 GT PUSH2 0xE2C JUMPI DUP3 SWAP1 SUB PUSH1 0x1F AND DUP3 ADD SWAP2 JUMPDEST POP POP POP POP POP DUP2 JUMP JUMPDEST PUSH1 0x40 DUP1 MLOAD DUP1 DUP3 ADD DUP3 MSTORE PUSH1 0x5 DUP2 MSTORE PUSH5 0x37BBB732B9 PUSH1 0xD9 SHL PUSH1 0x20 DUP3 ADD MSTORE PUSH1 0x8 SLOAD SWAP2 MLOAD PUSH4 0xC3C20ED PUSH1 0xE0 SHL DUP2 MSTORE PUSH1 0x1 PUSH1 0x1 PUSH1 0xA0 SHL SUB DUP6 DUP2 AND PUSH1 0x4 DUP4 ADD MSTORE PUSH1 0x0 SWAP4 DUP5 SWAP4 PUSH2 0xEAA SWAP4 SWAP1 SWAP3 PUSH2 0x34B SWAP3 AND SWAP1 PUSH4 0xC3C20ED SWAP1 PUSH1 0x24 ADD PUSH2 0x301 JUMP JUMPDEST PUSH1 0x40 DUP1 MLOAD DUP1 DUP3 ADD DUP3 MSTORE PUSH1 0x7 DUP2 MSTORE PUSH7 0x39B832B73232B9 PUSH1 0xC9 SHL PUSH1 0x20 DUP3 ADD MSTORE PUSH1 0x8 SLOAD SWAP2 MLOAD PUSH4 0xC3C20ED PUSH1 0xE0 SHL DUP2 MSTORE PUSH1 0x1 PUSH1 0x1 PUSH1 0xA0 SHL SUB DUP8 DUP2 AND PUSH1 0x4 DUP4 ADD MSTORE SWAP4 SWAP5 POP PUSH1 0x0 SWAP4 PUSH2 0xF05 SWAP4 PUSH2 0x34B SWAP3 SWAP2 AND SWAP1 PUSH4 0xC3C20ED SWAP1 PUSH1 0x24 ADD PUSH2 0x301 JUMP JUMPDEST SWAP1 POP PUSH1 0x0 PUSH2 0xF58 PUSH2 0x3F4 PUSH1 0x40 MLOAD DUP1 PUSH1 0x40 ADD PUSH1 0x40 MSTORE DUP1 PUSH1 0x9 DUP2 MSTORE PUSH1 0x20 ADD PUSH9 0x616C6C6F77616E6365 PUSH1 0xB8 SHL DUP2 MSTORE POP PUSH2 0x34B PUSH2 0x3F4 DUP8 DUP8 PUSH1 0x40 MLOAD DUP1 PUSH1 0x40 ADD PUSH1 0x40 MSTORE DUP1 PUSH1 0x1 DUP2 MSTORE PUSH1 0x20 ADD PUSH1 0xB PUSH1 0xFA SHL DUP2 MSTORE POP PUSH2 0x118A JUMP JUMPDEST PUSH1 0x6 SLOAD PUSH1 0x40 MLOAD PUSH4 0x6D81D29 PUSH1 0xE0 SHL DUP2 MSTORE SWAP2 SWAP3 POP PUSH1 0x0 SWAP2 PUSH1 0x1 PUSH1 0x1 PUSH1 0xA0 SHL SUB SWAP1 SWAP2 AND SWAP1 PUSH4 0x6D81D29 SWAP1 PUSH2 0xF91 SWAP1 PUSH1 0x5 SWAP1 DUP7 SWAP1 PUSH1 0x4 ADD PUSH2 0x1746 JUMP JUMPDEST PUSH1 0x0 PUSH1 0x40 MLOAD DUP1 DUP4 SUB DUP2 DUP7 GAS STATICCALL ISZERO DUP1 ISZERO PUSH2 0xFAE JUMPI RETURNDATASIZE PUSH1 0x0 DUP1 RETURNDATACOPY RETURNDATASIZE PUSH1 0x0 REVERT JUMPDEST POP POP POP POP PUSH1 0x40 MLOAD RETURNDATASIZE PUSH1 0x0 DUP3 RETURNDATACOPY PUSH1 0x1F RETURNDATASIZE SWAP1 DUP2 ADD PUSH1 0x1F NOT AND DUP3 ADD PUSH1 0x40 MSTORE PUSH2 0xFD6 SWAP2 SWAP1 DUP2 ADD SWAP1 PUSH2 0x1630 JUMP JUMPDEST PUSH1 0x7 SLOAD PUSH1 0x40 MLOAD PUSH4 0x2D2AC4C1 PUSH1 0xE1 SHL DUP2 MSTORE SWAP2 SWAP3 POP PUSH1 0x1 PUSH1 0x1 PUSH1 0xA0 SHL SUB AND SWAP1 PUSH4 0x5A558982 SWAP1 PUSH2 0x1007 SWAP1 DUP5 SWAP1 PUSH1 0x4 ADD PUSH2 0x1864 JUMP JUMPDEST PUSH1 0x20 PUSH1 0x40 MLOAD DUP1 DUP4 SUB DUP2 DUP7 GAS STATICCALL ISZERO DUP1 ISZERO PUSH2 0x1024 JUMPI RETURNDATASIZE PUSH1 0x0 DUP1 RETURNDATACOPY RETURNDATASIZE PUSH1 0x0 REVERT JUMPDEST POP POP POP POP PUSH1 0x40 MLOAD RETURNDATASIZE PUSH1 0x1F NOT PUSH1 0x1F DUP3 ADD AND DUP3 ADD DUP1 PUSH1 0x40 MSTORE POP DUP2 ADD SWAP1 PUSH2 0x1048 SWAP2 SWAP1 PUSH2 0x17BD JUMP JUMPDEST SWAP8 SWAP7 POP POP POP POP POP POP POP JUMP JUMPDEST PUSH1 0x60 DUP2 PUSH1 0x40 MLOAD PUSH1 0x20 ADD PUSH2 0x1066 SWAP2 SWAP1 PUSH2 0x18A2 JUMP JUMPDEST PUSH1 0x40 DUP1 MLOAD PUSH1 0x1F NOT DUP2 DUP5 SUB ADD DUP2 MSTORE SWAP1 DUP3 SWAP1 MSTORE PUSH2 0x1083 SWAP2 PUSH1 0x20 ADD PUSH2 0x18C7 JUMP JUMPDEST PUSH1 0x40 MLOAD PUSH1 0x20 DUP2 DUP4 SUB SUB DUP2 MSTORE SWAP1 PUSH1 0x40 MSTORE SWAP1 POP SWAP2 SWAP1 POP JUMP JUMPDEST PUSH1 0x60 PUSH2 0x10E3 PUSH2 0x10A7 DUP5 PUSH2 0x1053 JUMP JUMPDEST DUP4 PUSH1 0x40 MLOAD DUP1 PUSH1 0x40 ADD PUSH1 0x40 MSTORE DUP1 PUSH1 0x1 DUP2 MSTORE PUSH1 0x20 ADD PUSH32 0x3A00000000000000000000000000000000000000000000000000000000000000 DUP2 MSTORE POP PUSH2 0x118A JUMP JUMPDEST SWAP4 SWAP3 POP POP POP JUMP JUMPDEST PUSH1 0x60 PUSH1 0x0 PUSH2 0x10F7 DUP4 PUSH2 0x1357 JUMP JUMPDEST PUSH1 0x1 ADD SWAP1 POP PUSH1 0x0 DUP2 PUSH8 0xFFFFFFFFFFFFFFFF DUP2 GT ISZERO PUSH2 0x1117 JUMPI PUSH2 0x1117 PUSH2 0x15A6 JUMP JUMPDEST PUSH1 0x40 MLOAD SWAP1 DUP1 DUP3 MSTORE DUP1 PUSH1 0x1F ADD PUSH1 0x1F NOT AND PUSH1 0x20 ADD DUP3 ADD PUSH1 0x40 MSTORE DUP1 ISZERO PUSH2 0x1141 JUMPI PUSH1 0x20 DUP3 ADD DUP2 DUP1 CALLDATASIZE DUP4 CALLDATACOPY ADD SWAP1 POP JUMPDEST POP SWAP1 POP DUP2 DUP2 ADD PUSH1 0x20 ADD JUMPDEST PUSH1 0x0 NOT ADD PUSH32 0x3031323334353637383961626364656600000000000000000000000000000000 PUSH1 0xA DUP7 MOD BYTE DUP2 MSTORE8 PUSH1 0xA DUP6 DIV SWAP5 POP DUP5 PUSH2 0x114B JUMPI POP SWAP4 SWAP3 POP POP POP JUMP JUMPDEST PUSH1 0x60 DUP4 DUP3 DUP5 PUSH1 0x40 MLOAD PUSH1 0x20 ADD PUSH2 0x11A0 SWAP3 SWAP2 SWAP1 PUSH2 0x18F0 JUMP JUMPDEST PUSH1 0x40 DUP1 MLOAD PUSH1 0x1F NOT DUP2 DUP5 SUB ADD DUP2 MSTORE SWAP1 DUP3 SWAP1 MSTORE PUSH2 0x11BE SWAP3 SWAP2 PUSH1 0x20 ADD PUSH2 0x18F0 JUMP JUMPDEST PUSH1 0x40 MLOAD PUSH1 0x20 DUP2 DUP4 SUB SUB DUP2 MSTORE SWAP1 PUSH1 0x40 MSTORE SWAP1 POP SWAP4 SWAP3 POP POP POP JUMP JUMPDEST PUSH1 0x60 DUP2 PUSH1 0x40 MLOAD PUSH1 0x20 ADD PUSH2 0x11E9 SWAP2 SWAP1 PUSH2 0x191F JUMP JUMPDEST PUSH1 0x40 DUP1 MLOAD PUSH1 0x1F NOT DUP2 DUP5 SUB ADD DUP2 MSTORE SWAP1 DUP3 SWAP1 MSTORE PUSH2 0x1083 SWAP2 PUSH1 0x20 ADD PUSH2 0x1960 JUMP JUMPDEST PUSH1 0x60 PUSH1 0x0 DUP1 PUSH2 0x1002 PUSH1 0x1 PUSH1 0x1 PUSH1 0xA0 SHL SUB AND PUSH1 0x5 DUP6 PUSH1 0x40 MLOAD DUP1 PUSH1 0x40 ADD PUSH1 0x40 MSTORE DUP1 PUSH1 0x2 DUP2 MSTORE PUSH1 0x20 ADD PUSH32 0x5B5D000000000000000000000000000000000000000000000000000000000000 DUP2 MSTORE POP PUSH1 0x40 MLOAD PUSH1 0x24 ADD PUSH2 0x1262 SWAP4 SWAP3 SWAP2 SWAP1 PUSH2 0x1998 JUMP JUMPDEST PUSH1 0x40 DUP1 MLOAD PUSH1 0x1F NOT DUP2 DUP5 SUB ADD DUP2 MSTORE SWAP2 DUP2 MSTORE PUSH1 0x20 DUP3 ADD DUP1 MLOAD PUSH28 0xFFFFFFFFFFFFFFFFFFFFFFFFFFFFFFFFFFFFFFFFFFFFFFFFFFFFFFFF AND PUSH32 0x44D227AE00000000000000000000000000000000000000000000000000000000 OR SWAP1 MSTORE MLOAD PUSH2 0x12C5 SWAP2 SWAP1 PUSH2 0x19DB JUMP JUMPDEST PUSH1 0x0 PUSH1 0x40 MLOAD DUP1 DUP4 SUB DUP2 DUP6 GAS DELEGATECALL SWAP2 POP POP RETURNDATASIZE DUP1 PUSH1 0x0 DUP2 EQ PUSH2 0x1300 JUMPI PUSH1 0x40 MLOAD SWAP2 POP PUSH1 0x1F NOT PUSH1 0x3F RETURNDATASIZE ADD AND DUP3 ADD PUSH1 0x40 MSTORE RETURNDATASIZE DUP3 MSTORE RETURNDATASIZE PUSH1 0x0 PUSH1 0x20 DUP5 ADD RETURNDATACOPY PUSH2 0x1305 JUMP JUMPDEST PUSH1 0x60 SWAP2 POP JUMPDEST POP SWAP2 POP SWAP2 POP DUP2 PUSH2 0x10E3 JUMPI PUSH1 0x40 MLOAD PUSH3 0x461BCD PUSH1 0xE5 SHL DUP2 MSTORE PUSH1 0x20 PUSH1 0x4 DUP3 ADD MSTORE PUSH1 0x17 PUSH1 0x24 DUP3 ADD MSTORE PUSH32 0x436F736D5761736D2065786563757465206661696C6564000000000000000000 PUSH1 0x44 DUP3 ADD MSTORE PUSH1 0x64 ADD PUSH2 0x70D JUMP JUMPDEST PUSH1 0x0 DUP1 PUSH27 0x184F03E93FF9F4DAA797ED6E38ED64BF6A1F010000000000000000 DUP4 LT PUSH2 0x13A0 JUMPI PUSH27 0x184F03E93FF9F4DAA797ED6E38ED64BF6A1F010000000000000000 DUP4 DIV SWAP3 POP PUSH1 0x40 ADD JUMPDEST PUSH14 0x4EE2D6D415B85ACEF8100000000 DUP4 LT PUSH2 0x13CC JUMPI PUSH14 0x4EE2D6D415B85ACEF8100000000 DUP4 DIV SWAP3 POP PUSH1 0x20 ADD JUMPDEST PUSH7 0x2386F26FC10000 DUP4 LT PUSH2 0x13EA JUMPI PUSH7 0x2386F26FC10000 DUP4 DIV SWAP3 POP PUSH1 0x10 ADD JUMPDEST PUSH4 0x5F5E100 DUP4 LT PUSH2 0x1402 JUMPI PUSH4 0x5F5E100 DUP4 DIV SWAP3 POP PUSH1 0x8 ADD JUMPDEST PUSH2 0x2710 DUP4 LT PUSH2 0x1416 JUMPI PUSH2 0x2710 DUP4 DIV SWAP3 POP PUSH1 0x4 ADD JUMPDEST PUSH1 0x64 DUP4 LT PUSH2 0x1428 JUMPI PUSH1 0x64 DUP4 DIV SWAP3 POP PUSH1 0x2 ADD JUMPDEST PUSH1 0xA DUP4 LT PUSH2 0x564 JUMPI PUSH1 0x1 ADD SWAP3 SWAP2 POP POP JUMP JUMPDEST PUSH1 0x0 JUMPDEST DUP4 DUP2 LT ISZERO PUSH2 0x1454 JUMPI DUP2 DUP2 ADD MLOAD DUP4 DUP3 ADD MSTORE PUSH1 0x20 ADD PUSH2 0x143C JUMP JUMPDEST POP POP PUSH1 0x0 SWAP2 ADD MSTORE JUMP JUMPDEST PUSH1 0x0 DUP2 MLOAD DUP1 DUP5 MSTORE PUSH2 0x1475 DUP2 PUSH1 0x20 DUP7 ADD PUSH1 0x20 DUP7 ADD PUSH2 0x1439 JUMP JUMPDEST PUSH1 0x1F ADD PUSH1 0x1F NOT AND SWAP3 SWAP1 SWAP3 ADD PUSH1 0x20 ADD SWAP3 SWAP2 POP POP JUMP JUMPDEST PUSH1 0x20 DUP2 MSTORE PUSH1 0x0 PUSH2 0x10E3 PUSH1 0x20 DUP4 ADD DUP5 PUSH2 0x145D JUMP JUMPDEST DUP1 CALLDATALOAD PUSH1 0x1 PUSH1 0x1 PUSH1 0xA0 SHL SUB DUP2 AND DUP2 EQ PUSH2 0x14B3 JUMPI PUSH1 0x0 DUP1 REVERT JUMPDEST SWAP2 SWAP1 POP JUMP JUMPDEST PUSH1 0x0 DUP1 PUSH1 0x40 DUP4 DUP6 SUB SLT ISZERO PUSH2 0x14CB JUMPI PUSH1 0x0 DUP1 REVERT JUMPDEST PUSH2 0x14D4 DUP4 PUSH2 0x149C JUMP JUMPDEST SWAP5 PUSH1 0x20 SWAP4 SWAP1 SWAP4 ADD CALLDATALOAD SWAP4 POP POP POP JUMP JUMPDEST PUSH1 0x0 DUP1 PUSH1 0x0 PUSH1 0x60 DUP5 DUP7 SUB SLT ISZERO PUSH2 0x14F7 JUMPI PUSH1 0x0 DUP1 REVERT JUMPDEST PUSH2 0x1500 DUP5 PUSH2 0x149C JUMP JUMPDEST SWAP3 POP PUSH2 0x150E PUSH1 0x20 DUP6 ADD PUSH2 0x149C JUMP JUMPDEST SWAP2 POP PUSH1 0x40 DUP5 ADD CALLDATALOAD SWAP1 POP SWAP3 POP SWAP3 POP SWAP3 JUMP JUMPDEST PUSH1 0x0 PUSH1 0x20 DUP3 DUP5 SUB SLT ISZERO PUSH2 0x1530 JUMPI PUSH1 0x0 DUP1 REVERT JUMPDEST PUSH2 0x10E3 DUP3 PUSH2 0x149C JUMP JUMPDEST PUSH1 0x0 DUP1 PUSH1 0x40 DUP4 DUP6 SUB SLT ISZERO PUSH2 0x154C JUMPI PUSH1 0x0 DUP1 REVERT JUMPDEST PUSH2 0x1555 DUP4 PUSH2 0x149C JUMP JUMPDEST SWAP2 POP PUSH2 0x1563 PUSH1 0x20 DUP5 ADD PUSH2 0x149C JUMP JUMPDEST SWAP1 POP SWAP3 POP SWAP3 SWAP1 POP JUMP JUMPDEST PUSH1 0x1 DUP2 DUP2 SHR SWAP1 DUP3 AND DUP1 PUSH2 0x1580 JUMPI PUSH1 0x7F DUP3 AND SWAP2 POP JUMPDEST PUSH1 0x20 DUP3 LT DUP2 SUB PUSH2 0x15A0 JUMPI PUSH4 0x4E487B71 PUSH1 0xE0 SHL PUSH1 0x0 MSTORE PUSH1 0x22 PUSH1 0x4 MSTORE PUSH1 0x24 PUSH1 0x0 REVERT JUMPDEST POP SWAP2 SWAP1 POP JUMP JUMPDEST PUSH4 0x4E487B71 PUSH1 0xE0 SHL PUSH1 0x0 MSTORE PUSH1 0x41 PUSH1 0x4 MSTORE PUSH1 0x24 PUSH1 0x0 REVERT JUMPDEST PUSH1 0x0 PUSH8 0xFFFFFFFFFFFFFFFF DUP1 DUP5 GT ISZERO PUSH2 0x15D7 JUMPI PUSH2 0x15D7 PUSH2 0x15A6 JUMP JUMPDEST PUSH1 0x40 MLOAD PUSH1 0x1F DUP6 ADD PUSH1 0x1F NOT SWAP1 DUP2 AND PUSH1 0x3F ADD AND DUP2 ADD SWAP1 DUP3 DUP3 GT DUP2 DUP4 LT OR ISZERO PUSH2 0x15FF JUMPI PUSH2 0x15FF PUSH2 0x15A6 JUMP JUMPDEST DUP2 PUSH1 0x40 MSTORE DUP1 SWAP4 POP DUP6 DUP2 MSTORE DUP7 DUP7 DUP7 ADD GT ISZERO PUSH2 0x1618 JUMPI PUSH1 0x0 DUP1 REVERT JUMPDEST PUSH2 0x1626 DUP7 PUSH1 0x20 DUP4 ADD DUP8 PUSH2 0x1439 JUMP JUMPDEST POP POP POP SWAP4 SWAP3 POP POP POP JUMP JUMPDEST PUSH1 0x0 PUSH1 0x20 DUP3 DUP5 SUB SLT ISZERO PUSH2 0x1642 JUMPI PUSH1 0x0 DUP1 REVERT JUMPDEST DUP2 MLOAD PUSH8 0xFFFFFFFFFFFFFFFF DUP2 GT ISZERO PUSH2 0x1659 JUMPI PUSH1 0x0 DUP1 REVERT JUMPDEST DUP3 ADD PUSH1 0x1F DUP2 ADD DUP5 SGT PUSH2 0x166A JUMPI PUSH1 0x0 DUP1 REVERT JUMPDEST PUSH2 0x1679 DUP5 DUP3 MLOAD PUSH1 0x20 DUP5 ADD PUSH2 0x15BC JUMP JUMPDEST SWAP5 SWAP4 POP POP POP POP JUMP JUMPDEST DUP2 DUP2 SUB DUP2 DUP2 GT ISZERO PUSH2 0x564 JUMPI PUSH4 0x4E487B71 PUSH1 0xE0 SHL PUSH1 0x0 MSTORE PUSH1 0x11 PUSH1 0x4 MSTORE PUSH1 0x24 PUSH1 0x0 REVERT JUMPDEST DUP1 SLOAD PUSH1 0x0 SWAP1 PUSH1 0x1 DUP2 DUP2 SHR SWAP1 DUP1 DUP4 AND DUP1 PUSH2 0x16BC JUMPI PUSH1 0x7F DUP4 AND SWAP3 POP JUMPDEST PUSH1 0x20 DUP1 DUP5 LT DUP3 SUB PUSH2 0x16DD JUMPI PUSH4 0x4E487B71 PUSH1 0xE0 SHL PUSH1 0x0 MSTORE PUSH1 0x22 PUSH1 0x4 MSTORE PUSH1 0x24 PUSH1 0x0 REVERT JUMPDEST DUP4 DUP9 MSTORE PUSH1 0x20 DUP9 ADD DUP3 DUP1 ISZERO PUSH2 0x16F8 JUMPI PUSH1 0x1 DUP2 EQ PUSH2 0x170E JUMPI PUSH2 0x1739 JUMP JUMPDEST PUSH1 0xFF NOT DUP8 AND DUP3 MSTORE DUP6 ISZERO ISZERO PUSH1 0x5 SHL DUP3 ADD SWAP8 POP PUSH2 0x1739 JUMP JUMPDEST PUSH1 0x0 DUP10 DUP2 MSTORE PUSH1 0x20 SWAP1 KECCAK256 PUSH1 0x0 JUMPDEST DUP8 DUP2 LT ISZERO PUSH2 0x1733 JUMPI DUP2 SLOAD DUP5 DUP3 ADD MSTORE SWAP1 DUP7 ADD SWAP1 DUP5 ADD PUSH2 0x171A JUMP JUMPDEST DUP4 ADD SWAP9 POP POP JUMPDEST POP POP POP POP POP POP POP SWAP3 SWAP2 POP POP JUMP JUMPDEST PUSH1 0x40 DUP2 MSTORE PUSH1 0x0 PUSH2 0x1759 PUSH1 0x40 DUP4 ADD DUP6 PUSH2 0x16A2 JUMP JUMPDEST DUP3 DUP2 SUB PUSH1 0x20 DUP5 ADD MSTORE PUSH2 0xBFA DUP2 DUP6 PUSH2 0x145D JUMP JUMPDEST PUSH1 0x40 DUP2 MSTORE PUSH1 0x0 PUSH2 0x177E PUSH1 0x40 DUP4 ADD DUP5 PUSH2 0x145D JUMP JUMPDEST DUP3 DUP2 SUB PUSH1 0x20 DUP5 ADD MSTORE PUSH1 0xC DUP2 MSTORE PUSH32 0x746F74616C5F737570706C790000000000000000000000000000000000000000 PUSH1 0x20 DUP3 ADD MSTORE PUSH1 0x40 DUP2 ADD SWAP2 POP POP SWAP3 SWAP2 POP POP JUMP JUMPDEST PUSH1 0x0 PUSH1 0x20 DUP3 DUP5 SUB SLT ISZERO PUSH2 0x17CF JUMPI PUSH1 0x0 DUP1 REVERT JUMPDEST POP MLOAD SWAP2 SWAP1 POP JUMP JUMPDEST PUSH1 0x40 DUP2 MSTORE PUSH1 0x0 PUSH2 0x17E9 PUSH1 0x40 DUP4 ADD DUP5 PUSH2 0x145D JUMP JUMPDEST DUP3 DUP2 SUB PUSH1 0x20 DUP5 ADD MSTORE PUSH1 0x8 DUP2 MSTORE PUSH32 0x646563696D616C73000000000000000000000000000000000000000000000000 PUSH1 0x20 DUP3 ADD MSTORE PUSH1 0x40 DUP2 ADD SWAP2 POP POP SWAP3 SWAP2 POP POP JUMP JUMPDEST PUSH1 0x40 DUP2 MSTORE PUSH1 0x0 PUSH2 0x183B PUSH1 0x40 DUP4 ADD DUP5 PUSH2 0x145D JUMP JUMPDEST DUP3 DUP2 SUB PUSH1 0x20 DUP5 ADD MSTORE PUSH1 0x7 DUP2 MSTORE PUSH7 0x62616C616E6365 PUSH1 0xC8 SHL PUSH1 0x20 DUP3 ADD MSTORE PUSH1 0x40 DUP2 ADD SWAP2 POP POP SWAP3 SWAP2 POP POP JUMP JUMPDEST PUSH1 0x40 DUP2 MSTORE PUSH1 0x0 PUSH2 0x1877 PUSH1 0x40 DUP4 ADD DUP5 PUSH2 0x145D JUMP JUMPDEST DUP3 DUP2 SUB PUSH1 0x20 DUP5 ADD MSTORE PUSH1 0x9 DUP2 MSTORE PUSH9 0x616C6C6F77616E6365 PUSH1 0xB8 SHL PUSH1 0x20 DUP3 ADD MSTORE PUSH1 0x40 DUP2 ADD SWAP2 POP POP SWAP3 SWAP2 POP POP JUMP JUMPDEST PUSH1 0x0 DUP3 MLOAD PUSH2 0x18B4 DUP2 DUP5 PUSH1 0x20 DUP8 ADD PUSH2 0x1439 JUMP JUMPDEST PUSH1 0x11 PUSH1 0xF9 SHL SWAP3 ADD SWAP2 DUP3 MSTORE POP PUSH1 0x1 ADD SWAP2 SWAP1 POP JUMP JUMPDEST PUSH1 0x11 PUSH1 0xF9 SHL DUP2 MSTORE PUSH1 0x0 DUP3 MLOAD PUSH2 0x18E3 DUP2 PUSH1 0x1 DUP6 ADD PUSH1 0x20 DUP8 ADD PUSH2 0x1439 JUMP JUMPDEST SWAP2 SWAP1 SWAP2 ADD PUSH1 0x1 ADD SWAP3 SWAP2 POP POP JUMP JUMPDEST PUSH1 0x0 DUP4 MLOAD PUSH2 0x1902 DUP2 DUP5 PUSH1 0x20 DUP9 ADD PUSH2 0x1439 JUMP JUMPDEST DUP4 MLOAD SWAP1 DUP4 ADD SWAP1 PUSH2 0x1916 DUP2 DUP4 PUSH1 0x20 DUP9 ADD PUSH2 0x1439 JUMP JUMPDEST ADD SWAP5 SWAP4 POP POP POP POP JUMP JUMPDEST PUSH1 0x0 DUP3 MLOAD PUSH2 0x1931 DUP2 DUP5 PUSH1 0x20 DUP8 ADD PUSH2 0x1439 JUMP JUMPDEST PUSH32 0x7D00000000000000000000000000000000000000000000000000000000000000 SWAP3 ADD SWAP2 DUP3 MSTORE POP PUSH1 0x1 ADD SWAP2 SWAP1 POP JUMP JUMPDEST PUSH32 0x7B00000000000000000000000000000000000000000000000000000000000000 DUP2 MSTORE PUSH1 0x0 DUP3 MLOAD PUSH2 0x18E3 DUP2 PUSH1 0x1 DUP6 ADD PUSH1 0x20 DUP8 ADD PUSH2 0x1439 JUMP JUMPDEST PUSH1 0x60 DUP2 MSTORE PUSH1 0x0 PUSH2 0x19AB PUSH1 0x60 DUP4 ADD DUP7 PUSH2 0x16A2 JUMP JUMPDEST DUP3 DUP2 SUB PUSH1 0x20 DUP5 ADD MSTORE PUSH2 0x19BD DUP2 DUP7 PUSH2 0x145D JUMP JUMPDEST SWAP1 POP DUP3 DUP2 SUB PUSH1 0x40 DUP5 ADD MSTORE PUSH2 0x19D1 DUP2 DUP6 PUSH2 0x145D JUMP JUMPDEST SWAP7 SWAP6 POP POP POP POP POP POP JUMP JUMPDEST PUSH1 0x0 DUP3 MLOAD PUSH2 0x19ED DUP2 DUP5 PUSH1 0x20 DUP8 ADD PUSH2 0x1439 JUMP JUMPDEST SWAP2 SWAP1 SWAP2 ADD SWAP3 SWAP2 POP POP JUMP INVALID LOG2 PUSH5 0x6970667358 0x22 SLT KECCAK256 0x28 JUMPI PUSH21 0x84573BF14CD4537537E6EDFA322678E14A3860B876 0xCD PREVRANDAO 0xCC PUSH16 0x83A2093964736F6C6343000814003300 "},"methodIdentifiers":{"AddrPrecompile()":"c2aed302","Cw20Address()":"da73d16b","JsonPrecompile()":"de4725cc","WasmdPrecompile()":"f00b0255","allowance(address,address)":"dd62ed3e","approve(address,uint256)":"095ea7b3","balanceOf(address)":"70a08231","decimals()":"313ce567","name()":"06fdde03","symbol()":"95d89b41","totalSupply()":"18160ddd","transfer(address,uint256)":"a9059cbb","transferFrom(address,address,uint256)":"23b872dd"}}}}}