{
  "_format": "hh-sol-artifact-1",
  "contractName": "ERC1155Example",
  "sourceName": "contracts/src/ERC1155.sol",
  "abi": [
    {
      "inputs": [],
      "stateMutability": "nonpayable",
      "type": "constructor"
    },
    {
      "inputs": [
        {
          "internalType": "address",
          "name": "sender",
          "type": "address"
        },
        {
          "internalType": "uint256",
          "name": "balance",
          "type": "uint256"
        },
        {
          "internalType": "uint256",
          "name": "needed",
          "type": "uint256"
        },
        {
          "internalType": "uint256",
          "name": "tokenId",
          "type": "uint256"
        }
      ],
      "name": "ERC1155InsufficientBalance",
      "type": "error"
    },
    {
      "inputs": [
        {
          "internalType": "address",
          "name": "approver",
          "type": "address"
        }
      ],
      "name": "ERC1155InvalidApprover",
      "type": "error"
    },
    {
      "inputs": [
        {
          "internalType": "uint256",
          "name": "idsLength",
          "type": "uint256"
        },
        {
          "internalType": "uint256",
          "name": "valuesLength",
          "type": "uint256"
        }
      ],
      "name": "ERC1155InvalidArrayLength",
      "type": "error"
    },
    {
      "inputs": [
        {
          "internalType": "address",
          "name": "operator",
          "type": "address"
        }
      ],
      "name": "ERC1155InvalidOperator",
      "type": "error"
    },
    {
      "inputs": [
        {
          "internalType": "address",
          "name": "receiver",
          "type": "address"
        }
      ],
      "name": "ERC1155InvalidReceiver",
      "type": "error"
    },
    {
      "inputs": [
        {
          "internalType": "address",
          "name": "sender",
          "type": "address"
        }
      ],
      "name": "ERC1155InvalidSender",
      "type": "error"
    },
    {
      "inputs": [
        {
          "internalType": "address",
          "name": "operator",
          "type": "address"
        },
        {
          "internalType": "address",
          "name": "owner",
          "type": "address"
        }
      ],
      "name": "ERC1155MissingApprovalForAll",
      "type": "error"
    },
    {
      "inputs": [
        {
          "internalType": "uint256",
          "name": "numerator",
          "type": "uint256"
        },
        {
          "internalType": "uint256",
          "name": "denominator",
          "type": "uint256"
        }
      ],
      "name": "ERC2981InvalidDefaultRoyalty",
      "type": "error"
    },
    {
      "inputs": [
        {
          "internalType": "address",
          "name": "receiver",
          "type": "address"
        }
      ],
      "name": "ERC2981InvalidDefaultRoyaltyReceiver",
      "type": "error"
    },
    {
      "inputs": [
        {
          "internalType": "uint256",
          "name": "tokenId",
          "type": "uint256"
        },
        {
          "internalType": "uint256",
          "name": "numerator",
          "type": "uint256"
        },
        {
          "internalType": "uint256",
          "name": "denominator",
          "type": "uint256"
        }
      ],
      "name": "ERC2981InvalidTokenRoyalty",
      "type": "error"
    },
    {
      "inputs": [
        {
          "internalType": "uint256",
          "name": "tokenId",
          "type": "uint256"
        },
        {
          "internalType": "address",
          "name": "receiver",
          "type": "address"
        }
      ],
      "name": "ERC2981InvalidTokenRoyaltyReceiver",
      "type": "error"
    },
    {
      "anonymous": false,
      "inputs": [
        {
          "indexed": true,
          "internalType": "address",
          "name": "account",
          "type": "address"
        },
        {
          "indexed": true,
          "internalType": "address",
          "name": "operator",
          "type": "address"
        },
        {
          "indexed": false,
          "internalType": "bool",
          "name": "approved",
          "type": "bool"
        }
      ],
      "name": "ApprovalForAll",
      "type": "event"
    },
    {
      "anonymous": false,
      "inputs": [
        {
          "indexed": true,
          "internalType": "address",
          "name": "operator",
          "type": "address"
        },
        {
          "indexed": true,
          "internalType": "address",
          "name": "from",
          "type": "address"
        },
        {
          "indexed": true,
          "internalType": "address",
          "name": "to",
          "type": "address"
        },
        {
          "indexed": false,
          "internalType": "uint256[]",
          "name": "ids",
          "type": "uint256[]"
        },
        {
          "indexed": false,
          "internalType": "uint256[]",
          "name": "values",
          "type": "uint256[]"
        }
      ],
      "name": "TransferBatch",
      "type": "event"
    },
    {
      "anonymous": false,
      "inputs": [
        {
          "indexed": true,
          "internalType": "address",
          "name": "operator",
          "type": "address"
        },
        {
          "indexed": true,
          "internalType": "address",
          "name": "from",
          "type": "address"
        },
        {
          "indexed": true,
          "internalType": "address",
          "name": "to",
          "type": "address"
        },
        {
          "indexed": false,
          "internalType": "uint256",
          "name": "id",
          "type": "uint256"
        },
        {
          "indexed": false,
          "internalType": "uint256",
          "name": "value",
          "type": "uint256"
        }
      ],
      "name": "TransferSingle",
      "type": "event"
    },
    {
      "anonymous": false,
      "inputs": [
        {
          "indexed": false,
          "internalType": "string",
          "name": "value",
          "type": "string"
        },
        {
          "indexed": true,
          "internalType": "uint256",
          "name": "id",
          "type": "uint256"
        }
      ],
      "name": "URI",
      "type": "event"
    },
    {
      "inputs": [
        {
          "internalType": "address",
          "name": "account",
          "type": "address"
        },
        {
          "internalType": "uint256",
          "name": "id",
          "type": "uint256"
        }
      ],
      "name": "balanceOf",
      "outputs": [
        {
          "internalType": "uint256",
          "name": "",
          "type": "uint256"
        }
      ],
      "stateMutability": "view",
      "type": "function"
    },
    {
      "inputs": [
        {
          "internalType": "address[]",
          "name": "accounts",
          "type": "address[]"
        },
        {
          "internalType": "uint256[]",
          "name": "ids",
          "type": "uint256[]"
        }
      ],
      "name": "balanceOfBatch",
      "outputs": [
        {
          "internalType": "uint256[]",
          "name": "",
          "type": "uint256[]"
        }
      ],
      "stateMutability": "view",
      "type": "function"
    },
    {
      "inputs": [
        {
          "internalType": "uint256",
          "name": "id",
          "type": "uint256"
        }
      ],
      "name": "exists",
      "outputs": [
        {
          "internalType": "bool",
          "name": "",
          "type": "bool"
        }
      ],
      "stateMutability": "view",
      "type": "function"
    },
    {
      "inputs": [
        {
          "internalType": "address",
          "name": "account",
          "type": "address"
        },
        {
          "internalType": "address",
          "name": "operator",
          "type": "address"
        }
      ],
      "name": "isApprovedForAll",
      "outputs": [
        {
          "internalType": "bool",
          "name": "",
          "type": "bool"
        }
      ],
      "stateMutability": "view",
      "type": "function"
    },
    {
      "inputs": [
        {
          "internalType": "address",
          "name": "recipient",
          "type": "address"
        },
        {
          "internalType": "uint256",
          "name": "startId",
          "type": "uint256"
        }
      ],
      "name": "mintForTest",
      "outputs": [],
      "stateMutability": "nonpayable",
      "type": "function"
    },
    {
      "inputs": [],
      "name": "name",
      "outputs": [
        {
          "internalType": "string",
          "name": "",
          "type": "string"
        }
      ],
      "stateMutability": "view",
      "type": "function"
    },
    {
      "inputs": [
        {
          "internalType": "uint256",
          "name": "tokenId",
          "type": "uint256"
        },
        {
          "internalType": "uint256",
          "name": "salePrice",
          "type": "uint256"
        }
      ],
      "name": "royaltyInfo",
      "outputs": [
        {
          "internalType": "address",
          "name": "receiver",
          "type": "address"
        },
        {
          "internalType": "uint256",
          "name": "amount",
          "type": "uint256"
        }
      ],
      "stateMutability": "view",
      "type": "function"
    },
    {
      "inputs": [
        {
          "internalType": "address",
          "name": "from",
          "type": "address"
        },
        {
          "internalType": "address",
          "name": "to",
          "type": "address"
        },
        {
          "internalType": "uint256[]",
          "name": "ids",
          "type": "uint256[]"
        },
        {
          "internalType": "uint256[]",
          "name": "values",
          "type": "uint256[]"
        },
        {
          "internalType": "bytes",
          "name": "data",
          "type": "bytes"
        }
      ],
      "name": "safeBatchTransferFrom",
      "outputs": [],
      "stateMutability": "nonpayable",
      "type": "function"
    },
    {
      "inputs": [
        {
          "internalType": "address",
          "name": "from",
          "type": "address"
        },
        {
          "internalType": "address",
          "name": "to",
          "type": "address"
        },
        {
          "internalType": "uint256",
          "name": "id",
          "type": "uint256"
        },
        {
          "internalType": "uint256",
          "name": "value",
          "type": "uint256"
        },
        {
          "internalType": "bytes",
          "name": "data",
          "type": "bytes"
        }
      ],
      "name": "safeTransferFrom",
      "outputs": [],
      "stateMutability": "nonpayable",
      "type": "function"
    },
    {
      "inputs": [
        {
          "internalType": "address",
          "name": "operator",
          "type": "address"
        },
        {
          "internalType": "bool",
          "name": "approved",
          "type": "bool"
        }
      ],
      "name": "setApprovalForAll",
      "outputs": [],
      "stateMutability": "nonpayable",
      "type": "function"
    },
    {
      "inputs": [
        {
          "internalType": "address",
          "name": "receiver",
          "type": "address"
        }
      ],
      "name": "setDefaultRoyalty",
      "outputs": [],
      "stateMutability": "nonpayable",
      "type": "function"
    },
    {
      "inputs": [
        {
          "internalType": "bytes4",
          "name": "interfaceId",
          "type": "bytes4"
        }
      ],
      "name": "supportsInterface",
      "outputs": [
        {
          "internalType": "bool",
          "name": "",
          "type": "bool"
        }
      ],
      "stateMutability": "view",
      "type": "function"
    },
    {
      "inputs": [],
      "name": "symbol",
      "outputs": [
        {
          "internalType": "string",
          "name": "",
          "type": "string"
        }
      ],
      "stateMutability": "view",
      "type": "function"
    },
    {
      "inputs": [],
      "name": "totalSupply",
      "outputs": [
        {
          "internalType": "uint256",
          "name": "",
          "type": "uint256"
        }
      ],
      "stateMutability": "view",
      "type": "function"
    },
    {
      "inputs": [
        {
          "internalType": "uint256",
          "name": "id",
          "type": "uint256"
        }
      ],
      "name": "totalSupply",
      "outputs": [
        {
          "internalType": "uint256",
          "name": "",
          "type": "uint256"
        }
      ],
      "stateMutability": "view",
      "type": "function"
    },
    {
      "inputs": [
        {
          "internalType": "uint256",
          "name": "",
          "type": "uint256"
        }
      ],
      "name": "uri",
      "outputs": [
        {
          "internalType": "string",
          "name": "",
          "type": "string"
        }
      ],
      "stateMutability": "view",
      "type": "function"
    }
  ],
  "bytecode": "0x60c0604052600c60809081526b44756d6d794552433131353560a01b60a05260079061002b9082610ae4565b5060408051808201909152600581526444554d4d5960d81b60208201526008906100559082610ae4565b5060408051808201909152601881527f68747470733a2f2f6578616d706c652e636f6d2f7b69647d000000000000000060208201526009906100979082610ae4565b50600a80546001600160a01b031990811673f39fd6e51aad88f6f4ce6ab8827279cfffb9226617909155600b805490911673f39fd6e51aad88f6f4ce6ab8827279cfffb922671790553480156100eb575f80fd5b50600980546100f990610a63565b80601f016020809104026020016040519081016040528092919081815260200182805461012590610a63565b80156101705780601f1061014757610100808354040283529160200191610170565b820191905f5260205f20905b81548152906001019060200180831161015357829003601f168201915b5050505050610184816101cc60201b60201c565b50600a5461019a906001600160a01b03166101dc565b600a546101b0906001600160a01b03165f6101eb565b600b546101c7906001600160a01b031660046101eb565b610d3c565b60026101d88282610ae4565b5050565b6101e8816101f4610414565b50565b60408051600680825260e082019092525f916020820160c08036833701905050905081815f8151811061022057610220610b9f565b6020908102919091010152610236826001610bb3565b8160018151811061024957610249610b9f565b602090810291909101015261025f826002610bb3565b8160028151811061027257610272610b9f565b6020908102919091010152610288826003610bb3565b8160038151811061029b5761029b610b9f565b60209081029190910101526102b1826004610bb3565b816004815181106102c4576102c4610b9f565b60209081029190910101526102da826005610bb3565b816005815181106102ed576102ed610b9f565b602090810291909101015260408051600680825260e082019092525f91816020016020820280368337019050509050600a815f8151811061033057610330610b9f565b602002602001018181525050600b8160018151811061035157610351610b9f565b602002602001018181525050600c8160028151811061037257610372610b9f565b602002602001018181525050600d8160038151811061039357610393610b9f565b602002602001018181525050600e816004815181106103b4576103b4610b9f565b602002602001018181525050600f816005815181106103d5576103d5610b9f565b60200260200101818152505061040e8483836040518060400160405280600381526020016203078360ec1b8152506104bb60201b60201c565b50505050565b6127106001600160601b03821681101561045857604051636f483d0960e01b81526001600160601b0383166004820152602481018290526044015b60405180910390fd5b6001600160a01b03831661048157604051635b6cc80560e11b81525f600482015260240161044f565b50604080518082019091526001600160a01b039092168083526001600160601b039091166020909201829052600160a01b90910217600555565b6001600160a01b0384166104e457604051632bfa23e760e11b81525f600482015260240161044f565b61040e5f858585856104f885858585610548565b6001600160a01b038416156105415782513390600103610531576020848101519084015161052a83898985858961062f565b505061053f565b61053f818787878787610759565b505b5050505050565b61055484848484610840565b6001600160a01b0384166105d1575f805b83518110156105b85760208181028481018201519086018201515f90815260039092526040822080549192839261059d908490610bb3565b909155506105ad90508184610bb3565b925050600101610565565b508060045f8282546105ca9190610bb3565b9091555050505b6001600160a01b03831661040e575f805b835181101561061e5760208181028481018201519086018201515f908152600390925260409091208054829003905591909101906001016105e2565b506004805491909103905550505050565b6001600160a01b0384163b1561053f5760405163f23a6e6160e01b81526001600160a01b0385169063f23a6e61906106739089908990889088908890600401610c06565b6020604051808303815f875af19250505080156106ad575060408051601f3d908101601f191682019092526106aa91810190610c4a565b60015b610714573d8080156106da576040519150601f19603f3d011682016040523d82523d5f602084013e6106df565b606091505b5080515f0361070c57604051632bfa23e760e11b81526001600160a01b038616600482015260240161044f565b805160208201fd5b6001600160e01b0319811663f23a6e6160e01b1461075057604051632bfa23e760e11b81526001600160a01b038616600482015260240161044f565b50505050505050565b6001600160a01b0384163b1561053f5760405163bc197c8160e01b81526001600160a01b0385169063bc197c819061079d9089908990889088908890600401610cb2565b6020604051808303815f875af19250505080156107d7575060408051601f3d908101601f191682019092526107d491810190610c4a565b60015b610804573d8080156106da576040519150601f19603f3d011682016040523d82523d5f602084013e6106df565b6001600160e01b0319811663bc197c8160e01b1461075057604051632bfa23e760e11b81526001600160a01b038616600482015260240161044f565b805182511461086f5781518151604051635b05999160e01b81526004810192909252602482015260440161044f565b335f5b8351811015610971576020818102858101820151908501909101516001600160a01b03881615610923575f828152602081815260408083206001600160a01b038c168452909152902054818110156108fd576040516303dee4c560e01b81526001600160a01b038a16600482015260248101829052604481018390526064810184905260840161044f565b5f838152602081815260408083206001600160a01b038d16845290915290209082900390555b6001600160a01b03871615610967575f828152602081815260408083206001600160a01b038b16845290915281208054839290610961908490610bb3565b90915550505b5050600101610872565b5082516001036109f15760208301515f906020840151909150856001600160a01b0316876001600160a01b0316846001600160a01b03167fc3d58168c5ae7397731d063d5bbf3d657854427343f4c083240f7aacaa2d0f6285856040516109e2929190918252602082015260400190565b60405180910390a45050610541565b836001600160a01b0316856001600160a01b0316826001600160a01b03167f4a39dc06d4c0dbc64b70af90fd698a233a518aa5d07e595d983b8c0526c8f7fb8686604051610a40929190610d0f565b60405180910390a45050505050565b634e487b7160e01b5f52604160045260245ffd5b600181811c90821680610a7757607f821691505b602082108103610a9557634e487b7160e01b5f52602260045260245ffd5b50919050565b601f821115610adf57805f5260205f20601f840160051c81016020851015610ac05750805b601f840160051c820191505b81811015610541575f8155600101610acc565b505050565b81516001600160401b03811115610afd57610afd610a4f565b610b1181610b0b8454610a63565b84610a9b565b602080601f831160018114610b44575f8415610b2d5750858301515b5f19600386901b1c1916600185901b17855561053f565b5f85815260208120601f198616915b82811015610b7257888601518255948401946001909101908401610b53565b5085821015610b8f57878501515f19600388901b60f8161c191681555b5050505050600190811b01905550565b634e487b7160e01b5f52603260045260245ffd5b80820180821115610bd257634e487b7160e01b5f52601160045260245ffd5b92915050565b5f81518084528060208401602086015e5f602082860101526020601f19601f83011685010191505092915050565b6001600160a01b03868116825285166020820152604081018490526060810183905260a0608082018190525f90610c3f90830184610bd8565b979650505050505050565b5f60208284031215610c5a575f80fd5b81516001600160e01b031981168114610c71575f80fd5b9392505050565b5f815180845260208085019450602084015f5b83811015610ca757815187529582019590820190600101610c8b565b509495945050505050565b6001600160a01b0386811682528516602082015260a0604082018190525f90610cdd90830186610c78565b8281036060840152610cef8186610c78565b90508281036080840152610d038185610bd8565b98975050505050505050565b604081525f610d216040830185610c78565b8281036020840152610d338185610c78565b95945050505050565b61170e80610d495f395ff3fe608060405234801561000f575f80fd5b50600436106100fa575f3560e01c80634e1273f411610093578063b03b74aa11610063578063b03b74aa1461022d578063bd85b03914610240578063e985e9c51461025f578063f242432a14610272575f80fd5b80634e1273f4146101d15780634f558e79146101f157806395d89b4114610212578063a22cb4651461021a575f80fd5b806318160ddd116100ce57806318160ddd1461016f5780632a55205a146101775780632e6a6bd7146101a95780632eb2c2d6146101be575f80fd5b8062fdd58e146100fe57806301ffc9a71461012457806306fdde03146101475780630e89341c1461015c575b5f80fd5b61011161010c3660046110a4565b610285565b6040519081526020015b60405180910390f35b6101376101323660046110e1565b6102ac565b604051901515815260200161011b565b61014f6102b6565b60405161011b9190611131565b61014f61016a366004611143565b610342565b600454610111565b61018a61018536600461115a565b6103d4565b604080516001600160a01b03909316835260208301919091520161011b565b6101bc6101b73660046110a4565b610457565b005b6101bc6101cc3660046112ba565b61067a565b6101e46101df36600461135d565b6106e6565b60405161011b9190611451565b6101376101ff366004611143565b5f90815260036020526040902054151590565b61014f6107b1565b6101bc610228366004611463565b6107be565b6101bc61023b36600461149c565b6107cd565b61011161024e366004611143565b5f9081526003602052604090205490565b61013761026d3660046114b5565b6107dc565b6101bc6102803660046114e6565b610809565b5f818152602081815260408083206001600160a01b03861684529091529020545b92915050565b5f6102a682610868565b600780546102c390611546565b80601f01602080910402602001604051908101604052809291908181526020018280546102ef90611546565b801561033a5780601f106103115761010080835404028352916020019161033a565b820191905f5260205f20905b81548152906001019060200180831161031d57829003601f168201915b505050505081565b60606002805461035190611546565b80601f016020809104026020016040519081016040528092919081815260200182805461037d90611546565b80156103c85780601f1061039f576101008083540402835291602001916103c8565b820191905f5260205f20905b8154815290600101906020018083116103ab57829003601f168201915b50505050509050919050565b5f82815260066020526040812080548291906001600160a01b03811690600160a01b90046001600160601b0316816104275750506005546001600160a01b03811690600160a01b90046001600160601b03165b5f61271061043e6001600160601b03841689611592565b61044891906115a9565b92989297509195505050505050565b60408051600680825260e082019092525f916020820160c08036833701905050905081815f8151811061048c5761048c6115c8565b60209081029190910101526104a28260016115dc565b816001815181106104b5576104b56115c8565b60209081029190910101526104cb8260026115dc565b816002815181106104de576104de6115c8565b60209081029190910101526104f48260036115dc565b81600381518110610507576105076115c8565b602090810291909101015261051d8260046115dc565b81600481518110610530576105306115c8565b60209081029190910101526105468260056115dc565b81600581518110610559576105596115c8565b602090810291909101015260408051600680825260e082019092525f91816020016020820280368337019050509050600a815f8151811061059c5761059c6115c8565b602002602001018181525050600b816001815181106105bd576105bd6115c8565b602002602001018181525050600c816002815181106105de576105de6115c8565b602002602001018181525050600d816003815181106105ff576105ff6115c8565b602002602001018181525050600e81600481518110610620576106206115c8565b602002602001018181525050600f81600581518110610641576106416115c8565b6020026020010181815250506106748483836040518060400160405280600381526020016203078360ec1b81525061088c565b50505050565b336001600160a01b038616811480159061069b575061069986826107dc565b155b156106d15760405163711bec9160e11b81526001600160a01b038083166004830152871660248201526044015b60405180910390fd5b6106de86868686866108c2565b505050505050565b606081518351146107175781518351604051635b05999160e01b8152600481019290925260248201526044016106c8565b5f835167ffffffffffffffff8111156107325761073261117a565b60405190808252806020026020018201604052801561075b578160200160208202803683370190505b5090505f5b84518110156107a95760208082028601015161078490602080840287010151610285565b828281518110610796576107966115c8565b6020908102919091010152600101610760565b509392505050565b600880546102c390611546565b6107c9338383610927565b5050565b6107d9816101f46109bb565b50565b6001600160a01b039182165f90815260016020908152604080832093909416825291909152205460ff1690565b336001600160a01b038616811480159061082a575061082886826107dc565b155b1561085b5760405163711bec9160e11b81526001600160a01b038083166004830152871660248201526044016106c8565b6106de8686868686610a5d565b5f6001600160e01b0319821663152a902d60e11b14806102a657506102a682610ae9565b6001600160a01b0384166108b557604051632bfa23e760e11b81525f60048201526024016106c8565b6106745f85858585610b38565b6001600160a01b0384166108eb57604051632bfa23e760e11b81525f60048201526024016106c8565b6001600160a01b03851661091357604051626a0d4560e21b81525f60048201526024016106c8565b6109208585858585610b38565b5050505050565b6001600160a01b03821661094f5760405162ced3e160e81b81525f60048201526024016106c8565b6001600160a01b038381165f81815260016020908152604080832094871680845294825291829020805460ff191686151590811790915591519182527f17307eab39ab6107e8899845ad3d59bd9653f200f220920489ca2b5937696c31910160405180910390a3505050565b6127106001600160601b0382168110156109fa57604051636f483d0960e01b81526001600160601b0383166004820152602481018290526044016106c8565b6001600160a01b038316610a2357604051635b6cc80560e11b81525f60048201526024016106c8565b50604080518082019091526001600160a01b039092168083526001600160601b039091166020909201829052600160a01b90910217600555565b6001600160a01b038416610a8657604051632bfa23e760e11b81525f60048201526024016106c8565b6001600160a01b038516610aae57604051626a0d4560e21b81525f60048201526024016106c8565b60408051600180825260208201869052818301908152606082018590526080820190925290610ae08787848487610b38565b50505050505050565b5f6001600160e01b03198216636cdb3d1360e11b1480610b1957506001600160e01b031982166303a24d0760e21b145b806102a657506301ffc9a760e01b6001600160e01b03198316146102a6565b610b4485858585610b8b565b6001600160a01b038416156109205782513390600103610b7d5760208481015190840151610b76838989858589610c72565b50506106de565b6106de818787878787610d93565b610b9784848484610e7a565b6001600160a01b038416610c14575f805b8351811015610bfb5760208181028481018201519086018201515f908152600390925260408220805491928392610be09084906115dc565b90915550610bf0905081846115dc565b925050600101610ba8565b508060045f828254610c0d91906115dc565b9091555050505b6001600160a01b038316610674575f805b8351811015610c615760208181028481018201519086018201515f90815260039092526040909120805482900390559190910190600101610c25565b506004805491909103905550505050565b6001600160a01b0384163b156106de5760405163f23a6e6160e01b81526001600160a01b0385169063f23a6e6190610cb690899089908890889088906004016115ef565b6020604051808303815f875af1925050508015610cf0575060408051601f3d908101601f19168201909252610ced91810190611633565b60015b610d57573d808015610d1d576040519150601f19603f3d011682016040523d82523d5f602084013e610d22565b606091505b5080515f03610d4f57604051632bfa23e760e11b81526001600160a01b03861660048201526024016106c8565b805160208201fd5b6001600160e01b0319811663f23a6e6160e01b14610ae057604051632bfa23e760e11b81526001600160a01b03861660048201526024016106c8565b6001600160a01b0384163b156106de5760405163bc197c8160e01b81526001600160a01b0385169063bc197c8190610dd7908990899088908890889060040161164e565b6020604051808303815f875af1925050508015610e11575060408051601f3d908101601f19168201909252610e0e91810190611633565b60015b610e3e573d808015610d1d576040519150601f19603f3d011682016040523d82523d5f602084013e610d22565b6001600160e01b0319811663bc197c8160e01b14610ae057604051632bfa23e760e11b81526001600160a01b03861660048201526024016106c8565b8051825114610ea95781518151604051635b05999160e01b8152600481019290925260248201526044016106c8565b335f5b8351811015610fab576020818102858101820151908501909101516001600160a01b03881615610f5d575f828152602081815260408083206001600160a01b038c16845290915290205481811015610f37576040516303dee4c560e01b81526001600160a01b038a1660048201526024810182905260448101839052606481018490526084016106c8565b5f838152602081815260408083206001600160a01b038d16845290915290209082900390555b6001600160a01b03871615610fa1575f828152602081815260408083206001600160a01b038b16845290915281208054839290610f9b9084906115dc565b90915550505b5050600101610eac565b50825160010361102b5760208301515f906020840151909150856001600160a01b0316876001600160a01b0316846001600160a01b03167fc3d58168c5ae7397731d063d5bbf3d657854427343f4c083240f7aacaa2d0f62858560405161101c929190918252602082015260400190565b60405180910390a45050610920565b836001600160a01b0316856001600160a01b0316826001600160a01b03167f4a39dc06d4c0dbc64b70af90fd698a233a518aa5d07e595d983b8c0526c8f7fb868660405161107a9291906116ab565b60405180910390a45050505050565b80356001600160a01b038116811461109f575f80fd5b919050565b5f80604083850312156110b5575f80fd5b6110be83611089565b946020939093013593505050565b6001600160e01b0319811681146107d9575f80fd5b5f602082840312156110f1575f80fd5b81356110fc816110cc565b9392505050565b5f81518084528060208401602086015e5f602082860101526020601f19601f83011685010191505092915050565b602081525f6110fc6020830184611103565b5f60208284031215611153575f80fd5b5035919050565b5f806040838503121561116b575f80fd5b50508035926020909101359150565b634e487b7160e01b5f52604160045260245ffd5b604051601f8201601f1916810167ffffffffffffffff811182821017156111b7576111b761117a565b604052919050565b5f67ffffffffffffffff8211156111d8576111d861117a565b5060051b60200190565b5f82601f8301126111f1575f80fd5b81356020611206611201836111bf565b61118e565b8083825260208201915060208460051b870101935086841115611227575f80fd5b602086015b84811015611243578035835291830191830161122c565b509695505050505050565b5f82601f83011261125d575f80fd5b813567ffffffffffffffff8111156112775761127761117a565b61128a601f8201601f191660200161118e565b81815284602083860101111561129e575f80fd5b816020850160208301375f918101602001919091529392505050565b5f805f805f60a086880312156112ce575f80fd5b6112d786611089565b94506112e560208701611089565b9350604086013567ffffffffffffffff80821115611301575f80fd5b61130d89838a016111e2565b94506060880135915080821115611322575f80fd5b61132e89838a016111e2565b93506080880135915080821115611343575f80fd5b506113508882890161124e565b9150509295509295909350565b5f806040838503121561136e575f80fd5b823567ffffffffffffffff80821115611385575f80fd5b818501915085601f830112611398575f80fd5b813560206113a8611201836111bf565b82815260059290921b840181019181810190898411156113c6575f80fd5b948201945b838610156113eb576113dc86611089565b825294820194908201906113cb565b96505086013592505080821115611400575f80fd5b5061140d858286016111e2565b9150509250929050565b5f815180845260208085019450602084015f5b838110156114465781518752958201959082019060010161142a565b509495945050505050565b602081525f6110fc6020830184611417565b5f8060408385031215611474575f80fd5b61147d83611089565b915060208301358015158114611491575f80fd5b809150509250929050565b5f602082840312156114ac575f80fd5b6110fc82611089565b5f80604083850312156114c6575f80fd5b6114cf83611089565b91506114dd60208401611089565b90509250929050565b5f805f805f60a086880312156114fa575f80fd5b61150386611089565b945061151160208701611089565b93506040860135925060608601359150608086013567ffffffffffffffff81111561153a575f80fd5b6113508882890161124e565b600181811c9082168061155a57607f821691505b60208210810361157857634e487b7160e01b5f52602260045260245ffd5b50919050565b634e487b7160e01b5f52601160045260245ffd5b80820281158282048414176102a6576102a661157e565b5f826115c357634e487b7160e01b5f52601260045260245ffd5b500490565b634e487b7160e01b5f52603260045260245ffd5b808201808211156102a6576102a661157e565b6001600160a01b03868116825285166020820152604081018490526060810183905260a0608082018190525f9061162890830184611103565b979650505050505050565b5f60208284031215611643575f80fd5b81516110fc816110cc565b6001600160a01b0386811682528516602082015260a0604082018190525f9061167990830186611417565b828103606084015261168b8186611417565b9050828103608084015261169f8185611103565b98975050505050505050565b604081525f6116bd6040830185611417565b82810360208401526116cf8185611417565b9594505050505056fea26469706673582212206069cb49c996676dcd9fe1c57a882f8dfe3ab4806accfd3cf4954309745bffcc64736f6c63430008190033",
  "linkReferences": {},
  "deployedLinkReferences": {}
}