{
  "_format": "hh-sol-artifact-1",
  "contractName": "CW721ERC721Wrapper",
  "sourceName": "src/CW721ERC721Wrapper.sol",
  "abi": [
    {
      "inputs": [
        {
          "internalType": "string",
          "name": "Cw721Address_",
          "type": "string"
        },
        {
          "internalType": "string",
          "name": "name_",
          "type": "string"
        },
        {
          "internalType": "string",
          "name": "symbol_",
          "type": "string"
        }
      ],
      "stateMutability": "nonpayable",
      "type": "constructor"
    },
    {
      "inputs": [
        {
          "internalType": "address",
          "name": "sender",
          "type": "address"
        },
        {
          "internalType": "uint256",
          "name": "tokenId",
          "type": "uint256"
        },
        {
          "internalType": "address",
          "name": "owner",
          "type": "address"
        }
      ],
      "name": "ERC721IncorrectOwner",
      "type": "error"
    },
    {
      "inputs": [
        {
          "internalType": "address",
          "name": "operator",
          "type": "address"
        },
        {
          "internalType": "uint256",
          "name": "tokenId",
          "type": "uint256"
        }
      ],
      "name": "ERC721InsufficientApproval",
      "type": "error"
    },
    {
      "inputs": [
        {
          "internalType": "address",
          "name": "approver",
          "type": "address"
        }
      ],
      "name": "ERC721InvalidApprover",
      "type": "error"
    },
    {
      "inputs": [
        {
          "internalType": "address",
          "name": "operator",
          "type": "address"
        }
      ],
      "name": "ERC721InvalidOperator",
      "type": "error"
    },
    {
      "inputs": [
        {
          "internalType": "address",
          "name": "owner",
          "type": "address"
        }
      ],
      "name": "ERC721InvalidOwner",
      "type": "error"
    },
    {
      "inputs": [
        {
          "internalType": "address",
          "name": "receiver",
          "type": "address"
        }
      ],
      "name": "ERC721InvalidReceiver",
      "type": "error"
    },
    {
      "inputs": [
        {
          "internalType": "address",
          "name": "sender",
          "type": "address"
        }
      ],
      "name": "ERC721InvalidSender",
      "type": "error"
    },
    {
      "inputs": [
        {
          "internalType": "uint256",
          "name": "tokenId",
          "type": "uint256"
        }
      ],
      "name": "ERC721NonexistentToken",
      "type": "error"
    },
    {
      "anonymous": false,
      "inputs": [
        {
          "indexed": true,
          "internalType": "address",
          "name": "owner",
          "type": "address"
        },
        {
          "indexed": true,
          "internalType": "address",
          "name": "approved",
          "type": "address"
        },
        {
          "indexed": true,
          "internalType": "uint256",
          "name": "tokenId",
          "type": "uint256"
        }
      ],
      "name": "Approval",
      "type": "event"
    },
    {
      "anonymous": false,
      "inputs": [
        {
          "indexed": true,
          "internalType": "address",
          "name": "owner",
          "type": "address"
        },
        {
          "indexed": true,
          "internalType": "address",
          "name": "operator",
          "type": "address"
        },
        {
          "indexed": false,
          "internalType": "bool",
          "name": "approved",
          "type": "bool"
        }
      ],
      "name": "ApprovalForAll",
      "type": "event"
    },
    {
      "anonymous": false,
      "inputs": [
        {
          "indexed": true,
          "internalType": "address",
          "name": "from",
          "type": "address"
        },
        {
          "indexed": true,
          "internalType": "address",
          "name": "to",
          "type": "address"
        },
        {
          "indexed": true,
          "internalType": "uint256",
          "name": "tokenId",
          "type": "uint256"
        }
      ],
      "name": "Transfer",
      "type": "event"
    },
    {
      "inputs": [],
      "name": "AddrPrecompile",
      "outputs": [
        {
          "internalType": "contract IAddr",
          "name": "",
          "type": "address"
        }
      ],
      "stateMutability": "view",
      "type": "function"
    },
    {
      "inputs": [],
      "name": "Cw721Address",
      "outputs": [
        {
          "internalType": "string",
          "name": "",
          "type": "string"
        }
      ],
      "stateMutability": "view",
      "type": "function"
    },
    {
      "inputs": [],
      "name": "JsonPrecompile",
      "outputs": [
        {
          "internalType": "contract IJson",
          "name": "",
          "type": "address"
        }
      ],
      "stateMutability": "view",
      "type": "function"
    },
    {
      "inputs": [],
      "name": "WasmdPrecompile",
      "outputs": [
        {
          "internalType": "contract IWasmd",
          "name": "",
          "type": "address"
        }
      ],
      "stateMutability": "view",
      "type": "function"
    },
    {
      "inputs": [
        {
          "internalType": "address",
          "name": "approved",
          "type": "address"
        },
        {
          "internalType": "uint256",
          "name": "tokenId",
          "type": "uint256"
        }
      ],
      "name": "approve",
      "outputs": [],
      "stateMutability": "nonpayable",
      "type": "function"
    },
    {
      "inputs": [
        {
          "internalType": "address",
          "name": "owner",
          "type": "address"
        }
      ],
      "name": "balanceOf",
      "outputs": [
        {
          "internalType": "uint256",
          "name": "",
          "type": "uint256"
        }
      ],
      "stateMutability": "view",
      "type": "function"
    },
    {
      "inputs": [
        {
          "internalType": "uint256",
          "name": "tokenId",
          "type": "uint256"
        }
      ],
      "name": "getApproved",
      "outputs": [
        {
          "internalType": "address",
          "name": "",
          "type": "address"
        }
      ],
      "stateMutability": "view",
      "type": "function"
    },
    {
      "inputs": [
        {
          "internalType": "address",
          "name": "owner",
          "type": "address"
        },
        {
          "internalType": "address",
          "name": "operator",
          "type": "address"
        }
      ],
      "name": "isApprovedForAll",
      "outputs": [
        {
          "internalType": "bool",
          "name": "",
          "type": "bool"
        }
      ],
      "stateMutability": "view",
      "type": "function"
    },
    {
      "inputs": [],
      "name": "name",
      "outputs": [
        {
          "internalType": "string",
          "name": "",
          "type": "string"
        }
      ],
      "stateMutability": "view",
      "type": "function"
    },
    {
      "inputs": [
        {
          "internalType": "uint256",
          "name": "tokenId",
          "type": "uint256"
        }
      ],
      "name": "ownerOf",
      "outputs": [
        {
          "internalType": "address",
          "name": "",
          "type": "address"
        }
      ],
      "stateMutability": "view",
      "type": "function"
    },
    {
      "inputs": [
        {
          "internalType": "address",
          "name": "from",
          "type": "address"
        },
        {
          "internalType": "address",
          "name": "to",
          "type": "address"
        },
        {
          "internalType": "uint256",
          "name": "tokenId",
          "type": "uint256"
        }
      ],
      "name": "safeTransferFrom",
      "outputs": [],
      "stateMutability": "nonpayable",
      "type": "function"
    },
    {
      "inputs": [
        {
          "internalType": "address",
          "name": "from",
          "type": "address"
        },
        {
          "internalType": "address",
          "name": "to",
          "type": "address"
        },
        {
          "internalType": "uint256",
          "name": "tokenId",
          "type": "uint256"
        },
        {
          "internalType": "bytes",
          "name": "data",
          "type": "bytes"
        }
      ],
      "name": "safeTransferFrom",
      "outputs": [],
      "stateMutability": "nonpayable",
      "type": "function"
    },
    {
      "inputs": [
        {
          "internalType": "address",
          "name": "operator",
          "type": "address"
        },
        {
          "internalType": "bool",
          "name": "approved",
          "type": "bool"
        }
      ],
      "name": "setApprovalForAll",
      "outputs": [],
      "stateMutability": "nonpayable",
      "type": "function"
    },
    {
      "inputs": [
        {
          "internalType": "bytes4",
          "name": "interfaceId",
          "type": "bytes4"
        }
      ],
      "name": "supportsInterface",
      "outputs": [
        {
          "internalType": "bool",
          "name": "",
          "type": "bool"
        }
      ],
      "stateMutability": "view",
      "type": "function"
    },
    {
      "inputs": [],
      "name": "symbol",
      "outputs": [
        {
          "internalType": "string",
          "name": "",
          "type": "string"
        }
      ],
      "stateMutability": "view",
      "type": "function"
    },
    {
      "inputs": [
        {
          "internalType": "uint256",
          "name": "tokenId",
          "type": "uint256"
        }
      ],
      "name": "tokenURI",
      "outputs": [
        {
          "internalType": "string",
          "name": "",
          "type": "string"
        }
      ],
      "stateMutability": "view",
      "type": "function"
    },
    {
      "inputs": [
        {
          "internalType": "address",
          "name": "from",
          "type": "address"
        },
        {
          "internalType": "address",
          "name": "to",
          "type": "address"
        },
        {
          "internalType": "uint256",
          "name": "tokenId",
          "type": "uint256"
        }
      ],
      "name": "transferFrom",
      "outputs": [],
      "stateMutability": "nonpayable",
      "type": "function"
    }
  ],
  "bytecode": "0x60806040523480156200001157600080fd5b50604051620025e9380380620025e9833981016040819052620000349162000163565b8181600062000044838262000283565b50600162000053828262000283565b5050600780546001600160a01b0319908116611002179091556008805482166110031790556009805490911661100417905550600662000094848262000283565b505050506200034f565b634e487b7160e01b600052604160045260246000fd5b600082601f830112620000c657600080fd5b81516001600160401b0380821115620000e357620000e36200009e565b604051601f8301601f19908116603f011681019082821181831017156200010e576200010e6200009e565b816040528381526020925086838588010111156200012b57600080fd5b600091505b838210156200014f578582018301518183018401529082019062000130565b600093810190920192909252949350505050565b6000806000606084860312156200017957600080fd5b83516001600160401b03808211156200019157600080fd5b6200019f87838801620000b4565b94506020860151915080821115620001b657600080fd5b620001c487838801620000b4565b93506040860151915080821115620001db57600080fd5b50620001ea86828701620000b4565b9150509250925092565b600181811c908216806200020957607f821691505b6020821081036200022a57634e487b7160e01b600052602260045260246000fd5b50919050565b601f8211156200027e57600081815260208120601f850160051c81016020861015620002595750805b601f850160051c820191505b818110156200027a5782815560010162000265565b5050505b505050565b81516001600160401b038111156200029f576200029f6200009e565b620002b781620002b08454620001f4565b8462000230565b602080601f831160018114620002ef5760008415620002d65750858301515b600019600386901b1c1916600185901b1785556200027a565b600085815260208120601f198616915b828110156200032057888601518255948401946001909101908401620002ff565b50858210156200033f5787850151600019600388901b60f8161c191681555b5050505050600190811b01905550565b61228a806200035f6000396000f3fe608060405234801561001057600080fd5b506004361061011b5760003560e01c806370a08231116100b2578063c2aed30211610081578063de4725cc11610066578063de4725cc14610253578063e985e9c514610266578063f00b02551461027957600080fd5b8063c2aed3021461022d578063c87b56dd1461024057600080fd5b806370a08231146101de57806395d89b41146101ff578063a22cb46514610207578063b88d4fde1461021a57600080fd5b806323b872dd116100ee57806323b872dd1461019d57806342842e0e146101b05780635c4aead7146101c35780636352211e146101cb57600080fd5b806301ffc9a71461012057806306fdde0314610148578063081812fc1461015d578063095ea7b314610188575b600080fd5b61013361012e366004611967565b61028c565b60405190151581526020015b60405180910390f35b610150610329565b60405161013f91906119d4565b61017061016b3660046119e7565b6103bb565b6040516001600160a01b03909116815260200161013f565b61019b610196366004611a15565b6106de565b005b61019b6101ab366004611a41565b61082f565b61019b6101be366004611a41565b6109bd565b6101506109dd565b6101706101d93660046119e7565b610a6b565b6101f16101ec366004611a82565b610c5c565b60405190815260200161013f565b610150610e2f565b61019b610215366004611a9f565b610e3e565b61019b610228366004611b4c565b610f97565b600954610170906001600160a01b031681565b61015061024e3660046119e7565b610fb4565b600854610170906001600160a01b031681565b610133610274366004611bfb565b611134565b600754610170906001600160a01b031681565b60006001600160e01b031982167f80ac58cd0000000000000000000000000000000000000000000000000000000014806102ef57506001600160e01b031982167f5b5e139f00000000000000000000000000000000000000000000000000000000145b8061032357507f01ffc9a7000000000000000000000000000000000000000000000000000000006001600160e01b03198316145b92915050565b60606000805461033890611c29565b80601f016020809104026020016040519081016040528092919081815260200182805461036490611c29565b80156103b15780601f10610386576101008083540402835291602001916103b1565b820191906000526020600020905b81548152906001019060200180831161039457829003601f168201915b5050505050905090565b604080518082018252600781526639b832b73232b960c91b60208201526009549151630c3c20ed60e01b8152336004820152600092839261046192909161045c916001600160a01b0390911690630c3c20ed906024015b600060405180830381865afa15801561042f573d6000803e3d6000fd5b505050506040513d6000823e601f3d908101601f191682016040526104579190810190611c93565b611425565b61146b565b90506000610495604051806040016040528060088152602001671d1bdad95b97da5960c21b81525061045c610457876114bc565b905060006104ec6104e760405180604001604052806008815260200167185c1c1c9bdd985b60c21b81525061045c6104e78787604051806040016040528060018152602001600b60fa1b81525061155c565b6115a8565b6007546040516306d81d2960e01b81529192506000916001600160a01b03909116906306d81d2990610525906006908690600401611d88565b600060405180830381865afa158015610542573d6000803e3d6000fd5b505050506040513d6000823e601f3d908101601f1916820160405261056a9190810190611dd6565b6008546040516308d858e560e01b81529192506000916001600160a01b03909116906308d858e5906105a0908590600401611e0b565b600060405180830381865afa1580156105bd573d6000803e3d6000fd5b505050506040513d6000823e601f3d908101601f191682016040526105e59190810190611dd6565b6008546040516308d858e560e01b81529192506000916001600160a01b03909116906308d858e59061061b908590600401611e48565b600060405180830381865afa158015610638573d6000803e3d6000fd5b505050506040513d6000823e601f3d908101601f191682016040526106609190810190611dd6565b600954604051631778e53960e01b81529192506001600160a01b031690631778e539906106919084906004016119d4565b602060405180830381865afa1580156106ae573d6000803e3d6000fd5b505050506040513d601f19601f820116820180604052508101906106d29190611e84565b98975050505050505050565b604080518082018252600781526639b832b73232b960c91b60208201526009549151630c3c20ed60e01b81526001600160a01b038581166004830152600093610738939261045c9290911690630c3c20ed90602401610412565b9050600061076c604051806040016040528060088152602001671d1bdad95b97da5960c21b81525061045c610457866114bc565b905060006107d36104e76040518060400160405280600781526020017f617070726f76650000000000000000000000000000000000000000000000000081525061045c6104e78787604051806040016040528060018152602001600b60fa1b81525061155c565b90506107de816115d8565b5083856001600160a01b03166107f386610a6b565b6001600160a01b03167f8c5be1e5ebec7d5bd14f71427d1e84f3dd0314c0f7b2291e5b200ac8c7c3b92560405160405180910390a45050505050565b6001600160a01b03821661085e57604051633250574960e11b8152600060048201526024015b60405180910390fd5b60408051808201825260098082527f726563697069656e7400000000000000000000000000000000000000000000006020830152549151630c3c20ed60e01b81526001600160a01b0385811660048301526000936108cd939261045c9290911690630c3c20ed90602401610412565b90506000610901604051806040016040528060088152602001671d1bdad95b97da5960c21b81525061045c610457866114bc565b905060006109686104e76040518060400160405280600c81526020017f7472616e736665725f6e6674000000000000000000000000000000000000000081525061045c6104e78787604051806040016040528060018152602001600b60fa1b81525061155c565b9050610973816115d8565b5083856001600160a01b0316876001600160a01b03167fddf252ad1be2c89b69c2b068fc378daa952ba7f163c4a11628f55a4df523b3ef60405160405180910390a4505050505050565b6109d883838360405180602001604052806000815250610f97565b505050565b600680546109ea90611c29565b80601f0160208091040260200160405190810160405280929190818152602001828054610a1690611c29565b8015610a635780601f10610a3857610100808354040283529160200191610a63565b820191906000526020600020905b815481529060010190602001808311610a4657829003601f168201915b505050505081565b600080610a9e604051806040016040528060088152602001671d1bdad95b97da5960c21b81525061045c610457866114bc565b90506000610ae76104e76040518060400160405280600881526020017f6f776e65725f6f6600000000000000000000000000000000000000000000000081525061045c856115a8565b6007546040516306d81d2960e01b81529192506000916001600160a01b03909116906306d81d2990610b20906006908690600401611d88565b600060405180830381865afa158015610b3d573d6000803e3d6000fd5b505050506040513d6000823e601f3d908101601f19168201604052610b659190810190611dd6565b6008546040516308d858e560e01b81529192506000916001600160a01b03909116906308d858e590610b9b908590600401611ea1565b600060405180830381865afa158015610bb8573d6000803e3d6000fd5b505050506040513d6000823e601f3d908101601f19168201604052610be09190810190611dd6565b600954604051631778e53960e01b81529192506001600160a01b031690631778e53990610c119084906004016119d4565b602060405180830381865afa158015610c2e573d6000803e3d6000fd5b505050506040513d601f19601f82011682018060405250810190610c529190611e84565b9695505050505050565b60006001600160a01b038216610ca1576040517f89c62b6400000000000000000000000000000000000000000000000000000000815260006004820152602401610855565b604080518082018252600581526437bbb732b960d91b60208201526009549151630c3c20ed60e01b81526001600160a01b038581166004830152600093610cf9939261045c9290911690630c3c20ed90602401610412565b90506000610d2b6104e760405180604001604052806006815260200165746f6b656e7360d01b81525061045c856115a8565b6007546040516306d81d2960e01b81529192506000916001600160a01b03909116906306d81d2990610d64906006908690600401611d88565b600060405180830381865afa158015610d81573d6000803e3d6000fd5b505050506040513d6000823e601f3d908101601f19168201604052610da99190810190611dd6565b6008546040516387cdf62160e01b81529192506000916001600160a01b03909116906387cdf62190610ddf908590600401611edb565b600060405180830381865afa158015610dfc573d6000803e3d6000fd5b505050506040513d6000823e601f3d908101601f19168201604052610e249190810190611f16565b519695505050505050565b60606001805461033890611c29565b604080518082018252600881527f6f70657261746f7200000000000000000000000000000000000000000000000060208201526009549151630c3c20ed60e01b81526001600160a01b038581166004830152600093610eb1936104e793909261045c921690630c3c20ed90602401610412565b90508115610f0957610f03610efe6104e76040518060400160405280600b81526020017f617070726f76655f616c6c0000000000000000000000000000000000000000008152508461146b565b6115d8565b50610f50565b610f4e610efe6104e76040518060400160405280600a81526020017f7265766f6b655f616c6c000000000000000000000000000000000000000000008152508461146b565b505b60405182151581526001600160a01b0384169033907f17307eab39ab6107e8899845ad3d59bd9653f200f220920489ca2b5937696c319060200160405180910390a3505050565b610fa284848461082f565b610fae84848484611743565b50505050565b6060610fbf82610a6b565b506000610ff2604051806040016040528060088152602001671d1bdad95b97da5960c21b81525061045c610457866114bc565b9050600061103b6104e76040518060400160405280600881526020017f6e66745f696e666f00000000000000000000000000000000000000000000000081525061045c856115a8565b6007546040516306d81d2960e01b81529192506000916001600160a01b03909116906306d81d2990611074906006908690600401611d88565b600060405180830381865afa158015611091573d6000803e3d6000fd5b505050506040513d6000823e601f3d908101601f191682016040526110b99190810190611dd6565b6008546040516308d858e560e01b81529192506000916001600160a01b03909116906308d858e5906110ef908590600401611fd9565b600060405180830381865afa15801561110c573d6000803e3d6000fd5b505050506040513d6000823e601f3d908101601f19168201604052610c529190810190611dd6565b604080518082018252600581526437bbb732b960d91b60208201526009549151630c3c20ed60e01b81526001600160a01b038581166004830152600093849361118d93909261045c921690630c3c20ed90602401610412565b905060006111d66104e76040518060400160405280600d81526020017f616c6c5f6f70657261746f72730000000000000000000000000000000000000081525061045c856115a8565b6007546040516306d81d2960e01b81529192506000916001600160a01b03909116906306d81d299061120f906006908690600401611d88565b600060405180830381865afa15801561122c573d6000803e3d6000fd5b505050506040513d6000823e601f3d908101601f191682016040526112549190810190611dd6565b6008546040516387cdf62160e01b81529192506000916001600160a01b03909116906387cdf6219061128a90859060040161202b565b600060405180830381865afa1580156112a7573d6000803e3d6000fd5b505050506040513d6000823e601f3d908101601f191682016040526112cf9190810190611f16565b905060005b81518110156114175760085482516000916001600160a01b0316906308d858e5908590859081106113075761130761207d565b60200260200101516040518263ffffffff1660e01b815260040161132b9190611e48565b600060405180830381865afa158015611348573d6000803e3d6000fd5b505050506040513d6000823e601f3d908101601f191682016040526113709190810190611dd6565b600954604051631778e53960e01b81529192506001600160a01b03808b1692911690631778e539906113a69085906004016119d4565b602060405180830381865afa1580156113c3573d6000803e3d6000fd5b505050506040513d601f19601f820116820180604052508101906113e79190611e84565b6001600160a01b0316036114045760019650505050505050610323565b508061140f81612093565b9150506112d4565b506000979650505050505050565b60608160405160200161143891906120ba565b60408051601f1981840301815290829052611455916020016120df565b6040516020818303038152906040529050919050565b60606114b561147984611425565b836040518060400160405280600181526020017f3a0000000000000000000000000000000000000000000000000000000000000081525061155c565b9392505050565b606060006114c98361186c565b600101905060008167ffffffffffffffff8111156114e9576114e9611add565b6040519080825280601f01601f191660200182016040528015611513576020820181803683370190505b5090508181016020015b600019017f3031323334353637383961626364656600000000000000000000000000000000600a86061a8153600a850494508461151d57509392505050565b6060838284604051602001611572929190612108565b60408051601f19818403018152908290526115909291602001612108565b60405160208183030381529060405290509392505050565b6060816040516020016115bb9190612137565b60408051601f198184030181529082905261145591602001612178565b60606000806110026001600160a01b03166006856040518060400160405280600281526020017f5b5d000000000000000000000000000000000000000000000000000000000000815250604051602401611634939291906121b0565b60408051601f198184030181529181526020820180517bffffffffffffffffffffffffffffffffffffffffffffffffffffffff167f44d227ae000000000000000000000000000000000000000000000000000000001790525161169791906121e9565b600060405180830381855af49150503d80600081146116d2576040519150601f19603f3d011682016040523d82523d6000602084013e6116d7565b606091505b5091509150816114b5576040517f08c379a000000000000000000000000000000000000000000000000000000000815260206004820152601760248201527f436f736d5761736d2065786563757465206661696c65640000000000000000006044820152606401610855565b6001600160a01b0383163b15610fae57604051630a85bd0160e11b81526001600160a01b0384169063150b7a0290611785903390889087908790600401612205565b6020604051808303816000875af19250505080156117c0575060408051601f3d908101601f191682019092526117bd91810190612237565b60015b611829573d8080156117ee576040519150601f19603f3d011682016040523d82523d6000602084013e6117f3565b606091505b50805160000361182157604051633250574960e11b81526001600160a01b0385166004820152602401610855565b805181602001fd5b6001600160e01b03198116630a85bd0160e11b1461186557604051633250574960e11b81526001600160a01b0385166004820152602401610855565b5050505050565b6000807a184f03e93ff9f4daa797ed6e38ed64bf6a1f01000000000000000083106118b5577a184f03e93ff9f4daa797ed6e38ed64bf6a1f010000000000000000830492506040015b6d04ee2d6d415b85acef810000000083106118e1576d04ee2d6d415b85acef8100000000830492506020015b662386f26fc1000083106118ff57662386f26fc10000830492506010015b6305f5e1008310611917576305f5e100830492506008015b612710831061192b57612710830492506004015b6064831061193d576064830492506002015b600a83106103235760010192915050565b6001600160e01b03198116811461196457600080fd5b50565b60006020828403121561197957600080fd5b81356114b58161194e565b60005b8381101561199f578181015183820152602001611987565b50506000910152565b600081518084526119c0816020860160208601611984565b601f01601f19169290920160200192915050565b6020815260006114b560208301846119a8565b6000602082840312156119f957600080fd5b5035919050565b6001600160a01b038116811461196457600080fd5b60008060408385031215611a2857600080fd5b8235611a3381611a00565b946020939093013593505050565b600080600060608486031215611a5657600080fd5b8335611a6181611a00565b92506020840135611a7181611a00565b929592945050506040919091013590565b600060208284031215611a9457600080fd5b81356114b581611a00565b60008060408385031215611ab257600080fd5b8235611abd81611a00565b915060208301358015158114611ad257600080fd5b809150509250929050565b634e487b7160e01b600052604160045260246000fd5b604051601f8201601f1916810167ffffffffffffffff81118282101715611b1c57611b1c611add565b604052919050565b600067ffffffffffffffff821115611b3e57611b3e611add565b50601f01601f191660200190565b60008060008060808587031215611b6257600080fd5b8435611b6d81611a00565b93506020850135611b7d81611a00565b925060408501359150606085013567ffffffffffffffff811115611ba057600080fd5b8501601f81018713611bb157600080fd5b8035611bc4611bbf82611b24565b611af3565b818152886020838501011115611bd957600080fd5b8160208401602083013760006020838301015280935050505092959194509250565b60008060408385031215611c0e57600080fd5b8235611c1981611a00565b91506020830135611ad281611a00565b600181811c90821680611c3d57607f821691505b602082108103611c5d57634e487b7160e01b600052602260045260246000fd5b50919050565b6000611c71611bbf84611b24565b9050828152838383011115611c8557600080fd5b6114b5836020830184611984565b600060208284031215611ca557600080fd5b815167ffffffffffffffff811115611cbc57600080fd5b8201601f81018413611ccd57600080fd5b611cdc84825160208401611c63565b949350505050565b8054600090600181811c9080831680611cfe57607f831692505b60208084108203611d1f57634e487b7160e01b600052602260045260246000fd5b83885260208801828015611d3a5760018114611d5057611d7b565b60ff198716825285151560051b82019750611d7b565b60008981526020902060005b87811015611d7557815484820152908601908401611d5c565b83019850505b5050505050505092915050565b604081526000611d9b6040830185611ce4565b8281036020840152611dad81856119a8565b95945050505050565b600082601f830112611dc757600080fd5b6114b583835160208501611c63565b600060208284031215611de857600080fd5b815167ffffffffffffffff811115611dff57600080fd5b611cdc84828501611db6565b604081526000611e1e60408301846119a8565b82810360208401526008815267185c1c1c9bdd985b60c21b60208201526040810191505092915050565b604081526000611e5b60408301846119a8565b8281036020840152600781526639b832b73232b960c91b60208201526040810191505092915050565b600060208284031215611e9657600080fd5b81516114b581611a00565b604081526000611eb460408301846119a8565b8281036020840152600581526437bbb732b960d91b60208201526040810191505092915050565b604081526000611eee60408301846119a8565b82810360208401526006815265746f6b656e7360d01b60208201526040810191505092915050565b60006020808385031215611f2957600080fd5b825167ffffffffffffffff80821115611f4157600080fd5b818501915085601f830112611f5557600080fd5b815181811115611f6757611f67611add565b8060051b611f76858201611af3565b9182528381018501918581019089841115611f9057600080fd5b86860192505b83831015611fcc57825185811115611fae5760008081fd5b611fbc8b89838a0101611db6565b8352509186019190860190611f96565b9998505050505050505050565b604081526000611fec60408301846119a8565b8281036020840152600981527f746f6b656e5f757269000000000000000000000000000000000000000000000060208201526040810191505092915050565b60408152600061203e60408301846119a8565b8281036020840152600981527f6f70657261746f7273000000000000000000000000000000000000000000000060208201526040810191505092915050565b634e487b7160e01b600052603260045260246000fd5b6000600182016120b357634e487b7160e01b600052601160045260246000fd5b5060010190565b600082516120cc818460208701611984565b601160f91b920191825250600101919050565b601160f91b8152600082516120fb816001850160208701611984565b9190910160010192915050565b6000835161211a818460208801611984565b83519083019061212e818360208801611984565b01949350505050565b60008251612149818460208701611984565b7f7d00000000000000000000000000000000000000000000000000000000000000920191825250600101919050565b7f7b000000000000000000000000000000000000000000000000000000000000008152600082516120fb816001850160208701611984565b6060815260006121c36060830186611ce4565b82810360208401526121d581866119a8565b90508281036040840152610c5281856119a8565b600082516121fb818460208701611984565b9190910192915050565b60006001600160a01b03808716835280861660208401525083604083015260806060830152610c5260808301846119a8565b60006020828403121561224957600080fd5b81516114b58161194e56fea2646970667358221220d65a96ffd8064a179ff8a785b1f39eee4d35ae44887aad09999cb67488522ac764736f6c63430008140033",
  "linkReferences": {},
  "deployedLinkReferences": {}
}