{
  "_format": "hh-sol-artifact-1",
  "contractName": "TestToken",
  "sourceName": "src/TestToken.sol",
  "abi": [
    {
      "inputs": [
        {
          "internalType": "string",
          "name": "name",
          "type": "string"
        },
        {
          "internalType": "string",
          "name": "symbol",
          "type": "string"
        }
      ],
      "stateMutability": "nonpayable",
      "type": "constructor"
    },
    {
      "inputs": [
        {
          "internalType": "address",
          "name": "spender",
          "type": "address"
        },
        {
          "internalType": "uint256",
          "name": "allowance",
          "type": "uint256"
        },
        {
          "internalType": "uint256",
          "name": "needed",
          "type": "uint256"
        }
      ],
      "name": "ERC20InsufficientAllowance",
      "type": "error"
    },
    {
      "inputs": [
        {
          "internalType": "address",
          "name": "sender",
          "type": "address"
        },
        {
          "internalType": "uint256",
          "name": "balance",
          "type": "uint256"
        },
        {
          "internalType": "uint256",
          "name": "needed",
          "type": "uint256"
        }
      ],
      "name": "ERC20InsufficientBalance",
      "type": "error"
    },
    {
      "inputs": [
        {
          "internalType": "address",
          "name": "approver",
          "type": "address"
        }
      ],
      "name": "ERC20InvalidApprover",
      "type": "error"
    },
    {
      "inputs": [
        {
          "internalType": "address",
          "name": "receiver",
          "type": "address"
        }
      ],
      "name": "ERC20InvalidReceiver",
      "type": "error"
    },
    {
      "inputs": [
        {
          "internalType": "address",
          "name": "sender",
          "type": "address"
        }
      ],
      "name": "ERC20InvalidSender",
      "type": "error"
    },
    {
      "inputs": [
        {
          "internalType": "address",
          "name": "spender",
          "type": "address"
        }
      ],
      "name": "ERC20InvalidSpender",
      "type": "error"
    },
    {
      "inputs": [
        {
          "internalType": "address",
          "name": "owner",
          "type": "address"
        }
      ],
      "name": "OwnableInvalidOwner",
      "type": "error"
    },
    {
      "inputs": [
        {
          "internalType": "address",
          "name": "account",
          "type": "address"
        }
      ],
      "name": "OwnableUnauthorizedAccount",
      "type": "error"
    },
    {
      "anonymous": false,
      "inputs": [
        {
          "indexed": true,
          "internalType": "address",
          "name": "owner",
          "type": "address"
        },
        {
          "indexed": true,
          "internalType": "address",
          "name": "spender",
          "type": "address"
        },
        {
          "indexed": false,
          "internalType": "uint256",
          "name": "value",
          "type": "uint256"
        }
      ],
      "name": "Approval",
      "type": "event"
    },
    {
      "anonymous": false,
      "inputs": [
        {
          "indexed": true,
          "internalType": "address",
          "name": "previousOwner",
          "type": "address"
        },
        {
          "indexed": true,
          "internalType": "address",
          "name": "newOwner",
          "type": "address"
        }
      ],
      "name": "OwnershipTransferred",
      "type": "event"
    },
    {
      "anonymous": false,
      "inputs": [
        {
          "indexed": true,
          "internalType": "address",
          "name": "from",
          "type": "address"
        },
        {
          "indexed": true,
          "internalType": "address",
          "name": "to",
          "type": "address"
        },
        {
          "indexed": false,
          "internalType": "uint256",
          "name": "value",
          "type": "uint256"
        }
      ],
      "name": "Transfer",
      "type": "event"
    },
    {
      "inputs": [
        {
          "internalType": "address",
          "name": "owner",
          "type": "address"
        },
        {
          "internalType": "address",
          "name": "spender",
          "type": "address"
        }
      ],
      "name": "allowance",
      "outputs": [
        {
          "internalType": "uint256",
          "name": "",
          "type": "uint256"
        }
      ],
      "stateMutability": "view",
      "type": "function"
    },
    {
      "inputs": [
        {
          "internalType": "address",
          "name": "spender",
          "type": "address"
        },
        {
          "internalType": "uint256",
          "name": "value",
          "type": "uint256"
        }
      ],
      "name": "approve",
      "outputs": [
        {
          "internalType": "bool",
          "name": "",
          "type": "bool"
        }
      ],
      "stateMutability": "nonpayable",
      "type": "function"
    },
    {
      "inputs": [
        {
          "internalType": "address",
          "name": "account",
          "type": "address"
        }
      ],
      "name": "balanceOf",
      "outputs": [
        {
          "internalType": "uint256",
          "name": "",
          "type": "uint256"
        }
      ],
      "stateMutability": "view",
      "type": "function"
    },
    {
      "inputs": [],
      "name": "decimals",
      "outputs": [
        {
          "internalType": "uint8",
          "name": "",
          "type": "uint8"
        }
      ],
      "stateMutability": "view",
      "type": "function"
    },
    {
      "inputs": [],
      "name": "name",
      "outputs": [
        {
          "internalType": "string",
          "name": "",
          "type": "string"
        }
      ],
      "stateMutability": "view",
      "type": "function"
    },
    {
      "inputs": [],
      "name": "owner",
      "outputs": [
        {
          "internalType": "address",
          "name": "",
          "type": "address"
        }
      ],
      "stateMutability": "view",
      "type": "function"
    },
    {
      "inputs": [],
      "name": "renounceOwnership",
      "outputs": [],
      "stateMutability": "nonpayable",
      "type": "function"
    },
    {
      "inputs": [
        {
          "internalType": "address",
          "name": "account",
          "type": "address"
        },
        {
          "internalType": "uint256",
          "name": "amount",
          "type": "uint256"
        }
      ],
      "name": "setBalance",
      "outputs": [],
      "stateMutability": "nonpayable",
      "type": "function"
    },
    {
      "inputs": [],
      "name": "symbol",
      "outputs": [
        {
          "internalType": "string",
          "name": "",
          "type": "string"
        }
      ],
      "stateMutability": "view",
      "type": "function"
    },
    {
      "inputs": [],
      "name": "totalSupply",
      "outputs": [
        {
          "internalType": "uint256",
          "name": "",
          "type": "uint256"
        }
      ],
      "stateMutability": "view",
      "type": "function"
    },
    {
      "inputs": [
        {
          "internalType": "address",
          "name": "to",
          "type": "address"
        },
        {
          "internalType": "uint256",
          "name": "value",
          "type": "uint256"
        }
      ],
      "name": "transfer",
      "outputs": [
        {
          "internalType": "bool",
          "name": "",
          "type": "bool"
        }
      ],
      "stateMutability": "nonpayable",
      "type": "function"
    },
    {
      "inputs": [
        {
          "internalType": "address",
          "name": "from",
          "type": "address"
        },
        {
          "internalType": "address",
          "name": "to",
          "type": "address"
        },
        {
          "internalType": "uint256",
          "name": "value",
          "type": "uint256"
        }
      ],
      "name": "transferFrom",
      "outputs": [
        {
          "internalType": "bool",
          "name": "",
          "type": "bool"
        }
      ],
      "stateMutability": "nonpayable",
      "type": "function"
    },
    {
      "inputs": [
        {
          "internalType": "address",
          "name": "newOwner",
          "type": "address"
        }
      ],
      "name": "transferOwnership",
      "outputs": [],
      "stateMutability": "nonpayable",
      "type": "function"
    }
  ],
  "bytecode": "0x60806040523480156200001157600080fd5b50604051620010913803806200109183398101604081905262000034916200034a565b338282600362000045838262000443565b50600462000054828262000443565b5050506001600160a01b0381166200008757604051631e4fbdf760e01b8152600060048201526024015b60405180910390fd5b6200009281620000c2565b50620000ba33620000a66012600a62000624565b620000b4906103e862000639565b62000114565b505062000669565b600580546001600160a01b038381166001600160a01b0319831681179093556040519116919082907f8be0079c531659141344cd1fd0a4f28419497f9722a3daafe3b4186f6b6457e090600090a35050565b6001600160a01b038216620001405760405163ec442f0560e01b8152600060048201526024016200007e565b6200014e6000838362000152565b5050565b6001600160a01b0383166200018157806002600082825462000175919062000653565b90915550620001f59050565b6001600160a01b03831660009081526020819052604090205481811015620001d65760405163391434e360e21b81526001600160a01b038516600482015260248101829052604481018390526064016200007e565b6001600160a01b03841660009081526020819052604090209082900390555b6001600160a01b038216620002135760028054829003905562000232565b6001600160a01b03821660009081526020819052604090208054820190555b816001600160a01b0316836001600160a01b03167fddf252ad1be2c89b69c2b068fc378daa952ba7f163c4a11628f55a4df523b3ef836040516200027891815260200190565b60405180910390a3505050565b634e487b7160e01b600052604160045260246000fd5b600082601f830112620002ad57600080fd5b81516001600160401b0380821115620002ca57620002ca62000285565b604051601f8301601f19908116603f01168101908282118183101715620002f557620002f562000285565b816040528381526020925086838588010111156200031257600080fd5b600091505b8382101562000336578582018301518183018401529082019062000317565b600093810190920192909252949350505050565b600080604083850312156200035e57600080fd5b82516001600160401b03808211156200037657600080fd5b62000384868387016200029b565b935060208501519150808211156200039b57600080fd5b50620003aa858286016200029b565b9150509250929050565b600181811c90821680620003c957607f821691505b602082108103620003ea57634e487b7160e01b600052602260045260246000fd5b50919050565b601f8211156200043e57600081815260208120601f850160051c81016020861015620004195750805b601f850160051c820191505b818110156200043a5782815560010162000425565b5050505b505050565b81516001600160401b038111156200045f576200045f62000285565b6200047781620004708454620003b4565b84620003f0565b602080601f831160018114620004af5760008415620004965750858301515b600019600386901b1c1916600185901b1785556200043a565b600085815260208120601f198616915b82811015620004e057888601518255948401946001909101908401620004bf565b5085821015620004ff5787850151600019600388901b60f8161c191681555b5050505050600190811b01905550565b634e487b7160e01b600052601160045260246000fd5b600181815b80851115620005665781600019048211156200054a576200054a6200050f565b808516156200055857918102915b93841c93908002906200052a565b509250929050565b6000826200057f575060016200061e565b816200058e575060006200061e565b8160018114620005a75760028114620005b257620005d2565b60019150506200061e565b60ff841115620005c657620005c66200050f565b50506001821b6200061e565b5060208310610133831016604e8410600b8410161715620005f7575081810a6200061e565b62000603838362000525565b80600019048211156200061a576200061a6200050f565b0290505b92915050565b60006200063283836200056e565b9392505050565b80820281158282048414176200061e576200061e6200050f565b808201808211156200061e576200061e6200050f565b610a1880620006796000396000f3fe608060405234801561001057600080fd5b50600436106100df5760003560e01c8063715018a61161008c578063a9059cbb11610066578063a9059cbb146101af578063dd62ed3e146101c2578063e30443bc146101fb578063f2fde38b1461020e57600080fd5b8063715018a6146101825780638da5cb5b1461018c57806395d89b41146101a757600080fd5b806323b872dd116100bd57806323b872dd14610137578063313ce5671461014a57806370a082311461015957600080fd5b806306fdde03146100e4578063095ea7b31461010257806318160ddd14610125575b600080fd5b6100ec610221565b6040516100f99190610847565b60405180910390f35b6101156101103660046108b1565b6102b3565b60405190151581526020016100f9565b6002545b6040519081526020016100f9565b6101156101453660046108db565b6102cd565b604051601281526020016100f9565b610129610167366004610917565b6001600160a01b031660009081526020819052604090205490565b61018a6102f1565b005b6005546040516001600160a01b0390911681526020016100f9565b6100ec610305565b6101156101bd3660046108b1565b610314565b6101296101d0366004610939565b6001600160a01b03918216600090815260016020908152604080832093909416825291909152205490565b61018a6102093660046108b1565b610322565b61018a61021c366004610917565b61037e565b6060600380546102309061096c565b80601f016020809104026020016040519081016040528092919081815260200182805461025c9061096c565b80156102a95780601f1061027e576101008083540402835291602001916102a9565b820191906000526020600020905b81548152906001019060200180831161028c57829003601f168201915b5050505050905090565b6000336102c18185856103da565b60019150505b92915050565b6000336102db8582856103e7565b6102e685858561047e565b506001949350505050565b6102f96104dd565b6103036000610523565b565b6060600480546102309061096c565b6000336102c181858561047e565b61032a6104dd565b6001600160a01b038216600090815260208190526040902054808211156103635761035e8361035983856109bc565b61058d565b505050565b8082101561035e5761035e8361037984846109bc565b6105c7565b6103866104dd565b6001600160a01b0381166103ce576040517f1e4fbdf7000000000000000000000000000000000000000000000000000000008152600060048201526024015b60405180910390fd5b6103d781610523565b50565b61035e83838360016105fd565b6001600160a01b0383811660009081526001602090815260408083209386168352929052205460001981146104785781811015610469576040517ffb8f41b20000000000000000000000000000000000000000000000000000000081526001600160a01b038416600482015260248101829052604481018390526064016103c5565b610478848484840360006105fd565b50505050565b6001600160a01b0383166104a857604051634b637e8f60e11b8152600060048201526024016103c5565b6001600160a01b0382166104d25760405163ec442f0560e01b8152600060048201526024016103c5565b61035e838383610704565b6005546001600160a01b03163314610303576040517f118cdaa70000000000000000000000000000000000000000000000000000000081523360048201526024016103c5565b600580546001600160a01b038381167fffffffffffffffffffffffff0000000000000000000000000000000000000000831681179093556040519116919082907f8be0079c531659141344cd1fd0a4f28419497f9722a3daafe3b4186f6b6457e090600090a35050565b6001600160a01b0382166105b75760405163ec442f0560e01b8152600060048201526024016103c5565b6105c360008383610704565b5050565b6001600160a01b0382166105f157604051634b637e8f60e11b8152600060048201526024016103c5565b6105c382600083610704565b6001600160a01b038416610640576040517fe602df05000000000000000000000000000000000000000000000000000000008152600060048201526024016103c5565b6001600160a01b038316610683576040517f94280d62000000000000000000000000000000000000000000000000000000008152600060048201526024016103c5565b6001600160a01b038085166000908152600160209081526040808320938716835292905220829055801561047857826001600160a01b0316846001600160a01b03167f8c5be1e5ebec7d5bd14f71427d1e84f3dd0314c0f7b2291e5b200ac8c7c3b925846040516106f691815260200190565b60405180910390a350505050565b6001600160a01b03831661072f57806002600082825461072491906109cf565b909155506107ba9050565b6001600160a01b0383166000908152602081905260409020548181101561079b576040517fe450d38c0000000000000000000000000000000000000000000000000000000081526001600160a01b038516600482015260248101829052604481018390526064016103c5565b6001600160a01b03841660009081526020819052604090209082900390555b6001600160a01b0382166107d6576002805482900390556107f5565b6001600160a01b03821660009081526020819052604090208054820190555b816001600160a01b0316836001600160a01b03167fddf252ad1be2c89b69c2b068fc378daa952ba7f163c4a11628f55a4df523b3ef8360405161083a91815260200190565b60405180910390a3505050565b600060208083528351808285015260005b8181101561087457858101830151858201604001528201610858565b506000604082860101526040601f19601f8301168501019250505092915050565b80356001600160a01b03811681146108ac57600080fd5b919050565b600080604083850312156108c457600080fd5b6108cd83610895565b946020939093013593505050565b6000806000606084860312156108f057600080fd5b6108f984610895565b925061090760208501610895565b9150604084013590509250925092565b60006020828403121561092957600080fd5b61093282610895565b9392505050565b6000806040838503121561094c57600080fd5b61095583610895565b915061096360208401610895565b90509250929050565b600181811c9082168061098057607f821691505b6020821081036109a057634e487b7160e01b600052602260045260246000fd5b50919050565b634e487b7160e01b600052601160045260246000fd5b818103818111156102c7576102c76109a6565b808201808211156102c7576102c76109a656fea264697066735822122017004889e7084e84e36ac588e9b3c06c6ac66f8fc591cb25713d89c2df00610464736f6c63430008140033",
  "linkReferences": {},
  "deployedLinkReferences": {}
}