{
  "_format": "hh-sol-artifact-1",
  "contractName": "CW1155ERC1155Pointer",
  "sourceName": "contracts/src/CW1155ERC1155Pointer.sol",
  "abi": [
    {
      "inputs": [
        {
          "internalType": "string",
          "name": "Cw1155Address_",
          "type": "string"
        },
        {
          "internalType": "string",
          "name": "name_",
          "type": "string"
        },
        {
          "internalType": "string",
          "name": "symbol_",
          "type": "string"
        }
      ],
      "stateMutability": "nonpayable",
      "type": "constructor"
    },
    {
      "inputs": [
        {
          "internalType": "address",
          "name": "sender",
          "type": "address"
        },
        {
          "internalType": "uint256",
          "name": "balance",
          "type": "uint256"
        },
        {
          "internalType": "uint256",
          "name": "needed",
          "type": "uint256"
        },
        {
          "internalType": "uint256",
          "name": "tokenId",
          "type": "uint256"
        }
      ],
      "name": "ERC1155InsufficientBalance",
      "type": "error"
    },
    {
      "inputs": [
        {
          "internalType": "address",
          "name": "approver",
          "type": "address"
        }
      ],
      "name": "ERC1155InvalidApprover",
      "type": "error"
    },
    {
      "inputs": [
        {
          "internalType": "uint256",
          "name": "idsLength",
          "type": "uint256"
        },
        {
          "internalType": "uint256",
          "name": "valuesLength",
          "type": "uint256"
        }
      ],
      "name": "ERC1155InvalidArrayLength",
      "type": "error"
    },
    {
      "inputs": [
        {
          "internalType": "address",
          "name": "operator",
          "type": "address"
        }
      ],
      "name": "ERC1155InvalidOperator",
      "type": "error"
    },
    {
      "inputs": [
        {
          "internalType": "address",
          "name": "receiver",
          "type": "address"
        }
      ],
      "name": "ERC1155InvalidReceiver",
      "type": "error"
    },
    {
      "inputs": [
        {
          "internalType": "address",
          "name": "sender",
          "type": "address"
        }
      ],
      "name": "ERC1155InvalidSender",
      "type": "error"
    },
    {
      "inputs": [
        {
          "internalType": "address",
          "name": "operator",
          "type": "address"
        },
        {
          "internalType": "address",
          "name": "owner",
          "type": "address"
        }
      ],
      "name": "ERC1155MissingApprovalForAll",
      "type": "error"
    },
    {
      "inputs": [
        {
          "internalType": "uint256",
          "name": "numerator",
          "type": "uint256"
        },
        {
          "internalType": "uint256",
          "name": "denominator",
          "type": "uint256"
        }
      ],
      "name": "ERC2981InvalidDefaultRoyalty",
      "type": "error"
    },
    {
      "inputs": [
        {
          "internalType": "address",
          "name": "receiver",
          "type": "address"
        }
      ],
      "name": "ERC2981InvalidDefaultRoyaltyReceiver",
      "type": "error"
    },
    {
      "inputs": [
        {
          "internalType": "uint256",
          "name": "tokenId",
          "type": "uint256"
        },
        {
          "internalType": "uint256",
          "name": "numerator",
          "type": "uint256"
        },
        {
          "internalType": "uint256",
          "name": "denominator",
          "type": "uint256"
        }
      ],
      "name": "ERC2981InvalidTokenRoyalty",
      "type": "error"
    },
    {
      "inputs": [
        {
          "internalType": "uint256",
          "name": "tokenId",
          "type": "uint256"
        },
        {
          "internalType": "address",
          "name": "receiver",
          "type": "address"
        }
      ],
      "name": "ERC2981InvalidTokenRoyaltyReceiver",
      "type": "error"
    },
    {
      "inputs": [
        {
          "internalType": "string",
          "name": "method",
          "type": "string"
        }
      ],
      "name": "NotImplemented",
      "type": "error"
    },
    {
      "inputs": [
        {
          "internalType": "string",
          "name": "method",
          "type": "string"
        }
      ],
      "name": "NotImplementedOnCosmwasmContract",
      "type": "error"
    },
    {
      "anonymous": false,
      "inputs": [
        {
          "indexed": true,
          "internalType": "address",
          "name": "account",
          "type": "address"
        },
        {
          "indexed": true,
          "internalType": "address",
          "name": "operator",
          "type": "address"
        },
        {
          "indexed": false,
          "internalType": "bool",
          "name": "approved",
          "type": "bool"
        }
      ],
      "name": "ApprovalForAll",
      "type": "event"
    },
    {
      "anonymous": false,
      "inputs": [
        {
          "indexed": true,
          "internalType": "address",
          "name": "operator",
          "type": "address"
        },
        {
          "indexed": true,
          "internalType": "address",
          "name": "from",
          "type": "address"
        },
        {
          "indexed": true,
          "internalType": "address",
          "name": "to",
          "type": "address"
        },
        {
          "indexed": false,
          "internalType": "uint256[]",
          "name": "ids",
          "type": "uint256[]"
        },
        {
          "indexed": false,
          "internalType": "uint256[]",
          "name": "values",
          "type": "uint256[]"
        }
      ],
      "name": "TransferBatch",
      "type": "event"
    },
    {
      "anonymous": false,
      "inputs": [
        {
          "indexed": true,
          "internalType": "address",
          "name": "operator",
          "type": "address"
        },
        {
          "indexed": true,
          "internalType": "address",
          "name": "from",
          "type": "address"
        },
        {
          "indexed": true,
          "internalType": "address",
          "name": "to",
          "type": "address"
        },
        {
          "indexed": false,
          "internalType": "uint256",
          "name": "id",
          "type": "uint256"
        },
        {
          "indexed": false,
          "internalType": "uint256",
          "name": "value",
          "type": "uint256"
        }
      ],
      "name": "TransferSingle",
      "type": "event"
    },
    {
      "anonymous": false,
      "inputs": [
        {
          "indexed": false,
          "internalType": "string",
          "name": "value",
          "type": "string"
        },
        {
          "indexed": true,
          "internalType": "uint256",
          "name": "id",
          "type": "uint256"
        }
      ],
      "name": "URI",
      "type": "event"
    },
    {
      "inputs": [],
      "name": "AddrPrecompile",
      "outputs": [
        {
          "internalType": "contract IAddr",
          "name": "",
          "type": "address"
        }
      ],
      "stateMutability": "view",
      "type": "function"
    },
    {
      "inputs": [],
      "name": "Cw1155Address",
      "outputs": [
        {
          "internalType": "string",
          "name": "",
          "type": "string"
        }
      ],
      "stateMutability": "view",
      "type": "function"
    },
    {
      "inputs": [],
      "name": "JsonPrecompile",
      "outputs": [
        {
          "internalType": "contract IJson",
          "name": "",
          "type": "address"
        }
      ],
      "stateMutability": "view",
      "type": "function"
    },
    {
      "inputs": [],
      "name": "WasmdPrecompile",
      "outputs": [
        {
          "internalType": "contract IWasmd",
          "name": "",
          "type": "address"
        }
      ],
      "stateMutability": "view",
      "type": "function"
    },
    {
      "inputs": [
        {
          "internalType": "address",
          "name": "account",
          "type": "address"
        },
        {
          "internalType": "uint256",
          "name": "id",
          "type": "uint256"
        }
      ],
      "name": "balanceOf",
      "outputs": [
        {
          "internalType": "uint256",
          "name": "",
          "type": "uint256"
        }
      ],
      "stateMutability": "view",
      "type": "function"
    },
    {
      "inputs": [
        {
          "internalType": "address[]",
          "name": "accounts",
          "type": "address[]"
        },
        {
          "internalType": "uint256[]",
          "name": "ids",
          "type": "uint256[]"
        }
      ],
      "name": "balanceOfBatch",
      "outputs": [
        {
          "internalType": "uint256[]",
          "name": "balances",
          "type": "uint256[]"
        }
      ],
      "stateMutability": "view",
      "type": "function"
    },
    {
      "inputs": [
        {
          "internalType": "address",
          "name": "account",
          "type": "address"
        },
        {
          "internalType": "uint256",
          "name": "id",
          "type": "uint256"
        },
        {
          "internalType": "uint256",
          "name": "amount",
          "type": "uint256"
        }
      ],
      "name": "burn",
      "outputs": [],
      "stateMutability": "nonpayable",
      "type": "function"
    },
    {
      "inputs": [
        {
          "internalType": "address",
          "name": "account",
          "type": "address"
        },
        {
          "internalType": "uint256[]",
          "name": "ids",
          "type": "uint256[]"
        },
        {
          "internalType": "uint256[]",
          "name": "amounts",
          "type": "uint256[]"
        }
      ],
      "name": "burnBatch",
      "outputs": [],
      "stateMutability": "nonpayable",
      "type": "function"
    },
    {
      "inputs": [
        {
          "internalType": "uint256",
          "name": "id",
          "type": "uint256"
        }
      ],
      "name": "exists",
      "outputs": [
        {
          "internalType": "bool",
          "name": "",
          "type": "bool"
        }
      ],
      "stateMutability": "view",
      "type": "function"
    },
    {
      "inputs": [
        {
          "internalType": "address",
          "name": "owner_",
          "type": "address"
        },
        {
          "internalType": "address",
          "name": "operator",
          "type": "address"
        }
      ],
      "name": "isApprovedForAll",
      "outputs": [
        {
          "internalType": "bool",
          "name": "",
          "type": "bool"
        }
      ],
      "stateMutability": "view",
      "type": "function"
    },
    {
      "inputs": [],
      "name": "name",
      "outputs": [
        {
          "internalType": "string",
          "name": "",
          "type": "string"
        }
      ],
      "stateMutability": "view",
      "type": "function"
    },
    {
      "inputs": [],
      "name": "owner",
      "outputs": [
        {
          "internalType": "address",
          "name": "",
          "type": "address"
        }
      ],
      "stateMutability": "view",
      "type": "function"
    },
    {
      "inputs": [
        {
          "internalType": "uint256",
          "name": "tokenId",
          "type": "uint256"
        },
        {
          "internalType": "uint256",
          "name": "salePrice",
          "type": "uint256"
        }
      ],
      "name": "royaltyInfo",
      "outputs": [
        {
          "internalType": "address",
          "name": "",
          "type": "address"
        },
        {
          "internalType": "uint256",
          "name": "",
          "type": "uint256"
        }
      ],
      "stateMutability": "view",
      "type": "function"
    },
    {
      "inputs": [
        {
          "internalType": "address",
          "name": "from",
          "type": "address"
        },
        {
          "internalType": "address",
          "name": "to",
          "type": "address"
        },
        {
          "internalType": "uint256[]",
          "name": "ids",
          "type": "uint256[]"
        },
        {
          "internalType": "uint256[]",
          "name": "amounts",
          "type": "uint256[]"
        },
        {
          "internalType": "bytes",
          "name": "data",
          "type": "bytes"
        }
      ],
      "name": "safeBatchTransferFrom",
      "outputs": [],
      "stateMutability": "nonpayable",
      "type": "function"
    },
    {
      "inputs": [
        {
          "internalType": "address",
          "name": "from",
          "type": "address"
        },
        {
          "internalType": "address",
          "name": "to",
          "type": "address"
        },
        {
          "internalType": "uint256",
          "name": "id",
          "type": "uint256"
        },
        {
          "internalType": "uint256",
          "name": "amount",
          "type": "uint256"
        },
        {
          "internalType": "bytes",
          "name": "data",
          "type": "bytes"
        }
      ],
      "name": "safeTransferFrom",
      "outputs": [],
      "stateMutability": "nonpayable",
      "type": "function"
    },
    {
      "inputs": [
        {
          "internalType": "address",
          "name": "operator",
          "type": "address"
        },
        {
          "internalType": "bool",
          "name": "approved",
          "type": "bool"
        }
      ],
      "name": "setApprovalForAll",
      "outputs": [],
      "stateMutability": "nonpayable",
      "type": "function"
    },
    {
      "inputs": [
        {
          "internalType": "bytes4",
          "name": "interfaceId",
          "type": "bytes4"
        }
      ],
      "name": "supportsInterface",
      "outputs": [
        {
          "internalType": "bool",
          "name": "",
          "type": "bool"
        }
      ],
      "stateMutability": "pure",
      "type": "function"
    },
    {
      "inputs": [],
      "name": "symbol",
      "outputs": [
        {
          "internalType": "string",
          "name": "",
          "type": "string"
        }
      ],
      "stateMutability": "view",
      "type": "function"
    },
    {
      "inputs": [],
      "name": "totalSupply",
      "outputs": [
        {
          "internalType": "uint256",
          "name": "",
          "type": "uint256"
        }
      ],
      "stateMutability": "view",
      "type": "function"
    },
    {
      "inputs": [
        {
          "internalType": "uint256",
          "name": "id",
          "type": "uint256"
        }
      ],
      "name": "totalSupply",
      "outputs": [
        {
          "internalType": "uint256",
          "name": "",
          "type": "uint256"
        }
      ],
      "stateMutability": "view",
      "type": "function"
    },
    {
      "inputs": [
        {
          "internalType": "uint256",
          "name": "id",
          "type": "uint256"
        }
      ],
      "name": "uri",
      "outputs": [
        {
          "internalType": "string",
          "name": "",
          "type": "string"
        }
      ],
      "stateMutability": "view",
      "type": "function"
    }
  ],
  "bytecode": "0x608060405234801561000f575f80fd5b50604051613d42380380613d4283398101604081905261002e91610151565b60408051602081019091525f8152610045816100a5565b5060056100528482610256565b50600680546001600160a01b03199081166110021790915560078054821661100317905560088054909116611004179055600961008f8382610256565b50600a61009c8282610256565b50505050610315565b60026100b18282610256565b5050565b634e487b7160e01b5f52604160045260245ffd5b5f82601f8301126100d8575f80fd5b81516001600160401b03808211156100f2576100f26100b5565b604051601f8301601f19908116603f0116810190828211818310171561011a5761011a6100b5565b81604052838152866020858801011115610132575f80fd5b8360208701602083015e5f602085830101528094505050505092915050565b5f805f60608486031215610163575f80fd5b83516001600160401b0380821115610179575f80fd5b610185878388016100c9565b9450602086015191508082111561019a575f80fd5b6101a6878388016100c9565b935060408601519150808211156101bb575f80fd5b506101c8868287016100c9565b9150509250925092565b600181811c908216806101e657607f821691505b60208210810361020457634e487b7160e01b5f52602260045260245ffd5b50919050565b601f82111561025157805f5260205f20601f840160051c8101602085101561022f5750805b601f840160051c820191505b8181101561024e575f815560010161023b565b50505b505050565b81516001600160401b0381111561026f5761026f6100b5565b6102838161027d84546101d2565b8461020a565b602080601f8311600181146102b6575f841561029f5750858301515b5f19600386901b1c1916600185901b17855561030d565b5f85815260208120601f198616915b828110156102e4578886015182559484019460019091019084016102c5565b508582101561030157878501515f19600388901b60f8161c191681555b505060018460011b0185555b505050505050565b613a20806103225f395ff3fe608060405234801561000f575f80fd5b5060043610610131575f3560e01c80638da5cb5b116100b4578063c2aed30211610079578063c2aed30214610291578063de4725cc146102a4578063e985e9c5146102b7578063f00b0255146102ca578063f242432a146102dd578063f5298aca146102f0575f80fd5b80638da5cb5b1461023b57806395d89b411461025b578063a22cb46514610263578063b98933a014610276578063bd85b0391461027e575f80fd5b80632a55205a116100fa5780632a55205a146101ae5780632eb2c2d6146101e05780634e1273f4146101f55780634f558e79146102155780636b20c45414610228575f80fd5b8062fdd58e1461013557806301ffc9a71461015b57806306fdde031461017e5780630e89341c1461019357806318160ddd146101a6575b5f80fd5b6101486101433660046129a3565b610303565b6040519081526020015b60405180910390f35b61016e6101693660046129e2565b610552565b6040519015158152602001610152565b6101866105bd565b6040516101529190612a2b565b6101866101a1366004612a3d565b610649565b6101486107a5565b6101c16101bc366004612a54565b6108b8565b604080516001600160a01b039093168352602083019190915201610152565b6101f36101ee366004612bb9565b610d46565b005b610208610203366004612c5f565b61125d565b6040516101529190612d54565b61016e610223366004612a3d565b61179a565b6101f3610236366004612d66565b6117ac565b610243611b32565b6040516001600160a01b039091168152602001610152565b610186611ce3565b6101f3610271366004612dd6565b611cf0565b610186611dc4565b61014861028c366004612a3d565b611dd1565b600854610243906001600160a01b031681565b600754610243906001600160a01b031681565b61016e6102c5366004612e11565b611f08565b600654610243906001600160a01b031681565b6101f36102eb366004612e3d565b612165565b6101f36102fe366004612ea0565b612472565b5f6001600160a01b0383166103335760405162461bcd60e51b815260040161032a90612ed2565b60405180910390fd5b604080518082018252600581526437bbb732b960d91b60208201526008549151630c3c20ed60e01b81526001600160a01b0386811660048301525f936103d193926103cc9290911690630c3c20ed906024015b5f60405180830381865afa1580156103a0573d5f803e3d5ffd5b505050506040513d5f823e601f3d908101601f191682016040526103c79190810190612f55565b61262b565b612671565b90505f610404604051806040016040528060088152602001671d1bdad95b97da5960c21b8152506103cc6103c7876126a6565b90505f61045c6104576040518060400160405280600a8152602001693130b630b731b2afb7b360b11b8152506103cc61045787604051806040016040528060018152602001600b60fa1b81525088612735565b612781565b6006546040516306d81d2960e01b81529192505f916001600160a01b03909116906306d81d2990610494906005908690600401613070565b5f60405180830381865afa1580156104ae573d5f803e3d5ffd5b505050506040513d5f823e601f3d908101601f191682016040526104d591908101906130b2565b600754604051632d2ac4c160e11b81529192506001600160a01b031690635a558982906105069084906004016130e3565b602060405180830381865afa158015610521573d5f803e3d5ffd5b505050506040513d601f19601f82011682018060405250810190610545919061311e565b9450505050505b92915050565b5f6001600160e01b0319821663152a902d60e11b148061058257506001600160e01b03198216636cdb3d1360e11b145b8061059d57506001600160e01b031982166303a24d0760e21b145b8061054c57506001600160e01b031982166301ffc9a760e01b1492915050565b600980546105ca90612f99565b80601f01602080910402602001604051908101604052809291908181526020018280546105f690612f99565b80156106415780601f1061061857610100808354040283529160200191610641565b820191905f5260205f20905b81548152906001019060200180831161062457829003601f168201915b505050505081565b60605f61067f610457604051806040016040528060088152602001671d1bdad95b97da5960c21b8152506103cc6103c7876126a6565b90505f6106b16104576040518060400160405280600a815260200169746f6b656e5f696e666f60b01b81525084612671565b6006546040516306d81d2960e01b81529192505f916001600160a01b03909116906306d81d29906106e9906005908690600401613070565b5f60405180830381865afa158015610703573d5f803e3d5ffd5b505050506040513d5f823e601f3d908101601f1916820160405261072a91908101906130b2565b6007546040516308d858e560e01b81529192506001600160a01b0316906308d858e59061075b908490600401613135565b5f60405180830381865afa158015610775573d5f803e3d5ffd5b505050506040513d5f823e601f3d908101601f1916820160405261079c91908101906130b2565b95945050505050565b60065460408051808201825260118152707b226e756d5f746f6b656e73223a7b7d7d60781b602082015290516306d81d2960e01b81525f9283926001600160a01b03909116916306d81d29916108019160059190600401613070565b5f60405180830381865afa15801561081b573d5f803e3d5ffd5b505050506040513d5f823e601f3d908101601f1916820160405261084291908101906130b2565b600754604051632d2ac4c160e11b81529192506001600160a01b031690635a55898290610873908490600401613172565b602060405180830381865afa15801561088e573d5f803e3d5ffd5b505050506040513d601f19601f820116820180604052508101906108b2919061311e565b91505090565b5f805f60065f9054906101000a90046001600160a01b03166001600160a01b03166306d81d2960056040518060600160405280602c81526020016139bf602c91396040518363ffffffff1660e01b8152600401610916929190613070565b5f60405180830381865afa158015610930573d5f803e3d5ffd5b505050506040513d5f823e601f3d908101601f1916820160405261095791908101906130b2565b6007546040516308d858e560e01b81529192505f916001600160a01b03909116906308d858e59061098c9085906004016131ab565b5f60405180830381865afa1580156109a6573d5f803e3d5ffd5b505050506040513d5f823e601f3d908101601f191682016040526109cd91908101906130b2565b90507f6273151f959616268004b58dbb21e5c851b7b8d04498b4aabee12291d22fc034818051906020012014610a355760405163438c4bcb60e01b815260206004820152600c60248201526b726f79616c74795f696e666f60a01b604482015260640161032a565b5f610a66604051806040016040528060088152602001671d1bdad95b97da5960c21b8152506103cc6103c78a6126a6565b90505f610a9b6040518060400160405280600a81526020016973616c655f707269636560b01b8152506103cc6103c78a6126a6565b90505f610af06104576040518060400160405280600c81526020016b726f79616c74795f696e666f60a01b8152506103cc61045787604051806040016040528060018152602001600b60fa1b81525088612735565b90505f610b436104576040518060400160405280600981526020016832bc3a32b739b4b7b760b91b8152506103cc610457604051806040016040528060038152602001626d736760e81b81525087612671565b6006546040516306d81d2960e01b81529192505f916001600160a01b03909116906306d81d2990610b7b906005908690600401613070565b5f60405180830381865afa158015610b95573d5f803e3d5ffd5b505050506040513d5f823e601f3d908101601f19168201604052610bbc91908101906130b2565b6007546040516308d858e560e01b81529192505f916001600160a01b03909116906308d858e590610bf19085906004016131ef565b5f60405180830381865afa158015610c0b573d5f803e3d5ffd5b505050506040513d5f823e601f3d908101601f19168201604052610c3291908101906130b2565b600754604051632d2ac4c160e11b81529192505f916001600160a01b0390911690635a55898290610c6790869060040161322a565b602060405180830381865afa158015610c82573d5f803e3d5ffd5b505050506040513d601f19601f82011682018060405250810190610ca6919061311e565b905081515f03610cc3575f9a509850610d3f975050505050505050565b600854604051631778e53960e01b81526001600160a01b0390911690631778e53990610cf3908590600401612a2b565b602060405180830381865afa158015610d0e573d5f803e3d5ffd5b505050506040513d601f19601f82011682018060405250810190610d32919061326c565b9a50985050505050505050505b9250929050565b6001600160a01b038416610d6c5760405162461bcd60e51b815260040161032a90613287565b336001600160a01b0386161480610d885750610d888533611f08565b610da45760405162461bcd60e51b815260040161032a906132cc565b8151835114610dc55760405162461bcd60e51b815260040161032a90613317565b5f83516001600160401b03811115610ddf57610ddf612a74565b604051908082528060200260200182016040528015610e08578160200160208202803683370190505b5090505f5b8451811015610e495786828281518110610e2957610e2961335f565b6001600160a01b0390921660209283029190910190910152600101610e0d565b505f610e55828661125d565b90505f5b8151811015610ebc57848181518110610e7457610e7461335f565b6020026020010151828281518110610e8e57610e8e61335f565b60200260200101511015610eb45760405162461bcd60e51b815260040161032a90613373565b600101610e59565b50600854604051630c3c20ed60e01b81526001600160a01b0389811660048301525f921690630c3c20ed906024015f60405180830381865afa158015610f04573d5f803e3d5ffd5b505050506040513d5f823e601f3d908101601f19168201604052610f2b9190810190612f55565b604051602001610f3b91906133d4565b604051602081830303815290604052905080604051602001610f5d9190613405565b60408051808303601f1901815290829052600854630c3c20ed60e01b83526001600160a01b038a811660048501529193508392911690630c3c20ed906024015f60405180830381865afa158015610fb6573d5f803e3d5ffd5b505050506040513d5f823e601f3d908101601f19168201604052610fdd9190810190612f55565b604051602001610fee929190613428565b604051602081830303815290604052905080604051602001611010919061343c565b60405160208183030381529060405290505f5b8651811015611157575f61104f8883815181106110425761104261335f565b60200260200101516126a6565b60405160200161105f9190613462565b6040516020818303038152906040529050806040516020016110819190613483565b6040516020818303038152906040529050806110a88884815181106110425761104261335f565b6040516020016110b9929190613428565b6040516020818303038152906040529050600188516110d891906134aa565b82101561110657806040516020016110f091906134c9565b6040516020818303038152906040529050611129565b8060405160200161111791906134e7565b60405160208183030381529060405290505b828160405160200161113c929190613428565b60408051601f19818403018152919052925050600101611023565b50806040516020016111699190613504565b6040516020818303038152906040529050611183816127b1565b506001600160a01b0387163b156112535760405163bc197c8160e01b808252906001600160a01b0389169063bc197c81906111ca9033908d908c908c908c90600401613522565b6020604051808303815f875af11580156111e6573d5f803e3d5ffd5b505050506040513d601f19601f8201168201806040525081019061120a919061357f565b6001600160e01b031916146112535760405162461bcd60e51b815260206004820152600f60248201526e3ab739b0b332903a3930b739b332b960891b604482015260640161032a565b5050505050505050565b606082515f036112c15760405162461bcd60e51b815260206004820152602960248201527f455243313135353a2063616e6e6f7420717565727920656d707479206163636f6044820152681d5b9d1cc81b1a5cdd60ba1b606482015260840161032a565b81518351146112f05781518351604051635b05999160e01b81526004810192909252602482015260440161032a565b6040805180820190915260018152605b60f81b60208201525f5b84518110156114ee575f6001600160a01b031685828151811061132f5761132f61335f565b60200260200101516001600160a01b03160361135d5760405162461bcd60e51b815260040161032a90612ed2565b80156113865781604051602001611374919061359a565b60405160208183030381529060405291505b60085485515f916001600160a01b031690630c3c20ed908890859081106113af576113af61335f565b60200260200101516040518263ffffffff1660e01b81526004016113e291906001600160a01b0391909116815260200190565b5f60405180830381865afa1580156113fc573d5f803e3d5ffd5b505050506040513d5f823e601f3d908101601f191682016040526114239190810190612f55565b60405160200161143391906135b6565b60405160208183030381529060405290508060405160200161145591906135d4565b60405160208183030381529060405290508061147c8684815181106110425761104261335f565b60405160200161148d929190613428565b6040516020818303038152906040529050806040516020016114af91906134e7565b604051602081830303815290604052905082816040516020016114d3929190613428565b60408051601f1981840301815291905292505060010161130a565b508060405160200161150091906135fd565b60408051601f19818403018152828201909152601082526f0c4c2d8c2dcc6cabedeccbec4c2e8c6d60831b602083015291505f90611542906104579084612671565b6006546040516306d81d2960e01b81529192505f916001600160a01b03909116906306d81d299061157a906005908690600401613070565b5f60405180830381865afa158015611594573d5f803e3d5ffd5b505050506040513d5f823e601f3d908101601f191682016040526115bb91908101906130b2565b6007546040516387cdf62160e01b81529192505f916001600160a01b03909116906387cdf621906115f0908590600401613619565b5f60405180830381865afa15801561160a573d5f803e3d5ffd5b505050506040513d5f823e601f3d908101601f191682016040526116319190810190613655565b9050865181511461168e5760405162461bcd60e51b815260206004820152602160248201527f496e76616c69642062616c616e63655f6f665f626174636820726573706f6e736044820152606560f81b606482015260840161032a565b80516001600160401b038111156116a7576116a7612a74565b6040519080825280602002602001820160405280156116d0578160200160208202803683370190505b5094505f5b815181101561178f5760075482516001600160a01b0390911690635a558982908490849081106117075761170761335f565b60200260200101516040518263ffffffff1660e01b815260040161172b91906136fe565b602060405180830381865afa158015611746573d5f803e3d5ffd5b505050506040513d601f19601f8201168201806040525081019061176a919061311e565b86828151811061177c5761177c61335f565b60209081029190910101526001016116d5565b505050505092915050565b5f806117a583611dd1565b1192915050565b6001600160a01b0383166117d25760405162461bcd60e51b815260040161032a90613738565b336001600160a01b03841614806117ee57506117ee8333611f08565b61180a5760405162461bcd60e51b815260040161032a90613782565b805182511461182b5760405162461bcd60e51b815260040161032a90613317565b5f82516001600160401b0381111561184557611845612a74565b60405190808252806020026020018201604052801561186e578160200160208202803683370190505b5090505f5b83518110156118af578482828151811061188f5761188f61335f565b6001600160a01b0390921660209283029190910190910152600101611873565b505f6118bb828561125d565b90505f5b8151811015611922578381815181106118da576118da61335f565b60200260200101518282815181106118f4576118f461335f565b6020026020010151101561191a5760405162461bcd60e51b815260040161032a906137c9565b6001016118bf565b50600854604051630c3c20ed60e01b81526001600160a01b0387811660048301525f921690630c3c20ed906024015f60405180830381865afa15801561196a573d5f803e3d5ffd5b505050506040513d5f823e601f3d908101601f191682016040526119919190810190612f55565b6040516020016119a19190613812565b6040516020818303038152906040529050806040516020016119c3919061343c565b60405160208183030381529060405290505f5b8551811015611afd575f6119f58783815181106110425761104261335f565b604051602001611a059190613462565b604051602081830303815290604052905080604051602001611a279190613483565b604051602081830303815290604052905080611a4e8784815181106110425761104261335f565b604051602001611a5f929190613428565b604051602081830303815290604052905060018751611a7e91906134aa565b821015611aac5780604051602001611a9691906134c9565b6040516020818303038152906040529050611acf565b80604051602001611abd91906134e7565b60405160208183030381529060405290505b8281604051602001611ae2929190613428565b60408051601f198184030181529190529250506001016119d6565b5080604051602001611b0f9190613504565b6040516020818303038152906040529050611b29816127b1565b50505050505050565b5f80611b7c6104576040518060400160405280600981526020016806f776e6572736869760bc1b815250604051806040016040528060028152602001617b7d60f01b815250612671565b6006546040516306d81d2960e01b81529192505f916001600160a01b03909116906306d81d2990611bb4906005908690600401613070565b5f60405180830381865afa158015611bce573d5f803e3d5ffd5b505050506040513d5f823e601f3d908101601f19168201604052611bf591908101906130b2565b6007546040516308d858e560e01b81529192505f916001600160a01b03909116906308d858e590611c2a908590600401613843565b5f60405180830381865afa158015611c44573d5f803e3d5ffd5b505050506040513d5f823e601f3d908101601f19168201604052611c6b91908101906130b2565b600854604051631778e53960e01b81529192506001600160a01b031690631778e53990611c9c908490600401612a2b565b602060405180830381865afa158015611cb7573d5f803e3d5ffd5b505050506040513d601f19601f82011682018060405250810190611cdb919061326c565b935050505090565b600a80546105ca90612f99565b60408051808201825260088082526737b832b930ba37b960c11b6020830152549151630c3c20ed60e01b81526001600160a01b0385811660048301525f93611d4c936104579390926103cc921690630c3c20ed90602401610386565b90508115611d9257611d8c611d876104576040518060400160405280600b81526020016a185c1c1c9bdd9957d85b1b60aa1b81525084612671565b6127b1565b50505050565b611d8c611d876104576040518060400160405280600a8152602001691c995d9bdad957d85b1b60b21b81525084612671565b600580546105ca90612f99565b5f80611ddc836126a6565b604051602001611dec919061387c565b60408051601f1981840301815290829052611e09916020016138ad565b60408051601f19818403018152908290526006546306d81d2960e01b83529092505f916001600160a01b03909116906306d81d2990611e4f906005908690600401613070565b5f60405180830381865afa158015611e69573d5f803e3d5ffd5b505050506040513d5f823e601f3d908101601f19168201604052611e9091908101906130b2565b600754604051632d2ac4c160e11b81529192506001600160a01b031690635a55898290611ec1908490600401613172565b602060405180830381865afa158015611edc573d5f803e3d5ffd5b505050506040513d601f19601f82011682018060405250810190611f00919061311e565b949350505050565b604080518082018252600581526437bbb732b960d91b60208201526008549151630c3c20ed60e01b81526001600160a01b0385811660048301525f938493611f609390926103cc921690630c3c20ed90602401610386565b60408051808201825260088082526737b832b930ba37b960c11b6020830152549151630c3c20ed60e01b81526001600160a01b0387811660048301529394505f93611fba936103cc92911690630c3c20ed90602401610386565b90505f612016610457604051806040016040528060138152602001721a5cd7d85c1c1c9bdd995917d99bdc97d85b1b606a1b8152506103cc61045787604051806040016040528060018152602001600b60fa1b81525088612735565b6006546040516306d81d2960e01b81529192505f916001600160a01b03909116906306d81d299061204e906005908690600401613070565b5f60405180830381865afa158015612068573d5f803e3d5ffd5b505050506040513d5f823e601f3d908101601f1916820160405261208f91908101906130b2565b805160209091012090507fcaee814326a6c7f4fa662c68d7b3b870a5d5acd17b1f40110f6b605e9ceba5f87f20ef1005216a530f0cc1ed321d1fa4fdba18937c7c2244c81dccfdbc8ae527417f35117ebcd959380b0599d397284c478f5a2a532e84e0bfeef0949fa163145a088301612111576001965050505050505061054c565b808303612126575f965050505050505061054c565b60405163438c4bcb60e01b81526020600482015260136024820152721a5cd7d85c1c1c9bdd995917d99bdc97d85b1b606a1b604482015260640161032a565b6001600160a01b03841661218b5760405162461bcd60e51b815260040161032a90613287565b816121968685610303565b10156121b45760405162461bcd60e51b815260040161032a90613373565b336001600160a01b03861614806121d057506121d08533611f08565b6121ec5760405162461bcd60e51b815260040161032a906132cc565b60408051808201825260048082526366726f6d60e01b60208301526008549251630c3c20ed60e01b81526001600160a01b03898116928201929092525f9361224493926103cc92911690630c3c20ed90602401610386565b6040805180820182526002815261746f60f01b60208201526008549151630c3c20ed60e01b81526001600160a01b0389811660048301529394505f93612299936103cc92911690630c3c20ed90602401610386565b90505f6122cc604051806040016040528060088152602001671d1bdad95b97da5960c21b8152506103cc6103c7896126a6565b90505f6122fd60405180604001604052806006815260200165185b5bdd5b9d60d21b8152506103cc6103c7896126a6565b90505f61238b610457604051806040016040528060048152602001631cd95b9960e21b8152506103cc61045789604051806040016040528060018152602001600b60fa1b8152506123868b604051806040016040528060018152602001600b60fa1b8152506123868d604051806040016040528060018152602001600b60fa1b8152508e612735565b612735565b9050612396816127b1565b506001600160a01b0389163b156124665760405163f23a6e6160e01b808252906001600160a01b038b169063f23a6e61906123dd9033908f908e908e908e906004016138cb565b6020604051808303815f875af11580156123f9573d5f803e3d5ffd5b505050506040513d601f19601f8201168201806040525081019061241d919061357f565b6001600160e01b031916146124665760405162461bcd60e51b815260206004820152600f60248201526e3ab739b0b332903a3930b739b332b960891b604482015260640161032a565b50505050505050505050565b6001600160a01b0383166124985760405162461bcd60e51b815260040161032a90613738565b806124a38484610303565b10156124c15760405162461bcd60e51b815260040161032a906137c9565b336001600160a01b03841614806124dd57506124dd8333611f08565b6124f95760405162461bcd60e51b815260040161032a90613782565b60408051808201825260048082526366726f6d60e01b60208301526008549251630c3c20ed60e01b81526001600160a01b03878116928201929092525f9361255193926103cc92911690630c3c20ed90602401610386565b90505f612584604051806040016040528060088152602001671d1bdad95b97da5960c21b8152506103cc6103c7876126a6565b90505f6125b560405180604001604052806006815260200165185b5bdd5b9d60d21b8152506103cc6103c7876126a6565b90505f61262061045760405180604001604052806004815260200163313ab93760e11b8152506103cc61045788604051806040016040528060018152602001600b60fa1b8152506123868a604051806040016040528060018152602001600b60fa1b8152508b612735565b9050611253816127b1565b60608160405160200161263e919061390f565b60408051601f198184030181529082905261265b9160200161392b565b6040516020818303038152906040529050919050565b606061269f61267f8461262b565b604051806040016040528060018152602001601d60f91b81525084612735565b9392505050565b60605f6126b2836128b5565b60010190505f816001600160401b038111156126d0576126d0612a74565b6040519080825280601f01601f1916602001820160405280156126fa576020820181803683370190505b5090508181016020015b5f19016f181899199a1a9b1b9c1cb0b131b232b360811b600a86061a8153600a850494508461270457509392505050565b606083838360405160200161274b929190613428565b60408051601f19818403018152908290526127699291602001613428565b60405160208183030381529060405290509392505050565b6060816040516020016127949190613940565b60408051601f198184030181529082905261265b9160200161395c565b60605f806110026001600160a01b0316600585604051806040016040528060028152602001615b5d60f01b8152506040516024016127f193929190613971565b60408051601f198184030181529181526020820180516001600160e01b031663226913d760e11b1790525161282691906139b3565b5f60405180830381855af49150503d805f811461285e576040519150601f19603f3d011682016040523d82523d5f602084013e612863565b606091505b50915091508161269f5760405162461bcd60e51b815260206004820152601760248201527f436f736d5761736d2065786563757465206661696c6564000000000000000000604482015260640161032a565b5f8072184f03e93ff9f4daa797ed6e38ed64bf6a1f0160401b83106128f35772184f03e93ff9f4daa797ed6e38ed64bf6a1f0160401b830492506040015b6d04ee2d6d415b85acef8100000000831061291f576d04ee2d6d415b85acef8100000000830492506020015b662386f26fc10000831061293d57662386f26fc10000830492506010015b6305f5e1008310612955576305f5e100830492506008015b612710831061296957612710830492506004015b6064831061297b576064830492506002015b600a831061054c5760010192915050565b6001600160a01b03811681146129a0575f80fd5b50565b5f80604083850312156129b4575f80fd5b82356129bf8161298c565b946020939093013593505050565b6001600160e01b0319811681146129a0575f80fd5b5f602082840312156129f2575f80fd5b813561269f816129cd565b5f81518084528060208401602086015e5f602082860101526020601f19601f83011685010191505092915050565b602081525f61269f60208301846129fd565b5f60208284031215612a4d575f80fd5b5035919050565b5f8060408385031215612a65575f80fd5b50508035926020909101359150565b634e487b7160e01b5f52604160045260245ffd5b604051601f8201601f191681016001600160401b0381118282101715612ab057612ab0612a74565b604052919050565b5f6001600160401b03821115612ad057612ad0612a74565b5060051b60200190565b5f82601f830112612ae9575f80fd5b81356020612afe612af983612ab8565b612a88565b8083825260208201915060208460051b870101935086841115612b1f575f80fd5b602086015b84811015612b3b5780358352918301918301612b24565b509695505050505050565b5f6001600160401b03821115612b5e57612b5e612a74565b50601f01601f191660200190565b5f82601f830112612b7b575f80fd5b8135612b89612af982612b46565b818152846020838601011115612b9d575f80fd5b816020850160208301375f918101602001919091529392505050565b5f805f805f60a08688031215612bcd575f80fd5b8535612bd88161298c565b94506020860135612be88161298c565b935060408601356001600160401b0380821115612c03575f80fd5b612c0f89838a01612ada565b94506060880135915080821115612c24575f80fd5b612c3089838a01612ada565b93506080880135915080821115612c45575f80fd5b50612c5288828901612b6c565b9150509295509295909350565b5f8060408385031215612c70575f80fd5b82356001600160401b0380821115612c86575f80fd5b818501915085601f830112612c99575f80fd5b81356020612ca9612af983612ab8565b82815260059290921b84018101918181019089841115612cc7575f80fd5b948201945b83861015612cee578535612cdf8161298c565b82529482019490820190612ccc565b96505086013592505080821115612d03575f80fd5b50612d1085828601612ada565b9150509250929050565b5f815180845260208085019450602084015f5b83811015612d4957815187529582019590820190600101612d2d565b509495945050505050565b602081525f61269f6020830184612d1a565b5f805f60608486031215612d78575f80fd5b8335612d838161298c565b925060208401356001600160401b0380821115612d9e575f80fd5b612daa87838801612ada565b93506040860135915080821115612dbf575f80fd5b50612dcc86828701612ada565b9150509250925092565b5f8060408385031215612de7575f80fd5b8235612df28161298c565b915060208301358015158114612e06575f80fd5b809150509250929050565b5f8060408385031215612e22575f80fd5b8235612e2d8161298c565b91506020830135612e068161298c565b5f805f805f60a08688031215612e51575f80fd5b8535612e5c8161298c565b94506020860135612e6c8161298c565b9350604086013592506060860135915060808601356001600160401b03811115612e94575f80fd5b612c5288828901612b6c565b5f805f60608486031215612eb2575f80fd5b8335612ebd8161298c565b95602085013595506040909401359392505050565b6020808252602d908201527f455243313135353a2063616e6e6f742071756572792062616c616e6365206f6660408201526c207a65726f206164647265737360981b606082015260800190565b5f612f2c612af984612b46565b9050828152838383011115612f3f575f80fd5b8282602083015e5f602084830101529392505050565b5f60208284031215612f65575f80fd5b81516001600160401b03811115612f7a575f80fd5b8201601f81018413612f8a575f80fd5b611f0084825160208401612f1f565b600181811c90821680612fad57607f821691505b602082108103612fcb57634e487b7160e01b5f52602260045260245ffd5b50919050565b80545f90600181811c9080831680612fea57607f831692505b6020808410820361300957634e487b7160e01b5f52602260045260245ffd5b83885260208801828015613024576001811461303a57613063565b60ff198716825285151560051b82019750613063565b5f898152602090205f5b8781101561305d57815484820152908601908401613044565b83019850505b5050505050505092915050565b604081525f6130826040830185612fd1565b828103602084015261079c81856129fd565b5f82601f8301126130a3575f80fd5b61269f83835160208501612f1f565b5f602082840312156130c2575f80fd5b81516001600160401b038111156130d7575f80fd5b611f0084828501613094565b604081525f6130f560408301846129fd565b8281036020840152600781526662616c616e636560c81b60208201526040810191505092915050565b5f6020828403121561312e575f80fd5b5051919050565b604081525f61314760408301846129fd565b82810360208401526009815268746f6b656e5f75726960b81b60208201526040810191505092915050565b604081525f61318460408301846129fd565b8281036020840152600581526418dbdd5b9d60da1b60208201526040810191505092915050565b604081525f6131bd60408301846129fd565b8281036020840152601081526f726f79616c74795f7061796d656e747360801b60208201526040810191505092915050565b604081525f61320160408301846129fd565b828103602084015260078152666164647265737360c81b60208201526040810191505092915050565b604081525f61323c60408301846129fd565b8281036020840152600e81526d1c9bde585b1d1e57d85b5bdd5b9d60921b60208201526040810191505092915050565b5f6020828403121561327c575f80fd5b815161269f8161298c565b60208082526025908201527f455243313135353a207472616e7366657220746f20746865207a65726f206164604082015264647265737360d81b606082015260800190565b6020808252602b908201527f455243313135353a2063616c6c6572206973206e6f7420617070726f7665642060408201526a3a37903a3930b739b332b960a91b606082015260800190565b60208082526028908201527f455243313135353a2069647320616e6420616d6f756e7473206c656e677468206040820152670dad2e6dac2e8c6d60c31b606082015260800190565b634e487b7160e01b5f52603260045260245ffd5b6020808252602a908201527f455243313135353a20696e73756666696369656e742062616c616e636520666f60408201526939103a3930b739b332b960b11b606082015260800190565b5f81518060208401855e5f93019283525090919050565b7f7b2273656e645f6261746368223a7b2266726f6d223a2200000000000000000081525f61269f60178301846133bd565b5f61341082846133bd565b671116113a37911d1160c11b81526008019392505050565b5f611f0061343683866133bd565b846133bd565b5f61344782846133bd565b6a222c226261746368223a5b60a81b8152600b019392505050565b6c3d913a37b5b2b72fb4b2111d1160991b81525f61269f600d8301846133bd565b5f61348e82846133bd565b6b11161130b6b7bab73a111d1160a11b8152600c019392505050565b8181038181111561054c57634e487b7160e01b5f52601160045260245ffd5b5f6134d482846133bd565b62089f4b60ea1b81526003019392505050565b5f6134f282846133bd565b61227d60f01b81526002019392505050565b5f61350f82846133bd565b625d7d7d60e81b81526003019392505050565b6001600160a01b0386811682528516602082015260a0604082018190525f9061354d90830186612d1a565b828103606084015261355f8186612d1a565b9050828103608084015261357381856129fd565b98975050505050505050565b5f6020828403121561358f575f80fd5b815161269f816129cd565b5f6135a582846133bd565b600b60fa1b81526001019392505050565b693d9137bbb732b9111d1160b11b81525f61269f600a8301846133bd565b5f6135df82846133bd565b6d1116113a37b5b2b72fb4b2111d1160911b8152600e019392505050565b5f61360882846133bd565b605d60f81b81526001019392505050565b604081525f61362b60408301846129fd565b8281036020840152600881526762616c616e63657360c01b60208201526040810191505092915050565b5f6020808385031215613666575f80fd5b82516001600160401b038082111561367c575f80fd5b818501915085601f83011261368f575f80fd5b815161369d612af982612ab8565b81815260059190911b830184019084810190888311156136bb575f80fd5b8585015b838110156136f1578051858111156136d5575f80fd5b6136e38b89838a0101613094565b8452509186019186016136bf565b5098975050505050505050565b604081525f61371060408301846129fd565b82810360208401526006815265185b5bdd5b9d60d21b60208201526040810191505092915050565b6020808252602a908201527f455243313135353a2063616e6e6f74206275726e2066726f6d20746865207a65604082015269726f206164647265737360b01b606082015260800190565b60208082526027908201527f455243313135353a2063616c6c6572206973206e6f7420617070726f766564206040820152663a3790313ab93760c91b606082015260800190565b60208082526029908201527f455243313135353a20696e73756666696369656e742062616c616e636520666f60408201526872206275726e696e6760b81b606082015260800190565b7f7b226275726e5f6261746368223a7b2266726f6d223a2200000000000000000081525f61269f60178301846133bd565b604081525f61385560408301846129fd565b8281036020840152600581526437bbb732b960d91b60208201526040810191505092915050565b7f7b226e756d5f746f6b656e73223a7b22746f6b656e5f6964223a22000000000081525f61269f601b8301846133bd565b5f6138b882846133bd565b62227d7d60e81b81526003019392505050565b6001600160a01b03868116825285166020820152604081018490526060810183905260a0608082018190525f90613904908301846129fd565b979650505050505050565b5f61391a82846133bd565b601160f91b81526001019392505050565b601160f91b81525f61269f60018301846133bd565b5f61394b82846133bd565b607d60f81b81526001019392505050565b607b60f81b81525f61269f60018301846133bd565b606081525f6139836060830186612fd1565b828103602084015261399581866129fd565b905082810360408401526139a981856129fd565b9695505050505050565b5f61269f82846133bd56fe7b22657874656e73696f6e223a7b226d7367223a7b22636865636b5f726f79616c74696573223a7b7d7d7d7da2646970667358221220dcf338414f1be3e32070520e823ab3be1832b11bfa1daa1a45e652dd5f8fbcde64736f6c63430008190033",
  "linkReferences": {},
  "deployedLinkReferences": {}
}