{
  "_format": "hh-sol-artifact-1",
  "contractName": "EVMCompatibilityTester",
  "sourceName": "src/EVMCompatibilityTester.sol",
  "abi": [
    {
      "inputs": [],
      "stateMutability": "nonpayable",
      "type": "constructor"
    },
    {
      "anonymous": false,
      "inputs": [
        {
          "indexed": false,
          "internalType": "string",
          "name": "action",
          "type": "string"
        },
        {
          "indexed": true,
          "internalType": "address",
          "name": "performer",
          "type": "address"
        }
      ],
      "name": "ActionPerformed",
      "type": "event"
    },
    {
      "anonymous": false,
      "inputs": [
        {
          "indexed": true,
          "internalType": "address",
          "name": "performer",
          "type": "address"
        }
      ],
      "name": "AddressSet",
      "type": "event"
    },
    {
      "anonymous": false,
      "inputs": [
        {
          "indexed": false,
          "internalType": "address",
          "name": "performer",
          "type": "address"
        },
        {
          "indexed": false,
          "internalType": "bool",
          "name": "value",
          "type": "bool"
        }
      ],
      "name": "BoolSet",
      "type": "event"
    },
    {
      "anonymous": false,
      "inputs": [
        {
          "indexed": true,
          "internalType": "address",
          "name": "performer",
          "type": "address"
        },
        {
          "indexed": false,
          "internalType": "uint256",
          "name": "value",
          "type": "uint256"
        }
      ],
      "name": "LogIndexEvent",
      "type": "event"
    },
    {
      "anonymous": false,
      "inputs": [
        {
          "indexed": true,
          "internalType": "address",
          "name": "performer",
          "type": "address"
        },
        {
          "indexed": false,
          "internalType": "string",
          "name": "value",
          "type": "string"
        }
      ],
      "name": "StringSet",
      "type": "event"
    },
    {
      "anonymous": false,
      "inputs": [
        {
          "indexed": true,
          "internalType": "address",
          "name": "performer",
          "type": "address"
        },
        {
          "indexed": false,
          "internalType": "uint256",
          "name": "value",
          "type": "uint256"
        }
      ],
      "name": "Uint256Set",
      "type": "event"
    },
    {
      "inputs": [
        {
          "internalType": "uint256",
          "name": "a",
          "type": "uint256"
        },
        {
          "internalType": "uint256",
          "name": "b",
          "type": "uint256"
        }
      ],
      "name": "addNumbers",
      "outputs": [
        {
          "internalType": "uint256",
          "name": "sum",
          "type": "uint256"
        }
      ],
      "stateMutability": "pure",
      "type": "function"
    },
    {
      "inputs": [],
      "name": "addressVar",
      "outputs": [
        {
          "internalType": "address",
          "name": "",
          "type": "address"
        }
      ],
      "stateMutability": "view",
      "type": "function"
    },
    {
      "inputs": [
        {
          "internalType": "address",
          "name": "",
          "type": "address"
        }
      ],
      "name": "balances",
      "outputs": [
        {
          "internalType": "uint256",
          "name": "",
          "type": "uint256"
        }
      ],
      "stateMutability": "view",
      "type": "function"
    },
    {
      "inputs": [],
      "name": "boolVar",
      "outputs": [
        {
          "internalType": "bool",
          "name": "",
          "type": "bool"
        }
      ],
      "stateMutability": "view",
      "type": "function"
    },
    {
      "inputs": [
        {
          "internalType": "address",
          "name": "contractAddress",
          "type": "address"
        },
        {
          "internalType": "bytes",
          "name": "data",
          "type": "bytes"
        }
      ],
      "name": "callAnotherContract",
      "outputs": [],
      "stateMutability": "nonpayable",
      "type": "function"
    },
    {
      "inputs": [
        {
          "internalType": "string",
          "name": "name",
          "type": "string"
        },
        {
          "internalType": "string",
          "name": "symbol",
          "type": "string"
        }
      ],
      "name": "createToken",
      "outputs": [],
      "stateMutability": "nonpayable",
      "type": "function"
    },
    {
      "inputs": [],
      "name": "depositEther",
      "outputs": [],
      "stateMutability": "payable",
      "type": "function"
    },
    {
      "inputs": [
        {
          "internalType": "uint256",
          "name": "count",
          "type": "uint256"
        }
      ],
      "name": "emitMultipleLogs",
      "outputs": [],
      "stateMutability": "nonpayable",
      "type": "function"
    },
    {
      "inputs": [],
      "name": "getBlockProperties",
      "outputs": [
        {
          "internalType": "bytes32",
          "name": "blockHash",
          "type": "bytes32"
        },
        {
          "internalType": "address payable",
          "name": "coinbase",
          "type": "address"
        },
        {
          "internalType": "uint256",
          "name": "prevrandao",
          "type": "uint256"
        },
        {
          "internalType": "uint256",
          "name": "gaslimit",
          "type": "uint256"
        },
        {
          "internalType": "uint256",
          "name": "number",
          "type": "uint256"
        },
        {
          "internalType": "uint256",
          "name": "timestamp",
          "type": "uint256"
        }
      ],
      "stateMutability": "view",
      "type": "function"
    },
    {
      "inputs": [],
      "name": "getContractBalance",
      "outputs": [
        {
          "internalType": "uint256",
          "name": "contractBalance",
          "type": "uint256"
        }
      ],
      "stateMutability": "view",
      "type": "function"
    },
    {
      "inputs": [],
      "name": "lastMsgDetails",
      "outputs": [
        {
          "internalType": "address",
          "name": "sender",
          "type": "address"
        },
        {
          "internalType": "uint256",
          "name": "value",
          "type": "uint256"
        },
        {
          "internalType": "bytes",
          "name": "data",
          "type": "bytes"
        },
        {
          "internalType": "uint256",
          "name": "gas",
          "type": "uint256"
        }
      ],
      "stateMutability": "view",
      "type": "function"
    },
    {
      "inputs": [],
      "name": "owner",
      "outputs": [
        {
          "internalType": "address",
          "name": "",
          "type": "address"
        }
      ],
      "stateMutability": "view",
      "type": "function"
    },
    {
      "inputs": [
        {
          "internalType": "uint256",
          "name": "storageIndex",
          "type": "uint256"
        }
      ],
      "name": "readFromStorage",
      "outputs": [
        {
          "internalType": "uint256",
          "name": "data",
          "type": "uint256"
        }
      ],
      "stateMutability": "view",
      "type": "function"
    },
    {
      "inputs": [],
      "name": "retrieveData",
      "outputs": [
        {
          "internalType": "uint256",
          "name": "",
          "type": "uint256"
        }
      ],
      "stateMutability": "view",
      "type": "function"
    },
    {
      "inputs": [
        {
          "internalType": "bool",
          "name": "value",
          "type": "bool"
        }
      ],
      "name": "revertIfFalse",
      "outputs": [],
      "stateMutability": "nonpayable",
      "type": "function"
    },
    {
      "inputs": [
        {
          "internalType": "address payable",
          "name": "recipient",
          "type": "address"
        },
        {
          "internalType": "uint256",
          "name": "amount",
          "type": "uint256"
        }
      ],
      "name": "sendEther",
      "outputs": [],
      "stateMutability": "payable",
      "type": "function"
    },
    {
      "inputs": [],
      "name": "setAddressVar",
      "outputs": [],
      "stateMutability": "nonpayable",
      "type": "function"
    },
    {
      "inputs": [
        {
          "internalType": "address",
          "name": "user",
          "type": "address"
        },
        {
          "internalType": "uint256",
          "name": "amount",
          "type": "uint256"
        }
      ],
      "name": "setBalance",
      "outputs": [],
      "stateMutability": "nonpayable",
      "type": "function"
    },
    {
      "inputs": [
        {
          "internalType": "bool",
          "name": "value",
          "type": "bool"
        }
      ],
      "name": "setBoolVar",
      "outputs": [],
      "stateMutability": "nonpayable",
      "type": "function"
    },
    {
      "inputs": [
        {
          "internalType": "string",
          "name": "value",
          "type": "string"
        }
      ],
      "name": "setStringVar",
      "outputs": [],
      "stateMutability": "nonpayable",
      "type": "function"
    },
    {
      "inputs": [
        {
          "internalType": "uint256",
          "name": "value",
          "type": "uint256"
        }
      ],
      "name": "setUint256Var",
      "outputs": [],
      "stateMutability": "nonpayable",
      "type": "function"
    },
    {
      "inputs": [
        {
          "internalType": "uint256",
          "name": "data",
          "type": "uint256"
        }
      ],
      "name": "storeData",
      "outputs": [],
      "stateMutability": "nonpayable",
      "type": "function"
    },
    {
      "inputs": [],
      "name": "storeMsgProperties",
      "outputs": [],
      "stateMutability": "payable",
      "type": "function"
    },
    {
      "inputs": [],
      "name": "stringVar",
      "outputs": [
        {
          "internalType": "string",
          "name": "",
          "type": "string"
        }
      ],
      "stateMutability": "view",
      "type": "function"
    },
    {
      "inputs": [],
      "name": "uint256Var",
      "outputs": [
        {
          "internalType": "uint256",
          "name": "",
          "type": "uint256"
        }
      ],
      "stateMutability": "view",
      "type": "function"
    }
  ],
  "bytecode": "0x608060405234801561001057600080fd5b50600180546001600160a01b031916331790556123d5806100326000396000f3fe608060405260043610620001b75760003560e01c80638eb43aa111620000f3578063c4c891371162000095578063e30443bc116200006c578063e30443bc14620004c5578063e9074ca314620004ea578063ef9fc50b1462000511578063f614eb31146200053457600080fd5b8063c4c891371462000465578063cfbd56b8146200048a578063d40e607a14620004a257600080fd5b8063999c697b11620000ca578063999c697b14620003f6578063af22db871462000444578063c1756a2c146200044e57600080fd5b80638eb43aa1146200039d578063906d7a3314620003c757806398ea5fca14620003ec57600080fd5b806349cad0fa116200015d5780636f9fb98a11620001345780636f9fb98a1462000341578063711ecf5914620003565780638da5cb5b146200037b57600080fd5b806349cad0fa14620002ca57806351e0556d146200030557806363d95843146200031c57600080fd5b8063359c71c71162000192578063359c71c7146200024c57806335f7fb2b1462000271578063361725c914620002a557600080fd5b806316b9517614620001bc57806327e235e314620001e35780632f2f2d561462000227575b600080fd5b348015620001c957600080fd5b50620001e1620001db36600462000db6565b6200054c565b005b348015620001f057600080fd5b50620002146200020236600462000de6565b60096020526000908152604090205481565b6040519081526020015b60405180910390f35b3480156200023457600080fd5b50620001e16200024636600462000ec3565b620005bf565b3480156200025957600080fd5b50620001e16200026b36600462000db6565b62000692565b3480156200027e57600080fd5b506002546200029490600160a01b900460ff1681565b60405190151581526020016200021e565b348015620002b257600080fd5b50620001e1620002c436600462000f2e565b620006ec565b348015620002d757600080fd5b50600254620002ec906001600160a01b031681565b6040516001600160a01b0390911681526020016200021e565b3480156200031257600080fd5b5060005462000214565b3480156200032957600080fd5b50620001e16200033b36600462000f8f565b6200081a565b3480156200034e57600080fd5b504762000214565b3480156200036357600080fd5b50620001e16200037536600462000fdf565b62000864565b3480156200038857600080fd5b50600154620002ec906001600160a01b031681565b348015620003aa57600080fd5b50620003b5620008d5565b6040516200021e949392919062001053565b348015620003d457600080fd5b50620001e1620003e636600462000fdf565b62000988565b620001e1620009e2565b3480156200040357600080fd5b506200040e62000a36565b604080519687526001600160a01b039095166020870152938501929092526060840152608083015260a082015260c0016200021e565b620001e162000a5f565b620001e16200045f3660046200108e565b62000b19565b3480156200047257600080fd5b50620001e16200048436600462000db6565b62000c03565b3480156200049757600080fd5b50620001e162000c3b565b348015620004af57600080fd5b5062000214620004c136600462000db6565b5490565b348015620004d257600080fd5b50620001e1620004e43660046200108e565b62000c88565b348015620004f757600080fd5b506200050262000d12565b6040516200021e9190620010bd565b3480156200051e57600080fd5b506200021462000530366004620010d2565b0190565b3480156200054157600080fd5b506200021460035481565b600081905560405133907fdeff57a6906278d2af998b73b3debf5ca6d109b7d958d00944210de6bcb0be4190620005b4906020808252600b908201527f446174612053746f726564000000000000000000000000000000000000000000604082015260600190565b60405180910390a250565b60008282604051620005d19062000da8565b620005de929190620010f5565b604051809103906000f080158015620005fb573d6000803e3d6000fd5b506040517fa9059cbb000000000000000000000000000000000000000000000000000000008152336004820152606460248201529091506001600160a01b0382169063a9059cbb906044016020604051808303816000875af115801562000666573d6000803e3d6000fd5b505050506040513d601f19601f820116820180604052508101906200068c919062001127565b50505050565b60005b81811015620006e85760405181815233907f1d56bb73275c853de44e9df37f18d598fb03f68762368689dbc37018e108f3209060200160405180910390a280620006df816200115d565b91505062000695565b5050565b6000826001600160a01b03168260405162000708919062001179565b6000604051808303816000865af19150503d806000811462000747576040519150601f19603f3d011682016040523d82523d6000602084013e6200074c565b606091505b5050905080620007a35760405162461bcd60e51b815260206004820152600b60248201527f43616c6c206661696c656400000000000000000000000000000000000000000060448201526064015b60405180910390fd5b336001600160a01b03167fdeff57a6906278d2af998b73b3debf5ca6d109b7d958d00944210de6bcb0be416040516200080d9060208082526013908201527f496e7465722d436f6e74726163742043616c6c00000000000000000000000000604082015260600190565b60405180910390a2505050565b600462000828828262001225565b50336001600160a01b03167f0eb73cec9d23675a546442d52054f0a7c29e9b7dc418be5fe6a9d27bc32653da82604051620005b49190620010bd565b6002805460ff60a01b1916600160a01b83151590810291909117909155600114620008d25760405162461bcd60e51b815260206004820152601260248201527f76616c7565206d7573742062652074727565000000000000000000000000000060448201526064016200079a565b50565b60058054600654600780546001600160a01b03909316939192620008f99062001197565b80601f0160208091040260200160405190810160405280929190818152602001828054620009279062001197565b8015620009785780601f106200094c5761010080835404028352916020019162000978565b820191906000526020600020905b8154815290600101906020018083116200095a57829003601f168201915b5050505050908060030154905084565b6002805460ff60a01b1916600160a01b831515908102919091179091556040805133815260208101929092527f036285defb58e7bdfda894dd4f86e1c7c826522ae0755f0017a2155b4c58022e910160405180910390a150565b6000341162000a345760405162461bcd60e51b815260206004820152600d60248201527f4e6f2045746865722073656e740000000000000000000000000000000000000060448201526064016200079a565b565b6000808080808062000a4a600143620012f2565b40964196504495504594504393504292509050565b6040518060800160405280336001600160a01b031681526020013481526020016000368080601f0160208091040260200160405190810160405280939291908181526020018383808284376000920191909152505050908252506020015a905280516005805473ffffffffffffffffffffffffffffffffffffffff19166001600160a01b039092169190911781556020820151600655604082015160079062000b09908262001225565b5060608201518160030155905050565b6001546001600160a01b0316331462000b755760405162461bcd60e51b815260206004820152601960248201527f4f6e6c79206f776e65722063616e2073656e642045746865720000000000000060448201526064016200079a565b8047101562000bc75760405162461bcd60e51b815260206004820152601460248201527f496e73756666696369656e742062616c616e636500000000000000000000000060448201526064016200079a565b6040516001600160a01b0383169082156108fc029083906000818181858888f1935050505015801562000bfe573d6000803e3d6000fd5b505050565b600381905560405181815233907f72949b2b6e0735d04837f50b4944f1e7d232157e1ba3881f7d9b1c4bdaf819e590602001620005b4565b6002805473ffffffffffffffffffffffffffffffffffffffff1916339081179091556040517f88749aed52403b3a8ec7763273d5665190617f46de93b08aab1cc6ec80dc2fb490600090a2565b6001600160a01b038216600090815260096020526040908190208290555133907fdeff57a6906278d2af998b73b3debf5ca6d109b7d958d00944210de6bcb0be419062000d06906020808252600b908201527f42616c616e636520536574000000000000000000000000000000000000000000604082015260600190565b60405180910390a25050565b6004805462000d219062001197565b80601f016020809104026020016040519081016040528092919081815260200182805462000d4f9062001197565b801562000da05780601f1062000d745761010080835404028352916020019162000da0565b820191906000526020600020905b81548152906001019060200180831162000d8257829003601f168201915b505050505081565b611091806200130f83390190565b60006020828403121562000dc957600080fd5b5035919050565b6001600160a01b0381168114620008d257600080fd5b60006020828403121562000df957600080fd5b813562000e068162000dd0565b9392505050565b634e487b7160e01b600052604160045260246000fd5b600067ffffffffffffffff8084111562000e415762000e4162000e0d565b604051601f8501601f19908116603f0116810190828211818310171562000e6c5762000e6c62000e0d565b8160405280935085815286868601111562000e8657600080fd5b858560208301376000602087830101525050509392505050565b600082601f83011262000eb257600080fd5b62000e068383356020850162000e23565b6000806040838503121562000ed757600080fd5b823567ffffffffffffffff8082111562000ef057600080fd5b62000efe8683870162000ea0565b9350602085013591508082111562000f1557600080fd5b5062000f248582860162000ea0565b9150509250929050565b6000806040838503121562000f4257600080fd5b823562000f4f8162000dd0565b9150602083013567ffffffffffffffff81111562000f6c57600080fd5b8301601f8101851362000f7e57600080fd5b62000f248582356020840162000e23565b60006020828403121562000fa257600080fd5b813567ffffffffffffffff81111562000fba57600080fd5b62000fc88482850162000ea0565b949350505050565b8015158114620008d257600080fd5b60006020828403121562000ff257600080fd5b813562000e068162000fd0565b60005b838110156200101c57818101518382015260200162001002565b50506000910152565b600081518084526200103f81602086016020860162000fff565b601f01601f19169290920160200192915050565b6001600160a01b03851681528360208201526080604082015260006200107d608083018562001025565b905082606083015295945050505050565b60008060408385031215620010a257600080fd5b8235620010af8162000dd0565b946020939093013593505050565b60208152600062000e06602083018462001025565b60008060408385031215620010e657600080fd5b50508035926020909101359150565b6040815260006200110a604083018562001025565b82810360208401526200111e818562001025565b95945050505050565b6000602082840312156200113a57600080fd5b815162000e068162000fd0565b634e487b7160e01b600052601160045260246000fd5b60006001820162001172576200117262001147565b5060010190565b600082516200118d81846020870162000fff565b9190910192915050565b600181811c90821680620011ac57607f821691505b602082108103620011cd57634e487b7160e01b600052602260045260246000fd5b50919050565b601f82111562000bfe57600081815260208120601f850160051c81016020861015620011fc5750805b601f850160051c820191505b818110156200121d5782815560010162001208565b505050505050565b815167ffffffffffffffff81111562001242576200124262000e0d565b6200125a8162001253845462001197565b84620011d3565b602080601f831160018114620012925760008415620012795750858301515b600019600386901b1c1916600185901b1785556200121d565b600085815260208120601f198616915b82811015620012c357888601518255948401946001909101908401620012a2565b5085821015620012e25787850151600019600388901b60f8161c191681555b5050505050600190811b01905550565b8181038181111562001308576200130862001147565b9291505056fe60806040523480156200001157600080fd5b50604051620010913803806200109183398101604081905262000034916200034a565b338282600362000045838262000443565b50600462000054828262000443565b5050506001600160a01b0381166200008757604051631e4fbdf760e01b8152600060048201526024015b60405180910390fd5b6200009281620000c2565b50620000ba33620000a66012600a62000624565b620000b4906103e862000639565b62000114565b505062000669565b600580546001600160a01b038381166001600160a01b0319831681179093556040519116919082907f8be0079c531659141344cd1fd0a4f28419497f9722a3daafe3b4186f6b6457e090600090a35050565b6001600160a01b038216620001405760405163ec442f0560e01b8152600060048201526024016200007e565b6200014e6000838362000152565b5050565b6001600160a01b0383166200018157806002600082825462000175919062000653565b90915550620001f59050565b6001600160a01b03831660009081526020819052604090205481811015620001d65760405163391434e360e21b81526001600160a01b038516600482015260248101829052604481018390526064016200007e565b6001600160a01b03841660009081526020819052604090209082900390555b6001600160a01b038216620002135760028054829003905562000232565b6001600160a01b03821660009081526020819052604090208054820190555b816001600160a01b0316836001600160a01b03167fddf252ad1be2c89b69c2b068fc378daa952ba7f163c4a11628f55a4df523b3ef836040516200027891815260200190565b60405180910390a3505050565b634e487b7160e01b600052604160045260246000fd5b600082601f830112620002ad57600080fd5b81516001600160401b0380821115620002ca57620002ca62000285565b604051601f8301601f19908116603f01168101908282118183101715620002f557620002f562000285565b816040528381526020925086838588010111156200031257600080fd5b600091505b8382101562000336578582018301518183018401529082019062000317565b600093810190920192909252949350505050565b600080604083850312156200035e57600080fd5b82516001600160401b03808211156200037657600080fd5b62000384868387016200029b565b935060208501519150808211156200039b57600080fd5b50620003aa858286016200029b565b9150509250929050565b600181811c90821680620003c957607f821691505b602082108103620003ea57634e487b7160e01b600052602260045260246000fd5b50919050565b601f8211156200043e57600081815260208120601f850160051c81016020861015620004195750805b601f850160051c820191505b818110156200043a5782815560010162000425565b5050505b505050565b81516001600160401b038111156200045f576200045f62000285565b6200047781620004708454620003b4565b84620003f0565b602080601f831160018114620004af5760008415620004965750858301515b600019600386901b1c1916600185901b1785556200043a565b600085815260208120601f198616915b82811015620004e057888601518255948401946001909101908401620004bf565b5085821015620004ff5787850151600019600388901b60f8161c191681555b5050505050600190811b01905550565b634e487b7160e01b600052601160045260246000fd5b600181815b80851115620005665781600019048211156200054a576200054a6200050f565b808516156200055857918102915b93841c93908002906200052a565b509250929050565b6000826200057f575060016200061e565b816200058e575060006200061e565b8160018114620005a75760028114620005b257620005d2565b60019150506200061e565b60ff841115620005c657620005c66200050f565b50506001821b6200061e565b5060208310610133831016604e8410600b8410161715620005f7575081810a6200061e565b62000603838362000525565b80600019048211156200061a576200061a6200050f565b0290505b92915050565b60006200063283836200056e565b9392505050565b80820281158282048414176200061e576200061e6200050f565b808201808211156200061e576200061e6200050f565b610a1880620006796000396000f3fe608060405234801561001057600080fd5b50600436106100df5760003560e01c8063715018a61161008c578063a9059cbb11610066578063a9059cbb146101af578063dd62ed3e146101c2578063e30443bc146101fb578063f2fde38b1461020e57600080fd5b8063715018a6146101825780638da5cb5b1461018c57806395d89b41146101a757600080fd5b806323b872dd116100bd57806323b872dd14610137578063313ce5671461014a57806370a082311461015957600080fd5b806306fdde03146100e4578063095ea7b31461010257806318160ddd14610125575b600080fd5b6100ec610221565b6040516100f99190610847565b60405180910390f35b6101156101103660046108b1565b6102b3565b60405190151581526020016100f9565b6002545b6040519081526020016100f9565b6101156101453660046108db565b6102cd565b604051601281526020016100f9565b610129610167366004610917565b6001600160a01b031660009081526020819052604090205490565b61018a6102f1565b005b6005546040516001600160a01b0390911681526020016100f9565b6100ec610305565b6101156101bd3660046108b1565b610314565b6101296101d0366004610939565b6001600160a01b03918216600090815260016020908152604080832093909416825291909152205490565b61018a6102093660046108b1565b610322565b61018a61021c366004610917565b61037e565b6060600380546102309061096c565b80601f016020809104026020016040519081016040528092919081815260200182805461025c9061096c565b80156102a95780601f1061027e576101008083540402835291602001916102a9565b820191906000526020600020905b81548152906001019060200180831161028c57829003601f168201915b5050505050905090565b6000336102c18185856103da565b60019150505b92915050565b6000336102db8582856103e7565b6102e685858561047e565b506001949350505050565b6102f96104dd565b6103036000610523565b565b6060600480546102309061096c565b6000336102c181858561047e565b61032a6104dd565b6001600160a01b038216600090815260208190526040902054808211156103635761035e8361035983856109bc565b61058d565b505050565b8082101561035e5761035e8361037984846109bc565b6105c7565b6103866104dd565b6001600160a01b0381166103ce576040517f1e4fbdf7000000000000000000000000000000000000000000000000000000008152600060048201526024015b60405180910390fd5b6103d781610523565b50565b61035e83838360016105fd565b6001600160a01b0383811660009081526001602090815260408083209386168352929052205460001981146104785781811015610469576040517ffb8f41b20000000000000000000000000000000000000000000000000000000081526001600160a01b038416600482015260248101829052604481018390526064016103c5565b610478848484840360006105fd565b50505050565b6001600160a01b0383166104a857604051634b637e8f60e11b8152600060048201526024016103c5565b6001600160a01b0382166104d25760405163ec442f0560e01b8152600060048201526024016103c5565b61035e838383610704565b6005546001600160a01b03163314610303576040517f118cdaa70000000000000000000000000000000000000000000000000000000081523360048201526024016103c5565b600580546001600160a01b038381167fffffffffffffffffffffffff0000000000000000000000000000000000000000831681179093556040519116919082907f8be0079c531659141344cd1fd0a4f28419497f9722a3daafe3b4186f6b6457e090600090a35050565b6001600160a01b0382166105b75760405163ec442f0560e01b8152600060048201526024016103c5565b6105c360008383610704565b5050565b6001600160a01b0382166105f157604051634b637e8f60e11b8152600060048201526024016103c5565b6105c382600083610704565b6001600160a01b038416610640576040517fe602df05000000000000000000000000000000000000000000000000000000008152600060048201526024016103c5565b6001600160a01b038316610683576040517f94280d62000000000000000000000000000000000000000000000000000000008152600060048201526024016103c5565b6001600160a01b038085166000908152600160209081526040808320938716835292905220829055801561047857826001600160a01b0316846001600160a01b03167f8c5be1e5ebec7d5bd14f71427d1e84f3dd0314c0f7b2291e5b200ac8c7c3b925846040516106f691815260200190565b60405180910390a350505050565b6001600160a01b03831661072f57806002600082825461072491906109cf565b909155506107ba9050565b6001600160a01b0383166000908152602081905260409020548181101561079b576040517fe450d38c0000000000000000000000000000000000000000000000000000000081526001600160a01b038516600482015260248101829052604481018390526064016103c5565b6001600160a01b03841660009081526020819052604090209082900390555b6001600160a01b0382166107d6576002805482900390556107f5565b6001600160a01b03821660009081526020819052604090208054820190555b816001600160a01b0316836001600160a01b03167fddf252ad1be2c89b69c2b068fc378daa952ba7f163c4a11628f55a4df523b3ef8360405161083a91815260200190565b60405180910390a3505050565b600060208083528351808285015260005b8181101561087457858101830151858201604001528201610858565b506000604082860101526040601f19601f8301168501019250505092915050565b80356001600160a01b03811681146108ac57600080fd5b919050565b600080604083850312156108c457600080fd5b6108cd83610895565b946020939093013593505050565b6000806000606084860312156108f057600080fd5b6108f984610895565b925061090760208501610895565b9150604084013590509250925092565b60006020828403121561092957600080fd5b61093282610895565b9392505050565b6000806040838503121561094c57600080fd5b61095583610895565b915061096360208401610895565b90509250929050565b600181811c9082168061098057607f821691505b6020821081036109a057634e487b7160e01b600052602260045260246000fd5b50919050565b634e487b7160e01b600052601160045260246000fd5b818103818111156102c7576102c76109a6565b808201808211156102c7576102c76109a656fea264697066735822122017004889e7084e84e36ac588e9b3c06c6ac66f8fc591cb25713d89c2df00610464736f6c63430008140033a264697066735822122016399c38e5329c3ccc8201fcc4f2f657f1c3d7694d5edd172d9f3574b417354e64736f6c63430008140033",
  "linkReferences": {},
  "deployedLinkReferences": {}
}