{
  "_format": "hh-sol-artifact-1",
  "contractName": "ERC721",
  "sourceName": "contracts/src/ERC721.sol",
  "abi": [
    {
      "anonymous": false,
      "inputs": [
        {
          "indexed": true,
          "internalType": "address",
          "name": "owner",
          "type": "address"
        },
        {
          "indexed": true,
          "internalType": "address",
          "name": "spender",
          "type": "address"
        },
        {
          "indexed": true,
          "internalType": "uint256",
          "name": "id",
          "type": "uint256"
        }
      ],
      "name": "Approval",
      "type": "event"
    },
    {
      "anonymous": false,
      "inputs": [
        {
          "indexed": true,
          "internalType": "address",
          "name": "owner",
          "type": "address"
        },
        {
          "indexed": true,
          "internalType": "address",
          "name": "operator",
          "type": "address"
        },
        {
          "indexed": false,
          "internalType": "bool",
          "name": "approved",
          "type": "bool"
        }
      ],
      "name": "ApprovalForAll",
      "type": "event"
    },
    {
      "anonymous": false,
      "inputs": [
        {
          "indexed": true,
          "internalType": "address",
          "name": "from",
          "type": "address"
        },
        {
          "indexed": true,
          "internalType": "address",
          "name": "to",
          "type": "address"
        },
        {
          "indexed": true,
          "internalType": "uint256",
          "name": "id",
          "type": "uint256"
        }
      ],
      "name": "Transfer",
      "type": "event"
    },
    {
      "inputs": [
        {
          "internalType": "address",
          "name": "spender",
          "type": "address"
        },
        {
          "internalType": "uint256",
          "name": "id",
          "type": "uint256"
        }
      ],
      "name": "approve",
      "outputs": [],
      "stateMutability": "nonpayable",
      "type": "function"
    },
    {
      "inputs": [
        {
          "internalType": "address",
          "name": "owner",
          "type": "address"
        }
      ],
      "name": "balanceOf",
      "outputs": [
        {
          "internalType": "uint256",
          "name": "",
          "type": "uint256"
        }
      ],
      "stateMutability": "view",
      "type": "function"
    },
    {
      "inputs": [
        {
          "internalType": "uint256",
          "name": "id",
          "type": "uint256"
        }
      ],
      "name": "getApproved",
      "outputs": [
        {
          "internalType": "address",
          "name": "",
          "type": "address"
        }
      ],
      "stateMutability": "view",
      "type": "function"
    },
    {
      "inputs": [
        {
          "internalType": "address",
          "name": "",
          "type": "address"
        },
        {
          "internalType": "address",
          "name": "",
          "type": "address"
        }
      ],
      "name": "isApprovedForAll",
      "outputs": [
        {
          "internalType": "bool",
          "name": "",
          "type": "bool"
        }
      ],
      "stateMutability": "view",
      "type": "function"
    },
    {
      "inputs": [
        {
          "internalType": "uint256",
          "name": "id",
          "type": "uint256"
        }
      ],
      "name": "ownerOf",
      "outputs": [
        {
          "internalType": "address",
          "name": "owner",
          "type": "address"
        }
      ],
      "stateMutability": "view",
      "type": "function"
    },
    {
      "inputs": [
        {
          "internalType": "address",
          "name": "from",
          "type": "address"
        },
        {
          "internalType": "address",
          "name": "to",
          "type": "address"
        },
        {
          "internalType": "uint256",
          "name": "id",
          "type": "uint256"
        }
      ],
      "name": "safeTransferFrom",
      "outputs": [],
      "stateMutability": "nonpayable",
      "type": "function"
    },
    {
      "inputs": [
        {
          "internalType": "address",
          "name": "from",
          "type": "address"
        },
        {
          "internalType": "address",
          "name": "to",
          "type": "address"
        },
        {
          "internalType": "uint256",
          "name": "id",
          "type": "uint256"
        },
        {
          "internalType": "bytes",
          "name": "data",
          "type": "bytes"
        }
      ],
      "name": "safeTransferFrom",
      "outputs": [],
      "stateMutability": "nonpayable",
      "type": "function"
    },
    {
      "inputs": [
        {
          "internalType": "address",
          "name": "operator",
          "type": "address"
        },
        {
          "internalType": "bool",
          "name": "approved",
          "type": "bool"
        }
      ],
      "name": "setApprovalForAll",
      "outputs": [],
      "stateMutability": "nonpayable",
      "type": "function"
    },
    {
      "inputs": [
        {
          "internalType": "bytes4",
          "name": "interfaceId",
          "type": "bytes4"
        }
      ],
      "name": "supportsInterface",
      "outputs": [
        {
          "internalType": "bool",
          "name": "",
          "type": "bool"
        }
      ],
      "stateMutability": "pure",
      "type": "function"
    },
    {
      "inputs": [],
      "name": "totalSupply",
      "outputs": [
        {
          "internalType": "uint256",
          "name": "",
          "type": "uint256"
        }
      ],
      "stateMutability": "view",
      "type": "function"
    },
    {
      "inputs": [
        {
          "internalType": "address",
          "name": "from",
          "type": "address"
        },
        {
          "internalType": "address",
          "name": "to",
          "type": "address"
        },
        {
          "internalType": "uint256",
          "name": "id",
          "type": "uint256"
        }
      ],
      "name": "transferFrom",
      "outputs": [],
      "stateMutability": "nonpayable",
      "type": "function"
    }
  ],
  "bytecode": "0x60806040525f80553480156011575f80fd5b50610b428061001f5f395ff3fe608060405234801561000f575f80fd5b50600436106100a6575f3560e01c806342842e0e1161006e57806342842e0e146101365780636352211e1461014957806370a082311461015c578063a22cb4651461016f578063b88d4fde14610182578063e985e9c514610195575f80fd5b806301ffc9a7146100aa578063081812fc146100d2578063095ea7b3146100fd57806318160ddd1461011257806323b872dd14610123575b5f80fd5b6100bd6100b8366004610898565b6101c2565b60405190151581526020015b60405180910390f35b6100e56100e03660046108ba565b6101f8565b6040516001600160a01b0390911681526020016100c9565b61011061010b3660046108e7565b610271565b005b5f545b6040519081526020016100c9565b61011061013136600461090f565b610350565b61011061014436600461090f565b610504565b6100e56101573660046108ba565b6105f8565b61011561016a366004610948565b610657565b61011061017d366004610961565b6106c0565b61011061019036600461099a565b61072b565b6100bd6101a3366004610a2d565b600460209081525f928352604080842090915290825290205460ff1681565b5f6001600160e01b031982166380ac58cd60e01b14806101f257506001600160e01b031982166301ffc9a760e01b145b92915050565b5f818152600160205260408120546001600160a01b03166102565760405162461bcd60e51b81526020600482015260136024820152721d1bdad95b88191bd95cdb89dd08195e1a5cdd606a1b60448201526064015b60405180910390fd5b505f908152600360205260409020546001600160a01b031690565b5f818152600160205260409020546001600160a01b0316338114806102b857506001600160a01b0381165f90815260046020908152604080832033845290915290205460ff165b6102f55760405162461bcd60e51b815260206004820152600e60248201526d1b9bdd08185d5d1a1bdc9a5e995960921b604482015260640161024d565b5f8281526003602052604080822080546001600160a01b0319166001600160a01b0387811691821790925591518593918516917f8c5be1e5ebec7d5bd14f71427d1e84f3dd0314c0f7b2291e5b200ac8c7c3b92591a4505050565b5f818152600160205260409020546001600160a01b038481169116146103a85760405162461bcd60e51b815260206004820152600d60248201526c333937b690109e9037bbb732b960991b604482015260640161024d565b6001600160a01b0382166103fe5760405162461bcd60e51b815260206004820152601860248201527f7472616e7366657220746f207a65726f20616464726573730000000000000000604482015260640161024d565b610409833383610810565b6104465760405162461bcd60e51b815260206004820152600e60248201526d1b9bdd08185d5d1a1bdc9a5e995960921b604482015260640161024d565b6001600160a01b0383165f90815260026020526040812080549161046983610a72565b90915550506001600160a01b0382165f90815260026020526040812080549161049183610a87565b90915550505f81815260016020908152604080832080546001600160a01b038088166001600160a01b031992831681179093556003909452828520805490911690559051849391928716917fddf252ad1be2c89b69c2b068fc378daa952ba7f163c4a11628f55a4df523b3ef91a4505050565b61050f838383610350565b6001600160a01b0382163b15806105b45750604051630a85bd0160e11b8082523360048301526001600160a01b03858116602484015260448301849052608060648401525f608484015290919084169063150b7a029060a4016020604051808303815f875af1158015610584573d5f803e3d5ffd5b505050506040513d601f19601f820116820180604052508101906105a89190610a9f565b6001600160e01b031916145b6105f35760405162461bcd60e51b815260206004820152601060248201526f1d5b9cd85999481c9958da5c1a595b9d60821b604482015260640161024d565b505050565b5f818152600160205260409020546001600160a01b0316806106525760405162461bcd60e51b81526020600482015260136024820152721d1bdad95b88191bd95cdb89dd08195e1a5cdd606a1b604482015260640161024d565b919050565b5f6001600160a01b0382166106a55760405162461bcd60e51b81526020600482015260146024820152736f776e6572203d207a65726f206164647265737360601b604482015260640161024d565b506001600160a01b03165f9081526002602052604090205490565b335f8181526004602090815260408083206001600160a01b03871680855290835292819020805460ff191686151590811790915590519081529192917f17307eab39ab6107e8899845ad3d59bd9653f200f220920489ca2b5937696c31910160405180910390a35050565b610736858585610350565b6001600160a01b0384163b15806107ca5750604051630a85bd0160e11b808252906001600160a01b0386169063150b7a029061077e9033908a90899089908990600401610aba565b6020604051808303815f875af115801561079a573d5f803e3d5ffd5b505050506040513d601f19601f820116820180604052508101906107be9190610a9f565b6001600160e01b031916145b6108095760405162461bcd60e51b815260206004820152601060248201526f1d5b9cd85999481c9958da5c1a595b9d60821b604482015260640161024d565b5050505050565b5f836001600160a01b0316836001600160a01b0316148061085557506001600160a01b038085165f9081526004602090815260408083209387168352929052205460ff165b8061087857505f828152600360205260409020546001600160a01b038481169116145b949350505050565b6001600160e01b031981168114610895575f80fd5b50565b5f602082840312156108a8575f80fd5b81356108b381610880565b9392505050565b5f602082840312156108ca575f80fd5b5035919050565b80356001600160a01b0381168114610652575f80fd5b5f80604083850312156108f8575f80fd5b610901836108d1565b946020939093013593505050565b5f805f60608486031215610921575f80fd5b61092a846108d1565b9250610938602085016108d1565b9150604084013590509250925092565b5f60208284031215610958575f80fd5b6108b3826108d1565b5f8060408385031215610972575f80fd5b61097b836108d1565b91506020830135801515811461098f575f80fd5b809150509250929050565b5f805f805f608086880312156109ae575f80fd5b6109b7866108d1565b94506109c5602087016108d1565b935060408601359250606086013567ffffffffffffffff808211156109e8575f80fd5b818801915088601f8301126109fb575f80fd5b813581811115610a09575f80fd5b896020828501011115610a1a575f80fd5b9699959850939650602001949392505050565b5f8060408385031215610a3e575f80fd5b610a47836108d1565b9150610a55602084016108d1565b90509250929050565b634e487b7160e01b5f52601160045260245ffd5b5f81610a8057610a80610a5e565b505f190190565b5f60018201610a9857610a98610a5e565b5060010190565b5f60208284031215610aaf575f80fd5b81516108b381610880565b6001600160a01b038681168252851660208201526040810184905260806060820181905281018290525f828460a08401375f60a0848401015260a0601f19601f8501168301019050969550505050505056fea2646970667358221220353e853a91046666e5bdb3ba7133fde57fea196ec098434516375f1881a33fed64736f6c63430008190033",
  "linkReferences": {},
  "deployedLinkReferences": {}
}