{
  "_format": "hh-sol-artifact-1",
  "contractName": "MyNFT",
  "sourceName": "contracts/src/ERC721.sol",
  "abi": [
    {
      "anonymous": false,
      "inputs": [
        {
          "indexed": true,
          "internalType": "address",
          "name": "owner",
          "type": "address"
        },
        {
          "indexed": true,
          "internalType": "address",
          "name": "spender",
          "type": "address"
        },
        {
          "indexed": true,
          "internalType": "uint256",
          "name": "id",
          "type": "uint256"
        }
      ],
      "name": "Approval",
      "type": "event"
    },
    {
      "anonymous": false,
      "inputs": [
        {
          "indexed": true,
          "internalType": "address",
          "name": "owner",
          "type": "address"
        },
        {
          "indexed": true,
          "internalType": "address",
          "name": "operator",
          "type": "address"
        },
        {
          "indexed": false,
          "internalType": "bool",
          "name": "approved",
          "type": "bool"
        }
      ],
      "name": "ApprovalForAll",
      "type": "event"
    },
    {
      "anonymous": false,
      "inputs": [
        {
          "indexed": true,
          "internalType": "address",
          "name": "from",
          "type": "address"
        },
        {
          "indexed": true,
          "internalType": "address",
          "name": "to",
          "type": "address"
        },
        {
          "indexed": true,
          "internalType": "uint256",
          "name": "id",
          "type": "uint256"
        }
      ],
      "name": "Transfer",
      "type": "event"
    },
    {
      "inputs": [
        {
          "internalType": "address",
          "name": "spender",
          "type": "address"
        },
        {
          "internalType": "uint256",
          "name": "id",
          "type": "uint256"
        }
      ],
      "name": "approve",
      "outputs": [],
      "stateMutability": "nonpayable",
      "type": "function"
    },
    {
      "inputs": [
        {
          "internalType": "address",
          "name": "owner",
          "type": "address"
        }
      ],
      "name": "balanceOf",
      "outputs": [
        {
          "internalType": "uint256",
          "name": "",
          "type": "uint256"
        }
      ],
      "stateMutability": "view",
      "type": "function"
    },
    {
      "inputs": [
        {
          "internalType": "uint256",
          "name": "id",
          "type": "uint256"
        }
      ],
      "name": "burn",
      "outputs": [],
      "stateMutability": "nonpayable",
      "type": "function"
    },
    {
      "inputs": [
        {
          "internalType": "uint256",
          "name": "id",
          "type": "uint256"
        }
      ],
      "name": "getApproved",
      "outputs": [
        {
          "internalType": "address",
          "name": "",
          "type": "address"
        }
      ],
      "stateMutability": "view",
      "type": "function"
    },
    {
      "inputs": [
        {
          "internalType": "address",
          "name": "",
          "type": "address"
        },
        {
          "internalType": "address",
          "name": "",
          "type": "address"
        }
      ],
      "name": "isApprovedForAll",
      "outputs": [
        {
          "internalType": "bool",
          "name": "",
          "type": "bool"
        }
      ],
      "stateMutability": "view",
      "type": "function"
    },
    {
      "inputs": [
        {
          "internalType": "address",
          "name": "to",
          "type": "address"
        },
        {
          "internalType": "uint256",
          "name": "id",
          "type": "uint256"
        }
      ],
      "name": "mint",
      "outputs": [],
      "stateMutability": "nonpayable",
      "type": "function"
    },
    {
      "inputs": [],
      "name": "name",
      "outputs": [
        {
          "internalType": "string",
          "name": "_name",
          "type": "string"
        }
      ],
      "stateMutability": "pure",
      "type": "function"
    },
    {
      "inputs": [
        {
          "internalType": "uint256",
          "name": "id",
          "type": "uint256"
        }
      ],
      "name": "ownerOf",
      "outputs": [
        {
          "internalType": "address",
          "name": "owner",
          "type": "address"
        }
      ],
      "stateMutability": "view",
      "type": "function"
    },
    {
      "inputs": [
        {
          "internalType": "uint256",
          "name": "",
          "type": "uint256"
        },
        {
          "internalType": "uint256",
          "name": "salePrice",
          "type": "uint256"
        }
      ],
      "name": "royaltyInfo",
      "outputs": [
        {
          "internalType": "address",
          "name": "receiver",
          "type": "address"
        },
        {
          "internalType": "uint256",
          "name": "royaltyAmount",
          "type": "uint256"
        }
      ],
      "stateMutability": "pure",
      "type": "function"
    },
    {
      "inputs": [
        {
          "internalType": "address",
          "name": "from",
          "type": "address"
        },
        {
          "internalType": "address",
          "name": "to",
          "type": "address"
        },
        {
          "internalType": "uint256",
          "name": "id",
          "type": "uint256"
        }
      ],
      "name": "safeTransferFrom",
      "outputs": [],
      "stateMutability": "nonpayable",
      "type": "function"
    },
    {
      "inputs": [
        {
          "internalType": "address",
          "name": "from",
          "type": "address"
        },
        {
          "internalType": "address",
          "name": "to",
          "type": "address"
        },
        {
          "internalType": "uint256",
          "name": "id",
          "type": "uint256"
        },
        {
          "internalType": "bytes",
          "name": "data",
          "type": "bytes"
        }
      ],
      "name": "safeTransferFrom",
      "outputs": [],
      "stateMutability": "nonpayable",
      "type": "function"
    },
    {
      "inputs": [
        {
          "internalType": "address",
          "name": "operator",
          "type": "address"
        },
        {
          "internalType": "bool",
          "name": "approved",
          "type": "bool"
        }
      ],
      "name": "setApprovalForAll",
      "outputs": [],
      "stateMutability": "nonpayable",
      "type": "function"
    },
    {
      "inputs": [
        {
          "internalType": "bytes4",
          "name": "interfaceId",
          "type": "bytes4"
        }
      ],
      "name": "supportsInterface",
      "outputs": [
        {
          "internalType": "bool",
          "name": "",
          "type": "bool"
        }
      ],
      "stateMutability": "pure",
      "type": "function"
    },
    {
      "inputs": [],
      "name": "symbol",
      "outputs": [
        {
          "internalType": "string",
          "name": "_symbol",
          "type": "string"
        }
      ],
      "stateMutability": "pure",
      "type": "function"
    },
    {
      "inputs": [
        {
          "internalType": "uint256",
          "name": "tokenId",
          "type": "uint256"
        }
      ],
      "name": "tokenURI",
      "outputs": [
        {
          "internalType": "string",
          "name": "",
          "type": "string"
        }
      ],
      "stateMutability": "pure",
      "type": "function"
    },
    {
      "inputs": [],
      "name": "totalSupply",
      "outputs": [
        {
          "internalType": "uint256",
          "name": "",
          "type": "uint256"
        }
      ],
      "stateMutability": "view",
      "type": "function"
    },
    {
      "inputs": [
        {
          "internalType": "address",
          "name": "from",
          "type": "address"
        },
        {
          "internalType": "address",
          "name": "to",
          "type": "address"
        },
        {
          "internalType": "uint256",
          "name": "id",
          "type": "uint256"
        }
      ],
      "name": "transferFrom",
      "outputs": [],
      "stateMutability": "nonpayable",
      "type": "function"
    }
  ],
  "bytecode": "0x60806040525f80553480156011575f80fd5b506111908061001f5f395ff3fe608060405234801561000f575f80fd5b5060043610610106575f3560e01c806342842e0e1161009e57806395d89b411161006e57806395d89b4114610251578063a22cb46514610272578063b88d4fde14610285578063c87b56dd14610298578063e985e9c5146102ab575f80fd5b806342842e0e1461020557806342966c68146102185780636352211e1461022b57806370a082311461023e575f80fd5b806318160ddd116100d957806318160ddd1461019c57806323b872dd146101ad5780632a55205a146101c057806340c10f19146101f2575f80fd5b806301ffc9a71461010a57806306fdde0314610132578063081812fc1461015c578063095ea7b314610187575b5f80fd5b61011d610118366004610dd9565b6102d8565b60405190151581526020015b60405180910390f35b604080518082019091526005815264135e53919560da1b60208201525b6040516101299190610dfb565b61016f61016a366004610e30565b61030e565b6040516001600160a01b039091168152602001610129565b61019a610195366004610e5d565b610387565b005b5f545b604051908152602001610129565b61019a6101bb366004610e85565b610466565b6101d36101ce366004610ebe565b61061a565b604080516001600160a01b039093168352602083019190915201610129565b61019a610200366004610e5d565b610652565b61019a610213366004610e85565b610660565b61019a610226366004610e30565b610754565b61016f610239366004610e30565b6107b1565b61019f61024c366004610ede565b610810565b604080518082019091526005815264135653919560da1b602082015261014f565b61019a610280366004610ef7565b610879565b61019a610293366004610f30565b6108e4565b61014f6102a6366004610e30565b6109c9565b61011d6102b9366004610fc3565b600460209081525f928352604080842090915290825290205460ff1681565b5f6001600160e01b031982166380ac58cd60e01b148061030857506001600160e01b031982166301ffc9a760e01b145b92915050565b5f818152600160205260408120546001600160a01b031661036c5760405162461bcd60e51b81526020600482015260136024820152721d1bdad95b88191bd95cdb89dd08195e1a5cdd606a1b60448201526064015b60405180910390fd5b505f908152600360205260409020546001600160a01b031690565b5f818152600160205260409020546001600160a01b0316338114806103ce57506001600160a01b0381165f90815260046020908152604080832033845290915290205460ff165b61040b5760405162461bcd60e51b815260206004820152600e60248201526d1b9bdd08185d5d1a1bdc9a5e995960921b6044820152606401610363565b5f8281526003602052604080822080546001600160a01b0319166001600160a01b0387811691821790925591518593918516917f8c5be1e5ebec7d5bd14f71427d1e84f3dd0314c0f7b2291e5b200ac8c7c3b92591a4505050565b5f818152600160205260409020546001600160a01b038481169116146104be5760405162461bcd60e51b815260206004820152600d60248201526c333937b690109e9037bbb732b960991b6044820152606401610363565b6001600160a01b0382166105145760405162461bcd60e51b815260206004820152601860248201527f7472616e7366657220746f207a65726f206164647265737300000000000000006044820152606401610363565b61051f8333836109ff565b61055c5760405162461bcd60e51b815260206004820152600e60248201526d1b9bdd08185d5d1a1bdc9a5e995960921b6044820152606401610363565b6001600160a01b0383165f90815260026020526040812080549161057f83610fff565b90915550506001600160a01b0382165f9081526002602052604081208054916105a783611014565b90915550505f81815260016020908152604080832080546001600160a01b038088166001600160a01b031992831681179093556003909452828520805490911690559051849391928716917fddf252ad1be2c89b69c2b068fc378daa952ba7f163c4a11628f55a4df523b3ef91a4505050565b73f39fd6e51aad88f6f4ce6ab8827279cfffb922665f61271061063f846101f461102c565b6106499190611043565b90509250929050565b61065c8282610a6f565b5050565b61066b838383610466565b6001600160a01b0382163b15806107105750604051630a85bd0160e11b8082523360048301526001600160a01b03858116602484015260448301849052608060648401525f608484015290919084169063150b7a029060a4016020604051808303815f875af11580156106e0573d5f803e3d5ffd5b505050506040513d601f19601f820116820180604052508101906107049190611062565b6001600160e01b031916145b61074f5760405162461bcd60e51b815260206004820152601060248201526f1d5b9cd85999481c9958da5c1a595b9d60821b6044820152606401610363565b505050565b5f818152600160205260409020546001600160a01b031633146107a55760405162461bcd60e51b81526020600482015260096024820152683737ba1037bbb732b960b91b6044820152606401610363565b6107ae81610ba4565b50565b5f818152600160205260409020546001600160a01b03168061080b5760405162461bcd60e51b81526020600482015260136024820152721d1bdad95b88191bd95cdb89dd08195e1a5cdd606a1b6044820152606401610363565b919050565b5f6001600160a01b03821661085e5760405162461bcd60e51b81526020600482015260146024820152736f776e6572203d207a65726f206164647265737360601b6044820152606401610363565b506001600160a01b03165f9081526002602052604090205490565b335f8181526004602090815260408083206001600160a01b03871680855290835292819020805460ff191686151590811790915590519081529192917f17307eab39ab6107e8899845ad3d59bd9653f200f220920489ca2b5937696c31910160405180910390a35050565b6108ef858585610466565b6001600160a01b0384163b15806109835750604051630a85bd0160e11b808252906001600160a01b0386169063150b7a02906109379033908a9089908990899060040161107d565b6020604051808303815f875af1158015610953573d5f803e3d5ffd5b505050506040513d601f19601f820116820180604052508101906109779190611062565b6001600160e01b031916145b6109c25760405162461bcd60e51b815260206004820152601060248201526f1d5b9cd85999481c9958da5c1a595b9d60821b6044820152606401610363565b5050505050565b60605f6109d583610c9e565b9050806040516020016109e891906110cf565b604051602081830303815290604052915050919050565b5f836001600160a01b0316836001600160a01b03161480610a4457506001600160a01b038085165f9081526004602090815260408083209387168352929052205460ff165b80610a6757505f828152600360205260409020546001600160a01b038481169116145b949350505050565b6001600160a01b038216610abc5760405162461bcd60e51b81526020600482015260146024820152736d696e7420746f207a65726f206164647265737360601b6044820152606401610363565b5f818152600160205260409020546001600160a01b031615610b115760405162461bcd60e51b815260206004820152600e60248201526d185b1c9958591e481b5a5b9d195960921b6044820152606401610363565b6001600160a01b0382165f908152600260205260408120805491610b3483611014565b90915550505f80549080610b4783611014565b90915550505f8181526001602052604080822080546001600160a01b0319166001600160a01b03861690811790915590518392907fddf252ad1be2c89b69c2b068fc378daa952ba7f163c4a11628f55a4df523b3ef908290a45050565b5f818152600160205260409020546001600160a01b031680610bf55760405162461bcd60e51b815260206004820152600a6024820152691b9bdd081b5a5b9d195960b21b6044820152606401610363565b6001600160a01b0381165f908152600260205260408120805460019290610c1d908490611106565b90915550505f80549080610c3083610fff565b90915550505f82815260016020908152604080832080546001600160a01b031990811690915560039092528083208054909216909155518391906001600160a01b038416907fddf252ad1be2c89b69c2b068fc378daa952ba7f163c4a11628f55a4df523b3ef908390a45050565b6060815f03610cc45750506040805180820190915260018152600360fc1b602082015290565b815f5b8115610ced5780610cd781611014565b9150610ce69050600a83611043565b9150610cc7565b5f8167ffffffffffffffff811115610d0757610d07611119565b6040519080825280601f01601f191660200182016040528015610d31576020820181803683370190505b509050815b8515610dbb57610d47600182611106565b90505f610d55600a88611043565b610d6090600a61102c565b610d6a9088611106565b610d7590603061112d565b90505f8160f81b905080848481518110610d9157610d91611146565b60200101906001600160f81b03191690815f1a905350610db2600a89611043565b97505050610d36565b50949350505050565b6001600160e01b0319811681146107ae575f80fd5b5f60208284031215610de9575f80fd5b8135610df481610dc4565b9392505050565b602081525f82518060208401528060208501604085015e5f604082850101526040601f19601f83011684010191505092915050565b5f60208284031215610e40575f80fd5b5035919050565b80356001600160a01b038116811461080b575f80fd5b5f8060408385031215610e6e575f80fd5b610e7783610e47565b946020939093013593505050565b5f805f60608486031215610e97575f80fd5b610ea084610e47565b9250610eae60208501610e47565b9150604084013590509250925092565b5f8060408385031215610ecf575f80fd5b50508035926020909101359150565b5f60208284031215610eee575f80fd5b610df482610e47565b5f8060408385031215610f08575f80fd5b610f1183610e47565b915060208301358015158114610f25575f80fd5b809150509250929050565b5f805f805f60808688031215610f44575f80fd5b610f4d86610e47565b9450610f5b60208701610e47565b935060408601359250606086013567ffffffffffffffff80821115610f7e575f80fd5b818801915088601f830112610f91575f80fd5b813581811115610f9f575f80fd5b896020828501011115610fb0575f80fd5b9699959850939650602001949392505050565b5f8060408385031215610fd4575f80fd5b610fdd83610e47565b915061064960208401610e47565b634e487b7160e01b5f52601160045260245ffd5b5f8161100d5761100d610feb565b505f190190565b5f6001820161102557611025610feb565b5060010190565b808202811582820484141761030857610308610feb565b5f8261105d57634e487b7160e01b5f52601260045260245ffd5b500490565b5f60208284031215611072575f80fd5b8151610df481610dc4565b6001600160a01b038681168252851660208201526040810184905260806060820181905281018290525f828460a08401375f60a0848401015260a0601f19601f85011683010190509695505050505050565b7468747470733a2f2f7365692e696f2f746f6b656e2f60581b81525f82518060208501601585015e5f920160150191825250919050565b8181038181111561030857610308610feb565b634e487b7160e01b5f52604160045260245ffd5b60ff818116838216019081111561030857610308610feb565b634e487b7160e01b5f52603260045260245ffdfea26469706673582212202e81ec51afbca7ea32c4bb521a21cb001a7bc3b7510763dc279d1d18a5d94cec64736f6c63430008190033",
  "linkReferences": {},
  "deployedLinkReferences": {}
}