{
  "_format": "hh-sol-artifact-1",
  "contractName": "EVMCompatibilityTester",
  "sourceName": "contracts/src/EVMCompatibilityTester.sol",
  "abi": [
    {
      "inputs": [],
      "stateMutability": "nonpayable",
      "type": "constructor"
    },
    {
      "anonymous": false,
      "inputs": [
        {
          "indexed": false,
          "internalType": "string",
          "name": "action",
          "type": "string"
        },
        {
          "indexed": true,
          "internalType": "address",
          "name": "performer",
          "type": "address"
        }
      ],
      "name": "ActionPerformed",
      "type": "event"
    },
    {
      "anonymous": false,
      "inputs": [
        {
          "indexed": true,
          "internalType": "address",
          "name": "performer",
          "type": "address"
        }
      ],
      "name": "AddressSet",
      "type": "event"
    },
    {
      "anonymous": false,
      "inputs": [
        {
          "indexed": false,
          "internalType": "address",
          "name": "performer",
          "type": "address"
        },
        {
          "indexed": false,
          "internalType": "bool",
          "name": "value",
          "type": "bool"
        }
      ],
      "name": "BoolSet",
      "type": "event"
    },
    {
      "anonymous": false,
      "inputs": [
        {
          "indexed": true,
          "internalType": "address",
          "name": "performer",
          "type": "address"
        },
        {
          "indexed": false,
          "internalType": "bytes",
          "name": "value",
          "type": "bytes"
        }
      ],
      "name": "BytesSet",
      "type": "event"
    },
    {
      "anonymous": false,
      "inputs": [
        {
          "indexed": true,
          "internalType": "string",
          "name": "str",
          "type": "string"
        },
        {
          "indexed": false,
          "internalType": "bool",
          "name": "flag",
          "type": "bool"
        },
        {
          "indexed": true,
          "internalType": "address",
          "name": "addr",
          "type": "address"
        },
        {
          "indexed": true,
          "internalType": "uint256",
          "name": "num",
          "type": "uint256"
        },
        {
          "indexed": false,
          "internalType": "bytes",
          "name": "data",
          "type": "bytes"
        }
      ],
      "name": "DummyEvent",
      "type": "event"
    },
    {
      "anonymous": false,
      "inputs": [
        {
          "indexed": true,
          "internalType": "address",
          "name": "performer",
          "type": "address"
        },
        {
          "indexed": false,
          "internalType": "uint256",
          "name": "value",
          "type": "uint256"
        }
      ],
      "name": "LogIndexEvent",
      "type": "event"
    },
    {
      "anonymous": false,
      "inputs": [
        {
          "indexed": true,
          "internalType": "address",
          "name": "performer",
          "type": "address"
        },
        {
          "indexed": false,
          "internalType": "string",
          "name": "value",
          "type": "string"
        }
      ],
      "name": "StringSet",
      "type": "event"
    },
    {
      "anonymous": false,
      "inputs": [
        {
          "indexed": true,
          "internalType": "address",
          "name": "performer",
          "type": "address"
        },
        {
          "indexed": false,
          "internalType": "uint256",
          "name": "value",
          "type": "uint256"
        }
      ],
      "name": "Uint256Set",
      "type": "event"
    },
    {
      "inputs": [
        {
          "internalType": "uint256",
          "name": "a",
          "type": "uint256"
        },
        {
          "internalType": "uint256",
          "name": "b",
          "type": "uint256"
        }
      ],
      "name": "addNumbers",
      "outputs": [
        {
          "internalType": "uint256",
          "name": "sum",
          "type": "uint256"
        }
      ],
      "stateMutability": "pure",
      "type": "function"
    },
    {
      "inputs": [],
      "name": "addressVar",
      "outputs": [
        {
          "internalType": "address",
          "name": "",
          "type": "address"
        }
      ],
      "stateMutability": "view",
      "type": "function"
    },
    {
      "inputs": [
        {
          "internalType": "address",
          "name": "",
          "type": "address"
        }
      ],
      "name": "balances",
      "outputs": [
        {
          "internalType": "uint256",
          "name": "",
          "type": "uint256"
        }
      ],
      "stateMutability": "view",
      "type": "function"
    },
    {
      "inputs": [],
      "name": "boolVar",
      "outputs": [
        {
          "internalType": "bool",
          "name": "",
          "type": "bool"
        }
      ],
      "stateMutability": "view",
      "type": "function"
    },
    {
      "inputs": [],
      "name": "bytesVar",
      "outputs": [
        {
          "internalType": "bytes",
          "name": "",
          "type": "bytes"
        }
      ],
      "stateMutability": "view",
      "type": "function"
    },
    {
      "inputs": [
        {
          "internalType": "address",
          "name": "contractAddress",
          "type": "address"
        },
        {
          "internalType": "bytes",
          "name": "data",
          "type": "bytes"
        }
      ],
      "name": "callAnotherContract",
      "outputs": [],
      "stateMutability": "nonpayable",
      "type": "function"
    },
    {
      "inputs": [
        {
          "internalType": "string",
          "name": "name",
          "type": "string"
        },
        {
          "internalType": "string",
          "name": "symbol",
          "type": "string"
        }
      ],
      "name": "createToken",
      "outputs": [],
      "stateMutability": "nonpayable",
      "type": "function"
    },
    {
      "inputs": [],
      "name": "depositEther",
      "outputs": [],
      "stateMutability": "payable",
      "type": "function"
    },
    {
      "inputs": [
        {
          "internalType": "string",
          "name": "str",
          "type": "string"
        },
        {
          "internalType": "uint256",
          "name": "num",
          "type": "uint256"
        }
      ],
      "name": "emitDummyEvent",
      "outputs": [],
      "stateMutability": "nonpayable",
      "type": "function"
    },
    {
      "inputs": [
        {
          "internalType": "uint256",
          "name": "count",
          "type": "uint256"
        }
      ],
      "name": "emitMultipleLogs",
      "outputs": [],
      "stateMutability": "nonpayable",
      "type": "function"
    },
    {
      "inputs": [
        {
          "internalType": "uint256",
          "name": "",
          "type": "uint256"
        }
      ],
      "name": "gasGuzzler",
      "outputs": [
        {
          "internalType": "uint256",
          "name": "",
          "type": "uint256"
        }
      ],
      "stateMutability": "view",
      "type": "function"
    },
    {
      "inputs": [],
      "name": "gasLimit",
      "outputs": [
        {
          "internalType": "uint256",
          "name": "",
          "type": "uint256"
        }
      ],
      "stateMutability": "view",
      "type": "function"
    },
    {
      "inputs": [],
      "name": "getBlobBaseFee",
      "outputs": [
        {
          "internalType": "uint256",
          "name": "fee",
          "type": "uint256"
        }
      ],
      "stateMutability": "view",
      "type": "function"
    },
    {
      "inputs": [],
      "name": "getBlockProperties",
      "outputs": [
        {
          "internalType": "bytes32",
          "name": "blockHash",
          "type": "bytes32"
        },
        {
          "internalType": "address payable",
          "name": "coinbase",
          "type": "address"
        },
        {
          "internalType": "uint256",
          "name": "prevrandao",
          "type": "uint256"
        },
        {
          "internalType": "uint256",
          "name": "gaslimit",
          "type": "uint256"
        },
        {
          "internalType": "uint256",
          "name": "number",
          "type": "uint256"
        },
        {
          "internalType": "uint256",
          "name": "timestamp",
          "type": "uint256"
        }
      ],
      "stateMutability": "view",
      "type": "function"
    },
    {
      "inputs": [],
      "name": "getContractBalance",
      "outputs": [
        {
          "internalType": "uint256",
          "name": "contractBalance",
          "type": "uint256"
        }
      ],
      "stateMutability": "view",
      "type": "function"
    },
    {
      "inputs": [],
      "name": "getGasLimit",
      "outputs": [
        {
          "internalType": "uint256",
          "name": "",
          "type": "uint256"
        }
      ],
      "stateMutability": "view",
      "type": "function"
    },
    {
      "inputs": [],
      "name": "lastMsgDetails",
      "outputs": [
        {
          "internalType": "address",
          "name": "sender",
          "type": "address"
        },
        {
          "internalType": "uint256",
          "name": "value",
          "type": "uint256"
        },
        {
          "internalType": "bytes",
          "name": "data",
          "type": "bytes"
        },
        {
          "internalType": "uint256",
          "name": "gas",
          "type": "uint256"
        }
      ],
      "stateMutability": "view",
      "type": "function"
    },
    {
      "inputs": [],
      "name": "lastTimestamp",
      "outputs": [
        {
          "internalType": "uint256",
          "name": "",
          "type": "uint256"
        }
      ],
      "stateMutability": "view",
      "type": "function"
    },
    {
      "inputs": [],
      "name": "owner",
      "outputs": [
        {
          "internalType": "address",
          "name": "",
          "type": "address"
        }
      ],
      "stateMutability": "view",
      "type": "function"
    },
    {
      "inputs": [
        {
          "internalType": "uint256",
          "name": "storageIndex",
          "type": "uint256"
        }
      ],
      "name": "readFromStorage",
      "outputs": [
        {
          "internalType": "uint256",
          "name": "data",
          "type": "uint256"
        }
      ],
      "stateMutability": "view",
      "type": "function"
    },
    {
      "inputs": [],
      "name": "retrieveData",
      "outputs": [
        {
          "internalType": "uint256",
          "name": "",
          "type": "uint256"
        }
      ],
      "stateMutability": "view",
      "type": "function"
    },
    {
      "inputs": [
        {
          "internalType": "bool",
          "name": "value",
          "type": "bool"
        }
      ],
      "name": "revertIfFalse",
      "outputs": [],
      "stateMutability": "nonpayable",
      "type": "function"
    },
    {
      "inputs": [
        {
          "internalType": "address payable",
          "name": "recipient",
          "type": "address"
        },
        {
          "internalType": "uint256",
          "name": "amount",
          "type": "uint256"
        }
      ],
      "name": "sendEther",
      "outputs": [],
      "stateMutability": "payable",
      "type": "function"
    },
    {
      "inputs": [],
      "name": "setAddressVar",
      "outputs": [],
      "stateMutability": "nonpayable",
      "type": "function"
    },
    {
      "inputs": [
        {
          "internalType": "address",
          "name": "user",
          "type": "address"
        },
        {
          "internalType": "uint256",
          "name": "amount",
          "type": "uint256"
        }
      ],
      "name": "setBalance",
      "outputs": [],
      "stateMutability": "nonpayable",
      "type": "function"
    },
    {
      "inputs": [
        {
          "internalType": "bool",
          "name": "value",
          "type": "bool"
        }
      ],
      "name": "setBoolVar",
      "outputs": [],
      "stateMutability": "nonpayable",
      "type": "function"
    },
    {
      "inputs": [
        {
          "internalType": "bytes",
          "name": "value",
          "type": "bytes"
        }
      ],
      "name": "setBytesVar",
      "outputs": [],
      "stateMutability": "nonpayable",
      "type": "function"
    },
    {
      "inputs": [],
      "name": "setGasLimit",
      "outputs": [],
      "stateMutability": "nonpayable",
      "type": "function"
    },
    {
      "inputs": [
        {
          "internalType": "string",
          "name": "value",
          "type": "string"
        }
      ],
      "name": "setStringVar",
      "outputs": [],
      "stateMutability": "nonpayable",
      "type": "function"
    },
    {
      "inputs": [],
      "name": "setTimestamp",
      "outputs": [],
      "stateMutability": "nonpayable",
      "type": "function"
    },
    {
      "inputs": [
        {
          "internalType": "uint256",
          "name": "value",
          "type": "uint256"
        }
      ],
      "name": "setUint256Var",
      "outputs": [],
      "stateMutability": "nonpayable",
      "type": "function"
    },
    {
      "inputs": [
        {
          "internalType": "uint256",
          "name": "data",
          "type": "uint256"
        }
      ],
      "name": "storeData",
      "outputs": [],
      "stateMutability": "nonpayable",
      "type": "function"
    },
    {
      "inputs": [],
      "name": "storeMsgProperties",
      "outputs": [],
      "stateMutability": "payable",
      "type": "function"
    },
    {
      "inputs": [],
      "name": "stringVar",
      "outputs": [
        {
          "internalType": "string",
          "name": "",
          "type": "string"
        }
      ],
      "stateMutability": "view",
      "type": "function"
    },
    {
      "inputs": [],
      "name": "uint256Var",
      "outputs": [
        {
          "internalType": "uint256",
          "name": "",
          "type": "uint256"
        }
      ],
      "stateMutability": "view",
      "type": "function"
    },
    {
      "inputs": [
        {
          "internalType": "uint256",
          "name": "gasToUse",
          "type": "uint256"
        }
      ],
      "name": "useGas",
      "outputs": [],
      "stateMutability": "nonpayable",
      "type": "function"
    }
  ],
  "bytecode": "0x6080604052348015600e575f80fd5b50600280546001600160a01b0319163317905561233d8061002e5f395ff3fe608060405260043610610207575f3560e01c8063711ecf5911610113578063c4c891371161009d578063e30443bc1161006d578063e30443bc146105be578063e9074ca3146105dd578063ef9fc50b146105f1578063f614eb311461060f578063f68016b714610624575f80fd5b8063c4c891371461054e578063cae123a51461056d578063cfbd56b81461058c578063d40e607a146105a0575f80fd5b8063906d7a33116100e3578063906d7a33146104c357806398ea5fca146104e2578063999c697b146104ea578063af22db8714610533578063c1756a2c1461053b575f80fd5b8063711ecf59146104425780637cd71305146104615780638da5cb5b146104805780638eb43aa11461049f575f80fd5b806335f7fb2b116101945780634cb06467116101645780634cb06467146103c857806351e0556d146103dd57806363d95843146103f057806364d1ed851461040f5780636f9fb98a14610430575f80fd5b806335f7fb2b1461032d578063361725c91461035d57806338ceda511461037c57806349cad0fa14610391575f80fd5b80631a93d1c3116101da5780631a93d1c31461029e5780631f6d6ef7146102b257806327e235e3146102c45780632f2f2d56146102ef578063359c71c71461030e575f80fd5b8063022952b81461020b5780630f6cf82e1461022c57806316b951761461026a57806319d8ac6114610289575b5f80fd5b348015610216575f80fd5b5061022a610225366004610efc565b610639565b005b348015610237575f80fd5b50610257610246366004610efc565b60016020525f908152604090205481565b6040519081526020015b60405180910390f35b348015610275575f80fd5b5061022a610284366004610efc565b6106b5565b348015610294575f80fd5b5061025760065481565b3480156102a9575f80fd5b50600d54610257565b3480156102bd575f80fd5b504a610257565b3480156102cf575f80fd5b506102576102de366004610f27565b600b6020525f908152604090205481565b3480156102fa575f80fd5b5061022a610309366004610fe6565b610714565b348015610319575f80fd5b5061022a610328366004610efc565b6107b9565b348015610338575f80fd5b5060035461034d90600160a01b900460ff1681565b6040519015158152602001610261565b348015610368575f80fd5b5061022a610377366004611046565b610804565b348015610387575f80fd5b5061022a42600655565b34801561039c575f80fd5b506003546103b0906001600160a01b031681565b6040516001600160a01b039091168152602001610261565b3480156103d3575f80fd5b5061022a45600d55565b3480156103e8575f80fd5b505f54610257565b3480156103fb575f80fd5b5061022a61040a366004611089565b61090b565b34801561041a575f80fd5b50610423610951565b60405161026191906110f1565b34801561043b575f80fd5b5047610257565b34801561044d575f80fd5b5061022a61045c366004611110565b6109dd565b34801561046c575f80fd5b5061022a61047b36600461112b565b610a41565b34801561048b575f80fd5b506002546103b0906001600160a01b031681565b3480156104aa575f80fd5b506104b3610ac4565b604051610261949392919061116d565b3480156104ce575f80fd5b5061022a6104dd366004611110565b610b6d565b61022a610bc7565b3480156104f5575f80fd5b506104fe610c08565b604080519687526001600160a01b039095166020870152938501929092526060840152608083015260a082015260c001610261565b61022a610c2e565b61022a6105493660046111a4565b610cd7565b348015610559575f80fd5b5061022a610568366004610efc565b610db0565b348015610578575f80fd5b5061022a610587366004611089565b610de7565b348015610597575f80fd5b5061022a610e2d565b3480156105ab575f80fd5b506102576105ba366004610efc565b5490565b3480156105c9575f80fd5b5061022a6105d83660046111a4565b610e6c565b3480156105e8575f80fd5b50610423610ee2565b3480156105fc575f80fd5b5061025761060b3660046111ce565b0190565b34801561061a575f80fd5b5061025760045481565b34801561062f575f80fd5b50610257600d5481565b5f805a90505f5b838110156106af5760408051436020808301919091524482840152606080830187905283518084039091018152608090920190925280519101208361068481611202565b5f83815260016020526040812084905590955090505a90506106a6818561121a565b92505050610640565b50505050565b5f81905560405133907fdeff57a6906278d2af998b73b3debf5ca6d109b7d958d00944210de6bcb0be4190610709906020808252600b908201526a11185d184814dd1bdc995960aa1b604082015260600190565b60405180910390a250565b5f828260405161072390610eef565b61072e929190611233565b604051809103905ff080158015610747573d5f803e3d5ffd5b5060405163a9059cbb60e01b8152336004820152606460248201529091506001600160a01b0382169063a9059cbb906044016020604051808303815f875af1158015610795573d5f803e3d5ffd5b505050506040513d601f19601f820116820180604052508101906106af9190611260565b5f5b818110156108005760405181815233907f1d56bb73275c853de44e9df37f18d598fb03f68762368689dbc37018e108f3209060200160405180910390a26001016107bb565b5050565b5f826001600160a01b03168260405161081d9190611292565b5f604051808303815f865af19150503d805f8114610856576040519150601f19603f3d011682016040523d82523d5f602084013e61085b565b606091505b505090508061089f5760405162461bcd60e51b815260206004820152600b60248201526a10d85b1b0819985a5b195960aa1b60448201526064015b60405180910390fd5b336001600160a01b03167fdeff57a6906278d2af998b73b3debf5ca6d109b7d958d00944210de6bcb0be416040516108fe90602080825260139082015272125b9d195c8b50dbdb9d1c9858dd0810d85b1b606a1b604082015260600190565b60405180910390a2505050565b60056109178282611320565b50336001600160a01b03167f0eb73cec9d23675a546442d52054f0a7c29e9b7dc418be5fe6a9d27bc32653da8260405161070991906110f1565b600c805461095e9061129d565b80601f016020809104026020016040519081016040528092919081815260200182805461098a9061129d565b80156109d55780601f106109ac576101008083540402835291602001916109d5565b820191905f5260205f20905b8154815290600101906020018083116109b857829003601f168201915b505050505081565b6003805460ff60a01b1916600160a01b83151590810291909117909155600114610a3e5760405162461bcd60e51b815260206004820152601260248201527176616c7565206d757374206265207472756560701b6044820152606401610896565b50565b5f82604051602001610a5391906113e0565b604051602081830303815290604052905081336001600160a01b031684604051610a7d9190611292565b60405180910390207fd632124d524b809213439b68637a671e9ddc0dd39fff81cd675df5cd5224f46c600185604051610ab7929190611400565b60405180910390a4505050565b60078054600854600980546001600160a01b03909316939192610ae69061129d565b80601f0160208091040260200160405190810160405280929190818152602001828054610b129061129d565b8015610b5d5780601f10610b3457610100808354040283529160200191610b5d565b820191905f5260205f20905b815481529060010190602001808311610b4057829003601f168201915b5050505050908060030154905084565b6003805460ff60a01b1916600160a01b831515908102919091179091556040805133815260208101929092527f036285defb58e7bdfda894dd4f86e1c7c826522ae0755f0017a2155b4c58022e910160405180910390a150565b5f3411610c065760405162461bcd60e51b815260206004820152600d60248201526c139bc8115d1a195c881cd95b9d609a1b6044820152606401610896565b565b5f8080808080610c1960014361121a565b40964196504495504594504393504292509050565b6040518060800160405280336001600160a01b031681526020013481526020015f368080601f0160208091040260200160405190810160405280939291908181526020018383808284375f920191909152505050908252506020015a90528051600780546001600160a01b0319166001600160a01b0390921691909117815560208201516008556040820151600990610cc79082611320565b5060608201518160030155905050565b6002546001600160a01b03163314610d315760405162461bcd60e51b815260206004820152601960248201527f4f6e6c79206f776e65722063616e2073656e64204574686572000000000000006044820152606401610896565b80471015610d785760405162461bcd60e51b8152602060048201526014602482015273496e73756666696369656e742062616c616e636560601b6044820152606401610896565b6040516001600160a01b0383169082156108fc029083905f818181858888f19350505050158015610dab573d5f803e3d5ffd5b505050565b600481905560405181815233907f72949b2b6e0735d04837f50b4944f1e7d232157e1ba3881f7d9b1c4bdaf819e590602001610709565b600c610df38282611320565b50336001600160a01b03167f207581bd3aa1e9bfb6f28be9ad4aa22c3c7e9b49133a9ad8c8ea47384a617de48260405161070991906110f1565b600380546001600160a01b031916339081179091556040517f88749aed52403b3a8ec7763273d5665190617f46de93b08aab1cc6ec80dc2fb4905f90a2565b6001600160a01b0382165f908152600b6020526040908190208290555133907fdeff57a6906278d2af998b73b3debf5ca6d109b7d958d00944210de6bcb0be4190610ed6906020808252600b908201526a10985b185b98d94814d95d60aa1b604082015260600190565b60405180910390a25050565b6005805461095e9061129d565b610eed8061141b83390190565b5f60208284031215610f0c575f80fd5b5035919050565b6001600160a01b0381168114610a3e575f80fd5b5f60208284031215610f37575f80fd5b8135610f4281610f13565b9392505050565b634e487b7160e01b5f52604160045260245ffd5b5f82601f830112610f6c575f80fd5b813567ffffffffffffffff80821115610f8757610f87610f49565b604051601f8301601f19908116603f01168101908282118183101715610faf57610faf610f49565b81604052838152866020858801011115610fc7575f80fd5b836020870160208301375f602085830101528094505050505092915050565b5f8060408385031215610ff7575f80fd5b823567ffffffffffffffff8082111561100e575f80fd5b61101a86838701610f5d565b9350602085013591508082111561102f575f80fd5b5061103c85828601610f5d565b9150509250929050565b5f8060408385031215611057575f80fd5b823561106281610f13565b9150602083013567ffffffffffffffff81111561107d575f80fd5b61103c85828601610f5d565b5f60208284031215611099575f80fd5b813567ffffffffffffffff8111156110af575f80fd5b6110bb84828501610f5d565b949350505050565b5f81518084528060208401602086015e5f602082860101526020601f19601f83011685010191505092915050565b602081525f610f4260208301846110c3565b8015158114610a3e575f80fd5b5f60208284031215611120575f80fd5b8135610f4281611103565b5f806040838503121561113c575f80fd5b823567ffffffffffffffff811115611152575f80fd5b61115e85828601610f5d565b95602094909401359450505050565b60018060a01b0385168152836020820152608060408201525f61119360808301856110c3565b905082606083015295945050505050565b5f80604083850312156111b5575f80fd5b82356111c081610f13565b946020939093013593505050565b5f80604083850312156111df575f80fd5b50508035926020909101359150565b634e487b7160e01b5f52601160045260245ffd5b5f60018201611213576112136111ee565b5060010190565b8181038181111561122d5761122d6111ee565b92915050565b604081525f61124560408301856110c3565b828103602084015261125781856110c3565b95945050505050565b5f60208284031215611270575f80fd5b8151610f4281611103565b5f81518060208401855e5f93019283525090919050565b5f610f42828461127b565b600181811c908216806112b157607f821691505b6020821081036112cf57634e487b7160e01b5f52602260045260245ffd5b50919050565b601f821115610dab57805f5260205f20601f840160051c810160208510156112fa5750805b601f840160051c820191505b81811015611319575f8155600101611306565b5050505050565b815167ffffffffffffffff81111561133a5761133a610f49565b61134e81611348845461129d565b846112d5565b602080601f831160018114611381575f841561136a5750858301515b5f19600386901b1c1916600185901b1785556113d8565b5f85815260208120601f198616915b828110156113af57888601518255948401946001909101908401611390565b50858210156113cc57878501515f19600388901b60f8161c191681555b505060018460011b0185555b505050505050565b5f6113eb828461127b565b64427974657360d81b81526005019392505050565b8215158152604060208201525f6110bb60408301846110c356fe608060405234801561000f575f80fd5b50604051610eed380380610eed83398101604081905261002e916102f8565b338282600361003d83826103db565b50600461004a82826103db565b5050506001600160a01b03811661007b57604051631e4fbdf760e01b81525f60048201526024015b60405180910390fd5b610084816100ad565b506100a6336100956012600a610590565b6100a1906103e86105a2565b6100fe565b50506105cc565b600580546001600160a01b038381166001600160a01b0319831681179093556040519116919082907f8be0079c531659141344cd1fd0a4f28419497f9722a3daafe3b4186f6b6457e0905f90a35050565b6001600160a01b0382166101275760405163ec442f0560e01b81525f6004820152602401610072565b6101325f8383610136565b5050565b6001600160a01b038316610160578060025f82825461015591906105b9565b909155506101d09050565b6001600160a01b0383165f90815260208190526040902054818110156101b25760405163391434e360e21b81526001600160a01b03851660048201526024810182905260448101839052606401610072565b6001600160a01b0384165f9081526020819052604090209082900390555b6001600160a01b0382166101ec5760028054829003905561020a565b6001600160a01b0382165f9081526020819052604090208054820190555b816001600160a01b0316836001600160a01b03167fddf252ad1be2c89b69c2b068fc378daa952ba7f163c4a11628f55a4df523b3ef8360405161024f91815260200190565b60405180910390a3505050565b634e487b7160e01b5f52604160045260245ffd5b5f82601f83011261027f575f80fd5b81516001600160401b03808211156102995761029961025c565b604051601f8301601f19908116603f011681019082821181831017156102c1576102c161025c565b816040528381528660208588010111156102d9575f80fd5b8360208701602083015e5f602085830101528094505050505092915050565b5f8060408385031215610309575f80fd5b82516001600160401b038082111561031f575f80fd5b61032b86838701610270565b93506020850151915080821115610340575f80fd5b5061034d85828601610270565b9150509250929050565b600181811c9082168061036b57607f821691505b60208210810361038957634e487b7160e01b5f52602260045260245ffd5b50919050565b601f8211156103d657805f5260205f20601f840160051c810160208510156103b45750805b601f840160051c820191505b818110156103d3575f81556001016103c0565b50505b505050565b81516001600160401b038111156103f4576103f461025c565b610408816104028454610357565b8461038f565b602080601f83116001811461043b575f84156104245750858301515b5f19600386901b1c1916600185901b178555610492565b5f85815260208120601f198616915b828110156104695788860151825594840194600190910190840161044a565b508582101561048657878501515f19600388901b60f8161c191681555b505060018460011b0185555b505050505050565b634e487b7160e01b5f52601160045260245ffd5b600181815b808511156104e857815f19048211156104ce576104ce61049a565b808516156104db57918102915b93841c93908002906104b3565b509250929050565b5f826104fe5750600161058a565b8161050a57505f61058a565b8160018114610520576002811461052a57610546565b600191505061058a565b60ff84111561053b5761053b61049a565b50506001821b61058a565b5060208310610133831016604e8410600b8410161715610569575081810a61058a565b61057383836104ae565b805f19048211156105865761058661049a565b0290505b92915050565b5f61059b83836104f0565b9392505050565b808202811582820484141761058a5761058a61049a565b8082018082111561058a5761058a61049a565b610914806105d95f395ff3fe608060405234801561000f575f80fd5b50600436106100cb575f3560e01c8063715018a611610088578063a9059cbb11610063578063a9059cbb14610199578063dd62ed3e146101ac578063e30443bc146101e4578063f2fde38b146101f7575f80fd5b8063715018a61461016c5780638da5cb5b1461017657806395d89b4114610191575f80fd5b806306fdde03146100cf578063095ea7b3146100ed57806318160ddd1461011057806323b872dd14610122578063313ce5671461013557806370a0823114610144575b5f80fd5b6100d761020a565b6040516100e4919061076a565b60405180910390f35b6101006100fb3660046107ba565b61029a565b60405190151581526020016100e4565b6002545b6040519081526020016100e4565b6101006101303660046107e2565b6102b3565b604051601281526020016100e4565b61011461015236600461081b565b6001600160a01b03165f9081526020819052604090205490565b6101746102d6565b005b6005546040516001600160a01b0390911681526020016100e4565b6100d76102e9565b6101006101a73660046107ba565b6102f8565b6101146101ba36600461083b565b6001600160a01b039182165f90815260016020908152604080832093909416825291909152205490565b6101746101f23660046107ba565b610305565b61017461020536600461081b565b610360565b6060600380546102199061086c565b80601f01602080910402602001604051908101604052809291908181526020018280546102459061086c565b80156102905780601f1061026757610100808354040283529160200191610290565b820191905f5260205f20905b81548152906001019060200180831161027357829003601f168201915b5050505050905090565b5f336102a78185856103a2565b60019150505b92915050565b5f336102c08582856103af565b6102cb85858561042b565b506001949350505050565b6102de610488565b6102e75f6104b5565b565b6060600480546102199061086c565b5f336102a781858561042b565b61030d610488565b6001600160a01b0382165f9081526020819052604090205480821115610345576103408361033b83856108b8565b610506565b505050565b80821015610340576103408361035b84846108b8565b61053e565b610368610488565b6001600160a01b03811661039657604051631e4fbdf760e01b81525f60048201526024015b60405180910390fd5b61039f816104b5565b50565b6103408383836001610572565b6001600160a01b038381165f908152600160209081526040808320938616835292905220545f19811015610425578181101561041757604051637dc7a0d960e11b81526001600160a01b0384166004820152602481018290526044810183905260640161038d565b61042584848484035f610572565b50505050565b6001600160a01b03831661045457604051634b637e8f60e11b81525f600482015260240161038d565b6001600160a01b03821661047d5760405163ec442f0560e01b81525f600482015260240161038d565b610340838383610644565b6005546001600160a01b031633146102e75760405163118cdaa760e01b815233600482015260240161038d565b600580546001600160a01b038381166001600160a01b0319831681179093556040519116919082907f8be0079c531659141344cd1fd0a4f28419497f9722a3daafe3b4186f6b6457e0905f90a35050565b6001600160a01b03821661052f5760405163ec442f0560e01b81525f600482015260240161038d565b61053a5f8383610644565b5050565b6001600160a01b03821661056757604051634b637e8f60e11b81525f600482015260240161038d565b61053a825f83610644565b6001600160a01b03841661059b5760405163e602df0560e01b81525f600482015260240161038d565b6001600160a01b0383166105c457604051634a1406b160e11b81525f600482015260240161038d565b6001600160a01b038085165f908152600160209081526040808320938716835292905220829055801561042557826001600160a01b0316846001600160a01b03167f8c5be1e5ebec7d5bd14f71427d1e84f3dd0314c0f7b2291e5b200ac8c7c3b9258460405161063691815260200190565b60405180910390a350505050565b6001600160a01b03831661066e578060025f82825461066391906108cb565b909155506106de9050565b6001600160a01b0383165f90815260208190526040902054818110156106c05760405163391434e360e21b81526001600160a01b0385166004820152602481018290526044810183905260640161038d565b6001600160a01b0384165f9081526020819052604090209082900390555b6001600160a01b0382166106fa57600280548290039055610718565b6001600160a01b0382165f9081526020819052604090208054820190555b816001600160a01b0316836001600160a01b03167fddf252ad1be2c89b69c2b068fc378daa952ba7f163c4a11628f55a4df523b3ef8360405161075d91815260200190565b60405180910390a3505050565b602081525f82518060208401528060208501604085015e5f604082850101526040601f19601f83011684010191505092915050565b80356001600160a01b03811681146107b5575f80fd5b919050565b5f80604083850312156107cb575f80fd5b6107d48361079f565b946020939093013593505050565b5f805f606084860312156107f4575f80fd5b6107fd8461079f565b925061080b6020850161079f565b9150604084013590509250925092565b5f6020828403121561082b575f80fd5b6108348261079f565b9392505050565b5f806040838503121561084c575f80fd5b6108558361079f565b91506108636020840161079f565b90509250929050565b600181811c9082168061088057607f821691505b60208210810361089e57634e487b7160e01b5f52602260045260245ffd5b50919050565b634e487b7160e01b5f52601160045260245ffd5b818103818111156102ad576102ad6108a4565b808201808211156102ad576102ad6108a456fea26469706673582212200c2f6fe96328389da38b85686f53643029b9a79f70bc997498a75c0c6de26f4c64736f6c63430008190033a2646970667358221220b24d1002767f6b8e4c406d5575e906fbf8ac0ceec3dca6fd57b1df4e0695a8f164736f6c63430008190033",
  "linkReferences": {},
  "deployedLinkReferences": {}
}