{
  "_format": "hh-sol-artifact-1",
  "contractName": "NativeSeiTokensERC20",
  "sourceName": "src/NativeSeiTokensERC20.sol",
  "abi": [
    {
      "inputs": [
        {
          "internalType": "string",
          "name": "denom_",
          "type": "string"
        }
      ],
      "stateMutability": "nonpayable",
      "type": "constructor"
    },
    {
      "inputs": [
        {
          "internalType": "address",
          "name": "spender",
          "type": "address"
        },
        {
          "internalType": "uint256",
          "name": "allowance",
          "type": "uint256"
        },
        {
          "internalType": "uint256",
          "name": "needed",
          "type": "uint256"
        }
      ],
      "name": "ERC20InsufficientAllowance",
      "type": "error"
    },
    {
      "inputs": [
        {
          "internalType": "address",
          "name": "sender",
          "type": "address"
        },
        {
          "internalType": "uint256",
          "name": "balance",
          "type": "uint256"
        },
        {
          "internalType": "uint256",
          "name": "needed",
          "type": "uint256"
        }
      ],
      "name": "ERC20InsufficientBalance",
      "type": "error"
    },
    {
      "inputs": [
        {
          "internalType": "address",
          "name": "approver",
          "type": "address"
        }
      ],
      "name": "ERC20InvalidApprover",
      "type": "error"
    },
    {
      "inputs": [
        {
          "internalType": "address",
          "name": "receiver",
          "type": "address"
        }
      ],
      "name": "ERC20InvalidReceiver",
      "type": "error"
    },
    {
      "inputs": [
        {
          "internalType": "address",
          "name": "sender",
          "type": "address"
        }
      ],
      "name": "ERC20InvalidSender",
      "type": "error"
    },
    {
      "inputs": [
        {
          "internalType": "address",
          "name": "spender",
          "type": "address"
        }
      ],
      "name": "ERC20InvalidSpender",
      "type": "error"
    },
    {
      "anonymous": false,
      "inputs": [
        {
          "indexed": true,
          "internalType": "address",
          "name": "owner",
          "type": "address"
        },
        {
          "indexed": true,
          "internalType": "address",
          "name": "spender",
          "type": "address"
        },
        {
          "indexed": false,
          "internalType": "uint256",
          "name": "value",
          "type": "uint256"
        }
      ],
      "name": "Approval",
      "type": "event"
    },
    {
      "anonymous": false,
      "inputs": [
        {
          "indexed": true,
          "internalType": "address",
          "name": "from",
          "type": "address"
        },
        {
          "indexed": true,
          "internalType": "address",
          "name": "to",
          "type": "address"
        },
        {
          "indexed": false,
          "internalType": "uint256",
          "name": "value",
          "type": "uint256"
        }
      ],
      "name": "Transfer",
      "type": "event"
    },
    {
      "inputs": [],
      "name": "BankPrecompile",
      "outputs": [
        {
          "internalType": "contract IBank",
          "name": "",
          "type": "address"
        }
      ],
      "stateMutability": "view",
      "type": "function"
    },
    {
      "inputs": [
        {
          "internalType": "address",
          "name": "owner",
          "type": "address"
        },
        {
          "internalType": "address",
          "name": "spender",
          "type": "address"
        }
      ],
      "name": "allowance",
      "outputs": [
        {
          "internalType": "uint256",
          "name": "",
          "type": "uint256"
        }
      ],
      "stateMutability": "view",
      "type": "function"
    },
    {
      "inputs": [
        {
          "internalType": "address",
          "name": "spender",
          "type": "address"
        },
        {
          "internalType": "uint256",
          "name": "value",
          "type": "uint256"
        }
      ],
      "name": "approve",
      "outputs": [
        {
          "internalType": "bool",
          "name": "",
          "type": "bool"
        }
      ],
      "stateMutability": "nonpayable",
      "type": "function"
    },
    {
      "inputs": [
        {
          "internalType": "address",
          "name": "account",
          "type": "address"
        }
      ],
      "name": "balanceOf",
      "outputs": [
        {
          "internalType": "uint256",
          "name": "",
          "type": "uint256"
        }
      ],
      "stateMutability": "view",
      "type": "function"
    },
    {
      "inputs": [],
      "name": "decimals",
      "outputs": [
        {
          "internalType": "uint8",
          "name": "",
          "type": "uint8"
        }
      ],
      "stateMutability": "view",
      "type": "function"
    },
    {
      "inputs": [],
      "name": "denom",
      "outputs": [
        {
          "internalType": "string",
          "name": "",
          "type": "string"
        }
      ],
      "stateMutability": "view",
      "type": "function"
    },
    {
      "inputs": [],
      "name": "name",
      "outputs": [
        {
          "internalType": "string",
          "name": "",
          "type": "string"
        }
      ],
      "stateMutability": "view",
      "type": "function"
    },
    {
      "inputs": [],
      "name": "symbol",
      "outputs": [
        {
          "internalType": "string",
          "name": "",
          "type": "string"
        }
      ],
      "stateMutability": "view",
      "type": "function"
    },
    {
      "inputs": [],
      "name": "totalSupply",
      "outputs": [
        {
          "internalType": "uint256",
          "name": "",
          "type": "uint256"
        }
      ],
      "stateMutability": "view",
      "type": "function"
    },
    {
      "inputs": [
        {
          "internalType": "address",
          "name": "to",
          "type": "address"
        },
        {
          "internalType": "uint256",
          "name": "value",
          "type": "uint256"
        }
      ],
      "name": "transfer",
      "outputs": [
        {
          "internalType": "bool",
          "name": "",
          "type": "bool"
        }
      ],
      "stateMutability": "nonpayable",
      "type": "function"
    },
    {
      "inputs": [
        {
          "internalType": "address",
          "name": "from",
          "type": "address"
        },
        {
          "internalType": "address",
          "name": "to",
          "type": "address"
        },
        {
          "internalType": "uint256",
          "name": "value",
          "type": "uint256"
        }
      ],
      "name": "transferFrom",
      "outputs": [
        {
          "internalType": "bool",
          "name": "",
          "type": "bool"
        }
      ],
      "stateMutability": "nonpayable",
      "type": "function"
    }
  ],
  "bytecode": "0x60806040523480156200001157600080fd5b5060405162000fcb38038062000fcb8339810160408190526200003491620000b0565b6040805160208082018352600080835283519182019093529182529060036200005e838262000214565b5060046200006d828262000214565b5050600680546001600160a01b03191661100117905550600562000092828262000214565b5050620002e0565b634e487b7160e01b600052604160045260246000fd5b60006020808385031215620000c457600080fd5b82516001600160401b0380821115620000dc57600080fd5b818501915085601f830112620000f157600080fd5b8151818111156200010657620001066200009a565b604051601f8201601f19908116603f011681019083821181831017156200013157620001316200009a565b8160405282815288868487010111156200014a57600080fd5b600093505b828410156200016e57848401860151818501870152928501926200014f565b600086848301015280965050505050505092915050565b600181811c908216806200019a57607f821691505b602082108103620001bb57634e487b7160e01b600052602260045260246000fd5b50919050565b601f8211156200020f57600081815260208120601f850160051c81016020861015620001ea5750805b601f850160051c820191505b818110156200020b57828155600101620001f6565b5050505b505050565b81516001600160401b038111156200023057620002306200009a565b620002488162000241845462000185565b84620001c1565b602080601f831160018114620002805760008415620002675750858301515b600019600386901b1c1916600185901b1785556200020b565b600085815260208120601f198616915b82811015620002b15788860151825594840194600190910190840162000290565b5085821015620002d05787850151600019600388901b60f8161c191681555b5050505050600190811b01905550565b610cdb80620002f06000396000f3fe608060405234801561001057600080fd5b50600436106100c95760003560e01c8063566732c111610081578063a9059cbb1161005b578063a9059cbb14610198578063c370b042146101ab578063dd62ed3e146101b357600080fd5b8063566732c11461015257806370a082311461017d57806395d89b411461019057600080fd5b806318160ddd116100b257806318160ddd1461010f57806323b872dd14610125578063313ce5671461013857600080fd5b806306fdde03146100ce578063095ea7b3146100ec575b600080fd5b6100d66101ec565b6040516100e39190610922565b60405180910390f35b6100ff6100fa366004610971565b610281565b60405190151581526020016100e3565b610117610299565b6040519081526020016100e3565b6100ff61013336600461099b565b610325565b610140610349565b60405160ff90911681526020016100e3565b600654610165906001600160a01b031681565b6040516001600160a01b0390911681526020016100e3565b61011761018b3660046109d7565b6103d5565b6100d6610469565b6100ff6101a6366004610971565b6104b4565b6100d66104c2565b6101176101c13660046109f9565b6001600160a01b03918216600090815260016020908152604080832093909416825291909152205490565b6006546040517f5b43bc990000000000000000000000000000000000000000000000000000000081526060916001600160a01b031690635b43bc999061023790600590600401610b0a565b600060405180830381865afa158015610254573d6000803e3d6000fd5b505050506040513d6000823e601f3d908101601f1916820160405261027c9190810190610b33565b905090565b60003361028f818585610550565b5060019392505050565b6006546040517f6923a1fd0000000000000000000000000000000000000000000000000000000081526000916001600160a01b031690636923a1fd906102e490600590600401610b0a565b602060405180830381865afa158015610301573d6000803e3d6000fd5b505050506040513d601f19601f8201168201806040525081019061027c9190610be0565b600033610333858285610562565b61033e8585856105fe565b506001949350505050565b6006546040517f3b2b32040000000000000000000000000000000000000000000000000000000081526000916001600160a01b031690633b2b32049061039490600590600401610b0a565b602060405180830381865afa1580156103b1573d6000803e3d6000fd5b505050506040513d601f19601f8201168201806040525081019061027c9190610bf9565b6006546040517f16cadeab0000000000000000000000000000000000000000000000000000000081526000916001600160a01b0316906316cadeab90610422908590600590600401610c1c565b602060405180830381865afa15801561043f573d6000803e3d6000fd5b505050506040513d601f19601f820116820180604052508101906104639190610be0565b92915050565b6006546040517f41bb05590000000000000000000000000000000000000000000000000000000081526060916001600160a01b0316906341bb05599061023790600590600401610b0a565b60003361028f8185856105fe565b600580546104cf90610a2c565b80601f01602080910402602001604051908101604052809291908181526020018280546104fb90610a2c565b80156105485780601f1061051d57610100808354040283529160200191610548565b820191906000526020600020905b81548152906001019060200180831161052b57829003601f168201915b505050505081565b61055d838383600161068f565b505050565b6001600160a01b0383811660009081526001602090815260408083209386168352929052205460001981146105f857818110156105e9576040517ffb8f41b20000000000000000000000000000000000000000000000000000000081526001600160a01b038416600482015260248101829052604481018390526064015b60405180910390fd5b6105f88484848403600061068f565b50505050565b6001600160a01b038316610641576040517f96c6fd1e000000000000000000000000000000000000000000000000000000008152600060048201526024016105e0565b6001600160a01b038216610684576040517fec442f05000000000000000000000000000000000000000000000000000000008152600060048201526024016105e0565b61055d838383610796565b6001600160a01b0384166106d2576040517fe602df05000000000000000000000000000000000000000000000000000000008152600060048201526024016105e0565b6001600160a01b038316610715576040517f94280d62000000000000000000000000000000000000000000000000000000008152600060048201526024016105e0565b6001600160a01b03808516600090815260016020908152604080832093871683529290522082905580156105f857826001600160a01b0316846001600160a01b03167f8c5be1e5ebec7d5bd14f71427d1e84f3dd0314c0f7b2291e5b200ac8c7c3b9258460405161078891815260200190565b60405180910390a350505050565b6006546040517f5c05961b0000000000000000000000000000000000000000000000000000000081526000916001600160a01b031690635c05961b906107e790879087906005908890600401610c46565b6020604051808303816000875af1158015610806573d6000803e3d6000fd5b505050506040513d601f19601f8201168201806040525081019061082a9190610c83565b9050806108b9576040517f08c379a000000000000000000000000000000000000000000000000000000000815260206004820152602560248201527f4e6174697665536569546f6b656e7345524332303a207472616e73666572206660448201527f61696c656400000000000000000000000000000000000000000000000000000060648201526084016105e0565b826001600160a01b0316846001600160a01b03167fddf252ad1be2c89b69c2b068fc378daa952ba7f163c4a11628f55a4df523b3ef8460405161078891815260200190565b60005b83811015610919578181015183820152602001610901565b50506000910152565b60208152600082518060208401526109418160408501602087016108fe565b601f01601f19169190910160400192915050565b80356001600160a01b038116811461096c57600080fd5b919050565b6000806040838503121561098457600080fd5b61098d83610955565b946020939093013593505050565b6000806000606084860312156109b057600080fd5b6109b984610955565b92506109c760208501610955565b9150604084013590509250925092565b6000602082840312156109e957600080fd5b6109f282610955565b9392505050565b60008060408385031215610a0c57600080fd5b610a1583610955565b9150610a2360208401610955565b90509250929050565b600181811c90821680610a4057607f821691505b602082108103610a6057634e487b7160e01b600052602260045260246000fd5b50919050565b8054600090600181811c9080831680610a8057607f831692505b60208084108203610aa157634e487b7160e01b600052602260045260246000fd5b83885260208801828015610abc5760018114610ad257610afd565b60ff198716825285151560051b82019750610afd565b60008981526020902060005b87811015610af757815484820152908601908401610ade565b83019850505b5050505050505092915050565b6020815260006109f26020830184610a66565b634e487b7160e01b600052604160045260246000fd5b600060208284031215610b4557600080fd5b815167ffffffffffffffff80821115610b5d57600080fd5b818401915084601f830112610b7157600080fd5b815181811115610b8357610b83610b1d565b604051601f8201601f19908116603f01168101908382118183101715610bab57610bab610b1d565b81604052828152876020848701011115610bc457600080fd5b610bd58360208301602088016108fe565b979650505050505050565b600060208284031215610bf257600080fd5b5051919050565b600060208284031215610c0b57600080fd5b815160ff811681146109f257600080fd5b6001600160a01b0383168152604060208201526000610c3e6040830184610a66565b949350505050565b60006001600160a01b03808716835280861660208401525060806040830152610c726080830185610a66565b905082606083015295945050505050565b600060208284031215610c9557600080fd5b815180151581146109f257600080fdfea264697066735822122007d0f2fcdad7a394cb9fa9340010d4d6f383a9f2b168e71721477b06a5c7244464736f6c63430008140033",
  "linkReferences": {},
  "deployedLinkReferences": {}
}