{
  "_format": "hh-sol-artifact-1",
  "contractName": "Box",
  "sourceName": "contracts/src/Box.sol",
  "abi": [
    {
      "anonymous": false,
      "inputs": [
        {
          "indexed": false,
          "internalType": "uint256",
          "name": "value",
          "type": "uint256"
        }
      ],
      "name": "ValueChanged",
      "type": "event"
    },
    {
      "inputs": [],
      "name": "boxIncr",
      "outputs": [],
      "stateMutability": "nonpayable",
      "type": "function"
    },
    {
      "inputs": [],
      "name": "retrieve",
      "outputs": [
        {
          "internalType": "uint256",
          "name": "",
          "type": "uint256"
        }
      ],
      "stateMutability": "view",
      "type": "function"
    },
    {
      "inputs": [
        {
          "internalType": "uint256",
          "name": "value",
          "type": "uint256"
        }
      ],
      "name": "store",
      "outputs": [],
      "stateMutability": "nonpayable",
      "type": "function"
    }
  ],
  "bytecode": "0x6080604052348015600e575f80fd5b506101668061001c5f395ff3fe608060405234801561000f575f80fd5b506004361061003f575f3560e01c80632e64cec1146100435780636057361d14610057578063aedf15101461006c575b5f80fd5b5f5460405190815260200160405180910390f35b61006a6100653660046100f4565b610074565b005b61006a6100ae565b5f8190556040518181527f93fe6d397c74fdf1402a8b72e47b68512f0510d7b98a4bc4cbdf6ac7108b3c599060200160405180910390a150565b5f546100bb90600161010b565b5f8190556040519081527f93fe6d397c74fdf1402a8b72e47b68512f0510d7b98a4bc4cbdf6ac7108b3c599060200160405180910390a1565b5f60208284031215610104575f80fd5b5035919050565b8082018082111561012a57634e487b7160e01b5f52601160045260245ffd5b9291505056fea2646970667358221220627370da38efbdade2f20fe9c89f5c9c08cb5a229ad0b22c6a74331e073a723664736f6c63430008190033",
  "linkReferences": {},
  "deployedLinkReferences": {}
}