{
  "_format": "hh-sol-artifact-1",
  "contractName": "MultiSender",
  "sourceName": "contracts/src/MultiSender.sol",
  "abi": [
    {
      "anonymous": false,
      "inputs": [
        {
          "indexed": true,
          "internalType": "address",
          "name": "sender",
          "type": "address"
        },
        {
          "indexed": false,
          "internalType": "address",
          "name": "recipient",
          "type": "address"
        },
        {
          "indexed": false,
          "internalType": "uint256",
          "name": "amount",
          "type": "uint256"
        }
      ],
      "name": "SendSuccessful",
      "type": "event"
    },
    {
      "inputs": [
        {
          "internalType": "address[]",
          "name": "recipients",
          "type": "address[]"
        },
        {
          "internalType": "uint256[]",
          "name": "amounts",
          "type": "uint256[]"
        }
      ],
      "name": "batchTransfer",
      "outputs": [],
      "stateMutability": "payable",
      "type": "function"
    },
    {
      "inputs": [
        {
          "internalType": "address[]",
          "name": "recipients",
          "type": "address[]"
        },
        {
          "internalType": "uint256",
          "name": "amount",
          "type": "uint256"
        }
      ],
      "name": "batchTransferEqualAmount",
      "outputs": [],
      "stateMutability": "payable",
      "type": "function"
    }
  ],
  "bytecode": "0x6080604052348015600e575f80fd5b506105a68061001c5f395ff3fe608060405260043610610028575f3560e01c8063121dab481461002c57806388d695b214610041575b5f80fd5b61003f61003a36600461043c565b610054565b005b61003f61004f366004610484565b6101c9565b5f61005f83836104ff565b9050803410156100b15760405162461bcd60e51b8152602060048201526018602482015277125b9cdd59999a58da595b9d08185b5bdd5b9d081cd95b9d60421b60448201526064015b60405180910390fd5b5f5b838110156101c2575f8585838181106100ce576100ce61051c565b90506020020160208101906100e39190610530565b6001600160a01b03166108fc8590811502906040515f60405180830381858888f1935050505090508061014f5760405162461bcd60e51b81526020600482015260146024820152732330b4b632b2103a379039b2b7321022ba3432b960611b60448201526064016100a8565b337f06bb333186f51cf59367948a8c5aea0543cb579eb485f23dc70b8d078161901f8787858181106101835761018361051c565b90506020020160208101906101989190610530565b604080516001600160a01b039092168252602082018890520160405180910390a2506001016100b3565b5050505050565b8281146102245760405162461bcd60e51b815260206004820152602360248201527f526563697069656e747320616e6420616d6f756e747320646f206e6f74206d616044820152620e8c6d60eb1b60648201526084016100a8565b5f805b8281101561025d578383828181106102415761024161051c565b9050602002013582610253919061055d565b9150600101610227565b50803410156102a95760405162461bcd60e51b8152602060048201526018602482015277125b9cdd59999a58da595b9d08185b5bdd5b9d081cd95b9d60421b60448201526064016100a8565b5f5b848110156103ec575f8686838181106102c6576102c661051c565b90506020020160208101906102db9190610530565b6001600160a01b03166108fc8686858181106102f9576102f961051c565b9050602002013590811502906040515f60405180830381858888f1935050505090508061035f5760405162461bcd60e51b81526020600482015260146024820152732330b4b632b2103a379039b2b7321022ba3432b960611b60448201526064016100a8565b337f06bb333186f51cf59367948a8c5aea0543cb579eb485f23dc70b8d078161901f8888858181106103935761039361051c565b90506020020160208101906103a89190610530565b8787868181106103ba576103ba61051c565b604080516001600160a01b0390951685526020918202939093013590840152500160405180910390a2506001016102ab565b505050505050565b5f8083601f840112610404575f80fd5b50813567ffffffffffffffff81111561041b575f80fd5b6020830191508360208260051b8501011115610435575f80fd5b9250929050565b5f805f6040848603121561044e575f80fd5b833567ffffffffffffffff811115610464575f80fd5b610470868287016103f4565b909790965060209590950135949350505050565b5f805f8060408587031215610497575f80fd5b843567ffffffffffffffff808211156104ae575f80fd5b6104ba888389016103f4565b909650945060208701359150808211156104d2575f80fd5b506104df878288016103f4565b95989497509550505050565b634e487b7160e01b5f52601160045260245ffd5b8082028115828204841417610516576105166104eb565b92915050565b634e487b7160e01b5f52603260045260245ffd5b5f60208284031215610540575f80fd5b81356001600160a01b0381168114610556575f80fd5b9392505050565b80820180821115610516576105166104eb56fea2646970667358221220abc48f6cb64f2a8b6f77e9a6c64dc05688f7c1e274a08c3071895a657ead570964736f6c63430008190033",
  "linkReferences": {},
  "deployedLinkReferences": {}
}